{
  "contractName": "banco",
  "abi": [
    {
      "inputs": [
        {
          "internalType": "contract Token",
          "name": "_token",
          "type": "address"
        }
      ],
      "stateMutability": "nonpayable",
      "type": "constructor"
    },
    {
      "anonymous": false,
      "inputs": [
        {
          "indexed": true,
          "internalType": "address",
          "name": "user",
          "type": "address"
        },
        {
          "indexed": false,
          "internalType": "uint256",
          "name": "etherAmount",
          "type": "uint256"
        },
        {
          "indexed": false,
          "internalType": "uint256",
          "name": "timeSeart",
          "type": "uint256"
        }
      ],
      "name": "Deposit",
      "type": "event"
    },
    {
      "anonymous": false,
      "inputs": [
        {
          "indexed": true,
          "internalType": "address",
          "name": "user",
          "type": "address"
        },
        {
          "indexed": false,
          "internalType": "uint256",
          "name": "etherAmount",
          "type": "uint256"
        },
        {
          "indexed": false,
          "internalType": "uint256",
          "name": "depositTime",
          "type": "uint256"
        },
        {
          "indexed": false,
          "internalType": "uint256",
          "name": "interest",
          "type": "uint256"
        }
      ],
      "name": "Withdraw",
      "type": "event"
    },
    {
      "inputs": [
        {
          "internalType": "address",
          "name": "",
          "type": "address"
        }
      ],
      "name": "depositStart",
      "outputs": [
        {
          "internalType": "uint256",
          "name": "",
          "type": "uint256"
        }
      ],
      "stateMutability": "view",
      "type": "function",
      "constant": true
    },
    {
      "inputs": [
        {
          "internalType": "address",
          "name": "",
          "type": "address"
        }
      ],
      "name": "etherBalanceOf",
      "outputs": [
        {
          "internalType": "uint256",
          "name": "",
          "type": "uint256"
        }
      ],
      "stateMutability": "view",
      "type": "function",
      "constant": true
    },
    {
      "inputs": [
        {
          "internalType": "address",
          "name": "",
          "type": "address"
        }
      ],
      "name": "isDeposited",
      "outputs": [
        {
          "internalType": "bool",
          "name": "",
          "type": "bool"
        }
      ],
      "stateMutability": "view",
      "type": "function",
      "constant": true
    },
    {
      "inputs": [],
      "name": "deposit",
      "outputs": [],
      "stateMutability": "payable",
      "type": "function",
      "payable": true
    },
    {
      "inputs": [],
      "name": "withdraw",
      "outputs": [],
      "stateMutability": "nonpayable",
      "type": "function"
    }
  ],
  "bytecode": "0x608060405234801561001057600080fd5b50604051610cbb380380610cbb8339818101604052810190610032919061008d565b806000806101000a81548173ffffffffffffffffffffffffffffffffffffffff021916908373ffffffffffffffffffffffffffffffffffffffff16021790555050610111565b600081519050610087816100fa565b92915050565b60006020828403121561009f57600080fd5b60006100ad84828501610078565b91505092915050565b60006100c1826100da565b9050919050565b60006100d3826100b6565b9050919050565b600073ffffffffffffffffffffffffffffffffffffffff82169050919050565b610103816100c8565b811461010e57600080fd5b50565b610b9b806101206000396000f3fe608060405260043610610067576000357c010000000000000000000000000000000000000000000000000000000090048063179fc99f1461006c5780633ccfd60b146100a957806373732024146100c0578063d0e30db0146100fd578063ff87930a14610107575b600080fd5b34801561007857600080fd5b50610093600480360381019061008e9190610787565b610144565b6040516100a09190610967565b60405180910390f35b3480156100b557600080fd5b506100be61015c565b005b3480156100cc57600080fd5b506100e760048036038101906100e29190610787565b610507565b6040516100f491906108ec565b60405180910390f35b610105610527565b005b34801561011357600080fd5b5061012e60048036038101906101299190610787565b61075a565b60405161013b9190610967565b60405180910390f35b60026020528060005260406000206000915090505481565b60011515600360003373ffffffffffffffffffffffffffffffffffffffff1673ffffffffffffffffffffffffffffffffffffffff16815260200190815260200160002060009054906101000a900460ff161515146101ef576040517f08c379a00000000000000000000000000000000000000000000000000000000081526004016101e690610927565b60405180910390fd5b6000600260003373ffffffffffffffffffffffffffffffffffffffff1673ffffffffffffffffffffffffffffffffffffffff1681526020019081526020016000205490506000600160003373ffffffffffffffffffffffffffffffffffffffff1673ffffffffffffffffffffffffffffffffffffffff16815260200190815260200160002054426102809190610aa3565b90506000662386f26fc1000090506000828261029c9190610a49565b90503373ffffffffffffffffffffffffffffffffffffffff166108fc600260003373ffffffffffffffffffffffffffffffffffffffff1673ffffffffffffffffffffffffffffffffffffffff168152602001908152602001600020549081150290604051600060405180830381858888f19350505050158015610323573d6000803e3d6000fd5b5060008054906101000a900473ffffffffffffffffffffffffffffffffffffffff1673ffffffffffffffffffffffffffffffffffffffff166340c10f1933836040518363ffffffff167c010000000000000000000000000000000000000000000000000000000002815260040161039b9291906108c3565b600060405180830381600087803b1580156103b557600080fd5b505af11580156103c9573d6000803e3d6000fd5b505050506000600160003373ffffffffffffffffffffffffffffffffffffffff1673ffffffffffffffffffffffffffffffffffffffff168152602001908152602001600020819055506000600260003373ffffffffffffffffffffffffffffffffffffffff1673ffffffffffffffffffffffffffffffffffffffff168152602001908152602001600020819055506000600360003373ffffffffffffffffffffffffffffffffffffffff1673ffffffffffffffffffffffffffffffffffffffff16815260200190815260200160002060006101000a81548160ff0219169083151502179055503373ffffffffffffffffffffffffffffffffffffffff167f02f25270a4d87bea75db541cdfe559334a275b4a233520ed6c0a2429667cca948585846040516104f9939291906109ab565b60405180910390a250505050565b60036020528060005260406000206000915054906101000a900460ff1681565b60001515600360003373ffffffffffffffffffffffffffffffffffffffff1673ffffffffffffffffffffffffffffffffffffffff16815260200190815260200160002060009054906101000a900460ff161515146105ba576040517f08c379a00000000000000000000000000000000000000000000000000000000081526004016105b190610947565b60405180910390fd5b662386f26fc10000341015610604576040517f08c379a00000000000000000000000000000000000000000000000000000000081526004016105fb90610907565b60405180910390fd5b34600260003373ffffffffffffffffffffffffffffffffffffffff1673ffffffffffffffffffffffffffffffffffffffff168152602001908152602001600020600082825461065391906109f3565b9250508190555042600160003373ffffffffffffffffffffffffffffffffffffffff1673ffffffffffffffffffffffffffffffffffffffff16815260200190815260200160002060008282546106a991906109f3565b925050819055506001600360003373ffffffffffffffffffffffffffffffffffffffff1673ffffffffffffffffffffffffffffffffffffffff16815260200190815260200160002060006101000a81548160ff0219169083151502179055503373ffffffffffffffffffffffffffffffffffffffff167f90890809c654f11d6e72a28fa60149770a0d11ec6c92319d6ceb2bb0a4ea1a153442604051610750929190610982565b60405180910390a2565b60016020528060005260406000206000915090505481565b60008135905061078181610b4e565b92915050565b60006020828403121561079957600080fd5b60006107a784828501610772565b91505092915050565b6107b981610ad7565b82525050565b6107c881610ae9565b82525050565b60006107db6021836109e2565b91507f4572726f722c20616d6f756e74206d757374206265203e3d20302e303120455460008301527f48000000000000000000000000000000000000000000000000000000000000006020830152604082019050919050565b6000610841601c836109e2565b91507f4572726f722c206163636f756e74206e6f74206465706f7369746564000000006000830152602082019050919050565b60006108816018836109e2565b91507f4572726f722c206163636f756e74206465706f736974656400000000000000006000830152602082019050919050565b6108bd81610b15565b82525050565b60006040820190506108d860008301856107b0565b6108e560208301846108b4565b9392505050565b600060208201905061090160008301846107bf565b92915050565b60006020820190508181036000830152610920816107ce565b9050919050565b6000602082019050818103600083015261094081610834565b9050919050565b6000602082019050818103600083015261096081610874565b9050919050565b600060208201905061097c60008301846108b4565b92915050565b600060408201905061099760008301856108b4565b6109a460208301846108b4565b9392505050565b60006060820190506109c060008301866108b4565b6109cd60208301856108b4565b6109da60408301846108b4565b949350505050565b600082825260208201905092915050565b60006109fe82610b15565b9150610a0983610b15565b9250827fffffffffffffffffffffffffffffffffffffffffffffffffffffffffffffffff03821115610a3e57610a3d610b1f565b5b828201905092915050565b6000610a5482610b15565b9150610a5f83610b15565b9250817fffffffffffffffffffffffffffffffffffffffffffffffffffffffffffffffff0483118215151615610a9857610a97610b1f565b5b828202905092915050565b6000610aae82610b15565b9150610ab983610b15565b925082821015610acc57610acb610b1f565b5b828203905092915050565b6000610ae282610af5565b9050919050565b60008115159050919050565b600073ffffffffffffffffffffffffffffffffffffffff82169050919050565b6000819050919050565b7f4e487b7100000000000000000000000000000000000000000000000000000000600052601160045260246000fd5b610b5781610ad7565b8114610b6257600080fd5b5056fea26469706673582212206d0700752b0c7d615c489ff4715be6635d0ab4474d13c540fd666b50599f6c9364736f6c63430008000033",
  "immutableReferences": {},
  "source": "// SPDX-License-Identifier: MIT\npragma solidity 0.8.0;\n\nimport \"./Token.sol\";\n\ncontract banco {\n\tToken private token;\n\tmapping(address => uint256) public depositStart;\n\tmapping(address => uint256) public etherBalanceOf;\n\tmapping(address => bool) public isDeposited;\n\n\tevent Deposit(address indexed user, uint256 etherAmount, uint256 timeSeart);\n\tevent Withdraw(\n\t\taddress indexed user,\n\t\tuint256 etherAmount,\n\t\tuint256 depositTime,\n\t\tuint256 interest\n\t);\n\n\tconstructor(Token _token) public {\n\t\ttoken = _token;\n\t}\n\n\tfunction deposit() public payable {\n\t\trequire(isDeposited[msg.sender] == false, \"Error, account deposited\");\n\t\trequire(msg.value >= 1e16, \"Error, amount must be >= 0.01 ETH\");\n\t\tetherBalanceOf[msg.sender] += msg.value;\n\t\tdepositStart[msg.sender] += block.timestamp;\n\t\tisDeposited[msg.sender] = true;\n\t\temit Deposit(msg.sender, msg.value, block.timestamp);\n\t}\n\n\tfunction withdraw() public {\n\t\trequire(isDeposited[msg.sender] == true, \"Error, account not deposited\");\n\t\tuint256 userBalance = etherBalanceOf[msg.sender];\n\t\tuint256 depositTime = block.timestamp - depositStart[msg.sender];\n\n\t\t//calculation below\n\t\t// uint256 interestPerSecond = (etherBalanceOf[msg.sender] / 1e16);\n\t\tuint256 interestPerSecond = 1e16;\n\t\tuint256 interest = interestPerSecond * depositTime;\n\n\t\tpayable(msg.sender).transfer(etherBalanceOf[msg.sender]);\n\t\ttoken.mint(msg.sender, interest);\n\t\tdepositStart[msg.sender] = 0;\n\t\tetherBalanceOf[msg.sender] = 0;\n\t\tisDeposited[msg.sender] = false;\n\t\temit Withdraw(msg.sender, userBalance, depositTime, interest);\n\t}\n}\n",
  "sourcePath": "/Users/cfred/Documents/GitHub/crypto_coin/src/contracts/Banco.sol",
  "compiler": {
    "name": "solc",
    "version": "0.8.0+commit.c7dfd78e.Emscripten.clang"
  },
  "schemaVersion": "3.2.3",
  "updatedAt": "2021-05-03T06:52:41.142Z",
  "networkType": "ethereum",
  "devdoc": {
    "kind": "dev",
    "methods": {},
    "version": 1
  },
  "userdoc": {
    "kind": "user",
    "methods": {},
    "version": 1
  }
}