{
  "contractName": "banco",
  "abi": [
    {
      "inputs": [
        {
          "internalType": "contract Token",
          "name": "_token",
          "type": "address"
        }
      ],
      "stateMutability": "nonpayable",
      "type": "constructor"
    },
    {
      "anonymous": false,
      "inputs": [
        {
          "indexed": true,
          "internalType": "address",
          "name": "user",
          "type": "address"
        },
        {
          "indexed": false,
          "internalType": "uint256",
          "name": "etherAmount",
          "type": "uint256"
        },
        {
          "indexed": false,
          "internalType": "uint256",
          "name": "timeSeart",
          "type": "uint256"
        }
      ],
      "name": "Deposit",
      "type": "event"
    },
    {
      "anonymous": false,
      "inputs": [
        {
          "indexed": true,
          "internalType": "address",
          "name": "user",
          "type": "address"
        },
        {
          "indexed": false,
          "internalType": "uint256",
          "name": "etherAmount",
          "type": "uint256"
        },
        {
          "indexed": false,
          "internalType": "uint256",
          "name": "depositTime",
          "type": "uint256"
        },
        {
          "indexed": false,
          "internalType": "uint256",
          "name": "interest",
          "type": "uint256"
        }
      ],
      "name": "Withdraw",
      "type": "event"
    },
    {
      "inputs": [
        {
          "internalType": "address",
          "name": "",
          "type": "address"
        }
      ],
      "name": "depositStart",
      "outputs": [
        {
          "internalType": "uint256",
          "name": "",
          "type": "uint256"
        }
      ],
      "stateMutability": "view",
      "type": "function",
      "constant": true
    },
    {
      "inputs": [
        {
          "internalType": "address",
          "name": "",
          "type": "address"
        }
      ],
      "name": "etherBalanceOf",
      "outputs": [
        {
          "internalType": "uint256",
          "name": "",
          "type": "uint256"
        }
      ],
      "stateMutability": "view",
      "type": "function",
      "constant": true
    },
    {
      "inputs": [
        {
          "internalType": "address",
          "name": "",
          "type": "address"
        }
      ],
      "name": "isDeposited",
      "outputs": [
        {
          "internalType": "bool",
          "name": "",
          "type": "bool"
        }
      ],
      "stateMutability": "view",
      "type": "function",
      "constant": true
    },
    {
      "inputs": [],
      "name": "deposit",
      "outputs": [],
      "stateMutability": "payable",
      "type": "function",
      "payable": true
    },
    {
      "inputs": [],
      "name": "withdraw",
      "outputs": [],
      "stateMutability": "nonpayable",
      "type": "function"
    }
  ],
  "bytecode": "0x608060405234801561001057600080fd5b50604051610d20380380610d208339818101604052810190610032919061008d565b806000806101000a81548173ffffffffffffffffffffffffffffffffffffffff021916908373ffffffffffffffffffffffffffffffffffffffff16021790555050610111565b600081519050610087816100fa565b92915050565b60006020828403121561009f57600080fd5b60006100ad84828501610078565b91505092915050565b60006100c1826100da565b9050919050565b60006100d3826100b6565b9050919050565b600073ffffffffffffffffffffffffffffffffffffffff82169050919050565b610103816100c8565b811461010e57600080fd5b50565b610c00806101206000396000f3fe608060405260043610610067576000357c010000000000000000000000000000000000000000000000000000000090048063179fc99f1461006c5780633ccfd60b146100a957806373732024146100c0578063d0e30db0146100fd578063ff87930a14610107575b600080fd5b34801561007857600080fd5b50610093600480360381019061008e919061078c565b610144565b6040516100a0919061096c565b60405180910390f35b3480156100b557600080fd5b506100be61015c565b005b3480156100cc57600080fd5b506100e760048036038101906100e2919061078c565b61050c565b6040516100f491906108f1565b60405180910390f35b61010561052c565b005b34801561011357600080fd5b5061012e6004803603810190610129919061078c565b61075f565b60405161013b919061096c565b60405180910390f35b60026020528060005260406000206000915090505481565b60011515600360003373ffffffffffffffffffffffffffffffffffffffff1673ffffffffffffffffffffffffffffffffffffffff16815260200190815260200160002060009054906101000a900460ff161515146101ef576040517f08c379a00000000000000000000000000000000000000000000000000000000081526004016101e69061092c565b60405180910390fd5b6000600260003373ffffffffffffffffffffffffffffffffffffffff1673ffffffffffffffffffffffffffffffffffffffff1681526020019081526020016000205490506000600160003373ffffffffffffffffffffffffffffffffffffffff1673ffffffffffffffffffffffffffffffffffffffff16815260200190815260200160002054426102809190610ad9565b905060006064836102919190610a4e565b9050600082826102a19190610a7f565b90503373ffffffffffffffffffffffffffffffffffffffff166108fc600260003373ffffffffffffffffffffffffffffffffffffffff1673ffffffffffffffffffffffffffffffffffffffff168152602001908152602001600020549081150290604051600060405180830381858888f19350505050158015610328573d6000803e3d6000fd5b5060008054906101000a900473ffffffffffffffffffffffffffffffffffffffff1673ffffffffffffffffffffffffffffffffffffffff166340c10f1933836040518363ffffffff167c01000000000000000000000000000000000000000000000000000000000281526004016103a09291906108c8565b600060405180830381600087803b1580156103ba57600080fd5b505af11580156103ce573d6000803e3d6000fd5b505050506000600160003373ffffffffffffffffffffffffffffffffffffffff1673ffffffffffffffffffffffffffffffffffffffff168152602001908152602001600020819055506000600260003373ffffffffffffffffffffffffffffffffffffffff1673ffffffffffffffffffffffffffffffffffffffff168152602001908152602001600020819055506000600360003373ffffffffffffffffffffffffffffffffffffffff1673ffffffffffffffffffffffffffffffffffffffff16815260200190815260200160002060006101000a81548160ff0219169083151502179055503373ffffffffffffffffffffffffffffffffffffffff167f02f25270a4d87bea75db541cdfe559334a275b4a233520ed6c0a2429667cca948585846040516104fe939291906109b0565b60405180910390a250505050565b60036020528060005260406000206000915054906101000a900460ff1681565b60001515600360003373ffffffffffffffffffffffffffffffffffffffff1673ffffffffffffffffffffffffffffffffffffffff16815260200190815260200160002060009054906101000a900460ff161515146105bf576040517f08c379a00000000000000000000000000000000000000000000000000000000081526004016105b69061094c565b60405180910390fd5b662386f26fc10000341015610609576040517f08c379a00000000000000000000000000000000000000000000000000000000081526004016106009061090c565b60405180910390fd5b34600260003373ffffffffffffffffffffffffffffffffffffffff1673ffffffffffffffffffffffffffffffffffffffff168152602001908152602001600020600082825461065891906109f8565b9250508190555042600160003373ffffffffffffffffffffffffffffffffffffffff1673ffffffffffffffffffffffffffffffffffffffff16815260200190815260200160002060008282546106ae91906109f8565b925050819055506001600360003373ffffffffffffffffffffffffffffffffffffffff1673ffffffffffffffffffffffffffffffffffffffff16815260200190815260200160002060006101000a81548160ff0219169083151502179055503373ffffffffffffffffffffffffffffffffffffffff167f90890809c654f11d6e72a28fa60149770a0d11ec6c92319d6ceb2bb0a4ea1a153442604051610755929190610987565b60405180910390a2565b60016020528060005260406000206000915090505481565b60008135905061078681610bb3565b92915050565b60006020828403121561079e57600080fd5b60006107ac84828501610777565b91505092915050565b6107be81610b0d565b82525050565b6107cd81610b1f565b82525050565b60006107e06021836109e7565b91507f4572726f722c20616d6f756e74206d757374206265203e3d20302e303120455460008301527f48000000000000000000000000000000000000000000000000000000000000006020830152604082019050919050565b6000610846601c836109e7565b91507f4572726f722c206163636f756e74206e6f74206465706f7369746564000000006000830152602082019050919050565b60006108866018836109e7565b91507f4572726f722c206163636f756e74206465706f736974656400000000000000006000830152602082019050919050565b6108c281610b4b565b82525050565b60006040820190506108dd60008301856107b5565b6108ea60208301846108b9565b9392505050565b600060208201905061090660008301846107c4565b92915050565b60006020820190508181036000830152610925816107d3565b9050919050565b6000602082019050818103600083015261094581610839565b9050919050565b6000602082019050818103600083015261096581610879565b9050919050565b600060208201905061098160008301846108b9565b92915050565b600060408201905061099c60008301856108b9565b6109a960208301846108b9565b9392505050565b60006060820190506109c560008301866108b9565b6109d260208301856108b9565b6109df60408301846108b9565b949350505050565b600082825260208201905092915050565b6000610a0382610b4b565b9150610a0e83610b4b565b9250827fffffffffffffffffffffffffffffffffffffffffffffffffffffffffffffffff03821115610a4357610a42610b55565b5b828201905092915050565b6000610a5982610b4b565b9150610a6483610b4b565b925082610a7457610a73610b84565b5b828204905092915050565b6000610a8a82610b4b565b9150610a9583610b4b565b9250817fffffffffffffffffffffffffffffffffffffffffffffffffffffffffffffffff0483118215151615610ace57610acd610b55565b5b828202905092915050565b6000610ae482610b4b565b9150610aef83610b4b565b925082821015610b0257610b01610b55565b5b828203905092915050565b6000610b1882610b2b565b9050919050565b60008115159050919050565b600073ffffffffffffffffffffffffffffffffffffffff82169050919050565b6000819050919050565b7f4e487b7100000000000000000000000000000000000000000000000000000000600052601160045260246000fd5b7f4e487b7100000000000000000000000000000000000000000000000000000000600052601260045260246000fd5b610bbc81610b0d565b8114610bc757600080fd5b5056fea2646970667358221220d585bf0f21ceb9da0479084da774516a30446db1137c71ba73ae83e366c1652a64736f6c63430008000033",
  "immutableReferences": {},
  "source": "// SPDX-License-Identifier: MIT\npragma solidity 0.8.0;\n\nimport \"./Token.sol\";\n\ncontract banco {\n  Token private token;\n  mapping(address => uint256) public depositStart;\n  mapping(address => uint256) public etherBalanceOf;\n  mapping(address => bool) public isDeposited;\n\n  event Deposit(address indexed user, uint256 etherAmount, uint256 timeSeart);\n  event Withdraw(\n    address indexed user,\n    uint256 etherAmount,\n    uint256 depositTime,\n    uint256 interest\n  );\n\n  constructor(Token _token) public {\n    token = _token;\n  }\n\n  function deposit() public payable {\n    require(isDeposited[msg.sender] == false, \"Error, account deposited\");\n    require(msg.value >= 1e16, \"Error, amount must be >= 0.01 ETH\");\n    etherBalanceOf[msg.sender] += msg.value;\n    depositStart[msg.sender] += block.timestamp;\n    isDeposited[msg.sender] = true;\n    emit Deposit(msg.sender, msg.value, block.timestamp);\n  }\n\n  function withdraw() public {\n    require(isDeposited[msg.sender] == true, \"Error, account not deposited\");\n    uint256 userBalance = etherBalanceOf[msg.sender];\n    uint256 depositTime = block.timestamp - depositStart[msg.sender];\n\n    //calculation below\n    // uint256 interestPerSecond = (etherBalanceOf[msg.sender] / 1e16);\n    uint256 interestPerSecond = userBalance / 100;\n    uint256 interest = interestPerSecond * depositTime;\n\n    payable(msg.sender).transfer(etherBalanceOf[msg.sender]);\n    token.mint(msg.sender, interest);\n    depositStart[msg.sender] = 0;\n    etherBalanceOf[msg.sender] = 0;\n    isDeposited[msg.sender] = false;\n    emit Withdraw(msg.sender, userBalance, depositTime, interest);\n  }\n}\n",
  "sourcePath": "/Users/philemon/crypto_coin/src/contracts/Banco.sol",
  "compiler": {
    "name": "solc",
    "version": "0.8.0+commit.c7dfd78e.Emscripten.clang"
  },
  "schemaVersion": "3.3.4",
  "updatedAt": "2021-05-13T10:01:04.971Z",
  "networkType": "ethereum",
  "devdoc": {
    "kind": "dev",
    "methods": {},
    "version": 1
  },
  "userdoc": {
    "kind": "user",
    "methods": {},
    "version": 1
  }
}