{
  "contractName": "BitEth",
  "abi": [
    {
      "inputs": [],
      "stateMutability": "nonpayable",
      "type": "constructor"
    },
    {
      "anonymous": false,
      "inputs": [
        {
          "indexed": true,
          "internalType": "address",
          "name": "owner",
          "type": "address"
        },
        {
          "indexed": true,
          "internalType": "address",
          "name": "approved",
          "type": "address"
        },
        {
          "indexed": true,
          "internalType": "uint256",
          "name": "tokenId",
          "type": "uint256"
        }
      ],
      "name": "Approval",
      "type": "event"
    },
    {
      "anonymous": false,
      "inputs": [
        {
          "indexed": true,
          "internalType": "address",
          "name": "owner",
          "type": "address"
        },
        {
          "indexed": true,
          "internalType": "address",
          "name": "operator",
          "type": "address"
        },
        {
          "indexed": false,
          "internalType": "bool",
          "name": "approved",
          "type": "bool"
        }
      ],
      "name": "ApprovalForAll",
      "type": "event"
    },
    {
      "anonymous": false,
      "inputs": [
        {
          "indexed": true,
          "internalType": "address",
          "name": "from",
          "type": "address"
        },
        {
          "indexed": true,
          "internalType": "address",
          "name": "to",
          "type": "address"
        },
        {
          "indexed": true,
          "internalType": "uint256",
          "name": "tokenId",
          "type": "uint256"
        }
      ],
      "name": "Transfer",
      "type": "event"
    },
    {
      "inputs": [
        {
          "internalType": "address",
          "name": "to",
          "type": "address"
        },
        {
          "internalType": "uint256",
          "name": "tokenId",
          "type": "uint256"
        }
      ],
      "name": "approve",
      "outputs": [],
      "stateMutability": "nonpayable",
      "type": "function"
    },
    {
      "inputs": [
        {
          "internalType": "address",
          "name": "owner",
          "type": "address"
        }
      ],
      "name": "balanceOf",
      "outputs": [
        {
          "internalType": "uint256",
          "name": "",
          "type": "uint256"
        }
      ],
      "stateMutability": "view",
      "type": "function"
    },
    {
      "inputs": [
        {
          "internalType": "uint256",
          "name": "tokenId",
          "type": "uint256"
        }
      ],
      "name": "getApproved",
      "outputs": [
        {
          "internalType": "address",
          "name": "",
          "type": "address"
        }
      ],
      "stateMutability": "view",
      "type": "function"
    },
    {
      "inputs": [
        {
          "internalType": "address",
          "name": "owner",
          "type": "address"
        },
        {
          "internalType": "address",
          "name": "operator",
          "type": "address"
        }
      ],
      "name": "isApprovedForAll",
      "outputs": [
        {
          "internalType": "bool",
          "name": "",
          "type": "bool"
        }
      ],
      "stateMutability": "view",
      "type": "function"
    },
    {
      "inputs": [
        {
          "internalType": "uint256",
          "name": "",
          "type": "uint256"
        }
      ],
      "name": "items",
      "outputs": [
        {
          "internalType": "string",
          "name": "itemName",
          "type": "string"
        },
        {
          "internalType": "uint256",
          "name": "id",
          "type": "uint256"
        },
        {
          "internalType": "address",
          "name": "owner",
          "type": "address"
        }
      ],
      "stateMutability": "view",
      "type": "function"
    },
    {
      "inputs": [],
      "name": "name",
      "outputs": [
        {
          "internalType": "string",
          "name": "",
          "type": "string"
        }
      ],
      "stateMutability": "view",
      "type": "function"
    },
    {
      "inputs": [
        {
          "internalType": "uint256",
          "name": "tokenId",
          "type": "uint256"
        }
      ],
      "name": "ownerOf",
      "outputs": [
        {
          "internalType": "address",
          "name": "",
          "type": "address"
        }
      ],
      "stateMutability": "view",
      "type": "function"
    },
    {
      "inputs": [
        {
          "internalType": "address",
          "name": "from",
          "type": "address"
        },
        {
          "internalType": "address",
          "name": "to",
          "type": "address"
        },
        {
          "internalType": "uint256",
          "name": "tokenId",
          "type": "uint256"
        }
      ],
      "name": "safeTransferFrom",
      "outputs": [],
      "stateMutability": "nonpayable",
      "type": "function"
    },
    {
      "inputs": [
        {
          "internalType": "address",
          "name": "from",
          "type": "address"
        },
        {
          "internalType": "address",
          "name": "to",
          "type": "address"
        },
        {
          "internalType": "uint256",
          "name": "tokenId",
          "type": "uint256"
        },
        {
          "internalType": "bytes",
          "name": "_data",
          "type": "bytes"
        }
      ],
      "name": "safeTransferFrom",
      "outputs": [],
      "stateMutability": "nonpayable",
      "type": "function"
    },
    {
      "inputs": [
        {
          "internalType": "address",
          "name": "operator",
          "type": "address"
        },
        {
          "internalType": "bool",
          "name": "approved",
          "type": "bool"
        }
      ],
      "name": "setApprovalForAll",
      "outputs": [],
      "stateMutability": "nonpayable",
      "type": "function"
    },
    {
      "inputs": [
        {
          "internalType": "bytes4",
          "name": "interfaceId",
          "type": "bytes4"
        }
      ],
      "name": "supportsInterface",
      "outputs": [
        {
          "internalType": "bool",
          "name": "",
          "type": "bool"
        }
      ],
      "stateMutability": "view",
      "type": "function"
    },
    {
      "inputs": [],
      "name": "symbol",
      "outputs": [
        {
          "internalType": "string",
          "name": "",
          "type": "string"
        }
      ],
      "stateMutability": "view",
      "type": "function"
    },
    {
      "inputs": [
        {
          "internalType": "uint256",
          "name": "index",
          "type": "uint256"
        }
      ],
      "name": "tokenByIndex",
      "outputs": [
        {
          "internalType": "uint256",
          "name": "",
          "type": "uint256"
        }
      ],
      "stateMutability": "view",
      "type": "function"
    },
    {
      "inputs": [
        {
          "internalType": "address",
          "name": "owner",
          "type": "address"
        },
        {
          "internalType": "uint256",
          "name": "index",
          "type": "uint256"
        }
      ],
      "name": "tokenOfOwnerByIndex",
      "outputs": [
        {
          "internalType": "uint256",
          "name": "",
          "type": "uint256"
        }
      ],
      "stateMutability": "view",
      "type": "function"
    },
    {
      "inputs": [
        {
          "internalType": "uint256",
          "name": "tokenId",
          "type": "uint256"
        }
      ],
      "name": "tokenURI",
      "outputs": [
        {
          "internalType": "string",
          "name": "",
          "type": "string"
        }
      ],
      "stateMutability": "view",
      "type": "function"
    },
    {
      "inputs": [],
      "name": "totalSupply",
      "outputs": [
        {
          "internalType": "uint256",
          "name": "",
          "type": "uint256"
        }
      ],
      "stateMutability": "view",
      "type": "function"
    },
    {
      "inputs": [
        {
          "internalType": "address",
          "name": "from",
          "type": "address"
        },
        {
          "internalType": "address",
          "name": "to",
          "type": "address"
        },
        {
          "internalType": "uint256",
          "name": "tokenId",
          "type": "uint256"
        }
      ],
      "name": "transferFrom",
      "outputs": [],
      "stateMutability": "nonpayable",
      "type": "function"
    },
    {
      "inputs": [
        {
          "internalType": "string",
          "name": "_itemName",
          "type": "string"
        }
      ],
      "name": "MintandBuy",
      "outputs": [],
      "stateMutability": "nonpayable",
      "type": "function"
    },
    {
      "inputs": [
        {
          "internalType": "address",
          "name": "_to",
          "type": "address"
        },
        {
          "internalType": "uint256",
          "name": "_tokenId",
          "type": "uint256"
        }
      ],
      "name": "transfer",
      "outputs": [],
      "stateMutability": "payable",
      "type": "function"
    },
    {
      "inputs": [],
      "name": "getItem",
      "outputs": [
        {
          "components": [
            {
              "internalType": "string",
              "name": "itemName",
              "type": "string"
            },
            {
              "internalType": "uint256",
              "name": "id",
              "type": "uint256"
            },
            {
              "internalType": "address",
              "name": "owner",
              "type": "address"
            }
          ],
          "internalType": "struct BitEth.Item[]",
          "name": "",
          "type": "tuple[]"
        }
      ],
      "stateMutability": "view",
      "type": "function"
    },
    {
      "inputs": [
        {
          "internalType": "uint256",
          "name": "_tokenId",
          "type": "uint256"
        }
      ],
      "name": "getowner",
      "outputs": [
        {
          "internalType": "address",
          "name": "",
          "type": "address"
        }
      ],
      "stateMutability": "view",
      "type": "function"
    },
    {
      "inputs": [
        {
          "internalType": "uint256",
          "name": "_tokenId",
          "type": "uint256"
        }
      ],
      "name": "getownertwo",
      "outputs": [
        {
          "internalType": "address",
          "name": "",
          "type": "address"
        }
      ],
      "stateMutability": "view",
      "type": "function"
    }
  ],
  "bytecode": "0x60806040523480156200001157600080fd5b506040518060400160405280600a81526020017f426974457468204e4654000000000000000000000000000000000000000000008152506040518060400160405280600381526020017f4254450000000000000000000000000000000000000000000000000000000000815250816000908051906020019062000096929190620000b8565b508060019080519060200190620000af929190620000b8565b505050620001cd565b828054620000c69062000168565b90600052602060002090601f016020900481019282620000ea576000855562000136565b82601f106200010557805160ff191683800117855562000136565b8280016001018555821562000136579182015b828111156200013557825182559160200191906001019062000118565b5b50905062000145919062000149565b5090565b5b80821115620001645760008160009055506001016200014a565b5090565b600060028204905060018216806200018157607f821691505b602082108114156200019857620001976200019e565b5b50919050565b7f4e487b7100000000000000000000000000000000000000000000000000000000600052602260045260246000fd5b613bbf80620001dd6000396000f3fe608060405260043610610152576000357c01000000000000000000000000000000000000000000000000000000009004806370a08231116100c8578063b88d4fde1161008c578063b88d4fde14610480578063bfb231d2146104a9578063c412eaba146104e8578063c87b56dd14610513578063ca0ec87714610550578063e985e9c51461057957610152565b806370a082311461039657806395d89b41146103d3578063a1050e05146103fe578063a22cb4651461043b578063a9059cbb1461046457610152565b806323b872dd1161011a57806323b872dd146102505780632f745c591461027957806342842e0e146102b65780634845ae7a146102df5780634f6ccce71461031c5780636352211e1461035957610152565b806301ffc9a71461015757806306fdde0314610194578063081812fc146101bf578063095ea7b3146101fc57806318160ddd14610225575b600080fd5b34801561016357600080fd5b5061017e60048036038101906101799190612a9b565b6105b6565b60405161018b919061346f565b60405180910390f35b3480156101a057600080fd5b506101a9610630565b6040516101b6919061348a565b60405180910390f35b3480156101cb57600080fd5b506101e660048036038101906101e19190612b2e565b6106c2565b6040516101f391906133e6565b60405180910390f35b34801561020857600080fd5b50610223600480360381019061021e9190612a5f565b610747565b005b34801561023157600080fd5b5061023a61085f565b604051610247919061370a565b60405180910390f35b34801561025c57600080fd5b5061027760048036038101906102729190612959565b61086c565b005b34801561028557600080fd5b506102a0600480360381019061029b9190612a5f565b6108cc565b6040516102ad919061370a565b60405180910390f35b3480156102c257600080fd5b506102dd60048036038101906102d89190612959565b610971565b005b3480156102eb57600080fd5b5061030660048036038101906103019190612b2e565b610991565b60405161031391906133e6565b60405180910390f35b34801561032857600080fd5b50610343600480360381019061033e9190612b2e565b6109ce565b604051610350919061370a565b60405180910390f35b34801561036557600080fd5b50610380600480360381019061037b9190612b2e565b610a65565b60405161038d91906133e6565b60405180910390f35b3480156103a257600080fd5b506103bd60048036038101906103b891906128f4565b610b17565b6040516103ca919061370a565b60405180910390f35b3480156103df57600080fd5b506103e8610bcf565b6040516103f5919061348a565b60405180910390f35b34801561040a57600080fd5b5061042560048036038101906104209190612b2e565b610c61565b60405161043291906133e6565b60405180910390f35b34801561044757600080fd5b50610462600480360381019061045d9190612a23565b610d53565b005b61047e60048036038101906104799190612a5f565b610ed4565b005b34801561048c57600080fd5b506104a760048036038101906104a291906129a8565b610fc3565b005b3480156104b557600080fd5b506104d060048036038101906104cb9190612b2e565b611025565b6040516104df939291906134ac565b60405180910390f35b3480156104f457600080fd5b506104fd611107565b60405161050a919061344d565b60405180910390f35b34801561051f57600080fd5b5061053a60048036038101906105359190612b2e565b611258565b604051610547919061348a565b60405180910390f35b34801561055c57600080fd5b5061057760048036038101906105729190612aed565b6112ff565b005b34801561058557600080fd5b506105a0600480360381019061059b919061291d565b6114ae565b6040516105ad919061346f565b60405180910390f35b60007f780e9d63000000000000000000000000000000000000000000000000000000007bffffffffffffffffffffffffffffffffffffffffffffffffffffffff1916827bffffffffffffffffffffffffffffffffffffffffffffffffffffffff19161480610629575061062882611542565b5b9050919050565b60606000805461063f906139b4565b80601f016020809104026020016040519081016040528092919081815260200182805461066b906139b4565b80156106b85780601f1061068d576101008083540402835291602001916106b8565b820191906000526020600020905b81548152906001019060200180831161069b57829003601f168201915b5050505050905090565b60006106cd82611624565b61070c576040517f08c379a00000000000000000000000000000000000000000000000000000000081526004016107039061364a565b60405180910390fd5b6004600083815260200190815260200160002060009054906101000a900473ffffffffffffffffffffffffffffffffffffffff169050919050565b600061075282610a65565b90508073ffffffffffffffffffffffffffffffffffffffff168373ffffffffffffffffffffffffffffffffffffffff1614156107c3576040517f08c379a00000000000000000000000000000000000000000000000000000000081526004016107ba906136aa565b60405180910390fd5b8073ffffffffffffffffffffffffffffffffffffffff166107e2611690565b73ffffffffffffffffffffffffffffffffffffffff16148061081157506108108161080b611690565b6114ae565b5b610850576040517f08c379a0000000000000000000000000000000000000000000000000000000008152600401610847906135ca565b60405180910390fd5b61085a8383611698565b505050565b6000600880549050905090565b61087d610877611690565b82611751565b6108bc576040517f08c379a00000000000000000000000000000000000000000000000000000000081526004016108b3906136ca565b60405180910390fd5b6108c783838361182f565b505050565b60006108d783610b17565b8210610918576040517f08c379a000000000000000000000000000000000000000000000000000000000815260040161090f906134ea565b60405180910390fd5b600660008473ffffffffffffffffffffffffffffffffffffffff1673ffffffffffffffffffffffffffffffffffffffff168152602001908152602001600020600083815260200190815260200160002054905092915050565b61098c83838360405180602001604052806000815250610fc3565b505050565b6000600d600083815260200190815260200160002060009054906101000a900473ffffffffffffffffffffffffffffffffffffffff169050919050565b60006109d861085f565b8210610a19576040517f08c379a0000000000000000000000000000000000000000000000000000000008152600401610a10906136ea565b60405180910390fd5b60088281548110610a53577f4e487b7100000000000000000000000000000000000000000000000000000000600052603260045260246000fd5b90600052602060002001549050919050565b6000806002600084815260200190815260200160002060009054906101000a900473ffffffffffffffffffffffffffffffffffffffff169050600073ffffffffffffffffffffffffffffffffffffffff168173ffffffffffffffffffffffffffffffffffffffff161415610b0e576040517f08c379a0000000000000000000000000000000000000000000000000000000008152600401610b059061360a565b60405180910390fd5b80915050919050565b60008073ffffffffffffffffffffffffffffffffffffffff168273ffffffffffffffffffffffffffffffffffffffff161415610b88576040517f08c379a0000000000000000000000000000000000000000000000000000000008152600401610b7f906135ea565b60405180910390fd5b600360008373ffffffffffffffffffffffffffffffffffffffff1673ffffffffffffffffffffffffffffffffffffffff168152602001908152602001600020549050919050565b606060018054610bde906139b4565b80601f0160208091040260200160405190810160405280929190818152602001828054610c0a906139b4565b8015610c575780601f10610c2c57610100808354040283529160200191610c57565b820191906000526020600020905b815481529060010190602001808311610c3a57829003601f168201915b5050505050905090565b60008060005b600b80549050811015610d495783600b8281548110610caf577f4e487b7100000000000000000000000000000000000000000000000000000000600052603260045260246000fd5b9060005260206000209060030201600101541415610d3657600b8181548110610d01577f4e487b7100000000000000000000000000000000000000000000000000000000600052603260045260246000fd5b906000526020600020906003020160020160009054906101000a900473ffffffffffffffffffffffffffffffffffffffff1691505b8080610d41906139e6565b915050610c67565b5080915050919050565b610d5b611690565b73ffffffffffffffffffffffffffffffffffffffff168273ffffffffffffffffffffffffffffffffffffffff161415610dc9576040517f08c379a0000000000000000000000000000000000000000000000000000000008152600401610dc09061358a565b60405180910390fd5b8060056000610dd6611690565b73ffffffffffffffffffffffffffffffffffffffff1673ffffffffffffffffffffffffffffffffffffffff16815260200190815260200160002060008473ffffffffffffffffffffffffffffffffffffffff1673ffffffffffffffffffffffffffffffffffffffff16815260200190815260200160002060006101000a81548160ff0219169083151502179055508173ffffffffffffffffffffffffffffffffffffffff16610e83611690565b73ffffffffffffffffffffffffffffffffffffffff167f17307eab39ab6107e8899845ad3d59bd9653f200f220920489ca2b5937696c3183604051610ec8919061346f565b60405180910390a35050565b3373ffffffffffffffffffffffffffffffffffffffff16610ef482610a65565b73ffffffffffffffffffffffffffffffffffffffff1614610f4a576040517f08c379a0000000000000000000000000000000000000000000000000000000008152600401610f419061352a565b60405180910390fd5b6000610f5582610a65565b9050610f62818484610971565b82600d600084815260200190815260200160002060006101000a81548173ffffffffffffffffffffffffffffffffffffffff021916908373ffffffffffffffffffffffffffffffffffffffff160217905550610fbe8284611a8b565b505050565b610fd4610fce611690565b83611751565b611013576040517f08c379a000000000000000000000000000000000000000000000000000000000815260040161100a906136ca565b60405180910390fd5b61101f84848484611b91565b50505050565b600b818154811061103557600080fd5b9060005260206000209060030201600091509050806000018054611058906139b4565b80601f0160208091040260200160405190810160405280929190818152602001828054611084906139b4565b80156110d15780601f106110a6576101008083540402835291602001916110d1565b820191906000526020600020905b8154815290600101906020018083116110b457829003601f168201915b5050505050908060010154908060020160009054906101000a900473ffffffffffffffffffffffffffffffffffffffff16905083565b6060600b805480602002602001604051908101604052809291908181526020016000905b8282101561124f578382906000526020600020906003020160405180606001604052908160008201805461115e906139b4565b80601f016020809104026020016040519081016040528092919081815260200182805461118a906139b4565b80156111d75780601f106111ac576101008083540402835291602001916111d7565b820191906000526020600020905b8154815290600101906020018083116111ba57829003601f168201915b50505050508152602001600182015481526020016002820160009054906101000a900473ffffffffffffffffffffffffffffffffffffffff1673ffffffffffffffffffffffffffffffffffffffff1673ffffffffffffffffffffffffffffffffffffffff16815250508152602001906001019061112b565b50505050905090565b606061126382611624565b6112a2576040517f08c379a00000000000000000000000000000000000000000000000000000000081526004016112999061368a565b60405180910390fd5b60006112ac611bed565b905060008151116112cc57604051806020016040528060008152506112f7565b806112d684611c04565b6040516020016112e79291906133c2565b6040516020818303038152906040525b915050919050565b60001515600c8260405161131391906133ab565b908152602001604051809103902060009054906101000a900460ff1615151461133b57600080fd5b6000611347600a611dd0565b9050600b60405180606001604052808481526020018381526020013373ffffffffffffffffffffffffffffffffffffffff16815250908060018154018082558091505060019003906000526020600020906003020160009091909190915060008201518160000190805190602001906113c1929190612718565b506020820151816001015560408201518160020160006101000a81548173ffffffffffffffffffffffffffffffffffffffff021916908373ffffffffffffffffffffffffffffffffffffffff160217905550505033600d600083815260200190815260200160002060006101000a81548173ffffffffffffffffffffffffffffffffffffffff021916908373ffffffffffffffffffffffffffffffffffffffff1602179055506114713382611dde565b60011515600c8360405161148591906133ab565b908152602001604051809103902060009054906101000a905050506114aa600a611dfc565b5050565b6000600560008473ffffffffffffffffffffffffffffffffffffffff1673ffffffffffffffffffffffffffffffffffffffff16815260200190815260200160002060008373ffffffffffffffffffffffffffffffffffffffff1673ffffffffffffffffffffffffffffffffffffffff16815260200190815260200160002060009054906101000a900460ff16905092915050565b60007f80ac58cd000000000000000000000000000000000000000000000000000000007bffffffffffffffffffffffffffffffffffffffffffffffffffffffff1916827bffffffffffffffffffffffffffffffffffffffffffffffffffffffff1916148061160d57507f5b5e139f000000000000000000000000000000000000000000000000000000007bffffffffffffffffffffffffffffffffffffffffffffffffffffffff1916827bffffffffffffffffffffffffffffffffffffffffffffffffffffffff1916145b8061161d575061161c82611e12565b5b9050919050565b60008073ffffffffffffffffffffffffffffffffffffffff166002600084815260200190815260200160002060009054906101000a900473ffffffffffffffffffffffffffffffffffffffff1673ffffffffffffffffffffffffffffffffffffffff1614159050919050565b600033905090565b816004600083815260200190815260200160002060006101000a81548173ffffffffffffffffffffffffffffffffffffffff021916908373ffffffffffffffffffffffffffffffffffffffff160217905550808273ffffffffffffffffffffffffffffffffffffffff1661170b83610a65565b73ffffffffffffffffffffffffffffffffffffffff167f8c5be1e5ebec7d5bd14f71427d1e84f3dd0314c0f7b2291e5b200ac8c7c3b92560405160405180910390a45050565b600061175c82611624565b61179b576040517f08c379a0000000000000000000000000000000000000000000000000000000008152600401611792906135aa565b60405180910390fd5b60006117a683610a65565b90508073ffffffffffffffffffffffffffffffffffffffff168473ffffffffffffffffffffffffffffffffffffffff16148061181557508373ffffffffffffffffffffffffffffffffffffffff166117fd846106c2565b73ffffffffffffffffffffffffffffffffffffffff16145b80611826575061182581856114ae565b5b91505092915050565b8273ffffffffffffffffffffffffffffffffffffffff1661184f82610a65565b73ffffffffffffffffffffffffffffffffffffffff16146118a5576040517f08c379a000000000000000000000000000000000000000000000000000000000815260040161189c9061366a565b60405180910390fd5b600073ffffffffffffffffffffffffffffffffffffffff168273ffffffffffffffffffffffffffffffffffffffff161415611915576040517f08c379a000000000000000000000000000000000000000000000000000000000815260040161190c9061356a565b60405180910390fd5b611920838383611e7c565b61192b600082611698565b6001600360008573ffffffffffffffffffffffffffffffffffffffff1673ffffffffffffffffffffffffffffffffffffffff168152602001908152602001600020600082825461197b91906138ca565b925050819055506001600360008473ffffffffffffffffffffffffffffffffffffffff1673ffffffffffffffffffffffffffffffffffffffff16815260200190815260200160002060008282546119d29190613843565b92505081905550816002600083815260200190815260200160002060006101000a81548173ffffffffffffffffffffffffffffffffffffffff021916908373ffffffffffffffffffffffffffffffffffffffff160217905550808273ffffffffffffffffffffffffffffffffffffffff168473ffffffffffffffffffffffffffffffffffffffff167fddf252ad1be2c89b69c2b068fc378daa952ba7f163c4a11628f55a4df523b3ef60405160405180910390a4505050565b60005b600b80549050811015611b8c5782600b8281548110611ad6577f4e487b7100000000000000000000000000000000000000000000000000000000600052603260045260246000fd5b9060005260206000209060030201600101541415611b795781600b8281548110611b29577f4e487b7100000000000000000000000000000000000000000000000000000000600052603260045260246000fd5b906000526020600020906003020160020160006101000a81548173ffffffffffffffffffffffffffffffffffffffff021916908373ffffffffffffffffffffffffffffffffffffffff1602179055505b8080611b84906139e6565b915050611a8e565b505050565b611b9c84848461182f565b611ba884848484611f90565b611be7576040517f08c379a0000000000000000000000000000000000000000000000000000000008152600401611bde9061350a565b60405180910390fd5b50505050565b606060405180602001604052806000815250905090565b60606000821415611c4c576040518060400160405280600181526020017f30000000000000000000000000000000000000000000000000000000000000008152509050611dcb565b600082905060005b60008214611c7e578080611c67906139e6565b915050600a82611c779190613899565b9150611c54565b60008167ffffffffffffffff811115611cc0577f4e487b7100000000000000000000000000000000000000000000000000000000600052604160045260246000fd5b6040519080825280601f01601f191660200182016040528015611cf25781602001600182028036833780820191505090505b5090505b60008514611dc457600182611d0b91906138ca565b9150600a85611d1a9190613a2f565b6030611d269190613843565b7f010000000000000000000000000000000000000000000000000000000000000002818381518110611d81577f4e487b7100000000000000000000000000000000000000000000000000000000600052603260045260246000fd5b60200101907effffffffffffffffffffffffffffffffffffffffffffffffffffffffffffff1916908160001a905350600a85611dbd9190613899565b9450611cf6565b8093505050505b919050565b600081600001549050919050565b611df882826040518060200160405280600081525061215f565b5050565b6001816000016000828254019250508190555050565b60007f01ffc9a7000000000000000000000000000000000000000000000000000000007bffffffffffffffffffffffffffffffffffffffffffffffffffffffff1916827bffffffffffffffffffffffffffffffffffffffffffffffffffffffff1916149050919050565b611e878383836121ba565b600073ffffffffffffffffffffffffffffffffffffffff168373ffffffffffffffffffffffffffffffffffffffff161415611eca57611ec5816121bf565b611f09565b8173ffffffffffffffffffffffffffffffffffffffff168373ffffffffffffffffffffffffffffffffffffffff1614611f0857611f078382612208565b5b5b600073ffffffffffffffffffffffffffffffffffffffff168273ffffffffffffffffffffffffffffffffffffffff161415611f4c57611f4781612375565b611f8b565b8273ffffffffffffffffffffffffffffffffffffffff168273ffffffffffffffffffffffffffffffffffffffff1614611f8a57611f8982826124b8565b5b5b505050565b6000611fb18473ffffffffffffffffffffffffffffffffffffffff16612537565b15612152578373ffffffffffffffffffffffffffffffffffffffff1663150b7a02611fda611690565b8786866040518563ffffffff167c01000000000000000000000000000000000000000000000000000000000281526004016120189493929190613401565b602060405180830381600087803b15801561203257600080fd5b505af192505050801561206357506040513d601f19601f820116820180604052508101906120609190612ac4565b60015b6120e6573d8060008114612093576040519150601f19603f3d011682016040523d82523d6000602084013e612098565b606091505b506000815114156120de576040517f08c379a00000000000000000000000000000000000000000000000000000000081526004016120d59061350a565b60405180910390fd5b805181602001fd5b63150b7a027c0100000000000000000000000000000000000000000000000000000000027bffffffffffffffffffffffffffffffffffffffffffffffffffffffff1916817bffffffffffffffffffffffffffffffffffffffffffffffffffffffff191614915050612157565b600190505b949350505050565b612169838361254a565b6121766000848484611f90565b6121b5576040517f08c379a00000000000000000000000000000000000000000000000000000000081526004016121ac9061350a565b60405180910390fd5b505050565b505050565b6008805490506009600083815260200190815260200160002081905550600881908060018154018082558091505060019003906000526020600020016000909190919091505550565b6000600161221584610b17565b61221f91906138ca565b9050600060076000848152602001908152602001600020549050818114612304576000600660008673ffffffffffffffffffffffffffffffffffffffff1673ffffffffffffffffffffffffffffffffffffffff168152602001908152602001600020600084815260200190815260200160002054905080600660008773ffffffffffffffffffffffffffffffffffffffff1673ffffffffffffffffffffffffffffffffffffffff168152602001908152602001600020600084815260200190815260200160002081905550816007600083815260200190815260200160002081905550505b6007600084815260200190815260200160002060009055600660008573ffffffffffffffffffffffffffffffffffffffff1673ffffffffffffffffffffffffffffffffffffffff16815260200190815260200160002060008381526020019081526020016000206000905550505050565b6000600160088054905061238991906138ca565b90506000600960008481526020019081526020016000205490506000600883815481106123df577f4e487b7100000000000000000000000000000000000000000000000000000000600052603260045260246000fd5b906000526020600020015490508060088381548110612427577f4e487b7100000000000000000000000000000000000000000000000000000000600052603260045260246000fd5b90600052602060002001819055508160096000838152602001908152602001600020819055506009600085815260200190815260200160002060009055600880548061249c577f4e487b7100000000000000000000000000000000000000000000000000000000600052603160045260246000fd5b6001900381819060005260206000200160009055905550505050565b60006124c383610b17565b905081600660008573ffffffffffffffffffffffffffffffffffffffff1673ffffffffffffffffffffffffffffffffffffffff168152602001908152602001600020600083815260200190815260200160002081905550806007600084815260200190815260200160002081905550505050565b600080823b905060008111915050919050565b600073ffffffffffffffffffffffffffffffffffffffff168273ffffffffffffffffffffffffffffffffffffffff1614156125ba576040517f08c379a00000000000000000000000000000000000000000000000000000000081526004016125b19061362a565b60405180910390fd5b6125c381611624565b15612603576040517f08c379a00000000000000000000000000000000000000000000000000000000081526004016125fa9061354a565b60405180910390fd5b61260f60008383611e7c565b6001600360008473ffffffffffffffffffffffffffffffffffffffff1673ffffffffffffffffffffffffffffffffffffffff168152602001908152602001600020600082825461265f9190613843565b92505081905550816002600083815260200190815260200160002060006101000a81548173ffffffffffffffffffffffffffffffffffffffff021916908373ffffffffffffffffffffffffffffffffffffffff160217905550808273ffffffffffffffffffffffffffffffffffffffff16600073ffffffffffffffffffffffffffffffffffffffff167fddf252ad1be2c89b69c2b068fc378daa952ba7f163c4a11628f55a4df523b3ef60405160405180910390a45050565b828054612724906139b4565b90600052602060002090601f016020900481019282612746576000855561278d565b82601f1061275f57805160ff191683800117855561278d565b8280016001018555821561278d579182015b8281111561278c578251825591602001919060010190612771565b5b50905061279a919061279e565b5090565b5b808211156127b757600081600090555060010161279f565b5090565b60006127ce6127c984613756565b613725565b9050828152602081018484840111156127e657600080fd5b6127f1848285613972565b509392505050565b600061280c61280784613786565b613725565b90508281526020810184848401111561282457600080fd5b61282f848285613972565b509392505050565b60008135905061284681613b2d565b92915050565b60008135905061285b81613b44565b92915050565b60008135905061287081613b5b565b92915050565b60008151905061288581613b5b565b92915050565b600082601f83011261289c57600080fd5b81356128ac8482602086016127bb565b91505092915050565b600082601f8301126128c657600080fd5b81356128d68482602086016127f9565b91505092915050565b6000813590506128ee81613b72565b92915050565b60006020828403121561290657600080fd5b600061291484828501612837565b91505092915050565b6000806040838503121561293057600080fd5b600061293e85828601612837565b925050602061294f85828601612837565b9150509250929050565b60008060006060848603121561296e57600080fd5b600061297c86828701612837565b935050602061298d86828701612837565b925050604061299e868287016128df565b9150509250925092565b600080600080608085870312156129be57600080fd5b60006129cc87828801612837565b94505060206129dd87828801612837565b93505060406129ee878288016128df565b925050606085013567ffffffffffffffff811115612a0b57600080fd5b612a178782880161288b565b91505092959194509250565b60008060408385031215612a3657600080fd5b6000612a4485828601612837565b9250506020612a558582860161284c565b9150509250929050565b60008060408385031215612a7257600080fd5b6000612a8085828601612837565b9250506020612a91858286016128df565b9150509250929050565b600060208284031215612aad57600080fd5b6000612abb84828501612861565b91505092915050565b600060208284031215612ad657600080fd5b6000612ae484828501612876565b91505092915050565b600060208284031215612aff57600080fd5b600082013567ffffffffffffffff811115612b1957600080fd5b612b25848285016128b5565b91505092915050565b600060208284031215612b4057600080fd5b6000612b4e848285016128df565b91505092915050565b6000612b63838361333d565b905092915050565b612b74816138fe565b82525050565b612b83816138fe565b82525050565b6000612b94826137c6565b612b9e81856137f4565b935083602082028501612bb0856137b6565b8060005b85811015612bec5784840389528151612bcd8582612b57565b9450612bd8836137e7565b925060208a01995050600181019050612bb4565b50829750879550505050505092915050565b612c0781613910565b82525050565b6000612c18826137d1565b612c228185613805565b9350612c32818560208601613981565b612c3b81613b1c565b840191505092915050565b6000612c51826137dc565b612c5b8185613816565b9350612c6b818560208601613981565b612c7481613b1c565b840191505092915050565b6000612c8a826137dc565b612c948185613827565b9350612ca4818560208601613981565b612cad81613b1c565b840191505092915050565b6000612cc3826137dc565b612ccd8185613838565b9350612cdd818560208601613981565b80840191505092915050565b6000612cf6602b83613827565b91507f455243373231456e756d657261626c653a206f776e657220696e646578206f7560008301527f74206f6620626f756e64730000000000000000000000000000000000000000006020830152604082019050919050565b6000612d5c603283613827565b91507f4552433732313a207472616e7366657220746f206e6f6e20455243373231526560008301527f63656976657220696d706c656d656e74657200000000000000000000000000006020830152604082019050919050565b6000612dc2602883613827565b91507f4f6e6c79206f776e65722063616e2065786563757465207472616e736665722060008301527f66756e6374696f6e0000000000000000000000000000000000000000000000006020830152604082019050919050565b6000612e28601c83613827565b91507f4552433732313a20746f6b656e20616c7265616479206d696e746564000000006000830152602082019050919050565b6000612e68602483613827565b91507f4552433732313a207472616e7366657220746f20746865207a65726f2061646460008301527f72657373000000000000000000000000000000000000000000000000000000006020830152604082019050919050565b6000612ece601983613827565b91507f4552433732313a20617070726f766520746f2063616c6c6572000000000000006000830152602082019050919050565b6000612f0e602c83613827565b91507f4552433732313a206f70657261746f7220717565727920666f72206e6f6e657860008301527f697374656e7420746f6b656e00000000000000000000000000000000000000006020830152604082019050919050565b6000612f74603883613827565b91507f4552433732313a20617070726f76652063616c6c6572206973206e6f74206f7760008301527f6e6572206e6f7220617070726f76656420666f7220616c6c00000000000000006020830152604082019050919050565b6000612fda602a83613827565b91507f4552433732313a2062616c616e636520717565727920666f7220746865207a6560008301527f726f2061646472657373000000000000000000000000000000000000000000006020830152604082019050919050565b6000613040602983613827565b91507f4552433732313a206f776e657220717565727920666f72206e6f6e657869737460008301527f656e7420746f6b656e00000000000000000000000000000000000000000000006020830152604082019050919050565b60006130a6602083613827565b91507f4552433732313a206d696e7420746f20746865207a65726f20616464726573736000830152602082019050919050565b60006130e6602c83613827565b91507f4552433732313a20617070726f76656420717565727920666f72206e6f6e657860008301527f697374656e7420746f6b656e00000000000000000000000000000000000000006020830152604082019050919050565b600061314c602983613827565b91507f4552433732313a207472616e73666572206f6620746f6b656e2074686174206960008301527f73206e6f74206f776e00000000000000000000000000000000000000000000006020830152604082019050919050565b60006131b2602f83613827565b91507f4552433732314d657461646174613a2055524920717565727920666f72206e6f60008301527f6e6578697374656e7420746f6b656e00000000000000000000000000000000006020830152604082019050919050565b6000613218602183613827565b91507f4552433732313a20617070726f76616c20746f2063757272656e74206f776e6560008301527f72000000000000000000000000000000000000000000000000000000000000006020830152604082019050919050565b600061327e603183613827565b91507f4552433732313a207472616e736665722063616c6c6572206973206e6f74206f60008301527f776e6572206e6f7220617070726f7665640000000000000000000000000000006020830152604082019050919050565b60006132e4602c83613827565b91507f455243373231456e756d657261626c653a20676c6f62616c20696e646578206f60008301527f7574206f6620626f756e647300000000000000000000000000000000000000006020830152604082019050919050565b6000606083016000830151848203600086015261335a8282612c46565b915050602083015161336f602086018261338d565b5060408301516133826040860182612b6b565b508091505092915050565b61339681613968565b82525050565b6133a581613968565b82525050565b60006133b78284612cb8565b915081905092915050565b60006133ce8285612cb8565b91506133da8284612cb8565b91508190509392505050565b60006020820190506133fb6000830184612b7a565b92915050565b60006080820190506134166000830187612b7a565b6134236020830186612b7a565b613430604083018561339c565b81810360608301526134428184612c0d565b905095945050505050565b600060208201905081810360008301526134678184612b89565b905092915050565b60006020820190506134846000830184612bfe565b92915050565b600060208201905081810360008301526134a48184612c7f565b905092915050565b600060608201905081810360008301526134c68186612c7f565b90506134d5602083018561339c565b6134e26040830184612b7a565b949350505050565b6000602082019050818103600083015261350381612ce9565b9050919050565b6000602082019050818103600083015261352381612d4f565b9050919050565b6000602082019050818103600083015261354381612db5565b9050919050565b6000602082019050818103600083015261356381612e1b565b9050919050565b6000602082019050818103600083015261358381612e5b565b9050919050565b600060208201905081810360008301526135a381612ec1565b9050919050565b600060208201905081810360008301526135c381612f01565b9050919050565b600060208201905081810360008301526135e381612f67565b9050919050565b6000602082019050818103600083015261360381612fcd565b9050919050565b6000602082019050818103600083015261362381613033565b9050919050565b6000602082019050818103600083015261364381613099565b9050919050565b60006020820190508181036000830152613663816130d9565b9050919050565b600060208201905081810360008301526136838161313f565b9050919050565b600060208201905081810360008301526136a3816131a5565b9050919050565b600060208201905081810360008301526136c38161320b565b9050919050565b600060208201905081810360008301526136e381613271565b9050919050565b60006020820190508181036000830152613703816132d7565b9050919050565b600060208201905061371f600083018461339c565b92915050565b6000604051905081810181811067ffffffffffffffff8211171561374c5761374b613aed565b5b8060405250919050565b600067ffffffffffffffff82111561377157613770613aed565b5b601f19601f8301169050602081019050919050565b600067ffffffffffffffff8211156137a1576137a0613aed565b5b601f19601f8301169050602081019050919050565b6000819050602082019050919050565b600081519050919050565b600081519050919050565b600081519050919050565b6000602082019050919050565b600082825260208201905092915050565b600082825260208201905092915050565b600082825260208201905092915050565b600082825260208201905092915050565b600081905092915050565b600061384e82613968565b915061385983613968565b9250827fffffffffffffffffffffffffffffffffffffffffffffffffffffffffffffffff0382111561388e5761388d613a60565b5b828201905092915050565b60006138a482613968565b91506138af83613968565b9250826138bf576138be613a8f565b5b828204905092915050565b60006138d582613968565b91506138e083613968565b9250828210156138f3576138f2613a60565b5b828203905092915050565b600061390982613948565b9050919050565b60008115159050919050565b60007fffffffff0000000000000000000000000000000000000000000000000000000082169050919050565b600073ffffffffffffffffffffffffffffffffffffffff82169050919050565b6000819050919050565b82818337600083830152505050565b60005b8381101561399f578082015181840152602081019050613984565b838111156139ae576000848401525b50505050565b600060028204905060018216806139cc57607f821691505b602082108114156139e0576139df613abe565b5b50919050565b60006139f182613968565b91507fffffffffffffffffffffffffffffffffffffffffffffffffffffffffffffffff821415613a2457613a23613a60565b5b600182019050919050565b6000613a3a82613968565b9150613a4583613968565b925082613a5557613a54613a8f565b5b828206905092915050565b7f4e487b7100000000000000000000000000000000000000000000000000000000600052601160045260246000fd5b7f4e487b7100000000000000000000000000000000000000000000000000000000600052601260045260246000fd5b7f4e487b7100000000000000000000000000000000000000000000000000000000600052602260045260246000fd5b7f4e487b7100000000000000000000000000000000000000000000000000000000600052604160045260246000fd5b6000601f19601f8301169050919050565b613b36816138fe565b8114613b4157600080fd5b50565b613b4d81613910565b8114613b5857600080fd5b50565b613b648161391c565b8114613b6f57600080fd5b50565b613b7b81613968565b8114613b8657600080fd5b5056fea2646970667358221220e89e6ae349f066b0a71b35398f6218d5adce356163e3db2dc169be8b2aa706c664736f6c63430008000033",
  "immutableReferences": {},
  "source": "// SPDX-License-Identifier: MIT\npragma solidity ^0.8.0;\n\nimport \"@openzeppelin/contracts/token/ERC721/extensions/ERC721Enumerable.sol\";\nimport \"@openzeppelin/contracts/utils/math/SafeMath.sol\";\nimport \"@openzeppelin/contracts/utils/Counters.sol\";\n\ncontract BitEth is ERC721Enumerable{\n// using Counters for Counters.Counter;\n// Counters.Counter private _tokenIdTracker;\nusing SafeMath for uint256;\nusing Counters for Counters.Counter;\nCounters.Counter private tokenId;\n\nconstructor() ERC721('BitEth NFT','BTE') {\n}\n\nstruct Item{\n    string itemName;\n    uint id;\n    address owner;\n}\n\nItem [] public items;\nmapping(string => bool) private _itemExists;\nmapping (uint => address) itemToOwner;\n\nfunction MintandBuy(string memory _itemName) public{\nrequire (_itemExists[_itemName] == false);\nuint _id = tokenId.current();\nitems.push(Item(_itemName, _id,msg.sender));\nitemToOwner[_id] = msg.sender;\n_safeMint(msg.sender, _id);\n_itemExists[_itemName] == true;\ntokenId.increment();\n}\n\nfunction transfer (address _to, uint _tokenId) public payable {\nrequire (ownerOf(_tokenId) == msg.sender, \"Only owner can execute transfer function\");\naddress _from = ownerOf(_tokenId);\nsafeTransferFrom(_from, _to, _tokenId);\nitemToOwner[_tokenId] = _to;\nsetnewOwner(_tokenId, _to);\n}\n\nfunction setnewOwner(uint _tokenId, address _newOwner) private{\n    for (uint i=0; i<items.length; i++){\n        if(items[i].id == _tokenId){\n            items[i].owner = _newOwner;\n        }\n    }\n}\n\nfunction getItem ()public view returns(Item[] memory){\n    return items;\n}\n\nfunction getowner (uint _tokenId) public view returns (address){\n    return itemToOwner[_tokenId];\n}\n\nfunction getownertwo (uint _tokenId) public view returns (address){\n    address owner;\n    for (uint i=0; i<items.length;i++){\n        if(items[i].id == _tokenId){\n            owner = items[i].owner;\n        } \n    } return owner;\n}\n\n}",
  "sourcePath": "/Users/cfred/Documents/GitHub/crypto_coin/src/contracts/BitEth.sol",
  "compiler": {
    "name": "solc",
    "version": "0.8.0+commit.c7dfd78e.Emscripten.clang"
  },
  "schemaVersion": "3.2.3",
  "updatedAt": "2021-04-28T02:41:21.831Z",
  "devdoc": {
    "kind": "dev",
    "methods": {
      "approve(address,uint256)": {
        "details": "See {IERC721-approve}."
      },
      "balanceOf(address)": {
        "details": "See {IERC721-balanceOf}."
      },
      "getApproved(uint256)": {
        "details": "See {IERC721-getApproved}."
      },
      "isApprovedForAll(address,address)": {
        "details": "See {IERC721-isApprovedForAll}."
      },
      "name()": {
        "details": "See {IERC721Metadata-name}."
      },
      "ownerOf(uint256)": {
        "details": "See {IERC721-ownerOf}."
      },
      "safeTransferFrom(address,address,uint256)": {
        "details": "See {IERC721-safeTransferFrom}."
      },
      "safeTransferFrom(address,address,uint256,bytes)": {
        "details": "See {IERC721-safeTransferFrom}."
      },
      "setApprovalForAll(address,bool)": {
        "details": "See {IERC721-setApprovalForAll}."
      },
      "supportsInterface(bytes4)": {
        "details": "See {IERC165-supportsInterface}."
      },
      "symbol()": {
        "details": "See {IERC721Metadata-symbol}."
      },
      "tokenByIndex(uint256)": {
        "details": "See {IERC721Enumerable-tokenByIndex}."
      },
      "tokenOfOwnerByIndex(address,uint256)": {
        "details": "See {IERC721Enumerable-tokenOfOwnerByIndex}."
      },
      "tokenURI(uint256)": {
        "details": "See {IERC721Metadata-tokenURI}."
      },
      "totalSupply()": {
        "details": "See {IERC721Enumerable-totalSupply}."
      },
      "transferFrom(address,address,uint256)": {
        "details": "See {IERC721-transferFrom}."
      }
    },
    "version": 1
  },
  "userdoc": {
    "kind": "user",
    "methods": {},
    "version": 1
  }
}