{
  "contractName": "BitEth",
  "abi": [
    {
      "inputs": [],
      "stateMutability": "nonpayable",
      "type": "constructor"
    },
    {
      "anonymous": false,
      "inputs": [
        {
          "indexed": true,
          "internalType": "address",
          "name": "owner",
          "type": "address"
        },
        {
          "indexed": true,
          "internalType": "address",
          "name": "approved",
          "type": "address"
        },
        {
          "indexed": true,
          "internalType": "uint256",
          "name": "tokenId",
          "type": "uint256"
        }
      ],
      "name": "Approval",
      "type": "event"
    },
    {
      "anonymous": false,
      "inputs": [
        {
          "indexed": true,
          "internalType": "address",
          "name": "owner",
          "type": "address"
        },
        {
          "indexed": true,
          "internalType": "address",
          "name": "operator",
          "type": "address"
        },
        {
          "indexed": false,
          "internalType": "bool",
          "name": "approved",
          "type": "bool"
        }
      ],
      "name": "ApprovalForAll",
      "type": "event"
    },
    {
      "anonymous": false,
      "inputs": [
        {
          "indexed": true,
          "internalType": "address",
          "name": "from",
          "type": "address"
        },
        {
          "indexed": true,
          "internalType": "address",
          "name": "to",
          "type": "address"
        },
        {
          "indexed": true,
          "internalType": "uint256",
          "name": "tokenId",
          "type": "uint256"
        }
      ],
      "name": "Transfer",
      "type": "event"
    },
    {
      "inputs": [
        {
          "internalType": "address",
          "name": "to",
          "type": "address"
        },
        {
          "internalType": "uint256",
          "name": "tokenId",
          "type": "uint256"
        }
      ],
      "name": "approve",
      "outputs": [],
      "stateMutability": "nonpayable",
      "type": "function"
    },
    {
      "inputs": [
        {
          "internalType": "address",
          "name": "owner",
          "type": "address"
        }
      ],
      "name": "balanceOf",
      "outputs": [
        {
          "internalType": "uint256",
          "name": "",
          "type": "uint256"
        }
      ],
      "stateMutability": "view",
      "type": "function"
    },
    {
      "inputs": [
        {
          "internalType": "uint256",
          "name": "tokenId",
          "type": "uint256"
        }
      ],
      "name": "getApproved",
      "outputs": [
        {
          "internalType": "address",
          "name": "",
          "type": "address"
        }
      ],
      "stateMutability": "view",
      "type": "function"
    },
    {
      "inputs": [
        {
          "internalType": "address",
          "name": "owner",
          "type": "address"
        },
        {
          "internalType": "address",
          "name": "operator",
          "type": "address"
        }
      ],
      "name": "isApprovedForAll",
      "outputs": [
        {
          "internalType": "bool",
          "name": "",
          "type": "bool"
        }
      ],
      "stateMutability": "view",
      "type": "function"
    },
    {
      "inputs": [
        {
          "internalType": "uint256",
          "name": "",
          "type": "uint256"
        }
      ],
      "name": "items",
      "outputs": [
        {
          "internalType": "string",
          "name": "itemName",
          "type": "string"
        },
        {
          "internalType": "uint256",
          "name": "id",
          "type": "uint256"
        },
        {
          "internalType": "address",
          "name": "owner",
          "type": "address"
        },
        {
          "internalType": "uint256",
          "name": "price",
          "type": "uint256"
        },
        {
          "internalType": "bool",
          "name": "forSale",
          "type": "bool"
        }
      ],
      "stateMutability": "view",
      "type": "function"
    },
    {
      "inputs": [],
      "name": "name",
      "outputs": [
        {
          "internalType": "string",
          "name": "",
          "type": "string"
        }
      ],
      "stateMutability": "view",
      "type": "function"
    },
    {
      "inputs": [
        {
          "internalType": "uint256",
          "name": "tokenId",
          "type": "uint256"
        }
      ],
      "name": "ownerOf",
      "outputs": [
        {
          "internalType": "address",
          "name": "",
          "type": "address"
        }
      ],
      "stateMutability": "view",
      "type": "function"
    },
    {
      "inputs": [
        {
          "internalType": "address",
          "name": "from",
          "type": "address"
        },
        {
          "internalType": "address",
          "name": "to",
          "type": "address"
        },
        {
          "internalType": "uint256",
          "name": "tokenId",
          "type": "uint256"
        }
      ],
      "name": "safeTransferFrom",
      "outputs": [],
      "stateMutability": "nonpayable",
      "type": "function"
    },
    {
      "inputs": [
        {
          "internalType": "address",
          "name": "from",
          "type": "address"
        },
        {
          "internalType": "address",
          "name": "to",
          "type": "address"
        },
        {
          "internalType": "uint256",
          "name": "tokenId",
          "type": "uint256"
        },
        {
          "internalType": "bytes",
          "name": "_data",
          "type": "bytes"
        }
      ],
      "name": "safeTransferFrom",
      "outputs": [],
      "stateMutability": "nonpayable",
      "type": "function"
    },
    {
      "inputs": [
        {
          "internalType": "address",
          "name": "operator",
          "type": "address"
        },
        {
          "internalType": "bool",
          "name": "approved",
          "type": "bool"
        }
      ],
      "name": "setApprovalForAll",
      "outputs": [],
      "stateMutability": "nonpayable",
      "type": "function"
    },
    {
      "inputs": [
        {
          "internalType": "bytes4",
          "name": "interfaceId",
          "type": "bytes4"
        }
      ],
      "name": "supportsInterface",
      "outputs": [
        {
          "internalType": "bool",
          "name": "",
          "type": "bool"
        }
      ],
      "stateMutability": "view",
      "type": "function"
    },
    {
      "inputs": [],
      "name": "symbol",
      "outputs": [
        {
          "internalType": "string",
          "name": "",
          "type": "string"
        }
      ],
      "stateMutability": "view",
      "type": "function"
    },
    {
      "inputs": [
        {
          "internalType": "uint256",
          "name": "index",
          "type": "uint256"
        }
      ],
      "name": "tokenByIndex",
      "outputs": [
        {
          "internalType": "uint256",
          "name": "",
          "type": "uint256"
        }
      ],
      "stateMutability": "view",
      "type": "function"
    },
    {
      "inputs": [
        {
          "internalType": "address",
          "name": "owner",
          "type": "address"
        },
        {
          "internalType": "uint256",
          "name": "index",
          "type": "uint256"
        }
      ],
      "name": "tokenOfOwnerByIndex",
      "outputs": [
        {
          "internalType": "uint256",
          "name": "",
          "type": "uint256"
        }
      ],
      "stateMutability": "view",
      "type": "function"
    },
    {
      "inputs": [
        {
          "internalType": "uint256",
          "name": "tokenId",
          "type": "uint256"
        }
      ],
      "name": "tokenURI",
      "outputs": [
        {
          "internalType": "string",
          "name": "",
          "type": "string"
        }
      ],
      "stateMutability": "view",
      "type": "function"
    },
    {
      "inputs": [],
      "name": "totalSupply",
      "outputs": [
        {
          "internalType": "uint256",
          "name": "",
          "type": "uint256"
        }
      ],
      "stateMutability": "view",
      "type": "function"
    },
    {
      "inputs": [
        {
          "internalType": "address",
          "name": "from",
          "type": "address"
        },
        {
          "internalType": "address",
          "name": "to",
          "type": "address"
        },
        {
          "internalType": "uint256",
          "name": "tokenId",
          "type": "uint256"
        }
      ],
      "name": "transferFrom",
      "outputs": [],
      "stateMutability": "nonpayable",
      "type": "function"
    },
    {
      "inputs": [
        {
          "internalType": "string",
          "name": "_itemName",
          "type": "string"
        }
      ],
      "name": "Mint",
      "outputs": [],
      "stateMutability": "nonpayable",
      "type": "function"
    },
    {
      "inputs": [
        {
          "internalType": "uint256",
          "name": "_tokenId",
          "type": "uint256"
        },
        {
          "internalType": "uint256",
          "name": "price",
          "type": "uint256"
        }
      ],
      "name": "tokenOnSale",
      "outputs": [],
      "stateMutability": "nonpayable",
      "type": "function"
    },
    {
      "inputs": [
        {
          "internalType": "address",
          "name": "_to",
          "type": "address"
        },
        {
          "internalType": "uint256",
          "name": "_tokenId",
          "type": "uint256"
        }
      ],
      "name": "transfer",
      "outputs": [],
      "stateMutability": "payable",
      "type": "function"
    },
    {
      "inputs": [],
      "name": "getItem",
      "outputs": [
        {
          "components": [
            {
              "internalType": "string",
              "name": "itemName",
              "type": "string"
            },
            {
              "internalType": "uint256",
              "name": "id",
              "type": "uint256"
            },
            {
              "internalType": "address",
              "name": "owner",
              "type": "address"
            },
            {
              "internalType": "uint256",
              "name": "price",
              "type": "uint256"
            },
            {
              "internalType": "bool",
              "name": "forSale",
              "type": "bool"
            }
          ],
          "internalType": "struct BitEth.Item[]",
          "name": "",
          "type": "tuple[]"
        }
      ],
      "stateMutability": "view",
      "type": "function"
    },
    {
      "inputs": [
        {
          "internalType": "uint256",
          "name": "_tokenId",
          "type": "uint256"
        }
      ],
      "name": "getowner",
      "outputs": [
        {
          "internalType": "address",
          "name": "",
          "type": "address"
        }
      ],
      "stateMutability": "view",
      "type": "function"
    },
    {
      "inputs": [
        {
          "internalType": "uint256",
          "name": "_tokenId",
          "type": "uint256"
        }
      ],
      "name": "getownertwo",
      "outputs": [
        {
          "internalType": "address",
          "name": "",
          "type": "address"
        }
      ],
      "stateMutability": "view",
      "type": "function"
    },
    {
      "inputs": [
        {
          "internalType": "uint256",
          "name": "_tokenId",
          "type": "uint256"
        }
      ],
      "name": "getToken",
      "outputs": [
        {
          "internalType": "string",
          "name": "name",
          "type": "string"
        },
        {
          "internalType": "uint256",
          "name": "id",
          "type": "uint256"
        },
        {
          "internalType": "address",
          "name": "owner",
          "type": "address"
        },
        {
          "internalType": "uint256",
          "name": "price",
          "type": "uint256"
        },
        {
          "internalType": "bool",
          "name": "forSale",
          "type": "bool"
        }
      ],
      "stateMutability": "view",
      "type": "function"
    }
  ],
  "bytecode": "0x60806040523480156200001157600080fd5b506040518060400160405280600a81526020017f426974457468204e4654000000000000000000000000000000000000000000008152506040518060400160405280600381526020017f4254450000000000000000000000000000000000000000000000000000000000815250816000908051906020019062000096929190620000b8565b508060019080519060200190620000af929190620000b8565b505050620001cd565b828054620000c69062000168565b90600052602060002090601f016020900481019282620000ea576000855562000136565b82601f106200010557805160ff191683800117855562000136565b8280016001018555821562000136579182015b828111156200013557825182559160200191906001019062000118565b5b50905062000145919062000149565b5090565b5b80821115620001645760008160009055506001016200014a565b5090565b600060028204905060018216806200018157607f821691505b602082108114156200019857620001976200019e565b5b50919050565b7f4e487b7100000000000000000000000000000000000000000000000000000000600052602260045260246000fd5b613e6480620001dd6000396000f3fe608060405260043610610168576000357c01000000000000000000000000000000000000000000000000000000009004806370a08231116100d3578063bfb231d21161008c578063bfb231d2146104e8578063c412eaba14610529578063c5e1d73114610554578063c87b56dd1461057d578063e4b50cb8146105ba578063e985e9c5146105fb57610168565b806370a08231146103d557806395d89b4114610412578063a1050e051461043d578063a22cb4651461047a578063a9059cbb146104a3578063b88d4fde146104bf57610168565b80632f745c59116101255780632f745c591461028f5780633904a6cb146102cc57806342842e0e146102f55780634845ae7a1461031e5780634f6ccce71461035b5780636352211e1461039857610168565b806301ffc9a71461016d57806306fdde03146101aa578063081812fc146101d5578063095ea7b31461021257806318160ddd1461023b57806323b872dd14610266575b600080fd5b34801561017957600080fd5b50610194600480360381019061018f9190612cca565b610638565b6040516101a191906136f8565b60405180910390f35b3480156101b657600080fd5b506101bf6106b2565b6040516101cc9190613713565b60405180910390f35b3480156101e157600080fd5b506101fc60048036038101906101f79190612d5d565b610744565b604051610209919061366f565b60405180910390f35b34801561021e57600080fd5b5061023960048036038101906102349190612c8e565b6107c9565b005b34801561024757600080fd5b506102506108e1565b60405161025d91906139af565b60405180910390f35b34801561027257600080fd5b5061028d60048036038101906102889190612b88565b6108ee565b005b34801561029b57600080fd5b506102b660048036038101906102b19190612c8e565b61094e565b6040516102c391906139af565b60405180910390f35b3480156102d857600080fd5b506102f360048036038101906102ee9190612d86565b6109f3565b005b34801561030157600080fd5b5061031c60048036038101906103179190612b88565b610aaa565b005b34801561032a57600080fd5b5061034560048036038101906103409190612d5d565b610aca565b604051610352919061366f565b60405180910390f35b34801561036757600080fd5b50610382600480360381019061037d9190612d5d565b610b07565b60405161038f91906139af565b60405180910390f35b3480156103a457600080fd5b506103bf60048036038101906103ba9190612d5d565b610b9e565b6040516103cc919061366f565b60405180910390f35b3480156103e157600080fd5b506103fc60048036038101906103f79190612b23565b610c50565b60405161040991906139af565b60405180910390f35b34801561041e57600080fd5b50610427610d08565b6040516104349190613713565b60405180910390f35b34801561044957600080fd5b50610464600480360381019061045f9190612d5d565b610d9a565b604051610471919061366f565b60405180910390f35b34801561048657600080fd5b506104a1600480360381019061049c9190612c52565b610e8c565b005b6104bd60048036038101906104b89190612c8e565b61100d565b005b3480156104cb57600080fd5b506104e660048036038101906104e19190612bd7565b6111cb565b005b3480156104f457600080fd5b5061050f600480360381019061050a9190612d5d565b61122d565b604051610520959493929190613735565b60405180910390f35b34801561053557600080fd5b5061053e611328565b60405161054b91906136d6565b60405180910390f35b34801561056057600080fd5b5061057b60048036038101906105769190612d1c565b61149e565b005b34801561058957600080fd5b506105a4600480360381019061059f9190612d5d565b611622565b6040516105b19190613713565b60405180910390f35b3480156105c657600080fd5b506105e160048036038101906105dc9190612d5d565b6116c9565b6040516105f2959493929190613735565b60405180910390f35b34801561060757600080fd5b50610622600480360381019061061d9190612b4c565b6117e3565b60405161062f91906136f8565b60405180910390f35b60007f780e9d63000000000000000000000000000000000000000000000000000000007bffffffffffffffffffffffffffffffffffffffffffffffffffffffff1916827bffffffffffffffffffffffffffffffffffffffffffffffffffffffff191614806106ab57506106aa82611877565b5b9050919050565b6060600080546106c190613c59565b80601f01602080910402602001604051908101604052809291908181526020018280546106ed90613c59565b801561073a5780601f1061070f5761010080835404028352916020019161073a565b820191906000526020600020905b81548152906001019060200180831161071d57829003601f168201915b5050505050905090565b600061074f82611959565b61078e576040517f08c379a0000000000000000000000000000000000000000000000000000000008152600401610785906138ef565b60405180910390fd5b6004600083815260200190815260200160002060009054906101000a900473ffffffffffffffffffffffffffffffffffffffff169050919050565b60006107d482610b9e565b90508073ffffffffffffffffffffffffffffffffffffffff168373ffffffffffffffffffffffffffffffffffffffff161415610845576040517f08c379a000000000000000000000000000000000000000000000000000000000815260040161083c9061394f565b60405180910390fd5b8073ffffffffffffffffffffffffffffffffffffffff166108646119c5565b73ffffffffffffffffffffffffffffffffffffffff16148061089357506108928161088d6119c5565b6117e3565b5b6108d2576040517f08c379a00000000000000000000000000000000000000000000000000000000081526004016108c99061386f565b60405180910390fd5b6108dc83836119cd565b505050565b6000600880549050905090565b6108ff6108f96119c5565b82611a86565b61093e576040517f08c379a00000000000000000000000000000000000000000000000000000000081526004016109359061396f565b60405180910390fd5b610949838383611b64565b505050565b600061095983610c50565b821061099a576040517f08c379a00000000000000000000000000000000000000000000000000000000081526004016109919061378f565b60405180910390fd5b600660008473ffffffffffffffffffffffffffffffffffffffff1673ffffffffffffffffffffffffffffffffffffffff168152602001908152602001600020600083815260200190815260200160002054905092915050565b3373ffffffffffffffffffffffffffffffffffffffff16610a1383610b9e565b73ffffffffffffffffffffffffffffffffffffffff1614610a3357600080fd5b6000600b8381548110610a6f577f4e487b7100000000000000000000000000000000000000000000000000000000600052603260045260246000fd5b9060005260206000209060050201905081816003018190555060018160040160006101000a81548160ff021916908315150217905550505050565b610ac5838383604051806020016040528060008152506111cb565b505050565b6000600d600083815260200190815260200160002060009054906101000a900473ffffffffffffffffffffffffffffffffffffffff169050919050565b6000610b116108e1565b8210610b52576040517f08c379a0000000000000000000000000000000000000000000000000000000008152600401610b499061398f565b60405180910390fd5b60088281548110610b8c577f4e487b7100000000000000000000000000000000000000000000000000000000600052603260045260246000fd5b90600052602060002001549050919050565b6000806002600084815260200190815260200160002060009054906101000a900473ffffffffffffffffffffffffffffffffffffffff169050600073ffffffffffffffffffffffffffffffffffffffff168173ffffffffffffffffffffffffffffffffffffffff161415610c47576040517f08c379a0000000000000000000000000000000000000000000000000000000008152600401610c3e906138af565b60405180910390fd5b80915050919050565b60008073ffffffffffffffffffffffffffffffffffffffff168273ffffffffffffffffffffffffffffffffffffffff161415610cc1576040517f08c379a0000000000000000000000000000000000000000000000000000000008152600401610cb89061388f565b60405180910390fd5b600360008373ffffffffffffffffffffffffffffffffffffffff1673ffffffffffffffffffffffffffffffffffffffff168152602001908152602001600020549050919050565b606060018054610d1790613c59565b80601f0160208091040260200160405190810160405280929190818152602001828054610d4390613c59565b8015610d905780601f10610d6557610100808354040283529160200191610d90565b820191906000526020600020905b815481529060010190602001808311610d7357829003601f168201915b5050505050905090565b60008060005b600b80549050811015610e825783600b8281548110610de8577f4e487b7100000000000000000000000000000000000000000000000000000000600052603260045260246000fd5b9060005260206000209060050201600101541415610e6f57600b8181548110610e3a577f4e487b7100000000000000000000000000000000000000000000000000000000600052603260045260246000fd5b906000526020600020906005020160020160009054906101000a900473ffffffffffffffffffffffffffffffffffffffff1691505b8080610e7a90613c8b565b915050610da0565b5080915050919050565b610e946119c5565b73ffffffffffffffffffffffffffffffffffffffff168273ffffffffffffffffffffffffffffffffffffffff161415610f02576040517f08c379a0000000000000000000000000000000000000000000000000000000008152600401610ef99061382f565b60405180910390fd5b8060056000610f0f6119c5565b73ffffffffffffffffffffffffffffffffffffffff1673ffffffffffffffffffffffffffffffffffffffff16815260200190815260200160002060008473ffffffffffffffffffffffffffffffffffffffff1673ffffffffffffffffffffffffffffffffffffffff16815260200190815260200160002060006101000a81548160ff0219169083151502179055508173ffffffffffffffffffffffffffffffffffffffff16610fbc6119c5565b73ffffffffffffffffffffffffffffffffffffffff167f17307eab39ab6107e8899845ad3d59bd9653f200f220920489ca2b5937696c318360405161100191906136f8565b60405180910390a35050565b3373ffffffffffffffffffffffffffffffffffffffff1661102d82610b9e565b73ffffffffffffffffffffffffffffffffffffffff1614611083576040517f08c379a000000000000000000000000000000000000000000000000000000000815260040161107a906137cf565b60405180910390fd5b6000600b82815481106110bf577f4e487b7100000000000000000000000000000000000000000000000000000000600052603260045260246000fd5b90600052602060002090600502019050600115158160040160009054906101000a900460ff161515146110f157600080fd5b60006110fc83610b9e565b9050611109818585610aaa565b83600d600085815260200190815260200160002060006101000a81548173ffffffffffffffffffffffffffffffffffffffff021916908373ffffffffffffffffffffffffffffffffffffffff160217905550838260020160006101000a81548173ffffffffffffffffffffffffffffffffffffffff021916908373ffffffffffffffffffffffffffffffffffffffff1602179055506000826003018190555060008260040160006101000a81548160ff02191690831515021790555050505050565b6111dc6111d66119c5565b83611a86565b61121b576040517f08c379a00000000000000000000000000000000000000000000000000000000081526004016112129061396f565b60405180910390fd5b61122784848484611dc0565b50505050565b600b818154811061123d57600080fd5b906000526020600020906005020160009150905080600001805461126090613c59565b80601f016020809104026020016040519081016040528092919081815260200182805461128c90613c59565b80156112d95780601f106112ae576101008083540402835291602001916112d9565b820191906000526020600020905b8154815290600101906020018083116112bc57829003601f168201915b5050505050908060010154908060020160009054906101000a900473ffffffffffffffffffffffffffffffffffffffff16908060030154908060040160009054906101000a900460ff16905085565b6060600b805480602002602001604051908101604052809291908181526020016000905b8282101561149557838290600052602060002090600502016040518060a001604052908160008201805461137f90613c59565b80601f01602080910402602001604051908101604052809291908181526020018280546113ab90613c59565b80156113f85780601f106113cd576101008083540402835291602001916113f8565b820191906000526020600020905b8154815290600101906020018083116113db57829003601f168201915b50505050508152602001600182015481526020016002820160009054906101000a900473ffffffffffffffffffffffffffffffffffffffff1673ffffffffffffffffffffffffffffffffffffffff1673ffffffffffffffffffffffffffffffffffffffff168152602001600382015481526020016004820160009054906101000a900460ff1615151515815250508152602001906001019061134c565b50505050905090565b60006114aa600a611e1c565b905060006040518060a001604052808481526020018381526020013373ffffffffffffffffffffffffffffffffffffffff16815260200160008152602001600015158152509050600b8190806001815401808255809150506001900390600052602060002090600502016000909190919091506000820151816000019080519060200190611539929190612947565b506020820151816001015560408201518160020160006101000a81548173ffffffffffffffffffffffffffffffffffffffff021916908373ffffffffffffffffffffffffffffffffffffffff1602179055506060820151816003015560808201518160040160006101000a81548160ff02191690831515021790555050506115c13383611e2a565b33600d600084815260200190815260200160002060006101000a81548173ffffffffffffffffffffffffffffffffffffffff021916908373ffffffffffffffffffffffffffffffffffffffff16021790555061161d600a611e48565b505050565b606061162d82611959565b61166c576040517f08c379a00000000000000000000000000000000000000000000000000000000081526004016116639061392f565b60405180910390fd5b6000611676611e5e565b9050600081511161169657604051806020016040528060008152506116c1565b806116a084611e75565b6040516020016116b192919061364b565b6040516020818303038152906040525b915050919050565b60606000806000806000600b878154811061170d577f4e487b7100000000000000000000000000000000000000000000000000000000600052603260045260246000fd5b9060005260206000209060050201905080600001805461172c90613c59565b80601f016020809104026020016040519081016040528092919081815260200182805461175890613c59565b80156117a55780601f1061177a576101008083540402835291602001916117a5565b820191906000526020600020905b81548152906001019060200180831161178857829003601f168201915b50505050509550806001015494506117bc87610b9e565b9350806003015492508060040160009054906101000a900460ff1691505091939590929450565b6000600560008473ffffffffffffffffffffffffffffffffffffffff1673ffffffffffffffffffffffffffffffffffffffff16815260200190815260200160002060008373ffffffffffffffffffffffffffffffffffffffff1673ffffffffffffffffffffffffffffffffffffffff16815260200190815260200160002060009054906101000a900460ff16905092915050565b60007f80ac58cd000000000000000000000000000000000000000000000000000000007bffffffffffffffffffffffffffffffffffffffffffffffffffffffff1916827bffffffffffffffffffffffffffffffffffffffffffffffffffffffff1916148061194257507f5b5e139f000000000000000000000000000000000000000000000000000000007bffffffffffffffffffffffffffffffffffffffffffffffffffffffff1916827bffffffffffffffffffffffffffffffffffffffffffffffffffffffff1916145b80611952575061195182612041565b5b9050919050565b60008073ffffffffffffffffffffffffffffffffffffffff166002600084815260200190815260200160002060009054906101000a900473ffffffffffffffffffffffffffffffffffffffff1673ffffffffffffffffffffffffffffffffffffffff1614159050919050565b600033905090565b816004600083815260200190815260200160002060006101000a81548173ffffffffffffffffffffffffffffffffffffffff021916908373ffffffffffffffffffffffffffffffffffffffff160217905550808273ffffffffffffffffffffffffffffffffffffffff16611a4083610b9e565b73ffffffffffffffffffffffffffffffffffffffff167f8c5be1e5ebec7d5bd14f71427d1e84f3dd0314c0f7b2291e5b200ac8c7c3b92560405160405180910390a45050565b6000611a9182611959565b611ad0576040517f08c379a0000000000000000000000000000000000000000000000000000000008152600401611ac79061384f565b60405180910390fd5b6000611adb83610b9e565b90508073ffffffffffffffffffffffffffffffffffffffff168473ffffffffffffffffffffffffffffffffffffffff161480611b4a57508373ffffffffffffffffffffffffffffffffffffffff16611b3284610744565b73ffffffffffffffffffffffffffffffffffffffff16145b80611b5b5750611b5a81856117e3565b5b91505092915050565b8273ffffffffffffffffffffffffffffffffffffffff16611b8482610b9e565b73ffffffffffffffffffffffffffffffffffffffff1614611bda576040517f08c379a0000000000000000000000000000000000000000000000000000000008152600401611bd19061390f565b60405180910390fd5b600073ffffffffffffffffffffffffffffffffffffffff168273ffffffffffffffffffffffffffffffffffffffff161415611c4a576040517f08c379a0000000000000000000000000000000000000000000000000000000008152600401611c419061380f565b60405180910390fd5b611c558383836120ab565b611c606000826119cd565b6001600360008573ffffffffffffffffffffffffffffffffffffffff1673ffffffffffffffffffffffffffffffffffffffff1681526020019081526020016000206000828254611cb09190613b6f565b925050819055506001600360008473ffffffffffffffffffffffffffffffffffffffff1673ffffffffffffffffffffffffffffffffffffffff1681526020019081526020016000206000828254611d079190613ae8565b92505081905550816002600083815260200190815260200160002060006101000a81548173ffffffffffffffffffffffffffffffffffffffff021916908373ffffffffffffffffffffffffffffffffffffffff160217905550808273ffffffffffffffffffffffffffffffffffffffff168473ffffffffffffffffffffffffffffffffffffffff167fddf252ad1be2c89b69c2b068fc378daa952ba7f163c4a11628f55a4df523b3ef60405160405180910390a4505050565b611dcb848484611b64565b611dd7848484846121bf565b611e16576040517f08c379a0000000000000000000000000000000000000000000000000000000008152600401611e0d906137af565b60405180910390fd5b50505050565b600081600001549050919050565b611e4482826040518060200160405280600081525061238e565b5050565b6001816000016000828254019250508190555050565b606060405180602001604052806000815250905090565b60606000821415611ebd576040518060400160405280600181526020017f3000000000000000000000000000000000000000000000000000000000000000815250905061203c565b600082905060005b60008214611eef578080611ed890613c8b565b915050600a82611ee89190613b3e565b9150611ec5565b60008167ffffffffffffffff811115611f31577f4e487b7100000000000000000000000000000000000000000000000000000000600052604160045260246000fd5b6040519080825280601f01601f191660200182016040528015611f635781602001600182028036833780820191505090505b5090505b6000851461203557600182611f7c9190613b6f565b9150600a85611f8b9190613cd4565b6030611f979190613ae8565b7f010000000000000000000000000000000000000000000000000000000000000002818381518110611ff2577f4e487b7100000000000000000000000000000000000000000000000000000000600052603260045260246000fd5b60200101907effffffffffffffffffffffffffffffffffffffffffffffffffffffffffffff1916908160001a905350600a8561202e9190613b3e565b9450611f67565b8093505050505b919050565b60007f01ffc9a7000000000000000000000000000000000000000000000000000000007bffffffffffffffffffffffffffffffffffffffffffffffffffffffff1916827bffffffffffffffffffffffffffffffffffffffffffffffffffffffff1916149050919050565b6120b68383836123e9565b600073ffffffffffffffffffffffffffffffffffffffff168373ffffffffffffffffffffffffffffffffffffffff1614156120f9576120f4816123ee565b612138565b8173ffffffffffffffffffffffffffffffffffffffff168373ffffffffffffffffffffffffffffffffffffffff1614612137576121368382612437565b5b5b600073ffffffffffffffffffffffffffffffffffffffff168273ffffffffffffffffffffffffffffffffffffffff16141561217b57612176816125a4565b6121ba565b8273ffffffffffffffffffffffffffffffffffffffff168273ffffffffffffffffffffffffffffffffffffffff16146121b9576121b882826126e7565b5b5b505050565b60006121e08473ffffffffffffffffffffffffffffffffffffffff16612766565b15612381578373ffffffffffffffffffffffffffffffffffffffff1663150b7a026122096119c5565b8786866040518563ffffffff167c0100000000000000000000000000000000000000000000000000000000028152600401612247949392919061368a565b602060405180830381600087803b15801561226157600080fd5b505af192505050801561229257506040513d601f19601f8201168201806040525081019061228f9190612cf3565b60015b612315573d80600081146122c2576040519150601f19603f3d011682016040523d82523d6000602084013e6122c7565b606091505b5060008151141561230d576040517f08c379a0000000000000000000000000000000000000000000000000000000008152600401612304906137af565b60405180910390fd5b805181602001fd5b63150b7a027c0100000000000000000000000000000000000000000000000000000000027bffffffffffffffffffffffffffffffffffffffffffffffffffffffff1916817bffffffffffffffffffffffffffffffffffffffffffffffffffffffff191614915050612386565b600190505b949350505050565b6123988383612779565b6123a560008484846121bf565b6123e4576040517f08c379a00000000000000000000000000000000000000000000000000000000081526004016123db906137af565b60405180910390fd5b505050565b505050565b6008805490506009600083815260200190815260200160002081905550600881908060018154018082558091505060019003906000526020600020016000909190919091505550565b6000600161244484610c50565b61244e9190613b6f565b9050600060076000848152602001908152602001600020549050818114612533576000600660008673ffffffffffffffffffffffffffffffffffffffff1673ffffffffffffffffffffffffffffffffffffffff168152602001908152602001600020600084815260200190815260200160002054905080600660008773ffffffffffffffffffffffffffffffffffffffff1673ffffffffffffffffffffffffffffffffffffffff168152602001908152602001600020600084815260200190815260200160002081905550816007600083815260200190815260200160002081905550505b6007600084815260200190815260200160002060009055600660008573ffffffffffffffffffffffffffffffffffffffff1673ffffffffffffffffffffffffffffffffffffffff16815260200190815260200160002060008381526020019081526020016000206000905550505050565b600060016008805490506125b89190613b6f565b905060006009600084815260200190815260200160002054905060006008838154811061260e577f4e487b7100000000000000000000000000000000000000000000000000000000600052603260045260246000fd5b906000526020600020015490508060088381548110612656577f4e487b7100000000000000000000000000000000000000000000000000000000600052603260045260246000fd5b9060005260206000200181905550816009600083815260200190815260200160002081905550600960008581526020019081526020016000206000905560088054806126cb577f4e487b7100000000000000000000000000000000000000000000000000000000600052603160045260246000fd5b6001900381819060005260206000200160009055905550505050565b60006126f283610c50565b905081600660008573ffffffffffffffffffffffffffffffffffffffff1673ffffffffffffffffffffffffffffffffffffffff168152602001908152602001600020600083815260200190815260200160002081905550806007600084815260200190815260200160002081905550505050565b600080823b905060008111915050919050565b600073ffffffffffffffffffffffffffffffffffffffff168273ffffffffffffffffffffffffffffffffffffffff1614156127e9576040517f08c379a00000000000000000000000000000000000000000000000000000000081526004016127e0906138cf565b60405180910390fd5b6127f281611959565b15612832576040517f08c379a0000000000000000000000000000000000000000000000000000000008152600401612829906137ef565b60405180910390fd5b61283e600083836120ab565b6001600360008473ffffffffffffffffffffffffffffffffffffffff1673ffffffffffffffffffffffffffffffffffffffff168152602001908152602001600020600082825461288e9190613ae8565b92505081905550816002600083815260200190815260200160002060006101000a81548173ffffffffffffffffffffffffffffffffffffffff021916908373ffffffffffffffffffffffffffffffffffffffff160217905550808273ffffffffffffffffffffffffffffffffffffffff16600073ffffffffffffffffffffffffffffffffffffffff167fddf252ad1be2c89b69c2b068fc378daa952ba7f163c4a11628f55a4df523b3ef60405160405180910390a45050565b82805461295390613c59565b90600052602060002090601f01602090048101928261297557600085556129bc565b82601f1061298e57805160ff19168380011785556129bc565b828001600101855582156129bc579182015b828111156129bb5782518255916020019190600101906129a0565b5b5090506129c991906129cd565b5090565b5b808211156129e65760008160009055506001016129ce565b5090565b60006129fd6129f8846139fb565b6139ca565b905082815260208101848484011115612a1557600080fd5b612a20848285613c17565b509392505050565b6000612a3b612a3684613a2b565b6139ca565b905082815260208101848484011115612a5357600080fd5b612a5e848285613c17565b509392505050565b600081359050612a7581613dd2565b92915050565b600081359050612a8a81613de9565b92915050565b600081359050612a9f81613e00565b92915050565b600081519050612ab481613e00565b92915050565b600082601f830112612acb57600080fd5b8135612adb8482602086016129ea565b91505092915050565b600082601f830112612af557600080fd5b8135612b05848260208601612a28565b91505092915050565b600081359050612b1d81613e17565b92915050565b600060208284031215612b3557600080fd5b6000612b4384828501612a66565b91505092915050565b60008060408385031215612b5f57600080fd5b6000612b6d85828601612a66565b9250506020612b7e85828601612a66565b9150509250929050565b600080600060608486031215612b9d57600080fd5b6000612bab86828701612a66565b9350506020612bbc86828701612a66565b9250506040612bcd86828701612b0e565b9150509250925092565b60008060008060808587031215612bed57600080fd5b6000612bfb87828801612a66565b9450506020612c0c87828801612a66565b9350506040612c1d87828801612b0e565b925050606085013567ffffffffffffffff811115612c3a57600080fd5b612c4687828801612aba565b91505092959194509250565b60008060408385031215612c6557600080fd5b6000612c7385828601612a66565b9250506020612c8485828601612a7b565b9150509250929050565b60008060408385031215612ca157600080fd5b6000612caf85828601612a66565b9250506020612cc085828601612b0e565b9150509250929050565b600060208284031215612cdc57600080fd5b6000612cea84828501612a90565b91505092915050565b600060208284031215612d0557600080fd5b6000612d1384828501612aa5565b91505092915050565b600060208284031215612d2e57600080fd5b600082013567ffffffffffffffff811115612d4857600080fd5b612d5484828501612ae4565b91505092915050565b600060208284031215612d6f57600080fd5b6000612d7d84828501612b0e565b91505092915050565b60008060408385031215612d9957600080fd5b6000612da785828601612b0e565b9250506020612db885828601612b0e565b9150509250929050565b6000612dce83836135b7565b905092915050565b612ddf81613ba3565b82525050565b612dee81613ba3565b82525050565b6000612dff82613a6b565b612e098185613a99565b935083602082028501612e1b85613a5b565b8060005b85811015612e575784840389528151612e388582612dc2565b9450612e4383613a8c565b925060208a01995050600181019050612e1f565b50829750879550505050505092915050565b612e7281613bb5565b82525050565b612e8181613bb5565b82525050565b6000612e9282613a76565b612e9c8185613aaa565b9350612eac818560208601613c26565b612eb581613dc1565b840191505092915050565b6000612ecb82613a81565b612ed58185613abb565b9350612ee5818560208601613c26565b612eee81613dc1565b840191505092915050565b6000612f0482613a81565b612f0e8185613acc565b9350612f1e818560208601613c26565b612f2781613dc1565b840191505092915050565b6000612f3d82613a81565b612f478185613add565b9350612f57818560208601613c26565b80840191505092915050565b6000612f70602b83613acc565b91507f455243373231456e756d657261626c653a206f776e657220696e646578206f7560008301527f74206f6620626f756e64730000000000000000000000000000000000000000006020830152604082019050919050565b6000612fd6603283613acc565b91507f4552433732313a207472616e7366657220746f206e6f6e20455243373231526560008301527f63656976657220696d706c656d656e74657200000000000000000000000000006020830152604082019050919050565b600061303c602883613acc565b91507f4f6e6c79206f776e65722063616e2065786563757465207472616e736665722060008301527f66756e6374696f6e0000000000000000000000000000000000000000000000006020830152604082019050919050565b60006130a2601c83613acc565b91507f4552433732313a20746f6b656e20616c7265616479206d696e746564000000006000830152602082019050919050565b60006130e2602483613acc565b91507f4552433732313a207472616e7366657220746f20746865207a65726f2061646460008301527f72657373000000000000000000000000000000000000000000000000000000006020830152604082019050919050565b6000613148601983613acc565b91507f4552433732313a20617070726f766520746f2063616c6c6572000000000000006000830152602082019050919050565b6000613188602c83613acc565b91507f4552433732313a206f70657261746f7220717565727920666f72206e6f6e657860008301527f697374656e7420746f6b656e00000000000000000000000000000000000000006020830152604082019050919050565b60006131ee603883613acc565b91507f4552433732313a20617070726f76652063616c6c6572206973206e6f74206f7760008301527f6e6572206e6f7220617070726f76656420666f7220616c6c00000000000000006020830152604082019050919050565b6000613254602a83613acc565b91507f4552433732313a2062616c616e636520717565727920666f7220746865207a6560008301527f726f2061646472657373000000000000000000000000000000000000000000006020830152604082019050919050565b60006132ba602983613acc565b91507f4552433732313a206f776e657220717565727920666f72206e6f6e657869737460008301527f656e7420746f6b656e00000000000000000000000000000000000000000000006020830152604082019050919050565b6000613320602083613acc565b91507f4552433732313a206d696e7420746f20746865207a65726f20616464726573736000830152602082019050919050565b6000613360602c83613acc565b91507f4552433732313a20617070726f76656420717565727920666f72206e6f6e657860008301527f697374656e7420746f6b656e00000000000000000000000000000000000000006020830152604082019050919050565b60006133c6602983613acc565b91507f4552433732313a207472616e73666572206f6620746f6b656e2074686174206960008301527f73206e6f74206f776e00000000000000000000000000000000000000000000006020830152604082019050919050565b600061342c602f83613acc565b91507f4552433732314d657461646174613a2055524920717565727920666f72206e6f60008301527f6e6578697374656e7420746f6b656e00000000000000000000000000000000006020830152604082019050919050565b6000613492602183613acc565b91507f4552433732313a20617070726f76616c20746f2063757272656e74206f776e6560008301527f72000000000000000000000000000000000000000000000000000000000000006020830152604082019050919050565b60006134f8603183613acc565b91507f4552433732313a207472616e736665722063616c6c6572206973206e6f74206f60008301527f776e6572206e6f7220617070726f7665640000000000000000000000000000006020830152604082019050919050565b600061355e602c83613acc565b91507f455243373231456e756d657261626c653a20676c6f62616c20696e646578206f60008301527f7574206f6620626f756e647300000000000000000000000000000000000000006020830152604082019050919050565b600060a08301600083015184820360008601526135d48282612ec0565b91505060208301516135e9602086018261362d565b5060408301516135fc6040860182612dd6565b50606083015161360f606086018261362d565b5060808301516136226080860182612e69565b508091505092915050565b61363681613c0d565b82525050565b61364581613c0d565b82525050565b60006136578285612f32565b91506136638284612f32565b91508190509392505050565b60006020820190506136846000830184612de5565b92915050565b600060808201905061369f6000830187612de5565b6136ac6020830186612de5565b6136b9604083018561363c565b81810360608301526136cb8184612e87565b905095945050505050565b600060208201905081810360008301526136f08184612df4565b905092915050565b600060208201905061370d6000830184612e78565b92915050565b6000602082019050818103600083015261372d8184612ef9565b905092915050565b600060a082019050818103600083015261374f8188612ef9565b905061375e602083018761363c565b61376b6040830186612de5565b613778606083018561363c565b6137856080830184612e78565b9695505050505050565b600060208201905081810360008301526137a881612f63565b9050919050565b600060208201905081810360008301526137c881612fc9565b9050919050565b600060208201905081810360008301526137e88161302f565b9050919050565b6000602082019050818103600083015261380881613095565b9050919050565b60006020820190508181036000830152613828816130d5565b9050919050565b600060208201905081810360008301526138488161313b565b9050919050565b600060208201905081810360008301526138688161317b565b9050919050565b60006020820190508181036000830152613888816131e1565b9050919050565b600060208201905081810360008301526138a881613247565b9050919050565b600060208201905081810360008301526138c8816132ad565b9050919050565b600060208201905081810360008301526138e881613313565b9050919050565b6000602082019050818103600083015261390881613353565b9050919050565b60006020820190508181036000830152613928816133b9565b9050919050565b600060208201905081810360008301526139488161341f565b9050919050565b6000602082019050818103600083015261396881613485565b9050919050565b60006020820190508181036000830152613988816134eb565b9050919050565b600060208201905081810360008301526139a881613551565b9050919050565b60006020820190506139c4600083018461363c565b92915050565b6000604051905081810181811067ffffffffffffffff821117156139f1576139f0613d92565b5b8060405250919050565b600067ffffffffffffffff821115613a1657613a15613d92565b5b601f19601f8301169050602081019050919050565b600067ffffffffffffffff821115613a4657613a45613d92565b5b601f19601f8301169050602081019050919050565b6000819050602082019050919050565b600081519050919050565b600081519050919050565b600081519050919050565b6000602082019050919050565b600082825260208201905092915050565b600082825260208201905092915050565b600082825260208201905092915050565b600082825260208201905092915050565b600081905092915050565b6000613af382613c0d565b9150613afe83613c0d565b9250827fffffffffffffffffffffffffffffffffffffffffffffffffffffffffffffffff03821115613b3357613b32613d05565b5b828201905092915050565b6000613b4982613c0d565b9150613b5483613c0d565b925082613b6457613b63613d34565b5b828204905092915050565b6000613b7a82613c0d565b9150613b8583613c0d565b925082821015613b9857613b97613d05565b5b828203905092915050565b6000613bae82613bed565b9050919050565b60008115159050919050565b60007fffffffff0000000000000000000000000000000000000000000000000000000082169050919050565b600073ffffffffffffffffffffffffffffffffffffffff82169050919050565b6000819050919050565b82818337600083830152505050565b60005b83811015613c44578082015181840152602081019050613c29565b83811115613c53576000848401525b50505050565b60006002820490506001821680613c7157607f821691505b60208210811415613c8557613c84613d63565b5b50919050565b6000613c9682613c0d565b91507fffffffffffffffffffffffffffffffffffffffffffffffffffffffffffffffff821415613cc957613cc8613d05565b5b600182019050919050565b6000613cdf82613c0d565b9150613cea83613c0d565b925082613cfa57613cf9613d34565b5b828206905092915050565b7f4e487b7100000000000000000000000000000000000000000000000000000000600052601160045260246000fd5b7f4e487b7100000000000000000000000000000000000000000000000000000000600052601260045260246000fd5b7f4e487b7100000000000000000000000000000000000000000000000000000000600052602260045260246000fd5b7f4e487b7100000000000000000000000000000000000000000000000000000000600052604160045260246000fd5b6000601f19601f8301169050919050565b613ddb81613ba3565b8114613de657600080fd5b50565b613df281613bb5565b8114613dfd57600080fd5b50565b613e0981613bc1565b8114613e1457600080fd5b50565b613e2081613c0d565b8114613e2b57600080fd5b5056fea2646970667358221220aa0f0a142da503e9c188139b13aee84a9d798d89b29080e0cc9483c3ab57d66064736f6c63430008000033",
  "immutableReferences": {},
  "source": "// SPDX-License-Identifier: MIT\npragma solidity ^0.8.0;\n\nimport \"@openzeppelin/contracts/token/ERC721/extensions/ERC721Enumerable.sol\";\nimport \"@openzeppelin/contracts/utils/math/SafeMath.sol\";\nimport \"@openzeppelin/contracts/utils/Counters.sol\";\n\n\ncontract BitEth is ERC721Enumerable{\n// using Counters for Counters.Counter;\n// Counters.Counter private _tokenIdTracker;\nusing SafeMath for uint256;\nusing Counters for Counters.Counter;\nCounters.Counter private tokenId;\n\nconstructor() ERC721('BitEth NFT','BTE') {\n}\n\n\nstruct Item{\n    string itemName;\n    uint id;\n    address owner;\n    uint price;\n    bool forSale;\n}\n\nItem [] public items;\nmapping(string => bool) private _itemExists;\nmapping (uint => address) itemToOwner;\n\n\nfunction Mint(string memory _itemName) external{\n    uint currentId = tokenId.current();\n    Item memory _item = Item({\n        itemName: _itemName,\n        id: currentId,\n        owner: msg.sender,\n        price: 0,\n        forSale: false\n    });\n    items.push(_item);\n    _safeMint(msg.sender, currentId);\n    itemToOwner[currentId] = msg.sender;\n    tokenId.increment();\n}\n\nfunction tokenOnSale (uint _tokenId, uint price) external{\n    require(ownerOf(_tokenId) == msg.sender);\n    Item storage _item = items[_tokenId];\n    _item.price = price;\n    _item.forSale = true;\n}\n\n\n// function MintandBuy(string memory _itemName) public{\n// require (_itemExists[_itemName] == false);\n// uint _id = tokenId.current();\n// items.push(Item(_itemName, _id,msg.sender));\n// itemToOwner[_id] = msg.sender;\n// _safeMint(msg.sender, _id);\n// _itemExists[_itemName] == true;\n// tokenId.increment();\n// }\n\nfunction transfer (address _to, uint _tokenId) public payable {\nrequire (ownerOf(_tokenId) == msg.sender, \"Only owner can execute transfer function\");\nItem storage _item = items[_tokenId];\nrequire(_item.forSale == true);\naddress _from = ownerOf(_tokenId);\nsafeTransferFrom(_from, _to, _tokenId);\nitemToOwner[_tokenId] = _to;\n// setnewOwner(_tokenId, _to);\n_item.owner = _to;\n_item.price = 0;\n_item.forSale = false;\n}\n\n// function setnewOwner(uint _tokenId, address _newOwner) private{\n//     for (uint i=0; i<items.length; i++){\n//         if(items[i].id == _tokenId){\n//             items[i].owner = _newOwner;\n//         }\n//     }\n// }\n\n\nfunction getItem () public view returns(Item[] memory){\n    return items;\n}\n\nfunction getowner (uint _tokenId) public view returns (address){\n    return itemToOwner[_tokenId];\n}\n\nfunction getownertwo (uint _tokenId) public view returns (address){\n    address owner;\n    for (uint i=0; i<items.length;i++){\n        if(items[i].id == _tokenId){\n            owner = items[i].owner;\n        } \n    } return owner;\n}\n\nfunction getToken(uint _tokenId) external view returns (string memory name, uint id, address owner, uint price, bool forSale){\n    Item storage _item = items[_tokenId];\n    name = _item.itemName;\n    id = _item.id;\n    owner = ownerOf(_tokenId);\n    price = _item.price;\n    forSale = _item.forSale;\n}\n\n}",
  "sourcePath": "/Users/Oscar/crypto_coin/src/contracts/BitEthTwo.sol",
  "compiler": {
    "name": "solc",
    "version": "0.8.0+commit.c7dfd78e.Emscripten.clang"
  },
  "schemaVersion": "3.3.4",
  "updatedAt": "2021-04-25T16:08:35.123Z",
  "devdoc": {
    "kind": "dev",
    "methods": {
      "approve(address,uint256)": {
        "details": "See {IERC721-approve}."
      },
      "balanceOf(address)": {
        "details": "See {IERC721-balanceOf}."
      },
      "getApproved(uint256)": {
        "details": "See {IERC721-getApproved}."
      },
      "isApprovedForAll(address,address)": {
        "details": "See {IERC721-isApprovedForAll}."
      },
      "name()": {
        "details": "See {IERC721Metadata-name}."
      },
      "ownerOf(uint256)": {
        "details": "See {IERC721-ownerOf}."
      },
      "safeTransferFrom(address,address,uint256)": {
        "details": "See {IERC721-safeTransferFrom}."
      },
      "safeTransferFrom(address,address,uint256,bytes)": {
        "details": "See {IERC721-safeTransferFrom}."
      },
      "setApprovalForAll(address,bool)": {
        "details": "See {IERC721-setApprovalForAll}."
      },
      "supportsInterface(bytes4)": {
        "details": "See {IERC165-supportsInterface}."
      },
      "symbol()": {
        "details": "See {IERC721Metadata-symbol}."
      },
      "tokenByIndex(uint256)": {
        "details": "See {IERC721Enumerable-tokenByIndex}."
      },
      "tokenOfOwnerByIndex(address,uint256)": {
        "details": "See {IERC721Enumerable-tokenOfOwnerByIndex}."
      },
      "tokenURI(uint256)": {
        "details": "See {IERC721Metadata-tokenURI}."
      },
      "totalSupply()": {
        "details": "See {IERC721Enumerable-totalSupply}."
      },
      "transferFrom(address,address,uint256)": {
        "details": "See {IERC721-transferFrom}."
      }
    },
    "version": 1
  },
  "userdoc": {
    "kind": "user",
    "methods": {},
    "version": 1
  }
}