{
  "contractName": "BitEth",
  "abi": [
    {
      "inputs": [],
      "stateMutability": "nonpayable",
      "type": "constructor"
    },
    {
      "anonymous": false,
      "inputs": [
        {
          "indexed": true,
          "internalType": "address",
          "name": "owner",
          "type": "address"
        },
        {
          "indexed": true,
          "internalType": "address",
          "name": "approved",
          "type": "address"
        },
        {
          "indexed": true,
          "internalType": "uint256",
          "name": "tokenId",
          "type": "uint256"
        }
      ],
      "name": "Approval",
      "type": "event"
    },
    {
      "anonymous": false,
      "inputs": [
        {
          "indexed": true,
          "internalType": "address",
          "name": "owner",
          "type": "address"
        },
        {
          "indexed": true,
          "internalType": "address",
          "name": "operator",
          "type": "address"
        },
        {
          "indexed": false,
          "internalType": "bool",
          "name": "approved",
          "type": "bool"
        }
      ],
      "name": "ApprovalForAll",
      "type": "event"
    },
    {
      "anonymous": false,
      "inputs": [
        {
          "indexed": true,
          "internalType": "address",
          "name": "from",
          "type": "address"
        },
        {
          "indexed": true,
          "internalType": "address",
          "name": "to",
          "type": "address"
        },
        {
          "indexed": true,
          "internalType": "uint256",
          "name": "tokenId",
          "type": "uint256"
        }
      ],
      "name": "Transfer",
      "type": "event"
    },
    {
      "inputs": [
        {
          "internalType": "address",
          "name": "to",
          "type": "address"
        },
        {
          "internalType": "uint256",
          "name": "tokenId",
          "type": "uint256"
        }
      ],
      "name": "approve",
      "outputs": [],
      "stateMutability": "nonpayable",
      "type": "function"
    },
    {
      "inputs": [
        {
          "internalType": "address",
          "name": "owner",
          "type": "address"
        }
      ],
      "name": "balanceOf",
      "outputs": [
        {
          "internalType": "uint256",
          "name": "",
          "type": "uint256"
        }
      ],
      "stateMutability": "view",
      "type": "function"
    },
    {
      "inputs": [
        {
          "internalType": "uint256",
          "name": "tokenId",
          "type": "uint256"
        }
      ],
      "name": "getApproved",
      "outputs": [
        {
          "internalType": "address",
          "name": "",
          "type": "address"
        }
      ],
      "stateMutability": "view",
      "type": "function"
    },
    {
      "inputs": [
        {
          "internalType": "address",
          "name": "owner",
          "type": "address"
        },
        {
          "internalType": "address",
          "name": "operator",
          "type": "address"
        }
      ],
      "name": "isApprovedForAll",
      "outputs": [
        {
          "internalType": "bool",
          "name": "",
          "type": "bool"
        }
      ],
      "stateMutability": "view",
      "type": "function"
    },
    {
      "inputs": [
        {
          "internalType": "uint256",
          "name": "",
          "type": "uint256"
        }
      ],
      "name": "itemToOwner",
      "outputs": [
        {
          "internalType": "address",
          "name": "",
          "type": "address"
        }
      ],
      "stateMutability": "view",
      "type": "function"
    },
    {
      "inputs": [
        {
          "internalType": "uint256",
          "name": "",
          "type": "uint256"
        }
      ],
      "name": "items",
      "outputs": [
        {
          "internalType": "string",
          "name": "itemName",
          "type": "string"
        },
        {
          "internalType": "uint256",
          "name": "id",
          "type": "uint256"
        }
      ],
      "stateMutability": "view",
      "type": "function"
    },
    {
      "inputs": [],
      "name": "name",
      "outputs": [
        {
          "internalType": "string",
          "name": "",
          "type": "string"
        }
      ],
      "stateMutability": "view",
      "type": "function"
    },
    {
      "inputs": [
        {
          "internalType": "uint256",
          "name": "tokenId",
          "type": "uint256"
        }
      ],
      "name": "ownerOf",
      "outputs": [
        {
          "internalType": "address",
          "name": "",
          "type": "address"
        }
      ],
      "stateMutability": "view",
      "type": "function"
    },
    {
      "inputs": [
        {
          "internalType": "address",
          "name": "from",
          "type": "address"
        },
        {
          "internalType": "address",
          "name": "to",
          "type": "address"
        },
        {
          "internalType": "uint256",
          "name": "tokenId",
          "type": "uint256"
        }
      ],
      "name": "safeTransferFrom",
      "outputs": [],
      "stateMutability": "nonpayable",
      "type": "function"
    },
    {
      "inputs": [
        {
          "internalType": "address",
          "name": "from",
          "type": "address"
        },
        {
          "internalType": "address",
          "name": "to",
          "type": "address"
        },
        {
          "internalType": "uint256",
          "name": "tokenId",
          "type": "uint256"
        },
        {
          "internalType": "bytes",
          "name": "_data",
          "type": "bytes"
        }
      ],
      "name": "safeTransferFrom",
      "outputs": [],
      "stateMutability": "nonpayable",
      "type": "function"
    },
    {
      "inputs": [
        {
          "internalType": "address",
          "name": "operator",
          "type": "address"
        },
        {
          "internalType": "bool",
          "name": "approved",
          "type": "bool"
        }
      ],
      "name": "setApprovalForAll",
      "outputs": [],
      "stateMutability": "nonpayable",
      "type": "function"
    },
    {
      "inputs": [
        {
          "internalType": "bytes4",
          "name": "interfaceId",
          "type": "bytes4"
        }
      ],
      "name": "supportsInterface",
      "outputs": [
        {
          "internalType": "bool",
          "name": "",
          "type": "bool"
        }
      ],
      "stateMutability": "view",
      "type": "function"
    },
    {
      "inputs": [],
      "name": "symbol",
      "outputs": [
        {
          "internalType": "string",
          "name": "",
          "type": "string"
        }
      ],
      "stateMutability": "view",
      "type": "function"
    },
    {
      "inputs": [
        {
          "internalType": "uint256",
          "name": "index",
          "type": "uint256"
        }
      ],
      "name": "tokenByIndex",
      "outputs": [
        {
          "internalType": "uint256",
          "name": "",
          "type": "uint256"
        }
      ],
      "stateMutability": "view",
      "type": "function"
    },
    {
      "inputs": [
        {
          "internalType": "address",
          "name": "owner",
          "type": "address"
        },
        {
          "internalType": "uint256",
          "name": "index",
          "type": "uint256"
        }
      ],
      "name": "tokenOfOwnerByIndex",
      "outputs": [
        {
          "internalType": "uint256",
          "name": "",
          "type": "uint256"
        }
      ],
      "stateMutability": "view",
      "type": "function"
    },
    {
      "inputs": [
        {
          "internalType": "uint256",
          "name": "tokenId",
          "type": "uint256"
        }
      ],
      "name": "tokenURI",
      "outputs": [
        {
          "internalType": "string",
          "name": "",
          "type": "string"
        }
      ],
      "stateMutability": "view",
      "type": "function"
    },
    {
      "inputs": [],
      "name": "totalSupply",
      "outputs": [
        {
          "internalType": "uint256",
          "name": "",
          "type": "uint256"
        }
      ],
      "stateMutability": "view",
      "type": "function"
    },
    {
      "inputs": [
        {
          "internalType": "address",
          "name": "from",
          "type": "address"
        },
        {
          "internalType": "address",
          "name": "to",
          "type": "address"
        },
        {
          "internalType": "uint256",
          "name": "tokenId",
          "type": "uint256"
        }
      ],
      "name": "transferFrom",
      "outputs": [],
      "stateMutability": "nonpayable",
      "type": "function"
    },
    {
      "inputs": [
        {
          "internalType": "string",
          "name": "_itemName",
          "type": "string"
        }
      ],
      "name": "MintandBuy",
      "outputs": [],
      "stateMutability": "nonpayable",
      "type": "function"
    },
    {
      "inputs": [
        {
          "internalType": "address",
          "name": "_from",
          "type": "address"
        },
        {
          "internalType": "address",
          "name": "_to",
          "type": "address"
        },
        {
          "internalType": "uint256",
          "name": "_id",
          "type": "uint256"
        }
      ],
      "name": "transfer",
      "outputs": [],
      "stateMutability": "nonpayable",
      "type": "function"
    }
  ],
  "bytecode": "0x60806040523480156200001157600080fd5b506040518060400160405280600a81526020017f426974457468204e4654000000000000000000000000000000000000000000008152506040518060400160405280600381526020017f4254450000000000000000000000000000000000000000000000000000000000815250816000908051906020019062000096929190620000b8565b508060019080519060200190620000af929190620000b8565b505050620001cd565b828054620000c69062000168565b90600052602060002090601f016020900481019282620000ea576000855562000136565b82601f106200010557805160ff191683800117855562000136565b8280016001018555821562000136579182015b828111156200013557825182559160200191906001019062000118565b5b50905062000145919062000149565b5090565b5b80821115620001645760008160009055506001016200014a565b5090565b600060028204905060018216806200018157607f821691505b602082108114156200019857620001976200019e565b5b50919050565b7f4e487b7100000000000000000000000000000000000000000000000000000000600052602260045260246000fd5b61338b80620001dd6000396000f3fe608060405234801561001057600080fd5b5060043610610149576000357c0100000000000000000000000000000000000000000000000000000000900480636352211e116100ca578063beabacc81161008e578063beabacc814610384578063bfb231d2146103a0578063c87b56dd146103d1578063ca0ec87714610401578063e985e9c51461041d57610149565b80636352211e146102ce57806370a08231146102fe57806395d89b411461032e578063a22cb4651461034c578063b88d4fde1461036857610149565b80631a4d96cd116101115780631a4d96cd1461020657806323b872dd146102365780632f745c591461025257806342842e0e146102825780634f6ccce71461029e57610149565b806301ffc9a71461014e57806306fdde031461017e578063081812fc1461019c578063095ea7b3146101cc57806318160ddd146101e8575b600080fd5b61016860048036038101906101639190612497565b61044d565b6040516101759190612cb3565b60405180910390f35b6101866104c7565b6040516101939190612cce565b60405180910390f35b6101b660048036038101906101b1919061252a565b610559565b6040516101c39190612c4c565b60405180910390f35b6101e660048036038101906101e1919061245b565b6105de565b005b6101f06106f6565b6040516101fd9190612f20565b60405180910390f35b610220600480360381019061021b919061252a565b610703565b60405161022d9190612c4c565b60405180910390f35b610250600480360381019061024b9190612355565b610736565b005b61026c6004803603810190610267919061245b565b610796565b6040516102799190612f20565b60405180910390f35b61029c60048036038101906102979190612355565b61083b565b005b6102b860048036038101906102b3919061252a565b61085b565b6040516102c59190612f20565b60405180910390f35b6102e860048036038101906102e3919061252a565b6108f2565b6040516102f59190612c4c565b60405180910390f35b610318600480360381019061031391906122f0565b6109a4565b6040516103259190612f20565b60405180910390f35b610336610a5c565b6040516103439190612cce565b60405180910390f35b6103666004803603810190610361919061241f565b610aee565b005b610382600480360381019061037d91906123a4565b610c6f565b005b61039e60048036038101906103999190612355565b610cd1565b005b6103ba60048036038101906103b5919061252a565b610d33565b6040516103c8929190612cf0565b60405180910390f35b6103eb60048036038101906103e6919061252a565b610def565b6040516103f89190612cce565b60405180910390f35b61041b600480360381019061041691906124e9565b610e96565b005b61043760048036038101906104329190612319565b610fd4565b6040516104449190612cb3565b60405180910390f35b60007f780e9d63000000000000000000000000000000000000000000000000000000007bffffffffffffffffffffffffffffffffffffffffffffffffffffffff1916827bffffffffffffffffffffffffffffffffffffffffffffffffffffffff191614806104c057506104bf82611068565b5b9050919050565b6060600080546104d690613180565b80601f016020809104026020016040519081016040528092919081815260200182805461050290613180565b801561054f5780601f106105245761010080835404028352916020019161054f565b820191906000526020600020905b81548152906001019060200180831161053257829003601f168201915b5050505050905090565b60006105648261114a565b6105a3576040517f08c379a000000000000000000000000000000000000000000000000000000000815260040161059a90612e60565b60405180910390fd5b6004600083815260200190815260200160002060009054906101000a900473ffffffffffffffffffffffffffffffffffffffff169050919050565b60006105e9826108f2565b90508073ffffffffffffffffffffffffffffffffffffffff168373ffffffffffffffffffffffffffffffffffffffff16141561065a576040517f08c379a000000000000000000000000000000000000000000000000000000000815260040161065190612ec0565b60405180910390fd5b8073ffffffffffffffffffffffffffffffffffffffff166106796111b6565b73ffffffffffffffffffffffffffffffffffffffff1614806106a857506106a7816106a26111b6565b610fd4565b5b6106e7576040517f08c379a00000000000000000000000000000000000000000000000000000000081526004016106de90612de0565b60405180910390fd5b6106f183836111be565b505050565b6000600880549050905090565b600c6020528060005260406000206000915054906101000a900473ffffffffffffffffffffffffffffffffffffffff1681565b6107476107416111b6565b82611277565b610786576040517f08c379a000000000000000000000000000000000000000000000000000000000815260040161077d90612ee0565b60405180910390fd5b610791838383611355565b505050565b60006107a1836109a4565b82106107e2576040517f08c379a00000000000000000000000000000000000000000000000000000000081526004016107d990612d20565b60405180910390fd5b600660008473ffffffffffffffffffffffffffffffffffffffff1673ffffffffffffffffffffffffffffffffffffffff168152602001908152602001600020600083815260200190815260200160002054905092915050565b61085683838360405180602001604052806000815250610c6f565b505050565b60006108656106f6565b82106108a6576040517f08c379a000000000000000000000000000000000000000000000000000000000815260040161089d90612f00565b60405180910390fd5b600882815481106108e0577f4e487b7100000000000000000000000000000000000000000000000000000000600052603260045260246000fd5b90600052602060002001549050919050565b6000806002600084815260200190815260200160002060009054906101000a900473ffffffffffffffffffffffffffffffffffffffff169050600073ffffffffffffffffffffffffffffffffffffffff168173ffffffffffffffffffffffffffffffffffffffff16141561099b576040517f08c379a000000000000000000000000000000000000000000000000000000000815260040161099290612e20565b60405180910390fd5b80915050919050565b60008073ffffffffffffffffffffffffffffffffffffffff168273ffffffffffffffffffffffffffffffffffffffff161415610a15576040517f08c379a0000000000000000000000000000000000000000000000000000000008152600401610a0c90612e00565b60405180910390fd5b600360008373ffffffffffffffffffffffffffffffffffffffff1673ffffffffffffffffffffffffffffffffffffffff168152602001908152602001600020549050919050565b606060018054610a6b90613180565b80601f0160208091040260200160405190810160405280929190818152602001828054610a9790613180565b8015610ae45780601f10610ab957610100808354040283529160200191610ae4565b820191906000526020600020905b815481529060010190602001808311610ac757829003601f168201915b5050505050905090565b610af66111b6565b73ffffffffffffffffffffffffffffffffffffffff168273ffffffffffffffffffffffffffffffffffffffff161415610b64576040517f08c379a0000000000000000000000000000000000000000000000000000000008152600401610b5b90612da0565b60405180910390fd5b8060056000610b716111b6565b73ffffffffffffffffffffffffffffffffffffffff1673ffffffffffffffffffffffffffffffffffffffff16815260200190815260200160002060008473ffffffffffffffffffffffffffffffffffffffff1673ffffffffffffffffffffffffffffffffffffffff16815260200190815260200160002060006101000a81548160ff0219169083151502179055508173ffffffffffffffffffffffffffffffffffffffff16610c1e6111b6565b73ffffffffffffffffffffffffffffffffffffffff167f17307eab39ab6107e8899845ad3d59bd9653f200f220920489ca2b5937696c3183604051610c639190612cb3565b60405180910390a35050565b610c80610c7a6111b6565b83611277565b610cbf576040517f08c379a0000000000000000000000000000000000000000000000000000000008152600401610cb690612ee0565b60405180910390fd5b610ccb848484846115b1565b50505050565b610cdc83838361083b565b81600c600083815260200190815260200160002060006101000a81548173ffffffffffffffffffffffffffffffffffffffff021916908373ffffffffffffffffffffffffffffffffffffffff160217905550505050565b600a8181548110610d4357600080fd5b9060005260206000209060020201600091509050806000018054610d6690613180565b80601f0160208091040260200160405190810160405280929190818152602001828054610d9290613180565b8015610ddf5780601f10610db457610100808354040283529160200191610ddf565b820191906000526020600020905b815481529060010190602001808311610dc257829003601f168201915b5050505050908060010154905082565b6060610dfa8261114a565b610e39576040517f08c379a0000000000000000000000000000000000000000000000000000000008152600401610e3090612ea0565b60405180910390fd5b6000610e4361160d565b90506000815111610e635760405180602001604052806000815250610e8e565b80610e6d84611624565b604051602001610e7e929190612c28565b6040516020818303038152906040525b915050919050565b60001515600b82604051610eaa9190612c11565b908152602001604051809103902060009054906101000a900460ff16151514610ed257600080fd5b6000600a805490509050600a60405180604001604052808481526020018381525090806001815401808255809150506001900390600052602060002090600202016000909190919091506000820151816000019080519060200190610f38929190612114565b5060208201518160010155505033600c600083815260200190815260200160002060006101000a81548173ffffffffffffffffffffffffffffffffffffffff021916908373ffffffffffffffffffffffffffffffffffffffff160217905550610fa133826117f0565b60011515600b83604051610fb59190612c11565b908152602001604051809103902060009054906101000a905050505050565b6000600560008473ffffffffffffffffffffffffffffffffffffffff1673ffffffffffffffffffffffffffffffffffffffff16815260200190815260200160002060008373ffffffffffffffffffffffffffffffffffffffff1673ffffffffffffffffffffffffffffffffffffffff16815260200190815260200160002060009054906101000a900460ff16905092915050565b60007f80ac58cd000000000000000000000000000000000000000000000000000000007bffffffffffffffffffffffffffffffffffffffffffffffffffffffff1916827bffffffffffffffffffffffffffffffffffffffffffffffffffffffff1916148061113357507f5b5e139f000000000000000000000000000000000000000000000000000000007bffffffffffffffffffffffffffffffffffffffffffffffffffffffff1916827bffffffffffffffffffffffffffffffffffffffffffffffffffffffff1916145b8061114357506111428261180e565b5b9050919050565b60008073ffffffffffffffffffffffffffffffffffffffff166002600084815260200190815260200160002060009054906101000a900473ffffffffffffffffffffffffffffffffffffffff1673ffffffffffffffffffffffffffffffffffffffff1614159050919050565b600033905090565b816004600083815260200190815260200160002060006101000a81548173ffffffffffffffffffffffffffffffffffffffff021916908373ffffffffffffffffffffffffffffffffffffffff160217905550808273ffffffffffffffffffffffffffffffffffffffff16611231836108f2565b73ffffffffffffffffffffffffffffffffffffffff167f8c5be1e5ebec7d5bd14f71427d1e84f3dd0314c0f7b2291e5b200ac8c7c3b92560405160405180910390a45050565b60006112828261114a565b6112c1576040517f08c379a00000000000000000000000000000000000000000000000000000000081526004016112b890612dc0565b60405180910390fd5b60006112cc836108f2565b90508073ffffffffffffffffffffffffffffffffffffffff168473ffffffffffffffffffffffffffffffffffffffff16148061133b57508373ffffffffffffffffffffffffffffffffffffffff1661132384610559565b73ffffffffffffffffffffffffffffffffffffffff16145b8061134c575061134b8185610fd4565b5b91505092915050565b8273ffffffffffffffffffffffffffffffffffffffff16611375826108f2565b73ffffffffffffffffffffffffffffffffffffffff16146113cb576040517f08c379a00000000000000000000000000000000000000000000000000000000081526004016113c290612e80565b60405180910390fd5b600073ffffffffffffffffffffffffffffffffffffffff168273ffffffffffffffffffffffffffffffffffffffff16141561143b576040517f08c379a000000000000000000000000000000000000000000000000000000000815260040161143290612d80565b60405180910390fd5b611446838383611878565b6114516000826111be565b6001600360008573ffffffffffffffffffffffffffffffffffffffff1673ffffffffffffffffffffffffffffffffffffffff16815260200190815260200160002060008282546114a19190613096565b925050819055506001600360008473ffffffffffffffffffffffffffffffffffffffff1673ffffffffffffffffffffffffffffffffffffffff16815260200190815260200160002060008282546114f8919061300f565b92505081905550816002600083815260200190815260200160002060006101000a81548173ffffffffffffffffffffffffffffffffffffffff021916908373ffffffffffffffffffffffffffffffffffffffff160217905550808273ffffffffffffffffffffffffffffffffffffffff168473ffffffffffffffffffffffffffffffffffffffff167fddf252ad1be2c89b69c2b068fc378daa952ba7f163c4a11628f55a4df523b3ef60405160405180910390a4505050565b6115bc848484611355565b6115c88484848461198c565b611607576040517f08c379a00000000000000000000000000000000000000000000000000000000081526004016115fe90612d40565b60405180910390fd5b50505050565b606060405180602001604052806000815250905090565b6060600082141561166c576040518060400160405280600181526020017f300000000000000000000000000000000000000000000000000000000000000081525090506117eb565b600082905060005b6000821461169e578080611687906131b2565b915050600a826116979190613065565b9150611674565b60008167ffffffffffffffff8111156116e0577f4e487b7100000000000000000000000000000000000000000000000000000000600052604160045260246000fd5b6040519080825280601f01601f1916602001820160405280156117125781602001600182028036833780820191505090505b5090505b600085146117e45760018261172b9190613096565b9150600a8561173a91906131fb565b6030611746919061300f565b7f0100000000000000000000000000000000000000000000000000000000000000028183815181106117a1577f4e487b7100000000000000000000000000000000000000000000000000000000600052603260045260246000fd5b60200101907effffffffffffffffffffffffffffffffffffffffffffffffffffffffffffff1916908160001a905350600a856117dd9190613065565b9450611716565b8093505050505b919050565b61180a828260405180602001604052806000815250611b5b565b5050565b60007f01ffc9a7000000000000000000000000000000000000000000000000000000007bffffffffffffffffffffffffffffffffffffffffffffffffffffffff1916827bffffffffffffffffffffffffffffffffffffffffffffffffffffffff1916149050919050565b611883838383611bb6565b600073ffffffffffffffffffffffffffffffffffffffff168373ffffffffffffffffffffffffffffffffffffffff1614156118c6576118c181611bbb565b611905565b8173ffffffffffffffffffffffffffffffffffffffff168373ffffffffffffffffffffffffffffffffffffffff1614611904576119038382611c04565b5b5b600073ffffffffffffffffffffffffffffffffffffffff168273ffffffffffffffffffffffffffffffffffffffff1614156119485761194381611d71565b611987565b8273ffffffffffffffffffffffffffffffffffffffff168273ffffffffffffffffffffffffffffffffffffffff1614611986576119858282611eb4565b5b5b505050565b60006119ad8473ffffffffffffffffffffffffffffffffffffffff16611f33565b15611b4e578373ffffffffffffffffffffffffffffffffffffffff1663150b7a026119d66111b6565b8786866040518563ffffffff167c0100000000000000000000000000000000000000000000000000000000028152600401611a149493929190612c67565b602060405180830381600087803b158015611a2e57600080fd5b505af1925050508015611a5f57506040513d601f19601f82011682018060405250810190611a5c91906124c0565b60015b611ae2573d8060008114611a8f576040519150601f19603f3d011682016040523d82523d6000602084013e611a94565b606091505b50600081511415611ada576040517f08c379a0000000000000000000000000000000000000000000000000000000008152600401611ad190612d40565b60405180910390fd5b805181602001fd5b63150b7a027c0100000000000000000000000000000000000000000000000000000000027bffffffffffffffffffffffffffffffffffffffffffffffffffffffff1916817bffffffffffffffffffffffffffffffffffffffffffffffffffffffff191614915050611b53565b600190505b949350505050565b611b658383611f46565b611b72600084848461198c565b611bb1576040517f08c379a0000000000000000000000000000000000000000000000000000000008152600401611ba890612d40565b60405180910390fd5b505050565b505050565b6008805490506009600083815260200190815260200160002081905550600881908060018154018082558091505060019003906000526020600020016000909190919091505550565b60006001611c11846109a4565b611c1b9190613096565b9050600060076000848152602001908152602001600020549050818114611d00576000600660008673ffffffffffffffffffffffffffffffffffffffff1673ffffffffffffffffffffffffffffffffffffffff168152602001908152602001600020600084815260200190815260200160002054905080600660008773ffffffffffffffffffffffffffffffffffffffff1673ffffffffffffffffffffffffffffffffffffffff168152602001908152602001600020600084815260200190815260200160002081905550816007600083815260200190815260200160002081905550505b6007600084815260200190815260200160002060009055600660008573ffffffffffffffffffffffffffffffffffffffff1673ffffffffffffffffffffffffffffffffffffffff16815260200190815260200160002060008381526020019081526020016000206000905550505050565b60006001600880549050611d859190613096565b9050600060096000848152602001908152602001600020549050600060088381548110611ddb577f4e487b7100000000000000000000000000000000000000000000000000000000600052603260045260246000fd5b906000526020600020015490508060088381548110611e23577f4e487b7100000000000000000000000000000000000000000000000000000000600052603260045260246000fd5b906000526020600020018190555081600960008381526020019081526020016000208190555060096000858152602001908152602001600020600090556008805480611e98577f4e487b7100000000000000000000000000000000000000000000000000000000600052603160045260246000fd5b6001900381819060005260206000200160009055905550505050565b6000611ebf836109a4565b905081600660008573ffffffffffffffffffffffffffffffffffffffff1673ffffffffffffffffffffffffffffffffffffffff168152602001908152602001600020600083815260200190815260200160002081905550806007600084815260200190815260200160002081905550505050565b600080823b905060008111915050919050565b600073ffffffffffffffffffffffffffffffffffffffff168273ffffffffffffffffffffffffffffffffffffffff161415611fb6576040517f08c379a0000000000000000000000000000000000000000000000000000000008152600401611fad90612e40565b60405180910390fd5b611fbf8161114a565b15611fff576040517f08c379a0000000000000000000000000000000000000000000000000000000008152600401611ff690612d60565b60405180910390fd5b61200b60008383611878565b6001600360008473ffffffffffffffffffffffffffffffffffffffff1673ffffffffffffffffffffffffffffffffffffffff168152602001908152602001600020600082825461205b919061300f565b92505081905550816002600083815260200190815260200160002060006101000a81548173ffffffffffffffffffffffffffffffffffffffff021916908373ffffffffffffffffffffffffffffffffffffffff160217905550808273ffffffffffffffffffffffffffffffffffffffff16600073ffffffffffffffffffffffffffffffffffffffff167fddf252ad1be2c89b69c2b068fc378daa952ba7f163c4a11628f55a4df523b3ef60405160405180910390a45050565b82805461212090613180565b90600052602060002090601f0160209004810192826121425760008555612189565b82601f1061215b57805160ff1916838001178555612189565b82800160010185558215612189579182015b8281111561218857825182559160200191906001019061216d565b5b509050612196919061219a565b5090565b5b808211156121b357600081600090555060010161219b565b5090565b60006121ca6121c584612f6c565b612f3b565b9050828152602081018484840111156121e257600080fd5b6121ed84828561313e565b509392505050565b600061220861220384612f9c565b612f3b565b90508281526020810184848401111561222057600080fd5b61222b84828561313e565b509392505050565b600081359050612242816132f9565b92915050565b60008135905061225781613310565b92915050565b60008135905061226c81613327565b92915050565b60008151905061228181613327565b92915050565b600082601f83011261229857600080fd5b81356122a88482602086016121b7565b91505092915050565b600082601f8301126122c257600080fd5b81356122d28482602086016121f5565b91505092915050565b6000813590506122ea8161333e565b92915050565b60006020828403121561230257600080fd5b600061231084828501612233565b91505092915050565b6000806040838503121561232c57600080fd5b600061233a85828601612233565b925050602061234b85828601612233565b9150509250929050565b60008060006060848603121561236a57600080fd5b600061237886828701612233565b935050602061238986828701612233565b925050604061239a868287016122db565b9150509250925092565b600080600080608085870312156123ba57600080fd5b60006123c887828801612233565b94505060206123d987828801612233565b93505060406123ea878288016122db565b925050606085013567ffffffffffffffff81111561240757600080fd5b61241387828801612287565b91505092959194509250565b6000806040838503121561243257600080fd5b600061244085828601612233565b925050602061245185828601612248565b9150509250929050565b6000806040838503121561246e57600080fd5b600061247c85828601612233565b925050602061248d858286016122db565b9150509250929050565b6000602082840312156124a957600080fd5b60006124b78482850161225d565b91505092915050565b6000602082840312156124d257600080fd5b60006124e084828501612272565b91505092915050565b6000602082840312156124fb57600080fd5b600082013567ffffffffffffffff81111561251557600080fd5b612521848285016122b1565b91505092915050565b60006020828403121561253c57600080fd5b600061254a848285016122db565b91505092915050565b61255c816130ca565b82525050565b61256b816130dc565b82525050565b600061257c82612fcc565b6125868185612fe2565b935061259681856020860161314d565b61259f816132e8565b840191505092915050565b60006125b582612fd7565b6125bf8185612ff3565b93506125cf81856020860161314d565b6125d8816132e8565b840191505092915050565b60006125ee82612fd7565b6125f88185613004565b935061260881856020860161314d565b80840191505092915050565b6000612621602b83612ff3565b91507f455243373231456e756d657261626c653a206f776e657220696e646578206f7560008301527f74206f6620626f756e64730000000000000000000000000000000000000000006020830152604082019050919050565b6000612687603283612ff3565b91507f4552433732313a207472616e7366657220746f206e6f6e20455243373231526560008301527f63656976657220696d706c656d656e74657200000000000000000000000000006020830152604082019050919050565b60006126ed601c83612ff3565b91507f4552433732313a20746f6b656e20616c7265616479206d696e746564000000006000830152602082019050919050565b600061272d602483612ff3565b91507f4552433732313a207472616e7366657220746f20746865207a65726f2061646460008301527f72657373000000000000000000000000000000000000000000000000000000006020830152604082019050919050565b6000612793601983612ff3565b91507f4552433732313a20617070726f766520746f2063616c6c6572000000000000006000830152602082019050919050565b60006127d3602c83612ff3565b91507f4552433732313a206f70657261746f7220717565727920666f72206e6f6e657860008301527f697374656e7420746f6b656e00000000000000000000000000000000000000006020830152604082019050919050565b6000612839603883612ff3565b91507f4552433732313a20617070726f76652063616c6c6572206973206e6f74206f7760008301527f6e6572206e6f7220617070726f76656420666f7220616c6c00000000000000006020830152604082019050919050565b600061289f602a83612ff3565b91507f4552433732313a2062616c616e636520717565727920666f7220746865207a6560008301527f726f2061646472657373000000000000000000000000000000000000000000006020830152604082019050919050565b6000612905602983612ff3565b91507f4552433732313a206f776e657220717565727920666f72206e6f6e657869737460008301527f656e7420746f6b656e00000000000000000000000000000000000000000000006020830152604082019050919050565b600061296b602083612ff3565b91507f4552433732313a206d696e7420746f20746865207a65726f20616464726573736000830152602082019050919050565b60006129ab602c83612ff3565b91507f4552433732313a20617070726f76656420717565727920666f72206e6f6e657860008301527f697374656e7420746f6b656e00000000000000000000000000000000000000006020830152604082019050919050565b6000612a11602983612ff3565b91507f4552433732313a207472616e73666572206f6620746f6b656e2074686174206960008301527f73206e6f74206f776e00000000000000000000000000000000000000000000006020830152604082019050919050565b6000612a77602f83612ff3565b91507f4552433732314d657461646174613a2055524920717565727920666f72206e6f60008301527f6e6578697374656e7420746f6b656e00000000000000000000000000000000006020830152604082019050919050565b6000612add602183612ff3565b91507f4552433732313a20617070726f76616c20746f2063757272656e74206f776e6560008301527f72000000000000000000000000000000000000000000000000000000000000006020830152604082019050919050565b6000612b43603183612ff3565b91507f4552433732313a207472616e736665722063616c6c6572206973206e6f74206f60008301527f776e6572206e6f7220617070726f7665640000000000000000000000000000006020830152604082019050919050565b6000612ba9602c83612ff3565b91507f455243373231456e756d657261626c653a20676c6f62616c20696e646578206f60008301527f7574206f6620626f756e647300000000000000000000000000000000000000006020830152604082019050919050565b612c0b81613134565b82525050565b6000612c1d82846125e3565b915081905092915050565b6000612c3482856125e3565b9150612c4082846125e3565b91508190509392505050565b6000602082019050612c616000830184612553565b92915050565b6000608082019050612c7c6000830187612553565b612c896020830186612553565b612c966040830185612c02565b8181036060830152612ca88184612571565b905095945050505050565b6000602082019050612cc86000830184612562565b92915050565b60006020820190508181036000830152612ce881846125aa565b905092915050565b60006040820190508181036000830152612d0a81856125aa565b9050612d196020830184612c02565b9392505050565b60006020820190508181036000830152612d3981612614565b9050919050565b60006020820190508181036000830152612d598161267a565b9050919050565b60006020820190508181036000830152612d79816126e0565b9050919050565b60006020820190508181036000830152612d9981612720565b9050919050565b60006020820190508181036000830152612db981612786565b9050919050565b60006020820190508181036000830152612dd9816127c6565b9050919050565b60006020820190508181036000830152612df98161282c565b9050919050565b60006020820190508181036000830152612e1981612892565b9050919050565b60006020820190508181036000830152612e39816128f8565b9050919050565b60006020820190508181036000830152612e598161295e565b9050919050565b60006020820190508181036000830152612e798161299e565b9050919050565b60006020820190508181036000830152612e9981612a04565b9050919050565b60006020820190508181036000830152612eb981612a6a565b9050919050565b60006020820190508181036000830152612ed981612ad0565b9050919050565b60006020820190508181036000830152612ef981612b36565b9050919050565b60006020820190508181036000830152612f1981612b9c565b9050919050565b6000602082019050612f356000830184612c02565b92915050565b6000604051905081810181811067ffffffffffffffff82111715612f6257612f616132b9565b5b8060405250919050565b600067ffffffffffffffff821115612f8757612f866132b9565b5b601f19601f8301169050602081019050919050565b600067ffffffffffffffff821115612fb757612fb66132b9565b5b601f19601f8301169050602081019050919050565b600081519050919050565b600081519050919050565b600082825260208201905092915050565b600082825260208201905092915050565b600081905092915050565b600061301a82613134565b915061302583613134565b9250827fffffffffffffffffffffffffffffffffffffffffffffffffffffffffffffffff0382111561305a5761305961322c565b5b828201905092915050565b600061307082613134565b915061307b83613134565b92508261308b5761308a61325b565b5b828204905092915050565b60006130a182613134565b91506130ac83613134565b9250828210156130bf576130be61322c565b5b828203905092915050565b60006130d582613114565b9050919050565b60008115159050919050565b60007fffffffff0000000000000000000000000000000000000000000000000000000082169050919050565b600073ffffffffffffffffffffffffffffffffffffffff82169050919050565b6000819050919050565b82818337600083830152505050565b60005b8381101561316b578082015181840152602081019050613150565b8381111561317a576000848401525b50505050565b6000600282049050600182168061319857607f821691505b602082108114156131ac576131ab61328a565b5b50919050565b60006131bd82613134565b91507fffffffffffffffffffffffffffffffffffffffffffffffffffffffffffffffff8214156131f0576131ef61322c565b5b600182019050919050565b600061320682613134565b915061321183613134565b9250826132215761322061325b565b5b828206905092915050565b7f4e487b7100000000000000000000000000000000000000000000000000000000600052601160045260246000fd5b7f4e487b7100000000000000000000000000000000000000000000000000000000600052601260045260246000fd5b7f4e487b7100000000000000000000000000000000000000000000000000000000600052602260045260246000fd5b7f4e487b7100000000000000000000000000000000000000000000000000000000600052604160045260246000fd5b6000601f19601f8301169050919050565b613302816130ca565b811461330d57600080fd5b50565b613319816130dc565b811461332457600080fd5b50565b613330816130e8565b811461333b57600080fd5b50565b61334781613134565b811461335257600080fd5b5056fea26469706673582212207831fadaf225e8ec1d4202723997b042abbfb32f4ce0ce87377c4eb88886436864736f6c63430008000033",
  "immutableReferences": {},
  "source": "// SPDX-License-Identifier: MIT\npragma solidity ^0.8.0;\n\nimport \"@openzeppelin/contracts/token/ERC721/extensions/ERC721Enumerable.sol\";\n\ncontract BitEth is ERC721Enumerable{\n\nconstructor() ERC721('BitEth NFT','BTE') {}\n\nstruct Item{\n    string itemName;\n    uint id;\n}\n\nItem [] public items;\nmapping(string => bool) _itemExists;\nmapping (uint => address) public itemToOwner;\n\nfunction MintandBuy(string memory _itemName) public{\nrequire (_itemExists[_itemName] == false);\nuint _id = items.length;\nitems.push(Item(_itemName, _id));\nitemToOwner[_id] = msg.sender;\n_safeMint(msg.sender, _id);\n_itemExists[_itemName] == true;\n}\n\nfunction transfer (address _from,address _to, uint _id) public {\n// require (ownerOf(_id) == msg.sender);\n// address owner = ownerOf(_id);\n// address buyer = _to;\n// approve(buyer, _id);\n// itemApprovals[_id] = buyer;\nsafeTransferFrom(_from, _to, _id);\nitemToOwner[_id] = _to;\n}\n\n}\n",
  "sourcePath": "/Users/Oscar/crypto_coin/src/contracts/BitEth.sol",
  "compiler": {
    "name": "solc",
    "version": "0.8.0+commit.c7dfd78e.Emscripten.clang"
  },
  "schemaVersion": "3.3.4",
  "updatedAt": "2021-04-24T08:19:28.062Z",
  "devdoc": {
    "kind": "dev",
    "methods": {
      "approve(address,uint256)": {
        "details": "See {IERC721-approve}."
      },
      "balanceOf(address)": {
        "details": "See {IERC721-balanceOf}."
      },
      "getApproved(uint256)": {
        "details": "See {IERC721-getApproved}."
      },
      "isApprovedForAll(address,address)": {
        "details": "See {IERC721-isApprovedForAll}."
      },
      "name()": {
        "details": "See {IERC721Metadata-name}."
      },
      "ownerOf(uint256)": {
        "details": "See {IERC721-ownerOf}."
      },
      "safeTransferFrom(address,address,uint256)": {
        "details": "See {IERC721-safeTransferFrom}."
      },
      "safeTransferFrom(address,address,uint256,bytes)": {
        "details": "See {IERC721-safeTransferFrom}."
      },
      "setApprovalForAll(address,bool)": {
        "details": "See {IERC721-setApprovalForAll}."
      },
      "supportsInterface(bytes4)": {
        "details": "See {IERC165-supportsInterface}."
      },
      "symbol()": {
        "details": "See {IERC721Metadata-symbol}."
      },
      "tokenByIndex(uint256)": {
        "details": "See {IERC721Enumerable-tokenByIndex}."
      },
      "tokenOfOwnerByIndex(address,uint256)": {
        "details": "See {IERC721Enumerable-tokenOfOwnerByIndex}."
      },
      "tokenURI(uint256)": {
        "details": "See {IERC721Metadata-tokenURI}."
      },
      "totalSupply()": {
        "details": "See {IERC721Enumerable-totalSupply}."
      },
      "transferFrom(address,address,uint256)": {
        "details": "See {IERC721-transferFrom}."
      }
    },
    "version": 1
  },
  "userdoc": {
    "kind": "user",
    "methods": {},
    "version": 1
  }
}