{
  "contractName": "BitEth",
  "abi": [
    {
      "inputs": [],
      "stateMutability": "nonpayable",
      "type": "constructor"
    },
    {
      "anonymous": false,
      "inputs": [
        {
          "indexed": true,
          "internalType": "address",
          "name": "owner",
          "type": "address"
        },
        {
          "indexed": true,
          "internalType": "address",
          "name": "approved",
          "type": "address"
        },
        {
          "indexed": true,
          "internalType": "uint256",
          "name": "tokenId",
          "type": "uint256"
        }
      ],
      "name": "Approval",
      "type": "event"
    },
    {
      "anonymous": false,
      "inputs": [
        {
          "indexed": true,
          "internalType": "address",
          "name": "owner",
          "type": "address"
        },
        {
          "indexed": true,
          "internalType": "address",
          "name": "operator",
          "type": "address"
        },
        {
          "indexed": false,
          "internalType": "bool",
          "name": "approved",
          "type": "bool"
        }
      ],
      "name": "ApprovalForAll",
      "type": "event"
    },
    {
      "anonymous": false,
      "inputs": [
        {
          "indexed": true,
          "internalType": "address",
          "name": "from",
          "type": "address"
        },
        {
          "indexed": true,
          "internalType": "address",
          "name": "to",
          "type": "address"
        },
        {
          "indexed": true,
          "internalType": "uint256",
          "name": "tokenId",
          "type": "uint256"
        }
      ],
      "name": "Transfer",
      "type": "event"
    },
    {
      "inputs": [
        {
          "internalType": "address",
          "name": "to",
          "type": "address"
        },
        {
          "internalType": "uint256",
          "name": "tokenId",
          "type": "uint256"
        }
      ],
      "name": "approve",
      "outputs": [],
      "stateMutability": "nonpayable",
      "type": "function"
    },
    {
      "inputs": [
        {
          "internalType": "address",
          "name": "owner",
          "type": "address"
        }
      ],
      "name": "balanceOf",
      "outputs": [
        {
          "internalType": "uint256",
          "name": "",
          "type": "uint256"
        }
      ],
      "stateMutability": "view",
      "type": "function"
    },
    {
      "inputs": [
        {
          "internalType": "uint256",
          "name": "tokenId",
          "type": "uint256"
        }
      ],
      "name": "getApproved",
      "outputs": [
        {
          "internalType": "address",
          "name": "",
          "type": "address"
        }
      ],
      "stateMutability": "view",
      "type": "function"
    },
    {
      "inputs": [
        {
          "internalType": "address",
          "name": "owner",
          "type": "address"
        },
        {
          "internalType": "address",
          "name": "operator",
          "type": "address"
        }
      ],
      "name": "isApprovedForAll",
      "outputs": [
        {
          "internalType": "bool",
          "name": "",
          "type": "bool"
        }
      ],
      "stateMutability": "view",
      "type": "function"
    },
    {
      "inputs": [
        {
          "internalType": "uint256",
          "name": "",
          "type": "uint256"
        }
      ],
      "name": "itemToOwner",
      "outputs": [
        {
          "internalType": "address",
          "name": "",
          "type": "address"
        }
      ],
      "stateMutability": "view",
      "type": "function"
    },
    {
      "inputs": [
        {
          "internalType": "uint256",
          "name": "",
          "type": "uint256"
        }
      ],
      "name": "items",
      "outputs": [
        {
          "internalType": "string",
          "name": "itemName",
          "type": "string"
        },
        {
          "internalType": "uint256",
          "name": "id",
          "type": "uint256"
        },
        {
          "internalType": "address",
          "name": "owner",
          "type": "address"
        }
      ],
      "stateMutability": "view",
      "type": "function"
    },
    {
      "inputs": [],
      "name": "name",
      "outputs": [
        {
          "internalType": "string",
          "name": "",
          "type": "string"
        }
      ],
      "stateMutability": "view",
      "type": "function"
    },
    {
      "inputs": [
        {
          "internalType": "uint256",
          "name": "tokenId",
          "type": "uint256"
        }
      ],
      "name": "ownerOf",
      "outputs": [
        {
          "internalType": "address",
          "name": "",
          "type": "address"
        }
      ],
      "stateMutability": "view",
      "type": "function"
    },
    {
      "inputs": [
        {
          "internalType": "address",
          "name": "from",
          "type": "address"
        },
        {
          "internalType": "address",
          "name": "to",
          "type": "address"
        },
        {
          "internalType": "uint256",
          "name": "tokenId",
          "type": "uint256"
        }
      ],
      "name": "safeTransferFrom",
      "outputs": [],
      "stateMutability": "nonpayable",
      "type": "function"
    },
    {
      "inputs": [
        {
          "internalType": "address",
          "name": "from",
          "type": "address"
        },
        {
          "internalType": "address",
          "name": "to",
          "type": "address"
        },
        {
          "internalType": "uint256",
          "name": "tokenId",
          "type": "uint256"
        },
        {
          "internalType": "bytes",
          "name": "_data",
          "type": "bytes"
        }
      ],
      "name": "safeTransferFrom",
      "outputs": [],
      "stateMutability": "nonpayable",
      "type": "function"
    },
    {
      "inputs": [
        {
          "internalType": "address",
          "name": "operator",
          "type": "address"
        },
        {
          "internalType": "bool",
          "name": "approved",
          "type": "bool"
        }
      ],
      "name": "setApprovalForAll",
      "outputs": [],
      "stateMutability": "nonpayable",
      "type": "function"
    },
    {
      "inputs": [
        {
          "internalType": "bytes4",
          "name": "interfaceId",
          "type": "bytes4"
        }
      ],
      "name": "supportsInterface",
      "outputs": [
        {
          "internalType": "bool",
          "name": "",
          "type": "bool"
        }
      ],
      "stateMutability": "view",
      "type": "function"
    },
    {
      "inputs": [],
      "name": "symbol",
      "outputs": [
        {
          "internalType": "string",
          "name": "",
          "type": "string"
        }
      ],
      "stateMutability": "view",
      "type": "function"
    },
    {
      "inputs": [
        {
          "internalType": "uint256",
          "name": "index",
          "type": "uint256"
        }
      ],
      "name": "tokenByIndex",
      "outputs": [
        {
          "internalType": "uint256",
          "name": "",
          "type": "uint256"
        }
      ],
      "stateMutability": "view",
      "type": "function"
    },
    {
      "inputs": [
        {
          "internalType": "address",
          "name": "owner",
          "type": "address"
        },
        {
          "internalType": "uint256",
          "name": "index",
          "type": "uint256"
        }
      ],
      "name": "tokenOfOwnerByIndex",
      "outputs": [
        {
          "internalType": "uint256",
          "name": "",
          "type": "uint256"
        }
      ],
      "stateMutability": "view",
      "type": "function"
    },
    {
      "inputs": [
        {
          "internalType": "uint256",
          "name": "tokenId",
          "type": "uint256"
        }
      ],
      "name": "tokenURI",
      "outputs": [
        {
          "internalType": "string",
          "name": "",
          "type": "string"
        }
      ],
      "stateMutability": "view",
      "type": "function"
    },
    {
      "inputs": [],
      "name": "totalSupply",
      "outputs": [
        {
          "internalType": "uint256",
          "name": "",
          "type": "uint256"
        }
      ],
      "stateMutability": "view",
      "type": "function"
    },
    {
      "inputs": [
        {
          "internalType": "address",
          "name": "from",
          "type": "address"
        },
        {
          "internalType": "address",
          "name": "to",
          "type": "address"
        },
        {
          "internalType": "uint256",
          "name": "tokenId",
          "type": "uint256"
        }
      ],
      "name": "transferFrom",
      "outputs": [],
      "stateMutability": "nonpayable",
      "type": "function"
    },
    {
      "inputs": [
        {
          "internalType": "string",
          "name": "_itemName",
          "type": "string"
        }
      ],
      "name": "MintandBuy",
      "outputs": [],
      "stateMutability": "nonpayable",
      "type": "function"
    },
    {
      "inputs": [
        {
          "internalType": "address",
          "name": "_to",
          "type": "address"
        },
        {
          "internalType": "uint256",
          "name": "_id",
          "type": "uint256"
        }
      ],
      "name": "transfer",
      "outputs": [],
      "stateMutability": "payable",
      "type": "function"
    },
    {
      "inputs": [],
      "name": "getItem",
      "outputs": [
        {
          "components": [
            {
              "internalType": "string",
              "name": "itemName",
              "type": "string"
            },
            {
              "internalType": "uint256",
              "name": "id",
              "type": "uint256"
            },
            {
              "internalType": "address",
              "name": "owner",
              "type": "address"
            }
          ],
          "internalType": "struct BitEth.Item[]",
          "name": "",
          "type": "tuple[]"
        }
      ],
      "stateMutability": "view",
      "type": "function"
    },
    {
      "inputs": [
        {
          "internalType": "uint256",
          "name": "_id",
          "type": "uint256"
        }
      ],
      "name": "getowner",
      "outputs": [
        {
          "internalType": "address",
          "name": "",
          "type": "address"
        }
      ],
      "stateMutability": "view",
      "type": "function"
    },
    {
      "inputs": [
        {
          "internalType": "uint256",
          "name": "_index",
          "type": "uint256"
        }
      ],
      "name": "getownertwo",
      "outputs": [
        {
          "internalType": "address",
          "name": "",
          "type": "address"
        }
      ],
      "stateMutability": "view",
      "type": "function"
    }
  ],
  "bytecode": "0x60806040523480156200001157600080fd5b506040518060400160405280600a81526020017f426974457468204e4654000000000000000000000000000000000000000000008152506040518060400160405280600381526020017f4254450000000000000000000000000000000000000000000000000000000000815250816000908051906020019062000096929190620000b8565b508060019080519060200190620000af929190620000b8565b505050620001cd565b828054620000c69062000168565b90600052602060002090601f016020900481019282620000ea576000855562000136565b82601f106200010557805160ff191683800117855562000136565b8280016001018555821562000136579182015b828111156200013557825182559160200191906001019062000118565b5b50905062000145919062000149565b5090565b5b80821115620001645760008160009055506001016200014a565b5090565b600060028204905060018216806200018157607f821691505b602082108114156200019857620001976200019e565b5b50919050565b7f4e487b7100000000000000000000000000000000000000000000000000000000600052602260045260246000fd5b613a0980620001dd6000396000f3fe60806040526004361061015d576000357c0100000000000000000000000000000000000000000000000000000000900480636352211e116100d3578063b88d4fde1161008c578063b88d4fde146104c8578063bfb231d2146104f1578063c412eaba14610530578063c87b56dd1461055b578063ca0ec87714610598578063e985e9c5146105c15761015d565b80636352211e146103a157806370a08231146103de57806395d89b411461041b578063a1050e0514610446578063a22cb46514610483578063a9059cbb146104ac5761015d565b80631a4d96cd116101255780631a4d96cd1461025b57806323b872dd146102985780632f745c59146102c157806342842e0e146102fe5780634845ae7a146103275780634f6ccce7146103645761015d565b806301ffc9a71461016257806306fdde031461019f578063081812fc146101ca578063095ea7b31461020757806318160ddd14610230575b600080fd5b34801561016e57600080fd5b506101896004803603810190610184919061296b565b6105fe565b60405161019691906132d9565b60405180910390f35b3480156101ab57600080fd5b506101b4610678565b6040516101c191906132f4565b60405180910390f35b3480156101d657600080fd5b506101f160048036038101906101ec91906129fe565b61070a565b6040516101fe9190613250565b60405180910390f35b34801561021357600080fd5b5061022e6004803603810190610229919061292f565b61078f565b005b34801561023c57600080fd5b506102456108a7565b6040516102529190613554565b60405180910390f35b34801561026757600080fd5b50610282600480360381019061027d91906129fe565b6108b4565b60405161028f9190613250565b60405180910390f35b3480156102a457600080fd5b506102bf60048036038101906102ba9190612829565b6108e7565b005b3480156102cd57600080fd5b506102e860048036038101906102e3919061292f565b610947565b6040516102f59190613554565b60405180910390f35b34801561030a57600080fd5b5061032560048036038101906103209190612829565b6109ec565b005b34801561033357600080fd5b5061034e600480360381019061034991906129fe565b610a0c565b60405161035b9190613250565b60405180910390f35b34801561037057600080fd5b5061038b600480360381019061038691906129fe565b610a49565b6040516103989190613554565b60405180910390f35b3480156103ad57600080fd5b506103c860048036038101906103c391906129fe565b610ae0565b6040516103d59190613250565b60405180910390f35b3480156103ea57600080fd5b50610405600480360381019061040091906127c4565b610b92565b6040516104129190613554565b60405180910390f35b34801561042757600080fd5b50610430610c4a565b60405161043d91906132f4565b60405180910390f35b34801561045257600080fd5b5061046d600480360381019061046891906129fe565b610cdc565b60405161047a9190613250565b60405180910390f35b34801561048f57600080fd5b506104aa60048036038101906104a591906128f3565b610d51565b005b6104c660048036038101906104c1919061292f565b610ed2565b005b3480156104d457600080fd5b506104ef60048036038101906104ea9190612878565b610fcb565b005b3480156104fd57600080fd5b50610518600480360381019061051391906129fe565b61102d565b60405161052793929190613316565b60405180910390f35b34801561053c57600080fd5b5061054561110f565b60405161055291906132b7565b60405180910390f35b34801561056757600080fd5b50610582600480360381019061057d91906129fe565b611260565b60405161058f91906132f4565b60405180910390f35b3480156105a457600080fd5b506105bf60048036038101906105ba91906129bd565b611307565b005b3480156105cd57600080fd5b506105e860048036038101906105e391906127ed565b6114a8565b6040516105f591906132d9565b60405180910390f35b60007f780e9d63000000000000000000000000000000000000000000000000000000007bffffffffffffffffffffffffffffffffffffffffffffffffffffffff1916827bffffffffffffffffffffffffffffffffffffffffffffffffffffffff1916148061067157506106708261153c565b5b9050919050565b606060008054610687906137fe565b80601f01602080910402602001604051908101604052809291908181526020018280546106b3906137fe565b80156107005780601f106106d557610100808354040283529160200191610700565b820191906000526020600020905b8154815290600101906020018083116106e357829003601f168201915b5050505050905090565b60006107158261161e565b610754576040517f08c379a000000000000000000000000000000000000000000000000000000000815260040161074b90613494565b60405180910390fd5b6004600083815260200190815260200160002060009054906101000a900473ffffffffffffffffffffffffffffffffffffffff169050919050565b600061079a82610ae0565b90508073ffffffffffffffffffffffffffffffffffffffff168373ffffffffffffffffffffffffffffffffffffffff16141561080b576040517f08c379a0000000000000000000000000000000000000000000000000000000008152600401610802906134f4565b60405180910390fd5b8073ffffffffffffffffffffffffffffffffffffffff1661082a61168a565b73ffffffffffffffffffffffffffffffffffffffff16148061085957506108588161085361168a565b6114a8565b5b610898576040517f08c379a000000000000000000000000000000000000000000000000000000000815260040161088f90613414565b60405180910390fd5b6108a28383611692565b505050565b6000600880549050905090565b600c6020528060005260406000206000915054906101000a900473ffffffffffffffffffffffffffffffffffffffff1681565b6108f86108f261168a565b8261174b565b610937576040517f08c379a000000000000000000000000000000000000000000000000000000000815260040161092e90613514565b60405180910390fd5b610942838383611829565b505050565b600061095283610b92565b8210610993576040517f08c379a000000000000000000000000000000000000000000000000000000000815260040161098a90613354565b60405180910390fd5b600660008473ffffffffffffffffffffffffffffffffffffffff1673ffffffffffffffffffffffffffffffffffffffff168152602001908152602001600020600083815260200190815260200160002054905092915050565b610a0783838360405180602001604052806000815250610fcb565b505050565b6000600c600083815260200190815260200160002060009054906101000a900473ffffffffffffffffffffffffffffffffffffffff169050919050565b6000610a536108a7565b8210610a94576040517f08c379a0000000000000000000000000000000000000000000000000000000008152600401610a8b90613534565b60405180910390fd5b60088281548110610ace577f4e487b7100000000000000000000000000000000000000000000000000000000600052603260045260246000fd5b90600052602060002001549050919050565b6000806002600084815260200190815260200160002060009054906101000a900473ffffffffffffffffffffffffffffffffffffffff169050600073ffffffffffffffffffffffffffffffffffffffff168173ffffffffffffffffffffffffffffffffffffffff161415610b89576040517f08c379a0000000000000000000000000000000000000000000000000000000008152600401610b8090613454565b60405180910390fd5b80915050919050565b60008073ffffffffffffffffffffffffffffffffffffffff168273ffffffffffffffffffffffffffffffffffffffff161415610c03576040517f08c379a0000000000000000000000000000000000000000000000000000000008152600401610bfa90613434565b60405180910390fd5b600360008373ffffffffffffffffffffffffffffffffffffffff1673ffffffffffffffffffffffffffffffffffffffff168152602001908152602001600020549050919050565b606060018054610c59906137fe565b80601f0160208091040260200160405190810160405280929190818152602001828054610c85906137fe565b8015610cd25780601f10610ca757610100808354040283529160200191610cd2565b820191906000526020600020905b815481529060010190602001808311610cb557829003601f168201915b5050505050905090565b6000600a8281548110610d18577f4e487b7100000000000000000000000000000000000000000000000000000000600052603260045260246000fd5b906000526020600020906003020160020160009054906101000a900473ffffffffffffffffffffffffffffffffffffffff169050919050565b610d5961168a565b73ffffffffffffffffffffffffffffffffffffffff168273ffffffffffffffffffffffffffffffffffffffff161415610dc7576040517f08c379a0000000000000000000000000000000000000000000000000000000008152600401610dbe906133d4565b60405180910390fd5b8060056000610dd461168a565b73ffffffffffffffffffffffffffffffffffffffff1673ffffffffffffffffffffffffffffffffffffffff16815260200190815260200160002060008473ffffffffffffffffffffffffffffffffffffffff1673ffffffffffffffffffffffffffffffffffffffff16815260200190815260200160002060006101000a81548160ff0219169083151502179055508173ffffffffffffffffffffffffffffffffffffffff16610e8161168a565b73ffffffffffffffffffffffffffffffffffffffff167f17307eab39ab6107e8899845ad3d59bd9653f200f220920489ca2b5937696c3183604051610ec691906132d9565b60405180910390a35050565b6000610edd82610ae0565b9050610eea8184846109ec565b82600c600084815260200190815260200160002060006101000a81548173ffffffffffffffffffffffffffffffffffffffff021916908373ffffffffffffffffffffffffffffffffffffffff16021790555082600a8381548110610f77577f4e487b7100000000000000000000000000000000000000000000000000000000600052603260045260246000fd5b906000526020600020906003020160020160006101000a81548173ffffffffffffffffffffffffffffffffffffffff021916908373ffffffffffffffffffffffffffffffffffffffff160217905550505050565b610fdc610fd661168a565b8361174b565b61101b576040517f08c379a000000000000000000000000000000000000000000000000000000000815260040161101290613514565b60405180910390fd5b61102784848484611a85565b50505050565b600a818154811061103d57600080fd5b9060005260206000209060030201600091509050806000018054611060906137fe565b80601f016020809104026020016040519081016040528092919081815260200182805461108c906137fe565b80156110d95780601f106110ae576101008083540402835291602001916110d9565b820191906000526020600020905b8154815290600101906020018083116110bc57829003601f168201915b5050505050908060010154908060020160009054906101000a900473ffffffffffffffffffffffffffffffffffffffff16905083565b6060600a805480602002602001604051908101604052809291908181526020016000905b828210156112575783829060005260206000209060030201604051806060016040529081600082018054611166906137fe565b80601f0160208091040260200160405190810160405280929190818152602001828054611192906137fe565b80156111df5780601f106111b4576101008083540402835291602001916111df565b820191906000526020600020905b8154815290600101906020018083116111c257829003601f168201915b50505050508152602001600182015481526020016002820160009054906101000a900473ffffffffffffffffffffffffffffffffffffffff1673ffffffffffffffffffffffffffffffffffffffff1673ffffffffffffffffffffffffffffffffffffffff168152505081526020019060010190611133565b50505050905090565b606061126b8261161e565b6112aa576040517f08c379a00000000000000000000000000000000000000000000000000000000081526004016112a1906134d4565b60405180910390fd5b60006112b4611ae1565b905060008151116112d457604051806020016040528060008152506112ff565b806112de84611af8565b6040516020016112ef92919061322c565b6040516020818303038152906040525b915050919050565b60001515600b8260405161131b9190613215565b908152602001604051809103902060009054906101000a900460ff1615151461134357600080fd5b6000600a805490509050600a60405180606001604052808481526020018381526020013373ffffffffffffffffffffffffffffffffffffffff16815250908060018154018082558091505060019003906000526020600020906003020160009091909190915060008201518160000190805190602001906113c59291906125e8565b506020820151816001015560408201518160020160006101000a81548173ffffffffffffffffffffffffffffffffffffffff021916908373ffffffffffffffffffffffffffffffffffffffff160217905550505033600c600083815260200190815260200160002060006101000a81548173ffffffffffffffffffffffffffffffffffffffff021916908373ffffffffffffffffffffffffffffffffffffffff1602179055506114753382611cc4565b60011515600b836040516114899190613215565b908152602001604051809103902060009054906101000a905050505050565b6000600560008473ffffffffffffffffffffffffffffffffffffffff1673ffffffffffffffffffffffffffffffffffffffff16815260200190815260200160002060008373ffffffffffffffffffffffffffffffffffffffff1673ffffffffffffffffffffffffffffffffffffffff16815260200190815260200160002060009054906101000a900460ff16905092915050565b60007f80ac58cd000000000000000000000000000000000000000000000000000000007bffffffffffffffffffffffffffffffffffffffffffffffffffffffff1916827bffffffffffffffffffffffffffffffffffffffffffffffffffffffff1916148061160757507f5b5e139f000000000000000000000000000000000000000000000000000000007bffffffffffffffffffffffffffffffffffffffffffffffffffffffff1916827bffffffffffffffffffffffffffffffffffffffffffffffffffffffff1916145b80611617575061161682611ce2565b5b9050919050565b60008073ffffffffffffffffffffffffffffffffffffffff166002600084815260200190815260200160002060009054906101000a900473ffffffffffffffffffffffffffffffffffffffff1673ffffffffffffffffffffffffffffffffffffffff1614159050919050565b600033905090565b816004600083815260200190815260200160002060006101000a81548173ffffffffffffffffffffffffffffffffffffffff021916908373ffffffffffffffffffffffffffffffffffffffff160217905550808273ffffffffffffffffffffffffffffffffffffffff1661170583610ae0565b73ffffffffffffffffffffffffffffffffffffffff167f8c5be1e5ebec7d5bd14f71427d1e84f3dd0314c0f7b2291e5b200ac8c7c3b92560405160405180910390a45050565b60006117568261161e565b611795576040517f08c379a000000000000000000000000000000000000000000000000000000000815260040161178c906133f4565b60405180910390fd5b60006117a083610ae0565b90508073ffffffffffffffffffffffffffffffffffffffff168473ffffffffffffffffffffffffffffffffffffffff16148061180f57508373ffffffffffffffffffffffffffffffffffffffff166117f78461070a565b73ffffffffffffffffffffffffffffffffffffffff16145b80611820575061181f81856114a8565b5b91505092915050565b8273ffffffffffffffffffffffffffffffffffffffff1661184982610ae0565b73ffffffffffffffffffffffffffffffffffffffff161461189f576040517f08c379a0000000000000000000000000000000000000000000000000000000008152600401611896906134b4565b60405180910390fd5b600073ffffffffffffffffffffffffffffffffffffffff168273ffffffffffffffffffffffffffffffffffffffff16141561190f576040517f08c379a0000000000000000000000000000000000000000000000000000000008152600401611906906133b4565b60405180910390fd5b61191a838383611d4c565b611925600082611692565b6001600360008573ffffffffffffffffffffffffffffffffffffffff1673ffffffffffffffffffffffffffffffffffffffff16815260200190815260200160002060008282546119759190613714565b925050819055506001600360008473ffffffffffffffffffffffffffffffffffffffff1673ffffffffffffffffffffffffffffffffffffffff16815260200190815260200160002060008282546119cc919061368d565b92505081905550816002600083815260200190815260200160002060006101000a81548173ffffffffffffffffffffffffffffffffffffffff021916908373ffffffffffffffffffffffffffffffffffffffff160217905550808273ffffffffffffffffffffffffffffffffffffffff168473ffffffffffffffffffffffffffffffffffffffff167fddf252ad1be2c89b69c2b068fc378daa952ba7f163c4a11628f55a4df523b3ef60405160405180910390a4505050565b611a90848484611829565b611a9c84848484611e60565b611adb576040517f08c379a0000000000000000000000000000000000000000000000000000000008152600401611ad290613374565b60405180910390fd5b50505050565b606060405180602001604052806000815250905090565b60606000821415611b40576040518060400160405280600181526020017f30000000000000000000000000000000000000000000000000000000000000008152509050611cbf565b600082905060005b60008214611b72578080611b5b90613830565b915050600a82611b6b91906136e3565b9150611b48565b60008167ffffffffffffffff811115611bb4577f4e487b7100000000000000000000000000000000000000000000000000000000600052604160045260246000fd5b6040519080825280601f01601f191660200182016040528015611be65781602001600182028036833780820191505090505b5090505b60008514611cb857600182611bff9190613714565b9150600a85611c0e9190613879565b6030611c1a919061368d565b7f010000000000000000000000000000000000000000000000000000000000000002818381518110611c75577f4e487b7100000000000000000000000000000000000000000000000000000000600052603260045260246000fd5b60200101907effffffffffffffffffffffffffffffffffffffffffffffffffffffffffffff1916908160001a905350600a85611cb191906136e3565b9450611bea565b8093505050505b919050565b611cde82826040518060200160405280600081525061202f565b5050565b60007f01ffc9a7000000000000000000000000000000000000000000000000000000007bffffffffffffffffffffffffffffffffffffffffffffffffffffffff1916827bffffffffffffffffffffffffffffffffffffffffffffffffffffffff1916149050919050565b611d5783838361208a565b600073ffffffffffffffffffffffffffffffffffffffff168373ffffffffffffffffffffffffffffffffffffffff161415611d9a57611d958161208f565b611dd9565b8173ffffffffffffffffffffffffffffffffffffffff168373ffffffffffffffffffffffffffffffffffffffff1614611dd857611dd783826120d8565b5b5b600073ffffffffffffffffffffffffffffffffffffffff168273ffffffffffffffffffffffffffffffffffffffff161415611e1c57611e1781612245565b611e5b565b8273ffffffffffffffffffffffffffffffffffffffff168273ffffffffffffffffffffffffffffffffffffffff1614611e5a57611e598282612388565b5b5b505050565b6000611e818473ffffffffffffffffffffffffffffffffffffffff16612407565b15612022578373ffffffffffffffffffffffffffffffffffffffff1663150b7a02611eaa61168a565b8786866040518563ffffffff167c0100000000000000000000000000000000000000000000000000000000028152600401611ee8949392919061326b565b602060405180830381600087803b158015611f0257600080fd5b505af1925050508015611f3357506040513d601f19601f82011682018060405250810190611f309190612994565b60015b611fb6573d8060008114611f63576040519150601f19603f3d011682016040523d82523d6000602084013e611f68565b606091505b50600081511415611fae576040517f08c379a0000000000000000000000000000000000000000000000000000000008152600401611fa590613374565b60405180910390fd5b805181602001fd5b63150b7a027c0100000000000000000000000000000000000000000000000000000000027bffffffffffffffffffffffffffffffffffffffffffffffffffffffff1916817bffffffffffffffffffffffffffffffffffffffffffffffffffffffff191614915050612027565b600190505b949350505050565b612039838361241a565b6120466000848484611e60565b612085576040517f08c379a000000000000000000000000000000000000000000000000000000000815260040161207c90613374565b60405180910390fd5b505050565b505050565b6008805490506009600083815260200190815260200160002081905550600881908060018154018082558091505060019003906000526020600020016000909190919091505550565b600060016120e584610b92565b6120ef9190613714565b90506000600760008481526020019081526020016000205490508181146121d4576000600660008673ffffffffffffffffffffffffffffffffffffffff1673ffffffffffffffffffffffffffffffffffffffff168152602001908152602001600020600084815260200190815260200160002054905080600660008773ffffffffffffffffffffffffffffffffffffffff1673ffffffffffffffffffffffffffffffffffffffff168152602001908152602001600020600084815260200190815260200160002081905550816007600083815260200190815260200160002081905550505b6007600084815260200190815260200160002060009055600660008573ffffffffffffffffffffffffffffffffffffffff1673ffffffffffffffffffffffffffffffffffffffff16815260200190815260200160002060008381526020019081526020016000206000905550505050565b600060016008805490506122599190613714565b90506000600960008481526020019081526020016000205490506000600883815481106122af577f4e487b7100000000000000000000000000000000000000000000000000000000600052603260045260246000fd5b9060005260206000200154905080600883815481106122f7577f4e487b7100000000000000000000000000000000000000000000000000000000600052603260045260246000fd5b90600052602060002001819055508160096000838152602001908152602001600020819055506009600085815260200190815260200160002060009055600880548061236c577f4e487b7100000000000000000000000000000000000000000000000000000000600052603160045260246000fd5b6001900381819060005260206000200160009055905550505050565b600061239383610b92565b905081600660008573ffffffffffffffffffffffffffffffffffffffff1673ffffffffffffffffffffffffffffffffffffffff168152602001908152602001600020600083815260200190815260200160002081905550806007600084815260200190815260200160002081905550505050565b600080823b905060008111915050919050565b600073ffffffffffffffffffffffffffffffffffffffff168273ffffffffffffffffffffffffffffffffffffffff16141561248a576040517f08c379a000000000000000000000000000000000000000000000000000000000815260040161248190613474565b60405180910390fd5b6124938161161e565b156124d3576040517f08c379a00000000000000000000000000000000000000000000000000000000081526004016124ca90613394565b60405180910390fd5b6124df60008383611d4c565b6001600360008473ffffffffffffffffffffffffffffffffffffffff1673ffffffffffffffffffffffffffffffffffffffff168152602001908152602001600020600082825461252f919061368d565b92505081905550816002600083815260200190815260200160002060006101000a81548173ffffffffffffffffffffffffffffffffffffffff021916908373ffffffffffffffffffffffffffffffffffffffff160217905550808273ffffffffffffffffffffffffffffffffffffffff16600073ffffffffffffffffffffffffffffffffffffffff167fddf252ad1be2c89b69c2b068fc378daa952ba7f163c4a11628f55a4df523b3ef60405160405180910390a45050565b8280546125f4906137fe565b90600052602060002090601f016020900481019282612616576000855561265d565b82601f1061262f57805160ff191683800117855561265d565b8280016001018555821561265d579182015b8281111561265c578251825591602001919060010190612641565b5b50905061266a919061266e565b5090565b5b8082111561268757600081600090555060010161266f565b5090565b600061269e612699846135a0565b61356f565b9050828152602081018484840111156126b657600080fd5b6126c18482856137bc565b509392505050565b60006126dc6126d7846135d0565b61356f565b9050828152602081018484840111156126f457600080fd5b6126ff8482856137bc565b509392505050565b60008135905061271681613977565b92915050565b60008135905061272b8161398e565b92915050565b600081359050612740816139a5565b92915050565b600081519050612755816139a5565b92915050565b600082601f83011261276c57600080fd5b813561277c84826020860161268b565b91505092915050565b600082601f83011261279657600080fd5b81356127a68482602086016126c9565b91505092915050565b6000813590506127be816139bc565b92915050565b6000602082840312156127d657600080fd5b60006127e484828501612707565b91505092915050565b6000806040838503121561280057600080fd5b600061280e85828601612707565b925050602061281f85828601612707565b9150509250929050565b60008060006060848603121561283e57600080fd5b600061284c86828701612707565b935050602061285d86828701612707565b925050604061286e868287016127af565b9150509250925092565b6000806000806080858703121561288e57600080fd5b600061289c87828801612707565b94505060206128ad87828801612707565b93505060406128be878288016127af565b925050606085013567ffffffffffffffff8111156128db57600080fd5b6128e78782880161275b565b91505092959194509250565b6000806040838503121561290657600080fd5b600061291485828601612707565b92505060206129258582860161271c565b9150509250929050565b6000806040838503121561294257600080fd5b600061295085828601612707565b9250506020612961858286016127af565b9150509250929050565b60006020828403121561297d57600080fd5b600061298b84828501612731565b91505092915050565b6000602082840312156129a657600080fd5b60006129b484828501612746565b91505092915050565b6000602082840312156129cf57600080fd5b600082013567ffffffffffffffff8111156129e957600080fd5b6129f584828501612785565b91505092915050565b600060208284031215612a1057600080fd5b6000612a1e848285016127af565b91505092915050565b6000612a3383836131a7565b905092915050565b612a4481613748565b82525050565b612a5381613748565b82525050565b6000612a6482613610565b612a6e818561363e565b935083602082028501612a8085613600565b8060005b85811015612abc5784840389528151612a9d8582612a27565b9450612aa883613631565b925060208a01995050600181019050612a84565b50829750879550505050505092915050565b612ad78161375a565b82525050565b6000612ae88261361b565b612af2818561364f565b9350612b028185602086016137cb565b612b0b81613966565b840191505092915050565b6000612b2182613626565b612b2b8185613660565b9350612b3b8185602086016137cb565b612b4481613966565b840191505092915050565b6000612b5a82613626565b612b648185613671565b9350612b748185602086016137cb565b612b7d81613966565b840191505092915050565b6000612b9382613626565b612b9d8185613682565b9350612bad8185602086016137cb565b80840191505092915050565b6000612bc6602b83613671565b91507f455243373231456e756d657261626c653a206f776e657220696e646578206f7560008301527f74206f6620626f756e64730000000000000000000000000000000000000000006020830152604082019050919050565b6000612c2c603283613671565b91507f4552433732313a207472616e7366657220746f206e6f6e20455243373231526560008301527f63656976657220696d706c656d656e74657200000000000000000000000000006020830152604082019050919050565b6000612c92601c83613671565b91507f4552433732313a20746f6b656e20616c7265616479206d696e746564000000006000830152602082019050919050565b6000612cd2602483613671565b91507f4552433732313a207472616e7366657220746f20746865207a65726f2061646460008301527f72657373000000000000000000000000000000000000000000000000000000006020830152604082019050919050565b6000612d38601983613671565b91507f4552433732313a20617070726f766520746f2063616c6c6572000000000000006000830152602082019050919050565b6000612d78602c83613671565b91507f4552433732313a206f70657261746f7220717565727920666f72206e6f6e657860008301527f697374656e7420746f6b656e00000000000000000000000000000000000000006020830152604082019050919050565b6000612dde603883613671565b91507f4552433732313a20617070726f76652063616c6c6572206973206e6f74206f7760008301527f6e6572206e6f7220617070726f76656420666f7220616c6c00000000000000006020830152604082019050919050565b6000612e44602a83613671565b91507f4552433732313a2062616c616e636520717565727920666f7220746865207a6560008301527f726f2061646472657373000000000000000000000000000000000000000000006020830152604082019050919050565b6000612eaa602983613671565b91507f4552433732313a206f776e657220717565727920666f72206e6f6e657869737460008301527f656e7420746f6b656e00000000000000000000000000000000000000000000006020830152604082019050919050565b6000612f10602083613671565b91507f4552433732313a206d696e7420746f20746865207a65726f20616464726573736000830152602082019050919050565b6000612f50602c83613671565b91507f4552433732313a20617070726f76656420717565727920666f72206e6f6e657860008301527f697374656e7420746f6b656e00000000000000000000000000000000000000006020830152604082019050919050565b6000612fb6602983613671565b91507f4552433732313a207472616e73666572206f6620746f6b656e2074686174206960008301527f73206e6f74206f776e00000000000000000000000000000000000000000000006020830152604082019050919050565b600061301c602f83613671565b91507f4552433732314d657461646174613a2055524920717565727920666f72206e6f60008301527f6e6578697374656e7420746f6b656e00000000000000000000000000000000006020830152604082019050919050565b6000613082602183613671565b91507f4552433732313a20617070726f76616c20746f2063757272656e74206f776e6560008301527f72000000000000000000000000000000000000000000000000000000000000006020830152604082019050919050565b60006130e8603183613671565b91507f4552433732313a207472616e736665722063616c6c6572206973206e6f74206f60008301527f776e6572206e6f7220617070726f7665640000000000000000000000000000006020830152604082019050919050565b600061314e602c83613671565b91507f455243373231456e756d657261626c653a20676c6f62616c20696e646578206f60008301527f7574206f6620626f756e647300000000000000000000000000000000000000006020830152604082019050919050565b600060608301600083015184820360008601526131c48282612b16565b91505060208301516131d960208601826131f7565b5060408301516131ec6040860182612a3b565b508091505092915050565b613200816137b2565b82525050565b61320f816137b2565b82525050565b60006132218284612b88565b915081905092915050565b60006132388285612b88565b91506132448284612b88565b91508190509392505050565b60006020820190506132656000830184612a4a565b92915050565b60006080820190506132806000830187612a4a565b61328d6020830186612a4a565b61329a6040830185613206565b81810360608301526132ac8184612add565b905095945050505050565b600060208201905081810360008301526132d18184612a59565b905092915050565b60006020820190506132ee6000830184612ace565b92915050565b6000602082019050818103600083015261330e8184612b4f565b905092915050565b600060608201905081810360008301526133308186612b4f565b905061333f6020830185613206565b61334c6040830184612a4a565b949350505050565b6000602082019050818103600083015261336d81612bb9565b9050919050565b6000602082019050818103600083015261338d81612c1f565b9050919050565b600060208201905081810360008301526133ad81612c85565b9050919050565b600060208201905081810360008301526133cd81612cc5565b9050919050565b600060208201905081810360008301526133ed81612d2b565b9050919050565b6000602082019050818103600083015261340d81612d6b565b9050919050565b6000602082019050818103600083015261342d81612dd1565b9050919050565b6000602082019050818103600083015261344d81612e37565b9050919050565b6000602082019050818103600083015261346d81612e9d565b9050919050565b6000602082019050818103600083015261348d81612f03565b9050919050565b600060208201905081810360008301526134ad81612f43565b9050919050565b600060208201905081810360008301526134cd81612fa9565b9050919050565b600060208201905081810360008301526134ed8161300f565b9050919050565b6000602082019050818103600083015261350d81613075565b9050919050565b6000602082019050818103600083015261352d816130db565b9050919050565b6000602082019050818103600083015261354d81613141565b9050919050565b60006020820190506135696000830184613206565b92915050565b6000604051905081810181811067ffffffffffffffff8211171561359657613595613937565b5b8060405250919050565b600067ffffffffffffffff8211156135bb576135ba613937565b5b601f19601f8301169050602081019050919050565b600067ffffffffffffffff8211156135eb576135ea613937565b5b601f19601f8301169050602081019050919050565b6000819050602082019050919050565b600081519050919050565b600081519050919050565b600081519050919050565b6000602082019050919050565b600082825260208201905092915050565b600082825260208201905092915050565b600082825260208201905092915050565b600082825260208201905092915050565b600081905092915050565b6000613698826137b2565b91506136a3836137b2565b9250827fffffffffffffffffffffffffffffffffffffffffffffffffffffffffffffffff038211156136d8576136d76138aa565b5b828201905092915050565b60006136ee826137b2565b91506136f9836137b2565b925082613709576137086138d9565b5b828204905092915050565b600061371f826137b2565b915061372a836137b2565b92508282101561373d5761373c6138aa565b5b828203905092915050565b600061375382613792565b9050919050565b60008115159050919050565b60007fffffffff0000000000000000000000000000000000000000000000000000000082169050919050565b600073ffffffffffffffffffffffffffffffffffffffff82169050919050565b6000819050919050565b82818337600083830152505050565b60005b838110156137e95780820151818401526020810190506137ce565b838111156137f8576000848401525b50505050565b6000600282049050600182168061381657607f821691505b6020821081141561382a57613829613908565b5b50919050565b600061383b826137b2565b91507fffffffffffffffffffffffffffffffffffffffffffffffffffffffffffffffff82141561386e5761386d6138aa565b5b600182019050919050565b6000613884826137b2565b915061388f836137b2565b92508261389f5761389e6138d9565b5b828206905092915050565b7f4e487b7100000000000000000000000000000000000000000000000000000000600052601160045260246000fd5b7f4e487b7100000000000000000000000000000000000000000000000000000000600052601260045260246000fd5b7f4e487b7100000000000000000000000000000000000000000000000000000000600052602260045260246000fd5b7f4e487b7100000000000000000000000000000000000000000000000000000000600052604160045260246000fd5b6000601f19601f8301169050919050565b61398081613748565b811461398b57600080fd5b50565b6139978161375a565b81146139a257600080fd5b50565b6139ae81613766565b81146139b957600080fd5b50565b6139c5816137b2565b81146139d057600080fd5b5056fea26469706673582212209883b60a6933ff684498d332143497f162e5105e7c2c32fe541fb29d7930161964736f6c63430008000033",
  "immutableReferences": {},
  "source": "// SPDX-License-Identifier: MIT\npragma solidity ^0.8.0;\n\nimport \"@openzeppelin/contracts/token/ERC721/extensions/ERC721Enumerable.sol\";\n\ncontract BitEth is ERC721Enumerable{\n\nconstructor() ERC721('BitEth NFT','BTE') {}\n\nstruct Item{\n    string itemName;\n    uint id;\n    address owner;\n}\n\nItem [] public items;\nmapping(string => bool) _itemExists;\nmapping (uint => address) public itemToOwner;\n\nfunction MintandBuy(string memory _itemName) public{\nrequire (_itemExists[_itemName] == false);\nuint _id = items.length;\nitems.push(Item(_itemName, _id,msg.sender));\nitemToOwner[_id] = msg.sender;\n_safeMint(msg.sender, _id);\n_itemExists[_itemName] == true;\n}\n\nfunction transfer (address _to, uint _id) public payable {\n// require (ownerOf(_id) == msg.sender);\n// address owner = ownerOf(_id);\n// address buyer = _to;\n// approve(buyer, _id);\n// itemApprovals[_id] = buyer;\naddress _from = ownerOf(_id);\nsafeTransferFrom(_from, _to, _id);\nitemToOwner[_id] = _to;\nitems[_id].owner = _to;\n}\n\nfunction getItem ()public view returns(Item[] memory){\n    return items;\n}\n\nfunction getowner (uint _id) public view returns (address){\n    return itemToOwner[_id];\n}\n\nfunction getownertwo (uint _index) public view returns (address){\n    return items[_index].owner;\n}\n\n}",
  "sourcePath": "/Users/philemon/crypto_coin/src/contracts/BitEth.sol",
  "compiler": {
    "name": "solc",
    "version": "0.8.0+commit.c7dfd78e.Emscripten.clang"
  },
  "schemaVersion": "3.3.4",
  "updatedAt": "2021-04-27T03:39:59.831Z",
  "devdoc": {
    "kind": "dev",
    "methods": {
      "approve(address,uint256)": {
        "details": "See {IERC721-approve}."
      },
      "balanceOf(address)": {
        "details": "See {IERC721-balanceOf}."
      },
      "getApproved(uint256)": {
        "details": "See {IERC721-getApproved}."
      },
      "isApprovedForAll(address,address)": {
        "details": "See {IERC721-isApprovedForAll}."
      },
      "name()": {
        "details": "See {IERC721Metadata-name}."
      },
      "ownerOf(uint256)": {
        "details": "See {IERC721-ownerOf}."
      },
      "safeTransferFrom(address,address,uint256)": {
        "details": "See {IERC721-safeTransferFrom}."
      },
      "safeTransferFrom(address,address,uint256,bytes)": {
        "details": "See {IERC721-safeTransferFrom}."
      },
      "setApprovalForAll(address,bool)": {
        "details": "See {IERC721-setApprovalForAll}."
      },
      "supportsInterface(bytes4)": {
        "details": "See {IERC165-supportsInterface}."
      },
      "symbol()": {
        "details": "See {IERC721Metadata-symbol}."
      },
      "tokenByIndex(uint256)": {
        "details": "See {IERC721Enumerable-tokenByIndex}."
      },
      "tokenOfOwnerByIndex(address,uint256)": {
        "details": "See {IERC721Enumerable-tokenOfOwnerByIndex}."
      },
      "tokenURI(uint256)": {
        "details": "See {IERC721Metadata-tokenURI}."
      },
      "totalSupply()": {
        "details": "See {IERC721Enumerable-totalSupply}."
      },
      "transferFrom(address,address,uint256)": {
        "details": "See {IERC721-transferFrom}."
      }
    },
    "version": 1
  },
  "userdoc": {
    "kind": "user",
    "methods": {},
    "version": 1
  }
}