{
  "contractName": "CloseSeaNFT",
  "abi": [
    {
      "inputs": [],
      "stateMutability": "nonpayable",
      "type": "constructor"
    },
    {
      "anonymous": false,
      "inputs": [
        {
          "indexed": true,
          "internalType": "address",
          "name": "owner",
          "type": "address"
        },
        {
          "indexed": true,
          "internalType": "address",
          "name": "approved",
          "type": "address"
        },
        {
          "indexed": true,
          "internalType": "uint256",
          "name": "tokenId",
          "type": "uint256"
        }
      ],
      "name": "Approval",
      "type": "event"
    },
    {
      "anonymous": false,
      "inputs": [
        {
          "indexed": true,
          "internalType": "address",
          "name": "owner",
          "type": "address"
        },
        {
          "indexed": true,
          "internalType": "address",
          "name": "operator",
          "type": "address"
        },
        {
          "indexed": false,
          "internalType": "bool",
          "name": "approved",
          "type": "bool"
        }
      ],
      "name": "ApprovalForAll",
      "type": "event"
    },
    {
      "anonymous": false,
      "inputs": [
        {
          "indexed": true,
          "internalType": "address",
          "name": "from",
          "type": "address"
        },
        {
          "indexed": true,
          "internalType": "address",
          "name": "to",
          "type": "address"
        },
        {
          "indexed": true,
          "internalType": "uint256",
          "name": "tokenId",
          "type": "uint256"
        }
      ],
      "name": "Transfer",
      "type": "event"
    },
    {
      "inputs": [
        {
          "internalType": "address",
          "name": "to",
          "type": "address"
        },
        {
          "internalType": "uint256",
          "name": "tokenId",
          "type": "uint256"
        }
      ],
      "name": "approve",
      "outputs": [],
      "stateMutability": "nonpayable",
      "type": "function"
    },
    {
      "inputs": [
        {
          "internalType": "address",
          "name": "owner",
          "type": "address"
        }
      ],
      "name": "balanceOf",
      "outputs": [
        {
          "internalType": "uint256",
          "name": "",
          "type": "uint256"
        }
      ],
      "stateMutability": "view",
      "type": "function",
      "constant": true
    },
    {
      "inputs": [
        {
          "internalType": "uint256",
          "name": "tokenId",
          "type": "uint256"
        }
      ],
      "name": "getApproved",
      "outputs": [
        {
          "internalType": "address",
          "name": "",
          "type": "address"
        }
      ],
      "stateMutability": "view",
      "type": "function",
      "constant": true
    },
    {
      "inputs": [
        {
          "internalType": "address",
          "name": "owner",
          "type": "address"
        },
        {
          "internalType": "address",
          "name": "operator",
          "type": "address"
        }
      ],
      "name": "isApprovedForAll",
      "outputs": [
        {
          "internalType": "bool",
          "name": "",
          "type": "bool"
        }
      ],
      "stateMutability": "view",
      "type": "function",
      "constant": true
    },
    {
      "inputs": [
        {
          "internalType": "uint256",
          "name": "",
          "type": "uint256"
        }
      ],
      "name": "items",
      "outputs": [
        {
          "internalType": "string",
          "name": "itemName",
          "type": "string"
        },
        {
          "internalType": "uint256",
          "name": "id",
          "type": "uint256"
        },
        {
          "internalType": "address",
          "name": "owner",
          "type": "address"
        },
        {
          "internalType": "address",
          "name": "creator",
          "type": "address"
        },
        {
          "internalType": "uint64",
          "name": "price",
          "type": "uint64"
        },
        {
          "internalType": "bool",
          "name": "forSale",
          "type": "bool"
        },
        {
          "internalType": "string",
          "name": "tokenURI",
          "type": "string"
        }
      ],
      "stateMutability": "view",
      "type": "function",
      "constant": true
    },
    {
      "inputs": [],
      "name": "name",
      "outputs": [
        {
          "internalType": "string",
          "name": "",
          "type": "string"
        }
      ],
      "stateMutability": "view",
      "type": "function",
      "constant": true
    },
    {
      "inputs": [
        {
          "internalType": "uint256",
          "name": "tokenId",
          "type": "uint256"
        }
      ],
      "name": "ownerOf",
      "outputs": [
        {
          "internalType": "address",
          "name": "",
          "type": "address"
        }
      ],
      "stateMutability": "view",
      "type": "function",
      "constant": true
    },
    {
      "inputs": [
        {
          "internalType": "address",
          "name": "from",
          "type": "address"
        },
        {
          "internalType": "address",
          "name": "to",
          "type": "address"
        },
        {
          "internalType": "uint256",
          "name": "tokenId",
          "type": "uint256"
        }
      ],
      "name": "safeTransferFrom",
      "outputs": [],
      "stateMutability": "nonpayable",
      "type": "function"
    },
    {
      "inputs": [
        {
          "internalType": "address",
          "name": "from",
          "type": "address"
        },
        {
          "internalType": "address",
          "name": "to",
          "type": "address"
        },
        {
          "internalType": "uint256",
          "name": "tokenId",
          "type": "uint256"
        },
        {
          "internalType": "bytes",
          "name": "_data",
          "type": "bytes"
        }
      ],
      "name": "safeTransferFrom",
      "outputs": [],
      "stateMutability": "nonpayable",
      "type": "function"
    },
    {
      "inputs": [
        {
          "internalType": "address",
          "name": "operator",
          "type": "address"
        },
        {
          "internalType": "bool",
          "name": "approved",
          "type": "bool"
        }
      ],
      "name": "setApprovalForAll",
      "outputs": [],
      "stateMutability": "nonpayable",
      "type": "function"
    },
    {
      "inputs": [
        {
          "internalType": "bytes4",
          "name": "interfaceId",
          "type": "bytes4"
        }
      ],
      "name": "supportsInterface",
      "outputs": [
        {
          "internalType": "bool",
          "name": "",
          "type": "bool"
        }
      ],
      "stateMutability": "view",
      "type": "function",
      "constant": true
    },
    {
      "inputs": [],
      "name": "symbol",
      "outputs": [
        {
          "internalType": "string",
          "name": "",
          "type": "string"
        }
      ],
      "stateMutability": "view",
      "type": "function",
      "constant": true
    },
    {
      "inputs": [
        {
          "internalType": "uint256",
          "name": "tokenId",
          "type": "uint256"
        }
      ],
      "name": "tokenURI",
      "outputs": [
        {
          "internalType": "string",
          "name": "",
          "type": "string"
        }
      ],
      "stateMutability": "view",
      "type": "function",
      "constant": true
    },
    {
      "inputs": [
        {
          "internalType": "address",
          "name": "from",
          "type": "address"
        },
        {
          "internalType": "address",
          "name": "to",
          "type": "address"
        },
        {
          "internalType": "uint256",
          "name": "tokenId",
          "type": "uint256"
        }
      ],
      "name": "transferFrom",
      "outputs": [],
      "stateMutability": "nonpayable",
      "type": "function"
    },
    {
      "inputs": [
        {
          "internalType": "string",
          "name": "_itemName",
          "type": "string"
        }
      ],
      "name": "mint",
      "outputs": [],
      "stateMutability": "nonpayable",
      "type": "function"
    },
    {
      "inputs": [
        {
          "internalType": "uint256",
          "name": "_tokenId",
          "type": "uint256"
        },
        {
          "internalType": "uint64",
          "name": "price",
          "type": "uint64"
        }
      ],
      "name": "tokenOnSale",
      "outputs": [],
      "stateMutability": "nonpayable",
      "type": "function"
    },
    {
      "inputs": [
        {
          "internalType": "uint256",
          "name": "_tokenId",
          "type": "uint256"
        },
        {
          "internalType": "uint64",
          "name": "price",
          "type": "uint64"
        }
      ],
      "name": "tokenOnSale2",
      "outputs": [],
      "stateMutability": "nonpayable",
      "type": "function"
    },
    {
      "inputs": [
        {
          "internalType": "uint256",
          "name": "_tokenId",
          "type": "uint256"
        }
      ],
      "name": "buyingWithoutApproval2",
      "outputs": [],
      "stateMutability": "payable",
      "type": "function",
      "payable": true
    },
    {
      "inputs": [
        {
          "internalType": "uint256",
          "name": "_tokenId",
          "type": "uint256"
        }
      ],
      "name": "notForSale",
      "outputs": [],
      "stateMutability": "nonpayable",
      "type": "function"
    },
    {
      "inputs": [
        {
          "internalType": "address",
          "name": "_to",
          "type": "address"
        },
        {
          "internalType": "uint256",
          "name": "_tokenId",
          "type": "uint256"
        }
      ],
      "name": "approvalTo",
      "outputs": [],
      "stateMutability": "nonpayable",
      "type": "function"
    },
    {
      "inputs": [
        {
          "internalType": "uint256",
          "name": "_tokenId",
          "type": "uint256"
        }
      ],
      "name": "cancelApproval",
      "outputs": [],
      "stateMutability": "nonpayable",
      "type": "function"
    },
    {
      "inputs": [
        {
          "internalType": "uint256",
          "name": "_tokenId",
          "type": "uint256"
        }
      ],
      "name": "buyingWithApproval",
      "outputs": [],
      "stateMutability": "payable",
      "type": "function",
      "payable": true
    },
    {
      "inputs": [
        {
          "internalType": "uint256",
          "name": "_tokenId",
          "type": "uint256"
        }
      ],
      "name": "buyingWithoutApproval",
      "outputs": [],
      "stateMutability": "payable",
      "type": "function",
      "payable": true
    },
    {
      "inputs": [
        {
          "internalType": "uint256",
          "name": "_tokenId",
          "type": "uint256"
        }
      ],
      "name": "burnToken",
      "outputs": [],
      "stateMutability": "nonpayable",
      "type": "function"
    },
    {
      "inputs": [],
      "name": "getAllItems",
      "outputs": [
        {
          "components": [
            {
              "internalType": "string",
              "name": "itemName",
              "type": "string"
            },
            {
              "internalType": "uint256",
              "name": "id",
              "type": "uint256"
            },
            {
              "internalType": "address",
              "name": "owner",
              "type": "address"
            },
            {
              "internalType": "address",
              "name": "creator",
              "type": "address"
            },
            {
              "internalType": "uint64",
              "name": "price",
              "type": "uint64"
            },
            {
              "internalType": "bool",
              "name": "forSale",
              "type": "bool"
            },
            {
              "internalType": "string",
              "name": "tokenURI",
              "type": "string"
            }
          ],
          "internalType": "struct CloseSeaNFT.Item[]",
          "name": "",
          "type": "tuple[]"
        }
      ],
      "stateMutability": "view",
      "type": "function",
      "constant": true
    },
    {
      "inputs": [
        {
          "internalType": "uint256",
          "name": "_tokenId",
          "type": "uint256"
        }
      ],
      "name": "getURI",
      "outputs": [
        {
          "internalType": "string",
          "name": "",
          "type": "string"
        }
      ],
      "stateMutability": "view",
      "type": "function",
      "constant": true
    },
    {
      "inputs": [
        {
          "internalType": "uint256",
          "name": "_tokenId",
          "type": "uint256"
        }
      ],
      "name": "getOwner",
      "outputs": [
        {
          "internalType": "address",
          "name": "",
          "type": "address"
        }
      ],
      "stateMutability": "view",
      "type": "function",
      "constant": true
    },
    {
      "inputs": [
        {
          "internalType": "uint256",
          "name": "_tokenId",
          "type": "uint256"
        }
      ],
      "name": "getOwnertwo",
      "outputs": [
        {
          "internalType": "address",
          "name": "",
          "type": "address"
        }
      ],
      "stateMutability": "view",
      "type": "function",
      "constant": true
    },
    {
      "inputs": [
        {
          "internalType": "uint256",
          "name": "_tokenId",
          "type": "uint256"
        }
      ],
      "name": "isApproved",
      "outputs": [
        {
          "internalType": "address",
          "name": "",
          "type": "address"
        }
      ],
      "stateMutability": "view",
      "type": "function",
      "constant": true
    },
    {
      "inputs": [
        {
          "internalType": "uint256",
          "name": "_tokenId",
          "type": "uint256"
        }
      ],
      "name": "getToken",
      "outputs": [
        {
          "internalType": "string",
          "name": "name",
          "type": "string"
        },
        {
          "internalType": "uint256",
          "name": "id",
          "type": "uint256"
        },
        {
          "internalType": "address",
          "name": "owner",
          "type": "address"
        },
        {
          "internalType": "address",
          "name": "creator",
          "type": "address"
        },
        {
          "internalType": "uint64",
          "name": "price",
          "type": "uint64"
        },
        {
          "internalType": "bool",
          "name": "forSale",
          "type": "bool"
        },
        {
          "internalType": "string",
          "name": "tokenURI",
          "type": "string"
        }
      ],
      "stateMutability": "view",
      "type": "function",
      "constant": true
    }
  ],
  "bytecode": "0x60806040523480156200001157600080fd5b506040518060400160405280600a81526020017f426974457468204e4654000000000000000000000000000000000000000000008152506040518060400160405280600381526020017f4254450000000000000000000000000000000000000000000000000000000000815250816000908051906020019062000096929190620000b8565b508060019080519060200190620000af929190620000b8565b505050620001cd565b828054620000c69062000168565b90600052602060002090601f016020900481019282620000ea576000855562000136565b82601f106200010557805160ff191683800117855562000136565b8280016001018555821562000136579182015b828111156200013557825182559160200191906001019062000118565b5b50905062000145919062000149565b5090565b5b80821115620001645760008160009055506001016200014a565b5090565b600060028204905060018216806200018157607f821691505b602082108114156200019857620001976200019e565b5b50919050565b7f4e487b7100000000000000000000000000000000000000000000000000000000600052602260045260246000fd5b614e6880620001dd6000396000f3fe6080604052600436106101ea576000357c01000000000000000000000000000000000000000000000000000000009004806370a0823111610114578063b88d4fde116100b2578063d85d3d2711610081578063d85d3d27146106c6578063e4b50cb8146106ef578063e985e9c514610732578063f63982de1461076f576101ea565b8063b88d4fde146105e0578063bfb231d214610609578063c41a360a1461064c578063c87b56dd14610689576101ea565b80637b47ec1a116100ee5780637b47ec1a1461054757806395d89b4114610570578063a22cb4651461059b578063b7ebc7bc146105c4576101ea565b806370a08231146104a45780637910867b146104e15780637b062c901461051e576101ea565b80633cb527bd1161018c5780635449fe031161015b5780635449fe03146103e55780636352211e1461040e578063644d41f41461044b5780636d1111bd14610488576101ea565b80633cb527bd1461033f5780633e7d2f351461036857806342842e0e146103915780634ba1d6aa146103ba576101ea565b8063081812fc116101c8578063081812fc14610273578063095ea7b3146102b05780631aa347dc146102d957806323b872dd14610316576101ea565b806301ffc9a7146101ef57806305fb504b1461022c57806306fdde0314610248575b600080fd5b3480156101fb57600080fd5b5061021660048036038101906102119190613c04565b610798565b60405161022391906146ae565b60405180910390f35b61024660048036038101906102419190613c97565b61087a565b005b34801561025457600080fd5b5061025d610a24565b60405161026a91906146c9565b60405180910390f35b34801561027f57600080fd5b5061029a60048036038101906102959190613c97565b610ab6565b6040516102a79190614625565b60405180910390f35b3480156102bc57600080fd5b506102d760048036038101906102d29190613bc8565b610b3b565b005b3480156102e557600080fd5b5061030060048036038101906102fb9190613c97565b610c53565b60405161030d91906146c9565b60405180910390f35b34801561032257600080fd5b5061033d60048036038101906103389190613ac2565b610c65565b005b34801561034b57600080fd5b5061036660048036038101906103619190613cc0565b610cc5565b005b34801561037457600080fd5b5061038f600480360381019061038a9190613c97565b610dc2565b005b34801561039d57600080fd5b506103b860048036038101906103b39190613ac2565b610ebf565b005b3480156103c657600080fd5b506103cf610edf565b6040516103dc919061468c565b60405180910390f35b3480156103f157600080fd5b5061040c60048036038101906104079190613c97565b611165565b005b34801561041a57600080fd5b5061043560048036038101906104309190613c97565b6111fd565b6040516104429190614625565b60405180910390f35b34801561045757600080fd5b50610472600480360381019061046d9190613c97565b6112af565b60405161047f9190614625565b60405180910390f35b6104a2600480360381019061049d9190613c97565b6113a1565b005b3480156104b057600080fd5b506104cb60048036038101906104c69190613a5d565b61163f565b6040516104d89190614988565b60405180910390f35b3480156104ed57600080fd5b5061050860048036038101906105039190613c97565b6116f7565b6040516105159190614625565b60405180910390f35b34801561052a57600080fd5b5061054560048036038101906105409190613cc0565b611734565b005b34801561055357600080fd5b5061056e60048036038101906105699190613c97565b6118d4565b005b34801561057c57600080fd5b50610585611af1565b60405161059291906146c9565b60405180910390f35b3480156105a757600080fd5b506105c260048036038101906105bd9190613b8c565b611b83565b005b6105de60048036038101906105d99190613c97565b611d04565b005b3480156105ec57600080fd5b5061060760048036038101906106029190613b11565b611f7d565b005b34801561061557600080fd5b50610630600480360381019061062b9190613c97565b611fdf565b60405161064397969594939291906146eb565b60405180910390f35b34801561065857600080fd5b50610673600480360381019061066e9190613c97565b6121a2565b6040516106809190614625565b60405180910390f35b34801561069557600080fd5b506106b060048036038101906106ab9190613c97565b6121df565b6040516106bd91906146c9565b60405180910390f35b3480156106d257600080fd5b506106ed60048036038101906106e89190613c56565b612331565b005b3480156106fb57600080fd5b5061071660048036038101906107119190613c97565b612621565b60405161072997969594939291906146eb565b60405180910390f35b34801561073e57600080fd5b5061075960048036038101906107549190613a86565b61280b565b60405161076691906146ae565b60405180910390f35b34801561077b57600080fd5b5061079660048036038101906107919190613bc8565b61289f565b005b60007f80ac58cd000000000000000000000000000000000000000000000000000000007bffffffffffffffffffffffffffffffffffffffffffffffffffffffff1916827bffffffffffffffffffffffffffffffffffffffffffffffffffffffff1916148061086357507f5b5e139f000000000000000000000000000000000000000000000000000000007bffffffffffffffffffffffffffffffffffffffffffffffffffffffff1916827bffffffffffffffffffffffffffffffffffffffffffffffffffffffff1916145b80610873575061087282612a4b565b5b9050919050565b3373ffffffffffffffffffffffffffffffffffffffff1661089a826111fd565b73ffffffffffffffffffffffffffffffffffffffff1614156108bb57600080fd5b6000600882815481106108f7577f4e487b7100000000000000000000000000000000000000000000000000000000600052603260045260246000fd5b906000526020600020906005020190506001151581600301601c9054906101000a900460ff1615151461092957600080fd5b6000610934836111fd565b9050610941813385612ab5565b33600a600085815260200190815260200160002060006101000a81548173ffffffffffffffffffffffffffffffffffffffff021916908373ffffffffffffffffffffffffffffffffffffffff160217905550338260020160006101000a81548173ffffffffffffffffffffffffffffffffffffffff021916908373ffffffffffffffffffffffffffffffffffffffff16021790555060008260030160146101000a81548167ffffffffffffffff021916908367ffffffffffffffff160217905550600082600301601c6101000a81548160ff021916908315150217905550505050565b606060008054610a3390614c46565b80601f0160208091040260200160405190810160405280929190818152602001828054610a5f90614c46565b8015610aac5780601f10610a8157610100808354040283529160200191610aac565b820191906000526020600020905b815481529060010190602001808311610a8f57829003601f168201915b5050505050905090565b6000610ac182612d11565b610b00576040517f08c379a0000000000000000000000000000000000000000000000000000000008152600401610af7906148e8565b60405180910390fd5b6004600083815260200190815260200160002060009054906101000a900473ffffffffffffffffffffffffffffffffffffffff169050919050565b6000610b46826111fd565b90508073ffffffffffffffffffffffffffffffffffffffff168373ffffffffffffffffffffffffffffffffffffffff161415610bb7576040517f08c379a0000000000000000000000000000000000000000000000000000000008152600401610bae90614948565b60405180910390fd5b8073ffffffffffffffffffffffffffffffffffffffff16610bd6612d7d565b73ffffffffffffffffffffffffffffffffffffffff161480610c055750610c0481610bff612d7d565b61280b565b5b610c44576040517f08c379a0000000000000000000000000000000000000000000000000000000008152600401610c3b90614828565b60405180910390fd5b610c4e8383612d85565b505050565b6060610c5e826121df565b9050919050565b610c76610c70612d7d565b82612e3e565b610cb5576040517f08c379a0000000000000000000000000000000000000000000000000000000008152600401610cac90614968565b60405180910390fd5b610cc0838383612ab5565b505050565b813373ffffffffffffffffffffffffffffffffffffffff16610ce6826111fd565b73ffffffffffffffffffffffffffffffffffffffff1614610d0657600080fd5b600060088481548110610d42577f4e487b7100000000000000000000000000000000000000000000000000000000600052603260045260246000fd5b906000526020600020906005020190506000151581600301601c9054906101000a900460ff16151514610d7457600080fd5b828160030160146101000a81548167ffffffffffffffff021916908367ffffffffffffffff160217905550600181600301601c6101000a81548160ff02191690831515021790555050505050565b803373ffffffffffffffffffffffffffffffffffffffff16610de3826111fd565b73ffffffffffffffffffffffffffffffffffffffff1614610e0357600080fd5b600060088381548110610e3f577f4e487b7100000000000000000000000000000000000000000000000000000000600052603260045260246000fd5b906000526020600020906005020190506001151581600301601c9054906101000a900460ff16151514610e7157600080fd5b60008160030160146101000a81548167ffffffffffffffff021916908367ffffffffffffffff160217905550600081600301601c6101000a81548160ff021916908315150217905550505050565b610eda83838360405180602001604052806000815250611f7d565b505050565b60606008805480602002602001604051908101604052809291908181526020016000905b8282101561115c57838290600052602060002090600502016040518060e0016040529081600082018054610f3690614c46565b80601f0160208091040260200160405190810160405280929190818152602001828054610f6290614c46565b8015610faf5780601f10610f8457610100808354040283529160200191610faf565b820191906000526020600020905b815481529060010190602001808311610f9257829003601f168201915b50505050508152602001600182015481526020016002820160009054906101000a900473ffffffffffffffffffffffffffffffffffffffff1673ffffffffffffffffffffffffffffffffffffffff1673ffffffffffffffffffffffffffffffffffffffff1681526020016003820160009054906101000a900473ffffffffffffffffffffffffffffffffffffffff1673ffffffffffffffffffffffffffffffffffffffff1673ffffffffffffffffffffffffffffffffffffffff1681526020016003820160149054906101000a900467ffffffffffffffff1667ffffffffffffffff1667ffffffffffffffff16815260200160038201601c9054906101000a900460ff161515151581526020016004820180546110cb90614c46565b80601f01602080910402602001604051908101604052809291908181526020018280546110f790614c46565b80156111445780601f1061111957610100808354040283529160200191611144565b820191906000526020600020905b81548152906001019060200180831161112757829003601f168201915b50505050508152505081526020019060010190610f03565b50505050905090565b803373ffffffffffffffffffffffffffffffffffffffff16611186826111fd565b73ffffffffffffffffffffffffffffffffffffffff16146111a657600080fd5b60006009600084815260200190815260200160002060006101000a81548173ffffffffffffffffffffffffffffffffffffffff021916908373ffffffffffffffffffffffffffffffffffffffff1602179055505050565b6000806002600084815260200190815260200160002060009054906101000a900473ffffffffffffffffffffffffffffffffffffffff169050600073ffffffffffffffffffffffffffffffffffffffff168173ffffffffffffffffffffffffffffffffffffffff1614156112a6576040517f08c379a000000000000000000000000000000000000000000000000000000000815260040161129d90614868565b60405180910390fd5b80915050919050565b60008060005b6008805490508110156113975783600882815481106112fd577f4e487b7100000000000000000000000000000000000000000000000000000000600052603260045260246000fd5b9060005260206000209060050201600101541415611384576008818154811061134f577f4e487b7100000000000000000000000000000000000000000000000000000000600052603260045260246000fd5b906000526020600020906005020160020160009054906101000a900473ffffffffffffffffffffffffffffffffffffffff1691505b808061138f90614c78565b9150506112b5565b5080915050919050565b3373ffffffffffffffffffffffffffffffffffffffff166113c1826111fd565b73ffffffffffffffffffffffffffffffffffffffff161415611418576040517f08c379a000000000000000000000000000000000000000000000000000000000815260040161140f906147a8565b60405180910390fd5b3373ffffffffffffffffffffffffffffffffffffffff166009600083815260200190815260200160002060009054906101000a900473ffffffffffffffffffffffffffffffffffffffff1673ffffffffffffffffffffffffffffffffffffffff161461148357600080fd5b6000600882815481106114bf577f4e487b7100000000000000000000000000000000000000000000000000000000600052603260045260246000fd5b906000526020600020906005020190506001151581600301601c9054906101000a900460ff161515146114f157600080fd5b60006114fc836111fd565b9050611509813385610ebf565b33600a600085815260200190815260200160002060006101000a81548173ffffffffffffffffffffffffffffffffffffffff021916908373ffffffffffffffffffffffffffffffffffffffff160217905550338260020160006101000a81548173ffffffffffffffffffffffffffffffffffffffff021916908373ffffffffffffffffffffffffffffffffffffffff16021790555060008260030160146101000a81548167ffffffffffffffff021916908367ffffffffffffffff160217905550600082600301601c6101000a81548160ff02191690831515021790555060006009600085815260200190815260200160002060006101000a81548173ffffffffffffffffffffffffffffffffffffffff021916908373ffffffffffffffffffffffffffffffffffffffff160217905550505050565b60008073ffffffffffffffffffffffffffffffffffffffff168273ffffffffffffffffffffffffffffffffffffffff1614156116b0576040517f08c379a00000000000000000000000000000000000000000000000000000000081526004016116a790614848565b60405180910390fd5b600360008373ffffffffffffffffffffffffffffffffffffffff1673ffffffffffffffffffffffffffffffffffffffff168152602001908152602001600020549050919050565b60006009600083815260200190815260200160002060009054906101000a900473ffffffffffffffffffffffffffffffffffffffff169050919050565b813373ffffffffffffffffffffffffffffffffffffffff16611755826111fd565b73ffffffffffffffffffffffffffffffffffffffff161461177557600080fd5b6000611780846111fd565b90506000600885815481106117be577f4e487b7100000000000000000000000000000000000000000000000000000000600052603260045260246000fd5b90600052602060002090600502019050838160030160146101000a81548167ffffffffffffffff021916908367ffffffffffffffff160217905550600181600301601c6101000a81548160ff0219169083151502179055506118203086610b3b565b843073ffffffffffffffffffffffffffffffffffffffff168373ffffffffffffffffffffffffffffffffffffffff167f8c5be1e5ebec7d5bd14f71427d1e84f3dd0314c0f7b2291e5b200ac8c7c3b92560405160405180910390a4306009600087815260200190815260200160002060006101000a81548173ffffffffffffffffffffffffffffffffffffffff021916908373ffffffffffffffffffffffffffffffffffffffff1602179055505050505050565b803373ffffffffffffffffffffffffffffffffffffffff166118f5826111fd565b73ffffffffffffffffffffffffffffffffffffffff161461191557600080fd5b600060088381548110611951577f4e487b7100000000000000000000000000000000000000000000000000000000600052603260045260246000fd5b906000526020600020906005020190503373ffffffffffffffffffffffffffffffffffffffff168160030160009054906101000a900473ffffffffffffffffffffffffffffffffffffffff1673ffffffffffffffffffffffffffffffffffffffff16146119bd57600080fd5b6119c683612f1c565b60088381548110611a00577f4e487b7100000000000000000000000000000000000000000000000000000000600052603260045260246000fd5b906000526020600020906005020160008082016000611a1f919061382c565b60018201600090556002820160006101000a81549073ffffffffffffffffffffffffffffffffffffffff02191690556003820160006101000a81549073ffffffffffffffffffffffffffffffffffffffff02191690556003820160146101000a81549067ffffffffffffffff021916905560038201601c6101000a81549060ff0219169055600482016000611ab4919061382c565b5050600a600084815260200190815260200160002060006101000a81549073ffffffffffffffffffffffffffffffffffffffff0219169055505050565b606060018054611b0090614c46565b80601f0160208091040260200160405190810160405280929190818152602001828054611b2c90614c46565b8015611b795780601f10611b4e57610100808354040283529160200191611b79565b820191906000526020600020905b815481529060010190602001808311611b5c57829003601f168201915b5050505050905090565b611b8b612d7d565b73ffffffffffffffffffffffffffffffffffffffff168273ffffffffffffffffffffffffffffffffffffffff161415611bf9576040517f08c379a0000000000000000000000000000000000000000000000000000000008152600401611bf0906147e8565b60405180910390fd5b8060056000611c06612d7d565b73ffffffffffffffffffffffffffffffffffffffff1673ffffffffffffffffffffffffffffffffffffffff16815260200190815260200160002060008473ffffffffffffffffffffffffffffffffffffffff1673ffffffffffffffffffffffffffffffffffffffff16815260200190815260200160002060006101000a81548160ff0219169083151502179055508173ffffffffffffffffffffffffffffffffffffffff16611cb3612d7d565b73ffffffffffffffffffffffffffffffffffffffff167f17307eab39ab6107e8899845ad3d59bd9653f200f220920489ca2b5937696c3183604051611cf891906146ae565b60405180910390a35050565b60003390503373ffffffffffffffffffffffffffffffffffffffff16611d29836111fd565b73ffffffffffffffffffffffffffffffffffffffff161415611d80576040517f08c379a0000000000000000000000000000000000000000000000000000000008152600401611d77906147a8565b60405180910390fd5b3073ffffffffffffffffffffffffffffffffffffffff16611da083610ab6565b73ffffffffffffffffffffffffffffffffffffffff1614611dc057600080fd5b600060088381548110611dfc577f4e487b7100000000000000000000000000000000000000000000000000000000600052603260045260246000fd5b906000526020600020906005020190506001151581600301601c9054906101000a900460ff16151514611e2e57600080fd5b6000611e39846111fd565b9050611e46818486610ebf565b33600a600086815260200190815260200160002060006101000a81548173ffffffffffffffffffffffffffffffffffffffff021916908373ffffffffffffffffffffffffffffffffffffffff160217905550338260020160006101000a81548173ffffffffffffffffffffffffffffffffffffffff021916908373ffffffffffffffffffffffffffffffffffffffff16021790555060008260030160146101000a81548167ffffffffffffffff021916908367ffffffffffffffff160217905550600082600301601c6101000a81548160ff02191690831515021790555060006009600086815260200190815260200160002060006101000a81548173ffffffffffffffffffffffffffffffffffffffff021916908373ffffffffffffffffffffffffffffffffffffffff16021790555050505050565b611f8e611f88612d7d565b83612e3e565b611fcd576040517f08c379a0000000000000000000000000000000000000000000000000000000008152600401611fc490614968565b60405180910390fd5b611fd984848484612f6f565b50505050565b60088181548110611fef57600080fd5b906000526020600020906005020160009150905080600001805461201290614c46565b80601f016020809104026020016040519081016040528092919081815260200182805461203e90614c46565b801561208b5780601f106120605761010080835404028352916020019161208b565b820191906000526020600020905b81548152906001019060200180831161206e57829003601f168201915b5050505050908060010154908060020160009054906101000a900473ffffffffffffffffffffffffffffffffffffffff16908060030160009054906101000a900473ffffffffffffffffffffffffffffffffffffffff16908060030160149054906101000a900467ffffffffffffffff169080600301601c9054906101000a900460ff169080600401805461211f90614c46565b80601f016020809104026020016040519081016040528092919081815260200182805461214b90614c46565b80156121985780601f1061216d57610100808354040283529160200191612198565b820191906000526020600020905b81548152906001019060200180831161217b57829003601f168201915b5050505050905087565b6000600a600083815260200190815260200160002060009054906101000a900473ffffffffffffffffffffffffffffffffffffffff169050919050565b60606121ea82612d11565b612229576040517f08c379a0000000000000000000000000000000000000000000000000000000008152600401612220906148c8565b60405180910390fd5b600060066000848152602001908152602001600020805461224990614c46565b80601f016020809104026020016040519081016040528092919081815260200182805461227590614c46565b80156122c25780601f10612297576101008083540402835291602001916122c2565b820191906000526020600020905b8154815290600101906020018083116122a557829003601f168201915b5050505050905060006122d3612fcb565b90506000815114156122e957819250505061232c565b60008251111561231e5780826040516020016123069291906145d0565b6040516020818303038152906040529250505061232c565b61232784612fe2565b925050505b919050565b600061233d6007613089565b9050600061234a82613097565b905060006040518060400160405280601681526020017f687474703a2f2f6c6f63616c686f73743a383030302f00000000000000000000815250905060006040518060400160405280600e81526020017f2f6d657461646174612e6a736f6e000000000000000000000000000000000000815250905060008284836040516020016123d7939291906145f4565b604051602081830303815290604052905060006040518060e001604052808881526020018781526020013373ffffffffffffffffffffffffffffffffffffffff1681526020013373ffffffffffffffffffffffffffffffffffffffff168152602001600067ffffffffffffffff168152602001600015158152602001838152509050600881908060018154018082558091505060019003906000526020600020906005020160009091909190915060008201518160000190805190602001906124a192919061386c565b506020820151816001015560408201518160020160006101000a81548173ffffffffffffffffffffffffffffffffffffffff021916908373ffffffffffffffffffffffffffffffffffffffff16021790555060608201518160030160006101000a81548173ffffffffffffffffffffffffffffffffffffffff021916908373ffffffffffffffffffffffffffffffffffffffff16021790555060808201518160030160146101000a81548167ffffffffffffffff021916908367ffffffffffffffff16021790555060a082015181600301601c6101000a81548160ff02191690831515021790555060c08201518160040190805190602001906125a592919061386c565b5050506125b23387613263565b6125bc8683613281565b33600a600088815260200190815260200160002060006101000a81548173ffffffffffffffffffffffffffffffffffffffff021916908373ffffffffffffffffffffffffffffffffffffffff16021790555061261860076132f5565b50505050505050565b606060008060008060006060600060088981548110612669577f4e487b7100000000000000000000000000000000000000000000000000000000600052603260045260246000fd5b9060005260206000209060050201905080600001805461268890614c46565b80601f01602080910402602001604051908101604052809291908181526020018280546126b490614c46565b80156127015780601f106126d657610100808354040283529160200191612701565b820191906000526020600020905b8154815290600101906020018083116126e457829003601f168201915b5050505050975080600101549650612718896111fd565b95508060030160009054906101000a900473ffffffffffffffffffffffffffffffffffffffff1694508060030160149054906101000a900467ffffffffffffffff16935080600301601c9054906101000a900460ff16925080600401805461277f90614c46565b80601f01602080910402602001604051908101604052809291908181526020018280546127ab90614c46565b80156127f85780601f106127cd576101008083540402835291602001916127f8565b820191906000526020600020905b8154815290600101906020018083116127db57829003601f168201915b5050505050915050919395979092949650565b6000600560008473ffffffffffffffffffffffffffffffffffffffff1673ffffffffffffffffffffffffffffffffffffffff16815260200190815260200160002060008373ffffffffffffffffffffffffffffffffffffffff1673ffffffffffffffffffffffffffffffffffffffff16815260200190815260200160002060009054906101000a900460ff16905092915050565b803373ffffffffffffffffffffffffffffffffffffffff166128c0826111fd565b73ffffffffffffffffffffffffffffffffffffffff16146128e057600080fd5b8273ffffffffffffffffffffffffffffffffffffffff166009600084815260200190815260200160002060009054906101000a900473ffffffffffffffffffffffffffffffffffffffff1673ffffffffffffffffffffffffffffffffffffffff16141561294c57600080fd5b600060088381548110612988577f4e487b7100000000000000000000000000000000000000000000000000000000600052603260045260246000fd5b906000526020600020906005020190506001151581600301601c9054906101000a900460ff161515146129ba57600080fd5b60008160030160149054906101000a900467ffffffffffffffff1667ffffffffffffffff16116129e957600080fd5b6129f38484610b3b565b836009600085815260200190815260200160002060006101000a81548173ffffffffffffffffffffffffffffffffffffffff021916908373ffffffffffffffffffffffffffffffffffffffff16021790555050505050565b60007f01ffc9a7000000000000000000000000000000000000000000000000000000007bffffffffffffffffffffffffffffffffffffffffffffffffffffffff1916827bffffffffffffffffffffffffffffffffffffffffffffffffffffffff1916149050919050565b8273ffffffffffffffffffffffffffffffffffffffff16612ad5826111fd565b73ffffffffffffffffffffffffffffffffffffffff1614612b2b576040517f08c379a0000000000000000000000000000000000000000000000000000000008152600401612b2290614908565b60405180910390fd5b600073ffffffffffffffffffffffffffffffffffffffff168273ffffffffffffffffffffffffffffffffffffffff161415612b9b576040517f08c379a0000000000000000000000000000000000000000000000000000000008152600401612b92906147c8565b60405180910390fd5b612ba683838361330b565b612bb1600082612d85565b6001600360008573ffffffffffffffffffffffffffffffffffffffff1673ffffffffffffffffffffffffffffffffffffffff1681526020019081526020016000206000828254612c019190614b48565b925050819055506001600360008473ffffffffffffffffffffffffffffffffffffffff1673ffffffffffffffffffffffffffffffffffffffff1681526020019081526020016000206000828254612c589190614ac1565b92505081905550816002600083815260200190815260200160002060006101000a81548173ffffffffffffffffffffffffffffffffffffffff021916908373ffffffffffffffffffffffffffffffffffffffff160217905550808273ffffffffffffffffffffffffffffffffffffffff168473ffffffffffffffffffffffffffffffffffffffff167fddf252ad1be2c89b69c2b068fc378daa952ba7f163c4a11628f55a4df523b3ef60405160405180910390a4505050565b60008073ffffffffffffffffffffffffffffffffffffffff166002600084815260200190815260200160002060009054906101000a900473ffffffffffffffffffffffffffffffffffffffff1673ffffffffffffffffffffffffffffffffffffffff1614159050919050565b600033905090565b816004600083815260200190815260200160002060006101000a81548173ffffffffffffffffffffffffffffffffffffffff021916908373ffffffffffffffffffffffffffffffffffffffff160217905550808273ffffffffffffffffffffffffffffffffffffffff16612df8836111fd565b73ffffffffffffffffffffffffffffffffffffffff167f8c5be1e5ebec7d5bd14f71427d1e84f3dd0314c0f7b2291e5b200ac8c7c3b92560405160405180910390a45050565b6000612e4982612d11565b612e88576040517f08c379a0000000000000000000000000000000000000000000000000000000008152600401612e7f90614808565b60405180910390fd5b6000612e93836111fd565b90508073ffffffffffffffffffffffffffffffffffffffff168473ffffffffffffffffffffffffffffffffffffffff161480612f0257508373ffffffffffffffffffffffffffffffffffffffff16612eea84610ab6565b73ffffffffffffffffffffffffffffffffffffffff16145b80612f135750612f12818561280b565b5b91505092915050565b612f2581613310565b6000600660008381526020019081526020016000208054612f4590614c46565b905014612f6c57600660008281526020019081526020016000206000612f6b919061382c565b5b50565b612f7a848484612ab5565b612f8684848484613421565b612fc5576040517f08c379a0000000000000000000000000000000000000000000000000000000008152600401612fbc90614768565b60405180910390fd5b50505050565b606060405180602001604052806000815250905090565b6060612fed82612d11565b61302c576040517f08c379a000000000000000000000000000000000000000000000000000000000815260040161302390614928565b60405180910390fd5b6000613036612fcb565b905060008151116130565760405180602001604052806000815250613081565b8061306084613097565b6040516020016130719291906145d0565b6040516020818303038152906040525b915050919050565b600081600001549050919050565b606060008214156130df576040518060400160405280600181526020017f3000000000000000000000000000000000000000000000000000000000000000815250905061325e565b600082905060005b600082146131115780806130fa90614c78565b915050600a8261310a9190614b17565b91506130e7565b60008167ffffffffffffffff811115613153577f4e487b7100000000000000000000000000000000000000000000000000000000600052604160045260246000fd5b6040519080825280601f01601f1916602001820160405280156131855781602001600182028036833780820191505090505b5090505b600085146132575760018261319e9190614b48565b9150600a856131ad9190614cc1565b60306131b99190614ac1565b7f010000000000000000000000000000000000000000000000000000000000000002818381518110613214577f4e487b7100000000000000000000000000000000000000000000000000000000600052603260045260246000fd5b60200101907effffffffffffffffffffffffffffffffffffffffffffffffffffffffffffff1916908160001a905350600a856132509190614b17565b9450613189565b8093505050505b919050565b61327d8282604051806020016040528060008152506135f0565b5050565b61328a82612d11565b6132c9576040517f08c379a00000000000000000000000000000000000000000000000000000000081526004016132c090614888565b60405180910390fd5b806006600084815260200190815260200160002090805190602001906132f092919061386c565b505050565b6001816000016000828254019250508190555050565b505050565b600061331b826111fd565b90506133298160008461330b565b613334600083612d85565b6001600360008373ffffffffffffffffffffffffffffffffffffffff1673ffffffffffffffffffffffffffffffffffffffff16815260200190815260200160002060008282546133849190614b48565b925050819055506002600083815260200190815260200160002060006101000a81549073ffffffffffffffffffffffffffffffffffffffff021916905581600073ffffffffffffffffffffffffffffffffffffffff168273ffffffffffffffffffffffffffffffffffffffff167fddf252ad1be2c89b69c2b068fc378daa952ba7f163c4a11628f55a4df523b3ef60405160405180910390a45050565b60006134428473ffffffffffffffffffffffffffffffffffffffff1661364b565b156135e3578373ffffffffffffffffffffffffffffffffffffffff1663150b7a0261346b612d7d565b8786866040518563ffffffff167c01000000000000000000000000000000000000000000000000000000000281526004016134a99493929190614640565b602060405180830381600087803b1580156134c357600080fd5b505af19250505080156134f457506040513d601f19601f820116820180604052508101906134f19190613c2d565b60015b613577573d8060008114613524576040519150601f19603f3d011682016040523d82523d6000602084013e613529565b606091505b5060008151141561356f576040517f08c379a000000000000000000000000000000000000000000000000000000000815260040161356690614768565b60405180910390fd5b805181602001fd5b63150b7a027c0100000000000000000000000000000000000000000000000000000000027bffffffffffffffffffffffffffffffffffffffffffffffffffffffff1916817bffffffffffffffffffffffffffffffffffffffffffffffffffffffff1916149150506135e8565b600190505b949350505050565b6135fa838361365e565b6136076000848484613421565b613646576040517f08c379a000000000000000000000000000000000000000000000000000000000815260040161363d90614768565b60405180910390fd5b505050565b600080823b905060008111915050919050565b600073ffffffffffffffffffffffffffffffffffffffff168273ffffffffffffffffffffffffffffffffffffffff1614156136ce576040517f08c379a00000000000000000000000000000000000000000000000000000000081526004016136c5906148a8565b60405180910390fd5b6136d781612d11565b15613717576040517f08c379a000000000000000000000000000000000000000000000000000000000815260040161370e90614788565b60405180910390fd5b6137236000838361330b565b6001600360008473ffffffffffffffffffffffffffffffffffffffff1673ffffffffffffffffffffffffffffffffffffffff16815260200190815260200160002060008282546137739190614ac1565b92505081905550816002600083815260200190815260200160002060006101000a81548173ffffffffffffffffffffffffffffffffffffffff021916908373ffffffffffffffffffffffffffffffffffffffff160217905550808273ffffffffffffffffffffffffffffffffffffffff16600073ffffffffffffffffffffffffffffffffffffffff167fddf252ad1be2c89b69c2b068fc378daa952ba7f163c4a11628f55a4df523b3ef60405160405180910390a45050565b50805461383890614c46565b6000825580601f1061384a5750613869565b601f01602090049060005260206000209081019061386891906138f2565b5b50565b82805461387890614c46565b90600052602060002090601f01602090048101928261389a57600085556138e1565b82601f106138b357805160ff19168380011785556138e1565b828001600101855582156138e1579182015b828111156138e05782518255916020019190600101906138c5565b5b5090506138ee91906138f2565b5090565b5b8082111561390b5760008160009055506001016138f3565b5090565b600061392261391d846149d4565b6149a3565b90508281526020810184848401111561393a57600080fd5b613945848285614c04565b509392505050565b600061396061395b84614a04565b6149a3565b90508281526020810184848401111561397857600080fd5b613983848285614c04565b509392505050565b60008135905061399a81614dbf565b92915050565b6000813590506139af81614dd6565b92915050565b6000813590506139c481614ded565b92915050565b6000815190506139d981614ded565b92915050565b600082601f8301126139f057600080fd5b8135613a0084826020860161390f565b91505092915050565b600082601f830112613a1a57600080fd5b8135613a2a84826020860161394d565b91505092915050565b600081359050613a4281614e04565b92915050565b600081359050613a5781614e1b565b92915050565b600060208284031215613a6f57600080fd5b6000613a7d8482850161398b565b91505092915050565b60008060408385031215613a9957600080fd5b6000613aa78582860161398b565b9250506020613ab88582860161398b565b9150509250929050565b600080600060608486031215613ad757600080fd5b6000613ae58682870161398b565b9350506020613af68682870161398b565b9250506040613b0786828701613a33565b9150509250925092565b60008060008060808587031215613b2757600080fd5b6000613b358782880161398b565b9450506020613b468782880161398b565b9350506040613b5787828801613a33565b925050606085013567ffffffffffffffff811115613b7457600080fd5b613b80878288016139df565b91505092959194509250565b60008060408385031215613b9f57600080fd5b6000613bad8582860161398b565b9250506020613bbe858286016139a0565b9150509250929050565b60008060408385031215613bdb57600080fd5b6000613be98582860161398b565b9250506020613bfa85828601613a33565b9150509250929050565b600060208284031215613c1657600080fd5b6000613c24848285016139b5565b91505092915050565b600060208284031215613c3f57600080fd5b6000613c4d848285016139ca565b91505092915050565b600060208284031215613c6857600080fd5b600082013567ffffffffffffffff811115613c8257600080fd5b613c8e84828501613a09565b91505092915050565b600060208284031215613ca957600080fd5b6000613cb784828501613a33565b91505092915050565b60008060408385031215613cd357600080fd5b6000613ce185828601613a33565b9250506020613cf285828601613a48565b9150509250929050565b6000613d0883836144f1565b905092915050565b613d1981614b7c565b82525050565b613d2881614b7c565b82525050565b6000613d3982614a44565b613d438185614a72565b935083602082028501613d5585614a34565b8060005b85811015613d915784840389528151613d728582613cfc565b9450613d7d83614a65565b925060208a01995050600181019050613d59565b50829750879550505050505092915050565b613dac81614b8e565b82525050565b613dbb81614b8e565b82525050565b6000613dcc82614a4f565b613dd68185614a83565b9350613de6818560208601614c13565b613def81614dae565b840191505092915050565b6000613e0582614a5a565b613e0f8185614a94565b9350613e1f818560208601614c13565b613e2881614dae565b840191505092915050565b6000613e3e82614a5a565b613e488185614aa5565b9350613e58818560208601614c13565b613e6181614dae565b840191505092915050565b6000613e7782614a5a565b613e818185614ab6565b9350613e91818560208601614c13565b80840191505092915050565b6000613eaa603283614aa5565b91507f4552433732313a207472616e7366657220746f206e6f6e20455243373231526560008301527f63656976657220696d706c656d656e74657200000000000000000000000000006020830152604082019050919050565b6000613f10601c83614aa5565b91507f4552433732313a20746f6b656e20616c7265616479206d696e746564000000006000830152602082019050919050565b6000613f50602183614aa5565b91507f4f776e65722063616e6e6f742065786563757465206275792066756e6374696f60008301527f6e000000000000000000000000000000000000000000000000000000000000006020830152604082019050919050565b6000613fb6602483614aa5565b91507f4552433732313a207472616e7366657220746f20746865207a65726f2061646460008301527f72657373000000000000000000000000000000000000000000000000000000006020830152604082019050919050565b600061401c601983614aa5565b91507f4552433732313a20617070726f766520746f2063616c6c6572000000000000006000830152602082019050919050565b600061405c602c83614aa5565b91507f4552433732313a206f70657261746f7220717565727920666f72206e6f6e657860008301527f697374656e7420746f6b656e00000000000000000000000000000000000000006020830152604082019050919050565b60006140c2603883614aa5565b91507f4552433732313a20617070726f76652063616c6c6572206973206e6f74206f7760008301527f6e6572206e6f7220617070726f76656420666f7220616c6c00000000000000006020830152604082019050919050565b6000614128602a83614aa5565b91507f4552433732313a2062616c616e636520717565727920666f7220746865207a6560008301527f726f2061646472657373000000000000000000000000000000000000000000006020830152604082019050919050565b600061418e602983614aa5565b91507f4552433732313a206f776e657220717565727920666f72206e6f6e657869737460008301527f656e7420746f6b656e00000000000000000000000000000000000000000000006020830152604082019050919050565b60006141f4602e83614aa5565b91507f45524337323155524953746f726167653a2055524920736574206f66206e6f6e60008301527f6578697374656e7420746f6b656e0000000000000000000000000000000000006020830152604082019050919050565b600061425a602083614aa5565b91507f4552433732313a206d696e7420746f20746865207a65726f20616464726573736000830152602082019050919050565b600061429a603183614aa5565b91507f45524337323155524953746f726167653a2055524920717565727920666f722060008301527f6e6f6e6578697374656e7420746f6b656e0000000000000000000000000000006020830152604082019050919050565b6000614300602c83614aa5565b91507f4552433732313a20617070726f76656420717565727920666f72206e6f6e657860008301527f697374656e7420746f6b656e00000000000000000000000000000000000000006020830152604082019050919050565b6000614366602983614aa5565b91507f4552433732313a207472616e73666572206f6620746f6b656e2074686174206960008301527f73206e6f74206f776e00000000000000000000000000000000000000000000006020830152604082019050919050565b60006143cc602f83614aa5565b91507f4552433732314d657461646174613a2055524920717565727920666f72206e6f60008301527f6e6578697374656e7420746f6b656e00000000000000000000000000000000006020830152604082019050919050565b6000614432602183614aa5565b91507f4552433732313a20617070726f76616c20746f2063757272656e74206f776e6560008301527f72000000000000000000000000000000000000000000000000000000000000006020830152604082019050919050565b6000614498603183614aa5565b91507f4552433732313a207472616e736665722063616c6c6572206973206e6f74206f60008301527f776e6572206e6f7220617070726f7665640000000000000000000000000000006020830152604082019050919050565b600060e083016000830151848203600086015261450e8282613dfa565b91505060208301516145236020860182614594565b5060408301516145366040860182613d10565b5060608301516145496060860182613d10565b50608083015161455c60808601826145b2565b5060a083015161456f60a0860182613da3565b5060c083015184820360c08601526145878282613dfa565b9150508091505092915050565b61459d81614be6565b82525050565b6145ac81614be6565b82525050565b6145bb81614bf0565b82525050565b6145ca81614bf0565b82525050565b60006145dc8285613e6c565b91506145e88284613e6c565b91508190509392505050565b60006146008286613e6c565b915061460c8285613e6c565b91506146188284613e6c565b9150819050949350505050565b600060208201905061463a6000830184613d1f565b92915050565b60006080820190506146556000830187613d1f565b6146626020830186613d1f565b61466f60408301856145a3565b81810360608301526146818184613dc1565b905095945050505050565b600060208201905081810360008301526146a68184613d2e565b905092915050565b60006020820190506146c36000830184613db2565b92915050565b600060208201905081810360008301526146e38184613e33565b905092915050565b600060e0820190508181036000830152614705818a613e33565b905061471460208301896145a3565b6147216040830188613d1f565b61472e6060830187613d1f565b61473b60808301866145c1565b61474860a0830185613db2565b81810360c083015261475a8184613e33565b905098975050505050505050565b6000602082019050818103600083015261478181613e9d565b9050919050565b600060208201905081810360008301526147a181613f03565b9050919050565b600060208201905081810360008301526147c181613f43565b9050919050565b600060208201905081810360008301526147e181613fa9565b9050919050565b600060208201905081810360008301526148018161400f565b9050919050565b600060208201905081810360008301526148218161404f565b9050919050565b60006020820190508181036000830152614841816140b5565b9050919050565b600060208201905081810360008301526148618161411b565b9050919050565b6000602082019050818103600083015261488181614181565b9050919050565b600060208201905081810360008301526148a1816141e7565b9050919050565b600060208201905081810360008301526148c18161424d565b9050919050565b600060208201905081810360008301526148e18161428d565b9050919050565b60006020820190508181036000830152614901816142f3565b9050919050565b6000602082019050818103600083015261492181614359565b9050919050565b60006020820190508181036000830152614941816143bf565b9050919050565b6000602082019050818103600083015261496181614425565b9050919050565b600060208201905081810360008301526149818161448b565b9050919050565b600060208201905061499d60008301846145a3565b92915050565b6000604051905081810181811067ffffffffffffffff821117156149ca576149c9614d7f565b5b8060405250919050565b600067ffffffffffffffff8211156149ef576149ee614d7f565b5b601f19601f8301169050602081019050919050565b600067ffffffffffffffff821115614a1f57614a1e614d7f565b5b601f19601f8301169050602081019050919050565b6000819050602082019050919050565b600081519050919050565b600081519050919050565b600081519050919050565b6000602082019050919050565b600082825260208201905092915050565b600082825260208201905092915050565b600082825260208201905092915050565b600082825260208201905092915050565b600081905092915050565b6000614acc82614be6565b9150614ad783614be6565b9250827fffffffffffffffffffffffffffffffffffffffffffffffffffffffffffffffff03821115614b0c57614b0b614cf2565b5b828201905092915050565b6000614b2282614be6565b9150614b2d83614be6565b925082614b3d57614b3c614d21565b5b828204905092915050565b6000614b5382614be6565b9150614b5e83614be6565b925082821015614b7157614b70614cf2565b5b828203905092915050565b6000614b8782614bc6565b9050919050565b60008115159050919050565b60007fffffffff0000000000000000000000000000000000000000000000000000000082169050919050565b600073ffffffffffffffffffffffffffffffffffffffff82169050919050565b6000819050919050565b600067ffffffffffffffff82169050919050565b82818337600083830152505050565b60005b83811015614c31578082015181840152602081019050614c16565b83811115614c40576000848401525b50505050565b60006002820490506001821680614c5e57607f821691505b60208210811415614c7257614c71614d50565b5b50919050565b6000614c8382614be6565b91507fffffffffffffffffffffffffffffffffffffffffffffffffffffffffffffffff821415614cb657614cb5614cf2565b5b600182019050919050565b6000614ccc82614be6565b9150614cd783614be6565b925082614ce757614ce6614d21565b5b828206905092915050565b7f4e487b7100000000000000000000000000000000000000000000000000000000600052601160045260246000fd5b7f4e487b7100000000000000000000000000000000000000000000000000000000600052601260045260246000fd5b7f4e487b7100000000000000000000000000000000000000000000000000000000600052602260045260246000fd5b7f4e487b7100000000000000000000000000000000000000000000000000000000600052604160045260246000fd5b6000601f19601f8301169050919050565b614dc881614b7c565b8114614dd357600080fd5b50565b614ddf81614b8e565b8114614dea57600080fd5b50565b614df681614b9a565b8114614e0157600080fd5b50565b614e0d81614be6565b8114614e1857600080fd5b50565b614e2481614bf0565b8114614e2f57600080fd5b5056fea26469706673582212203bf2fed6b15e85270397669e09b046083921f9e30b71a90206d72dcc38df05b264736f6c63430008000033",
  "immutableReferences": {},
  "source": "// SPDX-License-Identifier: MIT\npragma solidity ^0.8.0;\n\n// import \"@openzeppelin/contracts/token/ERC721/extensions/ERC721Enumerable.sol\";\nimport \"@openzeppelin/contracts/token/ERC721/extensions/ERC721URIStorage.sol\";\nimport \"@openzeppelin/contracts/utils/Counters.sol\";\nimport \"@openzeppelin/contracts/utils/Strings.sol\";\n\ncontract CloseSeaNFT is ERC721URIStorage{\nusing Counters for Counters.Counter;\nCounters.Counter private tokenId;\n\nconstructor() ERC721('BitEth NFT','BTE') {\n}\n\nstruct Item{\n    string itemName;\n    uint id;\n    address owner;\n    address creator;\n    uint64 price;\n    bool forSale;\n    string tokenURI;\n}\n\nItem [] public items;\nmapping (uint => address) private _tokenApprovals;\nmapping (uint => address) itemToOwner;\n\nmodifier onlyOwnerOf (uint _tokenId) {\n    require (ownerOf(_tokenId) == msg.sender);\n    _;\n}\n\nfunction mint(string memory _itemName) external{\n    uint currentId = tokenId.current();\n    string memory idString = Strings.toString(currentId);\n    string memory baseURI = \"http://localhost:8000/\";\n    string memory metadata = \"/metadata.json\";\n    string memory url = string(abi.encodePacked(baseURI, idString, metadata));\n\n    Item memory _item = Item({\n        itemName: _itemName,\n        id: currentId,\n        owner: msg.sender,\n        creator: msg.sender,\n        price: 0,\n        forSale: false,\n        tokenURI: url\n    });\n    items.push(_item);\n    _safeMint(msg.sender, currentId);\n    _setTokenURI(currentId, url);\n    itemToOwner[currentId] = msg.sender;\n    tokenId.increment();\n}\n\nfunction tokenOnSale (uint _tokenId, uint64 price) external onlyOwnerOf(_tokenId){\n    Item storage _item = items[_tokenId];\n    require(_item.forSale == false);\n    _item.price = price;\n    _item.forSale = true;\n    // approve(address(this), _tokenId);\n    // safeTransferFrom(ownerOf(_tokenId), address(this), _tokenId);\n}\n\nfunction tokenOnSale2 (uint _tokenId, uint64 price) external onlyOwnerOf(_tokenId){\n    address owner = ownerOf(_tokenId);\n    Item storage _item = items[_tokenId];\n    _item.price = price;\n    _item.forSale = true;\n    approve(address(this), _tokenId);\n    emit Approval(owner, address(this), _tokenId);\n     _tokenApprovals[_tokenId] = address(this);\n}\n\nfunction buyingWithoutApproval2 (uint _tokenId) external payable {\n    address buyer = msg.sender;\n    require (ownerOf(_tokenId) != msg.sender, \"Owner cannot execute buy function\");\n    require(getApproved(_tokenId) == address(this));\n    Item storage _item = items[_tokenId];\n    require(_item.forSale == true);\n    address _from = ownerOf(_tokenId);\n    safeTransferFrom(_from, buyer, _tokenId);\n    itemToOwner[_tokenId] = msg.sender;\n    _item.owner = msg.sender;\n    _item.price = 0;\n    _item.forSale = false;\n    _tokenApprovals[_tokenId] = address(0);\n}\n\n\nfunction notForSale (uint _tokenId) external onlyOwnerOf(_tokenId){\n    Item storage _item = items[_tokenId];\n    require(_item.forSale == true);\n    _item.price = 0;\n    _item.forSale = false;\n}\n\nfunction approvalTo (address _to, uint _tokenId) external onlyOwnerOf(_tokenId){\n    require(_tokenApprovals[_tokenId] != _to);\n    Item storage _item = items[_tokenId];\n    require(_item.forSale == true);\n    require(_item.price > 0);\n    approve(_to,_tokenId);\n    _tokenApprovals[_tokenId] = _to;\n}\n\nfunction cancelApproval (uint _tokenId) external onlyOwnerOf(_tokenId){\n    _tokenApprovals[_tokenId] = address(0);\n}\n\nfunction buyingWithApproval (uint _tokenId) external payable {\n    require (ownerOf(_tokenId) != msg.sender, \"Owner cannot execute buy function\");\n    require (_tokenApprovals[_tokenId] == msg.sender);\n    Item storage _item = items[_tokenId];\n    require(_item.forSale == true);\n    address _from = ownerOf(_tokenId);\n    safeTransferFrom(_from, msg.sender, _tokenId);\n    itemToOwner[_tokenId] = msg.sender;\n    _item.owner = msg.sender;\n    _item.price = 0;\n    _item.forSale = false;\n    _tokenApprovals[_tokenId] = address(0);\n}\n\nfunction buyingWithoutApproval (uint _tokenId) external payable {\n    require (ownerOf(_tokenId) != msg.sender);\n    Item storage _item = items[_tokenId];\n    require(_item.forSale == true);\n    address _from = ownerOf(_tokenId);\n    _transfer(_from, msg.sender, _tokenId);\n    itemToOwner[_tokenId] = msg.sender;\n    _item.owner = msg.sender;\n    _item.price = 0;\n    _item.forSale = false;\n}\n\nfunction burnToken (uint _tokenId) external onlyOwnerOf(_tokenId) {\n    Item storage _item = items[_tokenId];\n    require(_item.creator == msg.sender);\n    _burn(_tokenId);\n    delete items[_tokenId];\n    delete itemToOwner[_tokenId];\n}\n\nfunction getAllItems () external view returns(Item[] memory){\n    return items;\n}\n\nfunction getURI (uint _tokenId) external view returns (string memory){\n    return tokenURI(_tokenId);\n}\n\nfunction getOwner (uint _tokenId) external view returns (address){\n    return itemToOwner[_tokenId];\n}\n\nfunction getOwnertwo (uint _tokenId) external view returns (address){\n    address owner;\n    for (uint i=0; i<items.length;i++){\n        if(items[i].id == _tokenId){\n            owner = items[i].owner;\n        } \n    } return owner;\n}\n\nfunction isApproved (uint _tokenId) external view returns (address){\n    return _tokenApprovals[_tokenId];\n}\n\nfunction getToken(uint _tokenId) external view returns (string memory name, uint id, address owner, address creator, uint64 price, bool forSale, string memory tokenURI){\n    Item storage _item = items[_tokenId];\n    name = _item.itemName;\n    id = _item.id;\n    owner = ownerOf(_tokenId);\n    creator = _item.creator;\n    price = _item.price;\n    forSale = _item.forSale;\n    tokenURI = _item.tokenURI;\n}\n\n\n}",
  "sourcePath": "/Users/Oscar/crypto_coin/src/contracts/CloseSeaNFT.sol",
  "compiler": {
    "name": "solc",
    "version": "0.8.0+commit.c7dfd78e.Emscripten.clang"
  },
  "schemaVersion": "3.3.4",
  "updatedAt": "2021-04-30T03:04:34.575Z",
  "networkType": "ethereum",
  "devdoc": {
    "kind": "dev",
    "methods": {
      "approve(address,uint256)": {
        "details": "See {IERC721-approve}."
      },
      "balanceOf(address)": {
        "details": "See {IERC721-balanceOf}."
      },
      "getApproved(uint256)": {
        "details": "See {IERC721-getApproved}."
      },
      "isApprovedForAll(address,address)": {
        "details": "See {IERC721-isApprovedForAll}."
      },
      "name()": {
        "details": "See {IERC721Metadata-name}."
      },
      "ownerOf(uint256)": {
        "details": "See {IERC721-ownerOf}."
      },
      "safeTransferFrom(address,address,uint256)": {
        "details": "See {IERC721-safeTransferFrom}."
      },
      "safeTransferFrom(address,address,uint256,bytes)": {
        "details": "See {IERC721-safeTransferFrom}."
      },
      "setApprovalForAll(address,bool)": {
        "details": "See {IERC721-setApprovalForAll}."
      },
      "supportsInterface(bytes4)": {
        "details": "See {IERC165-supportsInterface}."
      },
      "symbol()": {
        "details": "See {IERC721Metadata-symbol}."
      },
      "tokenURI(uint256)": {
        "details": "See {IERC721Metadata-tokenURI}."
      },
      "transferFrom(address,address,uint256)": {
        "details": "See {IERC721-transferFrom}."
      }
    },
    "version": 1
  },
  "userdoc": {
    "kind": "user",
    "methods": {},
    "version": 1
  }
}