{
  "contractName": "CloseSeaNFT",
  "abi": [
    {
      "inputs": [],
      "stateMutability": "nonpayable",
      "type": "constructor"
    },
    {
      "anonymous": false,
      "inputs": [
        {
          "indexed": true,
          "internalType": "address",
          "name": "owner",
          "type": "address"
        },
        {
          "indexed": true,
          "internalType": "address",
          "name": "approved",
          "type": "address"
        },
        {
          "indexed": true,
          "internalType": "uint256",
          "name": "tokenId",
          "type": "uint256"
        }
      ],
      "name": "Approval",
      "type": "event"
    },
    {
      "anonymous": false,
      "inputs": [
        {
          "indexed": true,
          "internalType": "address",
          "name": "owner",
          "type": "address"
        },
        {
          "indexed": true,
          "internalType": "address",
          "name": "operator",
          "type": "address"
        },
        {
          "indexed": false,
          "internalType": "bool",
          "name": "approved",
          "type": "bool"
        }
      ],
      "name": "ApprovalForAll",
      "type": "event"
    },
    {
      "anonymous": false,
      "inputs": [
        {
          "indexed": true,
          "internalType": "address",
          "name": "from",
          "type": "address"
        },
        {
          "indexed": true,
          "internalType": "address",
          "name": "to",
          "type": "address"
        },
        {
          "indexed": true,
          "internalType": "uint256",
          "name": "tokenId",
          "type": "uint256"
        }
      ],
      "name": "Transfer",
      "type": "event"
    },
    {
      "inputs": [
        {
          "internalType": "address",
          "name": "to",
          "type": "address"
        },
        {
          "internalType": "uint256",
          "name": "tokenId",
          "type": "uint256"
        }
      ],
      "name": "approve",
      "outputs": [],
      "stateMutability": "nonpayable",
      "type": "function"
    },
    {
      "inputs": [
        {
          "internalType": "address",
          "name": "owner",
          "type": "address"
        }
      ],
      "name": "balanceOf",
      "outputs": [
        {
          "internalType": "uint256",
          "name": "",
          "type": "uint256"
        }
      ],
      "stateMutability": "view",
      "type": "function",
      "constant": true
    },
    {
      "inputs": [
        {
          "internalType": "uint256",
          "name": "tokenId",
          "type": "uint256"
        }
      ],
      "name": "getApproved",
      "outputs": [
        {
          "internalType": "address",
          "name": "",
          "type": "address"
        }
      ],
      "stateMutability": "view",
      "type": "function",
      "constant": true
    },
    {
      "inputs": [
        {
          "internalType": "address",
          "name": "owner",
          "type": "address"
        },
        {
          "internalType": "address",
          "name": "operator",
          "type": "address"
        }
      ],
      "name": "isApprovedForAll",
      "outputs": [
        {
          "internalType": "bool",
          "name": "",
          "type": "bool"
        }
      ],
      "stateMutability": "view",
      "type": "function",
      "constant": true
    },
    {
      "inputs": [
        {
          "internalType": "uint256",
          "name": "",
          "type": "uint256"
        }
      ],
      "name": "items",
      "outputs": [
        {
          "internalType": "string",
          "name": "itemName",
          "type": "string"
        },
        {
          "internalType": "uint256",
          "name": "id",
          "type": "uint256"
        },
        {
          "internalType": "address",
          "name": "owner",
          "type": "address"
        },
        {
          "internalType": "address",
          "name": "creator",
          "type": "address"
        },
        {
          "internalType": "uint64",
          "name": "price",
          "type": "uint64"
        },
        {
          "internalType": "bool",
          "name": "forSale",
          "type": "bool"
        },
        {
          "internalType": "string",
          "name": "tokenURI",
          "type": "string"
        }
      ],
      "stateMutability": "view",
      "type": "function",
      "constant": true
    },
    {
      "inputs": [],
      "name": "name",
      "outputs": [
        {
          "internalType": "string",
          "name": "",
          "type": "string"
        }
      ],
      "stateMutability": "view",
      "type": "function",
      "constant": true
    },
    {
      "inputs": [
        {
          "internalType": "uint256",
          "name": "tokenId",
          "type": "uint256"
        }
      ],
      "name": "ownerOf",
      "outputs": [
        {
          "internalType": "address",
          "name": "",
          "type": "address"
        }
      ],
      "stateMutability": "view",
      "type": "function",
      "constant": true
    },
    {
      "inputs": [
        {
          "internalType": "address",
          "name": "from",
          "type": "address"
        },
        {
          "internalType": "address",
          "name": "to",
          "type": "address"
        },
        {
          "internalType": "uint256",
          "name": "tokenId",
          "type": "uint256"
        }
      ],
      "name": "safeTransferFrom",
      "outputs": [],
      "stateMutability": "nonpayable",
      "type": "function"
    },
    {
      "inputs": [
        {
          "internalType": "address",
          "name": "from",
          "type": "address"
        },
        {
          "internalType": "address",
          "name": "to",
          "type": "address"
        },
        {
          "internalType": "uint256",
          "name": "tokenId",
          "type": "uint256"
        },
        {
          "internalType": "bytes",
          "name": "_data",
          "type": "bytes"
        }
      ],
      "name": "safeTransferFrom",
      "outputs": [],
      "stateMutability": "nonpayable",
      "type": "function"
    },
    {
      "inputs": [
        {
          "internalType": "address",
          "name": "operator",
          "type": "address"
        },
        {
          "internalType": "bool",
          "name": "approved",
          "type": "bool"
        }
      ],
      "name": "setApprovalForAll",
      "outputs": [],
      "stateMutability": "nonpayable",
      "type": "function"
    },
    {
      "inputs": [
        {
          "internalType": "bytes4",
          "name": "interfaceId",
          "type": "bytes4"
        }
      ],
      "name": "supportsInterface",
      "outputs": [
        {
          "internalType": "bool",
          "name": "",
          "type": "bool"
        }
      ],
      "stateMutability": "view",
      "type": "function",
      "constant": true
    },
    {
      "inputs": [],
      "name": "symbol",
      "outputs": [
        {
          "internalType": "string",
          "name": "",
          "type": "string"
        }
      ],
      "stateMutability": "view",
      "type": "function",
      "constant": true
    },
    {
      "inputs": [
        {
          "internalType": "uint256",
          "name": "tokenId",
          "type": "uint256"
        }
      ],
      "name": "tokenURI",
      "outputs": [
        {
          "internalType": "string",
          "name": "",
          "type": "string"
        }
      ],
      "stateMutability": "view",
      "type": "function",
      "constant": true
    },
    {
      "inputs": [
        {
          "internalType": "address",
          "name": "from",
          "type": "address"
        },
        {
          "internalType": "address",
          "name": "to",
          "type": "address"
        },
        {
          "internalType": "uint256",
          "name": "tokenId",
          "type": "uint256"
        }
      ],
      "name": "transferFrom",
      "outputs": [],
      "stateMutability": "nonpayable",
      "type": "function"
    },
    {
      "inputs": [
        {
          "internalType": "string",
          "name": "_itemName",
          "type": "string"
        }
      ],
      "name": "Mint",
      "outputs": [],
      "stateMutability": "nonpayable",
      "type": "function"
    },
    {
      "inputs": [
        {
          "internalType": "uint256",
          "name": "_tokenId",
          "type": "uint256"
        },
        {
          "internalType": "uint64",
          "name": "price",
          "type": "uint64"
        }
      ],
      "name": "tokenOnSale",
      "outputs": [],
      "stateMutability": "nonpayable",
      "type": "function"
    },
    {
      "inputs": [
        {
          "internalType": "uint256",
          "name": "_tokenId",
          "type": "uint256"
        }
      ],
      "name": "notForSale",
      "outputs": [],
      "stateMutability": "nonpayable",
      "type": "function"
    },
    {
      "inputs": [
        {
          "internalType": "address",
          "name": "_to",
          "type": "address"
        },
        {
          "internalType": "uint256",
          "name": "_tokenId",
          "type": "uint256"
        }
      ],
      "name": "approvalTo",
      "outputs": [],
      "stateMutability": "nonpayable",
      "type": "function"
    },
    {
      "inputs": [
        {
          "internalType": "uint256",
          "name": "_tokenId",
          "type": "uint256"
        }
      ],
      "name": "cancelApproval",
      "outputs": [],
      "stateMutability": "nonpayable",
      "type": "function"
    },
    {
      "inputs": [
        {
          "internalType": "uint256",
          "name": "_tokenId",
          "type": "uint256"
        }
      ],
      "name": "buyingFrom",
      "outputs": [],
      "stateMutability": "payable",
      "type": "function",
      "payable": true
    },
    {
      "inputs": [
        {
          "internalType": "uint256",
          "name": "_tokenId",
          "type": "uint256"
        }
      ],
      "name": "burnToken",
      "outputs": [],
      "stateMutability": "nonpayable",
      "type": "function"
    },
    {
      "inputs": [],
      "name": "getAllItems",
      "outputs": [
        {
          "components": [
            {
              "internalType": "string",
              "name": "itemName",
              "type": "string"
            },
            {
              "internalType": "uint256",
              "name": "id",
              "type": "uint256"
            },
            {
              "internalType": "address",
              "name": "owner",
              "type": "address"
            },
            {
              "internalType": "address",
              "name": "creator",
              "type": "address"
            },
            {
              "internalType": "uint64",
              "name": "price",
              "type": "uint64"
            },
            {
              "internalType": "bool",
              "name": "forSale",
              "type": "bool"
            },
            {
              "internalType": "string",
              "name": "tokenURI",
              "type": "string"
            }
          ],
          "internalType": "struct CloseSeaNFT.Item[]",
          "name": "",
          "type": "tuple[]"
        }
      ],
      "stateMutability": "view",
      "type": "function",
      "constant": true
    },
    {
      "inputs": [
        {
          "internalType": "uint256",
          "name": "_tokenId",
          "type": "uint256"
        }
      ],
      "name": "getURI",
      "outputs": [
        {
          "internalType": "string",
          "name": "",
          "type": "string"
        }
      ],
      "stateMutability": "view",
      "type": "function",
      "constant": true
    },
    {
      "inputs": [
        {
          "internalType": "uint256",
          "name": "_tokenId",
          "type": "uint256"
        }
      ],
      "name": "getOwner",
      "outputs": [
        {
          "internalType": "address",
          "name": "",
          "type": "address"
        }
      ],
      "stateMutability": "view",
      "type": "function",
      "constant": true
    },
    {
      "inputs": [
        {
          "internalType": "uint256",
          "name": "_tokenId",
          "type": "uint256"
        }
      ],
      "name": "getOwnertwo",
      "outputs": [
        {
          "internalType": "address",
          "name": "",
          "type": "address"
        }
      ],
      "stateMutability": "view",
      "type": "function",
      "constant": true
    },
    {
      "inputs": [
        {
          "internalType": "uint256",
          "name": "_tokenId",
          "type": "uint256"
        }
      ],
      "name": "isApproved",
      "outputs": [
        {
          "internalType": "address",
          "name": "",
          "type": "address"
        }
      ],
      "stateMutability": "view",
      "type": "function",
      "constant": true
    },
    {
      "inputs": [
        {
          "internalType": "uint256",
          "name": "_tokenId",
          "type": "uint256"
        }
      ],
      "name": "getToken",
      "outputs": [
        {
          "internalType": "string",
          "name": "name",
          "type": "string"
        },
        {
          "internalType": "uint256",
          "name": "id",
          "type": "uint256"
        },
        {
          "internalType": "address",
          "name": "owner",
          "type": "address"
        },
        {
          "internalType": "address",
          "name": "creator",
          "type": "address"
        },
        {
          "internalType": "uint64",
          "name": "price",
          "type": "uint64"
        },
        {
          "internalType": "bool",
          "name": "forSale",
          "type": "bool"
        },
        {
          "internalType": "string",
          "name": "tokenURI",
          "type": "string"
        }
      ],
      "stateMutability": "view",
      "type": "function",
      "constant": true
    }
  ],
  "bytecode": "0x60806040523480156200001157600080fd5b506040518060400160405280600c81526020017f436c6f7365536561204e465400000000000000000000000000000000000000008152506040518060400160405280600381526020017f434c530000000000000000000000000000000000000000000000000000000000815250816000908051906020019062000096929190620000b8565b508060019080519060200190620000af929190620000b8565b505050620001cd565b828054620000c69062000168565b90600052602060002090601f016020900481019282620000ea576000855562000136565b82601f106200010557805160ff191683800117855562000136565b8280016001018555821562000136579182015b828111156200013557825182559160200191906001019062000118565b5b50905062000145919062000149565b5090565b5b80821115620001645760008160009055506001016200014a565b5090565b600060028204905060018216806200018157607f821691505b602082108114156200019857620001976200019e565b5b50919050565b7f4e487b7100000000000000000000000000000000000000000000000000000000600052602260045260246000fd5b61476380620001dd6000396000f3fe6080604052600436106101b9576000357c01000000000000000000000000000000000000000000000000000000009004806370a0823111610109578063bfb231d2116100a7578063c87b56dd11610081578063c87b56dd14610620578063e4b50cb81461065d578063e985e9c5146106a0578063f63982de146106dd576101b9565b8063bfb231d214610577578063c41a360a146105ba578063c5e1d731146105f7576101b9565b80637b681396116100e35780637b681396146104de57806395d89b41146104fa578063a22cb46514610525578063b88d4fde1461054e576101b9565b806370a082311461043b5780637910867b146104785780637b47ec1a146104b5576101b9565b80633cb527bd116101765780634ba1d6aa116101505780634ba1d6aa1461036d5780635449fe03146103985780636352211e146103c1578063644d41f4146103fe576101b9565b80633cb527bd146102f25780633e7d2f351461031b57806342842e0e14610344576101b9565b806301ffc9a7146101be57806306fdde03146101fb578063081812fc14610226578063095ea7b3146102635780631aa347dc1461028c57806323b872dd146102c9575b600080fd5b3480156101ca57600080fd5b506101e560048036038101906101e091906134ff565b610706565b6040516101f29190613fa9565b60405180910390f35b34801561020757600080fd5b506102106107e8565b60405161021d9190613fc4565b60405180910390f35b34801561023257600080fd5b5061024d60048036038101906102489190613592565b61087a565b60405161025a9190613f20565b60405180910390f35b34801561026f57600080fd5b5061028a600480360381019061028591906134c3565b6108ff565b005b34801561029857600080fd5b506102b360048036038101906102ae9190613592565b610a17565b6040516102c09190613fc4565b60405180910390f35b3480156102d557600080fd5b506102f060048036038101906102eb91906133bd565b610a29565b005b3480156102fe57600080fd5b50610319600480360381019061031491906135bb565b610a89565b005b34801561032757600080fd5b50610342600480360381019061033d9190613592565b610b64565b005b34801561035057600080fd5b5061036b600480360381019061036691906133bd565b610c3f565b005b34801561037957600080fd5b50610382610c5f565b60405161038f9190613f87565b60405180910390f35b3480156103a457600080fd5b506103bf60048036038101906103ba9190613592565b610ee5565b005b3480156103cd57600080fd5b506103e860048036038101906103e39190613592565b610f7d565b6040516103f59190613f20565b60405180910390f35b34801561040a57600080fd5b5061042560048036038101906104209190613592565b61102f565b6040516104329190613f20565b60405180910390f35b34801561044757600080fd5b50610462600480360381019061045d9190613358565b611121565b60405161046f9190614283565b60405180910390f35b34801561048457600080fd5b5061049f600480360381019061049a9190613592565b6111d9565b6040516104ac9190613f20565b60405180910390f35b3480156104c157600080fd5b506104dc60048036038101906104d79190613592565b611216565b005b6104f860048036038101906104f39190613592565b611433565b005b34801561050657600080fd5b5061050f6116d1565b60405161051c9190613fc4565b60405180910390f35b34801561053157600080fd5b5061054c60048036038101906105479190613487565b611763565b005b34801561055a57600080fd5b506105756004803603810190610570919061340c565b6118e4565b005b34801561058357600080fd5b5061059e60048036038101906105999190613592565b611946565b6040516105b19796959493929190613fe6565b60405180910390f35b3480156105c657600080fd5b506105e160048036038101906105dc9190613592565b611b09565b6040516105ee9190613f20565b60405180910390f35b34801561060357600080fd5b5061061e60048036038101906106199190613551565b611b46565b005b34801561062c57600080fd5b5061064760048036038101906106429190613592565b611e36565b6040516106549190613fc4565b60405180910390f35b34801561066957600080fd5b50610684600480360381019061067f9190613592565b611f88565b6040516106979796959493929190613fe6565b60405180910390f35b3480156106ac57600080fd5b506106c760048036038101906106c29190613381565b612172565b6040516106d49190613fa9565b60405180910390f35b3480156106e957600080fd5b5061070460048036038101906106ff91906134c3565b612206565b005b60007f80ac58cd000000000000000000000000000000000000000000000000000000007bffffffffffffffffffffffffffffffffffffffffffffffffffffffff1916827bffffffffffffffffffffffffffffffffffffffffffffffffffffffff191614806107d157507f5b5e139f000000000000000000000000000000000000000000000000000000007bffffffffffffffffffffffffffffffffffffffffffffffffffffffff1916827bffffffffffffffffffffffffffffffffffffffffffffffffffffffff1916145b806107e157506107e082612346565b5b9050919050565b6060600080546107f790614541565b80601f016020809104026020016040519081016040528092919081815260200182805461082390614541565b80156108705780601f1061084557610100808354040283529160200191610870565b820191906000526020600020905b81548152906001019060200180831161085357829003601f168201915b5050505050905090565b6000610885826123b0565b6108c4576040517f08c379a00000000000000000000000000000000000000000000000000000000081526004016108bb906141e3565b60405180910390fd5b6004600083815260200190815260200160002060009054906101000a900473ffffffffffffffffffffffffffffffffffffffff169050919050565b600061090a82610f7d565b90508073ffffffffffffffffffffffffffffffffffffffff168373ffffffffffffffffffffffffffffffffffffffff16141561097b576040517f08c379a000000000000000000000000000000000000000000000000000000000815260040161097290614243565b60405180910390fd5b8073ffffffffffffffffffffffffffffffffffffffff1661099a61241c565b73ffffffffffffffffffffffffffffffffffffffff1614806109c957506109c8816109c361241c565b612172565b5b610a08576040517f08c379a00000000000000000000000000000000000000000000000000000000081526004016109ff90614123565b60405180910390fd5b610a128383612424565b505050565b6060610a2282611e36565b9050919050565b610a3a610a3461241c565b826124dd565b610a79576040517f08c379a0000000000000000000000000000000000000000000000000000000008152600401610a7090614263565b60405180910390fd5b610a848383836125bb565b505050565b813373ffffffffffffffffffffffffffffffffffffffff16610aaa82610f7d565b73ffffffffffffffffffffffffffffffffffffffff1614610aca57600080fd5b600060088481548110610b06577f4e487b7100000000000000000000000000000000000000000000000000000000600052603260045260246000fd5b90600052602060002090600502019050828160030160146101000a81548167ffffffffffffffff021916908367ffffffffffffffff160217905550600181600301601c6101000a81548160ff02191690831515021790555050505050565b803373ffffffffffffffffffffffffffffffffffffffff16610b8582610f7d565b73ffffffffffffffffffffffffffffffffffffffff1614610ba557600080fd5b600060088381548110610be1577f4e487b7100000000000000000000000000000000000000000000000000000000600052603260045260246000fd5b9060005260206000209060050201905060008160030160146101000a81548167ffffffffffffffff021916908367ffffffffffffffff160217905550600081600301601c6101000a81548160ff021916908315150217905550505050565b610c5a838383604051806020016040528060008152506118e4565b505050565b60606008805480602002602001604051908101604052809291908181526020016000905b82821015610edc57838290600052602060002090600502016040518060e0016040529081600082018054610cb690614541565b80601f0160208091040260200160405190810160405280929190818152602001828054610ce290614541565b8015610d2f5780601f10610d0457610100808354040283529160200191610d2f565b820191906000526020600020905b815481529060010190602001808311610d1257829003601f168201915b50505050508152602001600182015481526020016002820160009054906101000a900473ffffffffffffffffffffffffffffffffffffffff1673ffffffffffffffffffffffffffffffffffffffff1673ffffffffffffffffffffffffffffffffffffffff1681526020016003820160009054906101000a900473ffffffffffffffffffffffffffffffffffffffff1673ffffffffffffffffffffffffffffffffffffffff1673ffffffffffffffffffffffffffffffffffffffff1681526020016003820160149054906101000a900467ffffffffffffffff1667ffffffffffffffff1667ffffffffffffffff16815260200160038201601c9054906101000a900460ff16151515158152602001600482018054610e4b90614541565b80601f0160208091040260200160405190810160405280929190818152602001828054610e7790614541565b8015610ec45780601f10610e9957610100808354040283529160200191610ec4565b820191906000526020600020905b815481529060010190602001808311610ea757829003601f168201915b50505050508152505081526020019060010190610c83565b50505050905090565b803373ffffffffffffffffffffffffffffffffffffffff16610f0682610f7d565b73ffffffffffffffffffffffffffffffffffffffff1614610f2657600080fd5b60006009600084815260200190815260200160002060006101000a81548173ffffffffffffffffffffffffffffffffffffffff021916908373ffffffffffffffffffffffffffffffffffffffff1602179055505050565b6000806002600084815260200190815260200160002060009054906101000a900473ffffffffffffffffffffffffffffffffffffffff169050600073ffffffffffffffffffffffffffffffffffffffff168173ffffffffffffffffffffffffffffffffffffffff161415611026576040517f08c379a000000000000000000000000000000000000000000000000000000000815260040161101d90614163565b60405180910390fd5b80915050919050565b60008060005b60088054905081101561111757836008828154811061107d577f4e487b7100000000000000000000000000000000000000000000000000000000600052603260045260246000fd5b906000526020600020906005020160010154141561110457600881815481106110cf577f4e487b7100000000000000000000000000000000000000000000000000000000600052603260045260246000fd5b906000526020600020906005020160020160009054906101000a900473ffffffffffffffffffffffffffffffffffffffff1691505b808061110f90614573565b915050611035565b5080915050919050565b60008073ffffffffffffffffffffffffffffffffffffffff168273ffffffffffffffffffffffffffffffffffffffff161415611192576040517f08c379a000000000000000000000000000000000000000000000000000000000815260040161118990614143565b60405180910390fd5b600360008373ffffffffffffffffffffffffffffffffffffffff1673ffffffffffffffffffffffffffffffffffffffff168152602001908152602001600020549050919050565b60006009600083815260200190815260200160002060009054906101000a900473ffffffffffffffffffffffffffffffffffffffff169050919050565b803373ffffffffffffffffffffffffffffffffffffffff1661123782610f7d565b73ffffffffffffffffffffffffffffffffffffffff161461125757600080fd5b600060088381548110611293577f4e487b7100000000000000000000000000000000000000000000000000000000600052603260045260246000fd5b906000526020600020906005020190503373ffffffffffffffffffffffffffffffffffffffff168160030160009054906101000a900473ffffffffffffffffffffffffffffffffffffffff1673ffffffffffffffffffffffffffffffffffffffff16146112ff57600080fd5b61130883612817565b60088381548110611342577f4e487b7100000000000000000000000000000000000000000000000000000000600052603260045260246000fd5b9060005260206000209060050201600080820160006113619190613127565b60018201600090556002820160006101000a81549073ffffffffffffffffffffffffffffffffffffffff02191690556003820160006101000a81549073ffffffffffffffffffffffffffffffffffffffff02191690556003820160146101000a81549067ffffffffffffffff021916905560038201601c6101000a81549060ff02191690556004820160006113f69190613127565b5050600a600084815260200190815260200160002060006101000a81549073ffffffffffffffffffffffffffffffffffffffff0219169055505050565b3373ffffffffffffffffffffffffffffffffffffffff1661145382610f7d565b73ffffffffffffffffffffffffffffffffffffffff1614156114aa576040517f08c379a00000000000000000000000000000000000000000000000000000000081526004016114a1906140a3565b60405180910390fd5b3373ffffffffffffffffffffffffffffffffffffffff166009600083815260200190815260200160002060009054906101000a900473ffffffffffffffffffffffffffffffffffffffff1673ffffffffffffffffffffffffffffffffffffffff161461151557600080fd5b600060088281548110611551577f4e487b7100000000000000000000000000000000000000000000000000000000600052603260045260246000fd5b906000526020600020906005020190506001151581600301601c9054906101000a900460ff1615151461158357600080fd5b600061158e83610f7d565b905061159b813385610c3f565b33600a600085815260200190815260200160002060006101000a81548173ffffffffffffffffffffffffffffffffffffffff021916908373ffffffffffffffffffffffffffffffffffffffff160217905550338260020160006101000a81548173ffffffffffffffffffffffffffffffffffffffff021916908373ffffffffffffffffffffffffffffffffffffffff16021790555060008260030160146101000a81548167ffffffffffffffff021916908367ffffffffffffffff160217905550600082600301601c6101000a81548160ff02191690831515021790555060006009600085815260200190815260200160002060006101000a81548173ffffffffffffffffffffffffffffffffffffffff021916908373ffffffffffffffffffffffffffffffffffffffff160217905550505050565b6060600180546116e090614541565b80601f016020809104026020016040519081016040528092919081815260200182805461170c90614541565b80156117595780601f1061172e57610100808354040283529160200191611759565b820191906000526020600020905b81548152906001019060200180831161173c57829003601f168201915b5050505050905090565b61176b61241c565b73ffffffffffffffffffffffffffffffffffffffff168273ffffffffffffffffffffffffffffffffffffffff1614156117d9576040517f08c379a00000000000000000000000000000000000000000000000000000000081526004016117d0906140e3565b60405180910390fd5b80600560006117e661241c565b73ffffffffffffffffffffffffffffffffffffffff1673ffffffffffffffffffffffffffffffffffffffff16815260200190815260200160002060008473ffffffffffffffffffffffffffffffffffffffff1673ffffffffffffffffffffffffffffffffffffffff16815260200190815260200160002060006101000a81548160ff0219169083151502179055508173ffffffffffffffffffffffffffffffffffffffff1661189361241c565b73ffffffffffffffffffffffffffffffffffffffff167f17307eab39ab6107e8899845ad3d59bd9653f200f220920489ca2b5937696c31836040516118d89190613fa9565b60405180910390a35050565b6118f56118ef61241c565b836124dd565b611934576040517f08c379a000000000000000000000000000000000000000000000000000000000815260040161192b90614263565b60405180910390fd5b6119408484848461286a565b50505050565b6008818154811061195657600080fd5b906000526020600020906005020160009150905080600001805461197990614541565b80601f01602080910402602001604051908101604052809291908181526020018280546119a590614541565b80156119f25780601f106119c7576101008083540402835291602001916119f2565b820191906000526020600020905b8154815290600101906020018083116119d557829003601f168201915b5050505050908060010154908060020160009054906101000a900473ffffffffffffffffffffffffffffffffffffffff16908060030160009054906101000a900473ffffffffffffffffffffffffffffffffffffffff16908060030160149054906101000a900467ffffffffffffffff169080600301601c9054906101000a900460ff1690806004018054611a8690614541565b80601f0160208091040260200160405190810160405280929190818152602001828054611ab290614541565b8015611aff5780601f10611ad457610100808354040283529160200191611aff565b820191906000526020600020905b815481529060010190602001808311611ae257829003601f168201915b5050505050905087565b6000600a600083815260200190815260200160002060009054906101000a900473ffffffffffffffffffffffffffffffffffffffff169050919050565b6000611b5260076128c6565b90506000611b5f826128d4565b905060006040518060400160405280601681526020017f687474703a2f2f6c6f63616c686f73743a383030302f00000000000000000000815250905060006040518060400160405280600e81526020017f2f6d657461646174612e6a736f6e00000000000000000000000000000000000081525090506000828483604051602001611bec93929190613eef565b604051602081830303815290604052905060006040518060e001604052808881526020018781526020013373ffffffffffffffffffffffffffffffffffffffff1681526020013373ffffffffffffffffffffffffffffffffffffffff168152602001600067ffffffffffffffff16815260200160001515815260200183815250905060088190806001815401808255809150506001900390600052602060002090600502016000909190919091506000820151816000019080519060200190611cb6929190613167565b506020820151816001015560408201518160020160006101000a81548173ffffffffffffffffffffffffffffffffffffffff021916908373ffffffffffffffffffffffffffffffffffffffff16021790555060608201518160030160006101000a81548173ffffffffffffffffffffffffffffffffffffffff021916908373ffffffffffffffffffffffffffffffffffffffff16021790555060808201518160030160146101000a81548167ffffffffffffffff021916908367ffffffffffffffff16021790555060a082015181600301601c6101000a81548160ff02191690831515021790555060c0820151816004019080519060200190611dba929190613167565b505050611dc73387612aa0565b611dd18683612abe565b33600a600088815260200190815260200160002060006101000a81548173ffffffffffffffffffffffffffffffffffffffff021916908373ffffffffffffffffffffffffffffffffffffffff160217905550611e2d6007612b32565b50505050505050565b6060611e41826123b0565b611e80576040517f08c379a0000000000000000000000000000000000000000000000000000000008152600401611e77906141c3565b60405180910390fd5b6000600660008481526020019081526020016000208054611ea090614541565b80601f0160208091040260200160405190810160405280929190818152602001828054611ecc90614541565b8015611f195780601f10611eee57610100808354040283529160200191611f19565b820191906000526020600020905b815481529060010190602001808311611efc57829003601f168201915b505050505090506000611f2a612b48565b9050600081511415611f40578192505050611f83565b600082511115611f75578082604051602001611f5d929190613ecb565b60405160208183030381529060405292505050611f83565b611f7e84612b5f565b925050505b919050565b606060008060008060006060600060088981548110611fd0577f4e487b7100000000000000000000000000000000000000000000000000000000600052603260045260246000fd5b90600052602060002090600502019050806000018054611fef90614541565b80601f016020809104026020016040519081016040528092919081815260200182805461201b90614541565b80156120685780601f1061203d57610100808354040283529160200191612068565b820191906000526020600020905b81548152906001019060200180831161204b57829003601f168201915b505050505097508060010154965061207f89610f7d565b95508060030160009054906101000a900473ffffffffffffffffffffffffffffffffffffffff1694508060030160149054906101000a900467ffffffffffffffff16935080600301601c9054906101000a900460ff1692508060040180546120e690614541565b80601f016020809104026020016040519081016040528092919081815260200182805461211290614541565b801561215f5780601f106121345761010080835404028352916020019161215f565b820191906000526020600020905b81548152906001019060200180831161214257829003601f168201915b5050505050915050919395979092949650565b6000600560008473ffffffffffffffffffffffffffffffffffffffff1673ffffffffffffffffffffffffffffffffffffffff16815260200190815260200160002060008373ffffffffffffffffffffffffffffffffffffffff1673ffffffffffffffffffffffffffffffffffffffff16815260200190815260200160002060009054906101000a900460ff16905092915050565b803373ffffffffffffffffffffffffffffffffffffffff1661222782610f7d565b73ffffffffffffffffffffffffffffffffffffffff161461224757600080fd5b600060088381548110612283577f4e487b7100000000000000000000000000000000000000000000000000000000600052603260045260246000fd5b906000526020600020906005020190506001151581600301601c9054906101000a900460ff161515146122b557600080fd5b60008160030160149054906101000a900467ffffffffffffffff1667ffffffffffffffff16116122e457600080fd5b6122ee84846108ff565b836009600085815260200190815260200160002060006101000a81548173ffffffffffffffffffffffffffffffffffffffff021916908373ffffffffffffffffffffffffffffffffffffffff16021790555050505050565b60007f01ffc9a7000000000000000000000000000000000000000000000000000000007bffffffffffffffffffffffffffffffffffffffffffffffffffffffff1916827bffffffffffffffffffffffffffffffffffffffffffffffffffffffff1916149050919050565b60008073ffffffffffffffffffffffffffffffffffffffff166002600084815260200190815260200160002060009054906101000a900473ffffffffffffffffffffffffffffffffffffffff1673ffffffffffffffffffffffffffffffffffffffff1614159050919050565b600033905090565b816004600083815260200190815260200160002060006101000a81548173ffffffffffffffffffffffffffffffffffffffff021916908373ffffffffffffffffffffffffffffffffffffffff160217905550808273ffffffffffffffffffffffffffffffffffffffff1661249783610f7d565b73ffffffffffffffffffffffffffffffffffffffff167f8c5be1e5ebec7d5bd14f71427d1e84f3dd0314c0f7b2291e5b200ac8c7c3b92560405160405180910390a45050565b60006124e8826123b0565b612527576040517f08c379a000000000000000000000000000000000000000000000000000000000815260040161251e90614103565b60405180910390fd5b600061253283610f7d565b90508073ffffffffffffffffffffffffffffffffffffffff168473ffffffffffffffffffffffffffffffffffffffff1614806125a157508373ffffffffffffffffffffffffffffffffffffffff166125898461087a565b73ffffffffffffffffffffffffffffffffffffffff16145b806125b257506125b18185612172565b5b91505092915050565b8273ffffffffffffffffffffffffffffffffffffffff166125db82610f7d565b73ffffffffffffffffffffffffffffffffffffffff1614612631576040517f08c379a000000000000000000000000000000000000000000000000000000000815260040161262890614203565b60405180910390fd5b600073ffffffffffffffffffffffffffffffffffffffff168273ffffffffffffffffffffffffffffffffffffffff1614156126a1576040517f08c379a0000000000000000000000000000000000000000000000000000000008152600401612698906140c3565b60405180910390fd5b6126ac838383612c06565b6126b7600082612424565b6001600360008573ffffffffffffffffffffffffffffffffffffffff1673ffffffffffffffffffffffffffffffffffffffff16815260200190815260200160002060008282546127079190614443565b925050819055506001600360008473ffffffffffffffffffffffffffffffffffffffff1673ffffffffffffffffffffffffffffffffffffffff168152602001908152602001600020600082825461275e91906143bc565b92505081905550816002600083815260200190815260200160002060006101000a81548173ffffffffffffffffffffffffffffffffffffffff021916908373ffffffffffffffffffffffffffffffffffffffff160217905550808273ffffffffffffffffffffffffffffffffffffffff168473ffffffffffffffffffffffffffffffffffffffff167fddf252ad1be2c89b69c2b068fc378daa952ba7f163c4a11628f55a4df523b3ef60405160405180910390a4505050565b61282081612c0b565b600060066000838152602001908152602001600020805461284090614541565b905014612867576006600082815260200190815260200160002060006128669190613127565b5b50565b6128758484846125bb565b61288184848484612d1c565b6128c0576040517f08c379a00000000000000000000000000000000000000000000000000000000081526004016128b790614063565b60405180910390fd5b50505050565b600081600001549050919050565b6060600082141561291c576040518060400160405280600181526020017f30000000000000000000000000000000000000000000000000000000000000008152509050612a9b565b600082905060005b6000821461294e57808061293790614573565b915050600a826129479190614412565b9150612924565b60008167ffffffffffffffff811115612990577f4e487b7100000000000000000000000000000000000000000000000000000000600052604160045260246000fd5b6040519080825280601f01601f1916602001820160405280156129c25781602001600182028036833780820191505090505b5090505b60008514612a94576001826129db9190614443565b9150600a856129ea91906145bc565b60306129f691906143bc565b7f010000000000000000000000000000000000000000000000000000000000000002818381518110612a51577f4e487b7100000000000000000000000000000000000000000000000000000000600052603260045260246000fd5b60200101907effffffffffffffffffffffffffffffffffffffffffffffffffffffffffffff1916908160001a905350600a85612a8d9190614412565b94506129c6565b8093505050505b919050565b612aba828260405180602001604052806000815250612eeb565b5050565b612ac7826123b0565b612b06576040517f08c379a0000000000000000000000000000000000000000000000000000000008152600401612afd90614183565b60405180910390fd5b80600660008481526020019081526020016000209080519060200190612b2d929190613167565b505050565b6001816000016000828254019250508190555050565b606060405180602001604052806000815250905090565b6060612b6a826123b0565b612ba9576040517f08c379a0000000000000000000000000000000000000000000000000000000008152600401612ba090614223565b60405180910390fd5b6000612bb3612b48565b90506000815111612bd35760405180602001604052806000815250612bfe565b80612bdd846128d4565b604051602001612bee929190613ecb565b6040516020818303038152906040525b915050919050565b505050565b6000612c1682610f7d565b9050612c2481600084612c06565b612c2f600083612424565b6001600360008373ffffffffffffffffffffffffffffffffffffffff1673ffffffffffffffffffffffffffffffffffffffff1681526020019081526020016000206000828254612c7f9190614443565b925050819055506002600083815260200190815260200160002060006101000a81549073ffffffffffffffffffffffffffffffffffffffff021916905581600073ffffffffffffffffffffffffffffffffffffffff168273ffffffffffffffffffffffffffffffffffffffff167fddf252ad1be2c89b69c2b068fc378daa952ba7f163c4a11628f55a4df523b3ef60405160405180910390a45050565b6000612d3d8473ffffffffffffffffffffffffffffffffffffffff16612f46565b15612ede578373ffffffffffffffffffffffffffffffffffffffff1663150b7a02612d6661241c565b8786866040518563ffffffff167c0100000000000000000000000000000000000000000000000000000000028152600401612da49493929190613f3b565b602060405180830381600087803b158015612dbe57600080fd5b505af1925050508015612def57506040513d601f19601f82011682018060405250810190612dec9190613528565b60015b612e72573d8060008114612e1f576040519150601f19603f3d011682016040523d82523d6000602084013e612e24565b606091505b50600081511415612e6a576040517f08c379a0000000000000000000000000000000000000000000000000000000008152600401612e6190614063565b60405180910390fd5b805181602001fd5b63150b7a027c0100000000000000000000000000000000000000000000000000000000027bffffffffffffffffffffffffffffffffffffffffffffffffffffffff1916817bffffffffffffffffffffffffffffffffffffffffffffffffffffffff191614915050612ee3565b600190505b949350505050565b612ef58383612f59565b612f026000848484612d1c565b612f41576040517f08c379a0000000000000000000000000000000000000000000000000000000008152600401612f3890614063565b60405180910390fd5b505050565b600080823b905060008111915050919050565b600073ffffffffffffffffffffffffffffffffffffffff168273ffffffffffffffffffffffffffffffffffffffff161415612fc9576040517f08c379a0000000000000000000000000000000000000000000000000000000008152600401612fc0906141a3565b60405180910390fd5b612fd2816123b0565b15613012576040517f08c379a000000000000000000000000000000000000000000000000000000000815260040161300990614083565b60405180910390fd5b61301e60008383612c06565b6001600360008473ffffffffffffffffffffffffffffffffffffffff1673ffffffffffffffffffffffffffffffffffffffff168152602001908152602001600020600082825461306e91906143bc565b92505081905550816002600083815260200190815260200160002060006101000a81548173ffffffffffffffffffffffffffffffffffffffff021916908373ffffffffffffffffffffffffffffffffffffffff160217905550808273ffffffffffffffffffffffffffffffffffffffff16600073ffffffffffffffffffffffffffffffffffffffff167fddf252ad1be2c89b69c2b068fc378daa952ba7f163c4a11628f55a4df523b3ef60405160405180910390a45050565b50805461313390614541565b6000825580601f106131455750613164565b601f01602090049060005260206000209081019061316391906131ed565b5b50565b82805461317390614541565b90600052602060002090601f01602090048101928261319557600085556131dc565b82601f106131ae57805160ff19168380011785556131dc565b828001600101855582156131dc579182015b828111156131db5782518255916020019190600101906131c0565b5b5090506131e991906131ed565b5090565b5b808211156132065760008160009055506001016131ee565b5090565b600061321d613218846142cf565b61429e565b90508281526020810184848401111561323557600080fd5b6132408482856144ff565b509392505050565b600061325b613256846142ff565b61429e565b90508281526020810184848401111561327357600080fd5b61327e8482856144ff565b509392505050565b600081359050613295816146ba565b92915050565b6000813590506132aa816146d1565b92915050565b6000813590506132bf816146e8565b92915050565b6000815190506132d4816146e8565b92915050565b600082601f8301126132eb57600080fd5b81356132fb84826020860161320a565b91505092915050565b600082601f83011261331557600080fd5b8135613325848260208601613248565b91505092915050565b60008135905061333d816146ff565b92915050565b60008135905061335281614716565b92915050565b60006020828403121561336a57600080fd5b600061337884828501613286565b91505092915050565b6000806040838503121561339457600080fd5b60006133a285828601613286565b92505060206133b385828601613286565b9150509250929050565b6000806000606084860312156133d257600080fd5b60006133e086828701613286565b93505060206133f186828701613286565b92505060406134028682870161332e565b9150509250925092565b6000806000806080858703121561342257600080fd5b600061343087828801613286565b945050602061344187828801613286565b93505060406134528782880161332e565b925050606085013567ffffffffffffffff81111561346f57600080fd5b61347b878288016132da565b91505092959194509250565b6000806040838503121561349a57600080fd5b60006134a885828601613286565b92505060206134b98582860161329b565b9150509250929050565b600080604083850312156134d657600080fd5b60006134e485828601613286565b92505060206134f58582860161332e565b9150509250929050565b60006020828403121561351157600080fd5b600061351f848285016132b0565b91505092915050565b60006020828403121561353a57600080fd5b6000613548848285016132c5565b91505092915050565b60006020828403121561356357600080fd5b600082013567ffffffffffffffff81111561357d57600080fd5b61358984828501613304565b91505092915050565b6000602082840312156135a457600080fd5b60006135b28482850161332e565b91505092915050565b600080604083850312156135ce57600080fd5b60006135dc8582860161332e565b92505060206135ed85828601613343565b9150509250929050565b60006136038383613dec565b905092915050565b61361481614477565b82525050565b61362381614477565b82525050565b60006136348261433f565b61363e818561436d565b9350836020820285016136508561432f565b8060005b8581101561368c578484038952815161366d85826135f7565b945061367883614360565b925060208a01995050600181019050613654565b50829750879550505050505092915050565b6136a781614489565b82525050565b6136b681614489565b82525050565b60006136c78261434a565b6136d1818561437e565b93506136e181856020860161450e565b6136ea816146a9565b840191505092915050565b600061370082614355565b61370a818561438f565b935061371a81856020860161450e565b613723816146a9565b840191505092915050565b600061373982614355565b61374381856143a0565b935061375381856020860161450e565b61375c816146a9565b840191505092915050565b600061377282614355565b61377c81856143b1565b935061378c81856020860161450e565b80840191505092915050565b60006137a56032836143a0565b91507f4552433732313a207472616e7366657220746f206e6f6e20455243373231526560008301527f63656976657220696d706c656d656e74657200000000000000000000000000006020830152604082019050919050565b600061380b601c836143a0565b91507f4552433732313a20746f6b656e20616c7265616479206d696e746564000000006000830152602082019050919050565b600061384b6021836143a0565b91507f4f776e65722063616e6e6f742065786563757465206275792066756e6374696f60008301527f6e000000000000000000000000000000000000000000000000000000000000006020830152604082019050919050565b60006138b16024836143a0565b91507f4552433732313a207472616e7366657220746f20746865207a65726f2061646460008301527f72657373000000000000000000000000000000000000000000000000000000006020830152604082019050919050565b60006139176019836143a0565b91507f4552433732313a20617070726f766520746f2063616c6c6572000000000000006000830152602082019050919050565b6000613957602c836143a0565b91507f4552433732313a206f70657261746f7220717565727920666f72206e6f6e657860008301527f697374656e7420746f6b656e00000000000000000000000000000000000000006020830152604082019050919050565b60006139bd6038836143a0565b91507f4552433732313a20617070726f76652063616c6c6572206973206e6f74206f7760008301527f6e6572206e6f7220617070726f76656420666f7220616c6c00000000000000006020830152604082019050919050565b6000613a23602a836143a0565b91507f4552433732313a2062616c616e636520717565727920666f7220746865207a6560008301527f726f2061646472657373000000000000000000000000000000000000000000006020830152604082019050919050565b6000613a896029836143a0565b91507f4552433732313a206f776e657220717565727920666f72206e6f6e657869737460008301527f656e7420746f6b656e00000000000000000000000000000000000000000000006020830152604082019050919050565b6000613aef602e836143a0565b91507f45524337323155524953746f726167653a2055524920736574206f66206e6f6e60008301527f6578697374656e7420746f6b656e0000000000000000000000000000000000006020830152604082019050919050565b6000613b556020836143a0565b91507f4552433732313a206d696e7420746f20746865207a65726f20616464726573736000830152602082019050919050565b6000613b956031836143a0565b91507f45524337323155524953746f726167653a2055524920717565727920666f722060008301527f6e6f6e6578697374656e7420746f6b656e0000000000000000000000000000006020830152604082019050919050565b6000613bfb602c836143a0565b91507f4552433732313a20617070726f76656420717565727920666f72206e6f6e657860008301527f697374656e7420746f6b656e00000000000000000000000000000000000000006020830152604082019050919050565b6000613c616029836143a0565b91507f4552433732313a207472616e73666572206f6620746f6b656e2074686174206960008301527f73206e6f74206f776e00000000000000000000000000000000000000000000006020830152604082019050919050565b6000613cc7602f836143a0565b91507f4552433732314d657461646174613a2055524920717565727920666f72206e6f60008301527f6e6578697374656e7420746f6b656e00000000000000000000000000000000006020830152604082019050919050565b6000613d2d6021836143a0565b91507f4552433732313a20617070726f76616c20746f2063757272656e74206f776e6560008301527f72000000000000000000000000000000000000000000000000000000000000006020830152604082019050919050565b6000613d936031836143a0565b91507f4552433732313a207472616e736665722063616c6c6572206973206e6f74206f60008301527f776e6572206e6f7220617070726f7665640000000000000000000000000000006020830152604082019050919050565b600060e0830160008301518482036000860152613e0982826136f5565b9150506020830151613e1e6020860182613e8f565b506040830151613e31604086018261360b565b506060830151613e44606086018261360b565b506080830151613e576080860182613ead565b5060a0830151613e6a60a086018261369e565b5060c083015184820360c0860152613e8282826136f5565b9150508091505092915050565b613e98816144e1565b82525050565b613ea7816144e1565b82525050565b613eb6816144eb565b82525050565b613ec5816144eb565b82525050565b6000613ed78285613767565b9150613ee38284613767565b91508190509392505050565b6000613efb8286613767565b9150613f078285613767565b9150613f138284613767565b9150819050949350505050565b6000602082019050613f35600083018461361a565b92915050565b6000608082019050613f50600083018761361a565b613f5d602083018661361a565b613f6a6040830185613e9e565b8181036060830152613f7c81846136bc565b905095945050505050565b60006020820190508181036000830152613fa18184613629565b905092915050565b6000602082019050613fbe60008301846136ad565b92915050565b60006020820190508181036000830152613fde818461372e565b905092915050565b600060e0820190508181036000830152614000818a61372e565b905061400f6020830189613e9e565b61401c604083018861361a565b614029606083018761361a565b6140366080830186613ebc565b61404360a08301856136ad565b81810360c0830152614055818461372e565b905098975050505050505050565b6000602082019050818103600083015261407c81613798565b9050919050565b6000602082019050818103600083015261409c816137fe565b9050919050565b600060208201905081810360008301526140bc8161383e565b9050919050565b600060208201905081810360008301526140dc816138a4565b9050919050565b600060208201905081810360008301526140fc8161390a565b9050919050565b6000602082019050818103600083015261411c8161394a565b9050919050565b6000602082019050818103600083015261413c816139b0565b9050919050565b6000602082019050818103600083015261415c81613a16565b9050919050565b6000602082019050818103600083015261417c81613a7c565b9050919050565b6000602082019050818103600083015261419c81613ae2565b9050919050565b600060208201905081810360008301526141bc81613b48565b9050919050565b600060208201905081810360008301526141dc81613b88565b9050919050565b600060208201905081810360008301526141fc81613bee565b9050919050565b6000602082019050818103600083015261421c81613c54565b9050919050565b6000602082019050818103600083015261423c81613cba565b9050919050565b6000602082019050818103600083015261425c81613d20565b9050919050565b6000602082019050818103600083015261427c81613d86565b9050919050565b60006020820190506142986000830184613e9e565b92915050565b6000604051905081810181811067ffffffffffffffff821117156142c5576142c461467a565b5b8060405250919050565b600067ffffffffffffffff8211156142ea576142e961467a565b5b601f19601f8301169050602081019050919050565b600067ffffffffffffffff82111561431a5761431961467a565b5b601f19601f8301169050602081019050919050565b6000819050602082019050919050565b600081519050919050565b600081519050919050565b600081519050919050565b6000602082019050919050565b600082825260208201905092915050565b600082825260208201905092915050565b600082825260208201905092915050565b600082825260208201905092915050565b600081905092915050565b60006143c7826144e1565b91506143d2836144e1565b9250827fffffffffffffffffffffffffffffffffffffffffffffffffffffffffffffffff03821115614407576144066145ed565b5b828201905092915050565b600061441d826144e1565b9150614428836144e1565b9250826144385761443761461c565b5b828204905092915050565b600061444e826144e1565b9150614459836144e1565b92508282101561446c5761446b6145ed565b5b828203905092915050565b6000614482826144c1565b9050919050565b60008115159050919050565b60007fffffffff0000000000000000000000000000000000000000000000000000000082169050919050565b600073ffffffffffffffffffffffffffffffffffffffff82169050919050565b6000819050919050565b600067ffffffffffffffff82169050919050565b82818337600083830152505050565b60005b8381101561452c578082015181840152602081019050614511565b8381111561453b576000848401525b50505050565b6000600282049050600182168061455957607f821691505b6020821081141561456d5761456c61464b565b5b50919050565b600061457e826144e1565b91507fffffffffffffffffffffffffffffffffffffffffffffffffffffffffffffffff8214156145b1576145b06145ed565b5b600182019050919050565b60006145c7826144e1565b91506145d2836144e1565b9250826145e2576145e161461c565b5b828206905092915050565b7f4e487b7100000000000000000000000000000000000000000000000000000000600052601160045260246000fd5b7f4e487b7100000000000000000000000000000000000000000000000000000000600052601260045260246000fd5b7f4e487b7100000000000000000000000000000000000000000000000000000000600052602260045260246000fd5b7f4e487b7100000000000000000000000000000000000000000000000000000000600052604160045260246000fd5b6000601f19601f8301169050919050565b6146c381614477565b81146146ce57600080fd5b50565b6146da81614489565b81146146e557600080fd5b50565b6146f181614495565b81146146fc57600080fd5b50565b614708816144e1565b811461471357600080fd5b50565b61471f816144eb565b811461472a57600080fd5b5056fea2646970667358221220f924834e98374a151f75caaa2a951e33da5ed51b031c8d3dd2a57cff18f6398164736f6c63430008000033",
  "immutableReferences": {},
  "source": "// SPDX-License-Identifier: MIT\npragma solidity ^0.8.0;\n\n// import \"@openzeppelin/contracts/token/ERC721/extensions/ERC721Enumerable.sol\";\nimport \"@openzeppelin/contracts/token/ERC721/extensions/ERC721URIStorage.sol\";\nimport \"@openzeppelin/contracts/utils/Counters.sol\";\nimport \"@openzeppelin/contracts/utils/Strings.sol\";\n\ncontract CloseSeaNFT is ERC721URIStorage{\nusing Counters for Counters.Counter;\nCounters.Counter private tokenId;\n\nconstructor() ERC721('CloseSea NFT','CLS') {\n}\n\nstruct Item{\n    string itemName;\n    uint id;\n    address owner;\n    address creator;\n    uint64 price;\n    bool forSale;\n    string tokenURI;\n}\n\nItem [] public items;\nmapping (uint => address) private _tokenApprovals;\nmapping (uint => address) itemToOwner;\n\nmodifier onlyOwnerOf (uint _tokenId) {\n    require (ownerOf(_tokenId) == msg.sender);\n    _;\n}\n\n\nfunction Mint(string memory _itemName) external{\n    uint currentId = tokenId.current();\n    string memory idString = Strings.toString(currentId);\n    string memory baseURI = \"http://localhost:8000/\";\n    string memory metadata = \"/metadata.json\";\n    string memory url = string(abi.encodePacked(baseURI, idString, metadata));\n\n    Item memory _item = Item({\n        itemName: _itemName,\n        id: currentId,\n        owner: msg.sender,\n        creator: msg.sender,\n        price: 0,\n        forSale: false,\n        tokenURI: url\n    });\n    items.push(_item);\n    _safeMint(msg.sender, currentId);\n    _setTokenURI(currentId, url);\n    itemToOwner[currentId] = msg.sender;\n    tokenId.increment();\n}\n\nfunction tokenOnSale (uint _tokenId, uint64 price) external onlyOwnerOf(_tokenId){\n    // require(ownerOf(_tokenId) == msg.sender);\n    Item storage _item = items[_tokenId];\n    _item.price = price;\n    _item.forSale = true;\n}\n\nfunction notForSale (uint _tokenId) external onlyOwnerOf(_tokenId){\n    // require(ownerOf(_tokenId) == msg.sender);\n    Item storage _item = items[_tokenId];\n    _item.price = 0;\n    _item.forSale = false;\n}\n\nfunction approvalTo (address _to, uint _tokenId) external onlyOwnerOf(_tokenId){\n    // require (ownerOf(_tokenId) == msg.sender);\n    Item storage _item = items[_tokenId];\n    require(_item.forSale == true);\n    require(_item.price > 0);\n    approve(_to,_tokenId);\n    _tokenApprovals[_tokenId] = _to;\n}\n\nfunction cancelApproval (uint _tokenId) external onlyOwnerOf(_tokenId){\n    // require(ownerOf(_tokenId) == msg.sender);\n    _tokenApprovals[_tokenId] = address(0);\n}\n\nfunction buyingFrom (uint _tokenId) external payable {\n    require (ownerOf(_tokenId) != msg.sender, \"Owner cannot execute buy function\");\n    require (_tokenApprovals[_tokenId] == msg.sender);\n    Item storage _item = items[_tokenId];\n    require(_item.forSale == true);\n    address _from = ownerOf(_tokenId);\n    safeTransferFrom(_from, msg.sender, _tokenId);\n    itemToOwner[_tokenId] = msg.sender;\n    _item.owner = msg.sender;\n    _item.price = 0;\n    _item.forSale = false;\n    _tokenApprovals[_tokenId] = address(0);\n}\n\nfunction burnToken (uint _tokenId) external onlyOwnerOf(_tokenId) {\n    Item storage _item = items[_tokenId];\n    // require(ownerOf(_tokenId) == msg.sender);\n    require(_item.creator == msg.sender);\n    _burn(_tokenId);\n    delete items[_tokenId];\n    delete itemToOwner[_tokenId];\n}\n\nfunction getAllItems () external view returns(Item[] memory){\n    return items;\n}\n\nfunction getURI (uint _tokenId) external view returns (string memory){\n    return tokenURI(_tokenId);\n}\n\nfunction getOwner (uint _tokenId) external view returns (address){\n    return itemToOwner[_tokenId];\n}\n\nfunction getOwnertwo (uint _tokenId) external view returns (address){\n    address owner;\n    for (uint i=0; i<items.length;i++){\n        if(items[i].id == _tokenId){\n            owner = items[i].owner;\n        } \n    } return owner;\n}\n\nfunction isApproved (uint _tokenId) external view returns (address){\n    return _tokenApprovals[_tokenId];\n}\n\nfunction getToken(uint _tokenId) external view returns (string memory name, uint id, address owner, address creator, uint64 price, bool forSale, string memory tokenURI){\n    Item storage _item = items[_tokenId];\n    name = _item.itemName;\n    id = _item.id;\n    owner = ownerOf(_tokenId);\n    creator = _item.creator;\n    price = _item.price;\n    forSale = _item.forSale;\n    tokenURI = _item.tokenURI;\n}\n\n\n}",
  "sourcePath": "/Users/Oscar/crypto_coin/src/contracts/BitEthTwo.sol",
  "compiler": {
    "name": "solc",
    "version": "0.8.0+commit.c7dfd78e.Emscripten.clang"
  },
  "schemaVersion": "3.3.4",
  "updatedAt": "2021-04-27T07:59:14.294Z",
  "networkType": "ethereum",
  "devdoc": {
    "kind": "dev",
    "methods": {
      "approve(address,uint256)": {
        "details": "See {IERC721-approve}."
      },
      "balanceOf(address)": {
        "details": "See {IERC721-balanceOf}."
      },
      "getApproved(uint256)": {
        "details": "See {IERC721-getApproved}."
      },
      "isApprovedForAll(address,address)": {
        "details": "See {IERC721-isApprovedForAll}."
      },
      "name()": {
        "details": "See {IERC721Metadata-name}."
      },
      "ownerOf(uint256)": {
        "details": "See {IERC721-ownerOf}."
      },
      "safeTransferFrom(address,address,uint256)": {
        "details": "See {IERC721-safeTransferFrom}."
      },
      "safeTransferFrom(address,address,uint256,bytes)": {
        "details": "See {IERC721-safeTransferFrom}."
      },
      "setApprovalForAll(address,bool)": {
        "details": "See {IERC721-setApprovalForAll}."
      },
      "supportsInterface(bytes4)": {
        "details": "See {IERC165-supportsInterface}."
      },
      "symbol()": {
        "details": "See {IERC721Metadata-symbol}."
      },
      "tokenURI(uint256)": {
        "details": "See {IERC721Metadata-tokenURI}."
      },
      "transferFrom(address,address,uint256)": {
        "details": "See {IERC721-transferFrom}."
      }
    },
    "version": 1
  },
  "userdoc": {
    "kind": "user",
    "methods": {},
    "version": 1
  }
}