{
  "contractName": "CloseSeaNFT",
  "abi": [
    {
      "inputs": [],
      "stateMutability": "nonpayable",
      "type": "constructor"
    },
    {
      "anonymous": false,
      "inputs": [
        {
          "indexed": true,
          "internalType": "address",
          "name": "owner",
          "type": "address"
        },
        {
          "indexed": true,
          "internalType": "address",
          "name": "approved",
          "type": "address"
        },
        {
          "indexed": true,
          "internalType": "uint256",
          "name": "tokenId",
          "type": "uint256"
        }
      ],
      "name": "Approval",
      "type": "event"
    },
    {
      "anonymous": false,
      "inputs": [
        {
          "indexed": true,
          "internalType": "address",
          "name": "owner",
          "type": "address"
        },
        {
          "indexed": true,
          "internalType": "address",
          "name": "operator",
          "type": "address"
        },
        {
          "indexed": false,
          "internalType": "bool",
          "name": "approved",
          "type": "bool"
        }
      ],
      "name": "ApprovalForAll",
      "type": "event"
    },
    {
      "anonymous": false,
      "inputs": [
        {
          "indexed": true,
          "internalType": "bytes32",
          "name": "role",
          "type": "bytes32"
        },
        {
          "indexed": true,
          "internalType": "bytes32",
          "name": "previousAdminRole",
          "type": "bytes32"
        },
        {
          "indexed": true,
          "internalType": "bytes32",
          "name": "newAdminRole",
          "type": "bytes32"
        }
      ],
      "name": "RoleAdminChanged",
      "type": "event"
    },
    {
      "anonymous": false,
      "inputs": [
        {
          "indexed": true,
          "internalType": "bytes32",
          "name": "role",
          "type": "bytes32"
        },
        {
          "indexed": true,
          "internalType": "address",
          "name": "account",
          "type": "address"
        },
        {
          "indexed": true,
          "internalType": "address",
          "name": "sender",
          "type": "address"
        }
      ],
      "name": "RoleGranted",
      "type": "event"
    },
    {
      "anonymous": false,
      "inputs": [
        {
          "indexed": true,
          "internalType": "bytes32",
          "name": "role",
          "type": "bytes32"
        },
        {
          "indexed": true,
          "internalType": "address",
          "name": "account",
          "type": "address"
        },
        {
          "indexed": true,
          "internalType": "address",
          "name": "sender",
          "type": "address"
        }
      ],
      "name": "RoleRevoked",
      "type": "event"
    },
    {
      "anonymous": false,
      "inputs": [
        {
          "indexed": true,
          "internalType": "address",
          "name": "from",
          "type": "address"
        },
        {
          "indexed": true,
          "internalType": "address",
          "name": "to",
          "type": "address"
        },
        {
          "indexed": true,
          "internalType": "uint256",
          "name": "tokenId",
          "type": "uint256"
        }
      ],
      "name": "Transfer",
      "type": "event"
    },
    {
      "inputs": [],
      "name": "DEFAULT_ADMIN_ROLE",
      "outputs": [
        {
          "internalType": "bytes32",
          "name": "",
          "type": "bytes32"
        }
      ],
      "stateMutability": "view",
      "type": "function",
      "constant": true
    },
    {
      "inputs": [],
      "name": "MINTER_ROLE",
      "outputs": [
        {
          "internalType": "bytes32",
          "name": "",
          "type": "bytes32"
        }
      ],
      "stateMutability": "view",
      "type": "function",
      "constant": true
    },
    {
      "inputs": [
        {
          "internalType": "address",
          "name": "to",
          "type": "address"
        },
        {
          "internalType": "uint256",
          "name": "tokenId",
          "type": "uint256"
        }
      ],
      "name": "approve",
      "outputs": [],
      "stateMutability": "nonpayable",
      "type": "function"
    },
    {
      "inputs": [
        {
          "internalType": "address",
          "name": "owner",
          "type": "address"
        }
      ],
      "name": "balanceOf",
      "outputs": [
        {
          "internalType": "uint256",
          "name": "",
          "type": "uint256"
        }
      ],
      "stateMutability": "view",
      "type": "function",
      "constant": true
    },
    {
      "inputs": [
        {
          "internalType": "uint256",
          "name": "tokenId",
          "type": "uint256"
        }
      ],
      "name": "getApproved",
      "outputs": [
        {
          "internalType": "address",
          "name": "",
          "type": "address"
        }
      ],
      "stateMutability": "view",
      "type": "function",
      "constant": true
    },
    {
      "inputs": [
        {
          "internalType": "bytes32",
          "name": "role",
          "type": "bytes32"
        }
      ],
      "name": "getRoleAdmin",
      "outputs": [
        {
          "internalType": "bytes32",
          "name": "",
          "type": "bytes32"
        }
      ],
      "stateMutability": "view",
      "type": "function",
      "constant": true
    },
    {
      "inputs": [
        {
          "internalType": "bytes32",
          "name": "role",
          "type": "bytes32"
        },
        {
          "internalType": "uint256",
          "name": "index",
          "type": "uint256"
        }
      ],
      "name": "getRoleMember",
      "outputs": [
        {
          "internalType": "address",
          "name": "",
          "type": "address"
        }
      ],
      "stateMutability": "view",
      "type": "function",
      "constant": true
    },
    {
      "inputs": [
        {
          "internalType": "bytes32",
          "name": "role",
          "type": "bytes32"
        }
      ],
      "name": "getRoleMemberCount",
      "outputs": [
        {
          "internalType": "uint256",
          "name": "",
          "type": "uint256"
        }
      ],
      "stateMutability": "view",
      "type": "function",
      "constant": true
    },
    {
      "inputs": [
        {
          "internalType": "bytes32",
          "name": "role",
          "type": "bytes32"
        },
        {
          "internalType": "address",
          "name": "account",
          "type": "address"
        }
      ],
      "name": "grantRole",
      "outputs": [],
      "stateMutability": "nonpayable",
      "type": "function"
    },
    {
      "inputs": [
        {
          "internalType": "bytes32",
          "name": "role",
          "type": "bytes32"
        },
        {
          "internalType": "address",
          "name": "account",
          "type": "address"
        }
      ],
      "name": "hasRole",
      "outputs": [
        {
          "internalType": "bool",
          "name": "",
          "type": "bool"
        }
      ],
      "stateMutability": "view",
      "type": "function",
      "constant": true
    },
    {
      "inputs": [
        {
          "internalType": "address",
          "name": "owner",
          "type": "address"
        },
        {
          "internalType": "address",
          "name": "operator",
          "type": "address"
        }
      ],
      "name": "isApprovedForAll",
      "outputs": [
        {
          "internalType": "bool",
          "name": "",
          "type": "bool"
        }
      ],
      "stateMutability": "view",
      "type": "function",
      "constant": true
    },
    {
      "inputs": [
        {
          "internalType": "uint256",
          "name": "",
          "type": "uint256"
        }
      ],
      "name": "items",
      "outputs": [
        {
          "internalType": "string",
          "name": "itemName",
          "type": "string"
        },
        {
          "internalType": "uint256",
          "name": "id",
          "type": "uint256"
        },
        {
          "internalType": "address",
          "name": "owner",
          "type": "address"
        },
        {
          "internalType": "address",
          "name": "creator",
          "type": "address"
        },
        {
          "internalType": "uint256",
          "name": "price",
          "type": "uint256"
        },
        {
          "internalType": "bool",
          "name": "forSale",
          "type": "bool"
        },
        {
          "internalType": "string",
          "name": "tokenURI",
          "type": "string"
        }
      ],
      "stateMutability": "view",
      "type": "function",
      "constant": true
    },
    {
      "inputs": [],
      "name": "name",
      "outputs": [
        {
          "internalType": "string",
          "name": "",
          "type": "string"
        }
      ],
      "stateMutability": "view",
      "type": "function",
      "constant": true
    },
    {
      "inputs": [
        {
          "internalType": "uint256",
          "name": "tokenId",
          "type": "uint256"
        }
      ],
      "name": "ownerOf",
      "outputs": [
        {
          "internalType": "address",
          "name": "",
          "type": "address"
        }
      ],
      "stateMutability": "view",
      "type": "function",
      "constant": true
    },
    {
      "inputs": [
        {
          "internalType": "bytes32",
          "name": "role",
          "type": "bytes32"
        },
        {
          "internalType": "address",
          "name": "account",
          "type": "address"
        }
      ],
      "name": "renounceRole",
      "outputs": [],
      "stateMutability": "nonpayable",
      "type": "function"
    },
    {
      "inputs": [
        {
          "internalType": "bytes32",
          "name": "role",
          "type": "bytes32"
        },
        {
          "internalType": "address",
          "name": "account",
          "type": "address"
        }
      ],
      "name": "revokeRole",
      "outputs": [],
      "stateMutability": "nonpayable",
      "type": "function"
    },
    {
      "inputs": [
        {
          "internalType": "address",
          "name": "from",
          "type": "address"
        },
        {
          "internalType": "address",
          "name": "to",
          "type": "address"
        },
        {
          "internalType": "uint256",
          "name": "tokenId",
          "type": "uint256"
        }
      ],
      "name": "safeTransferFrom",
      "outputs": [],
      "stateMutability": "nonpayable",
      "type": "function"
    },
    {
      "inputs": [
        {
          "internalType": "address",
          "name": "from",
          "type": "address"
        },
        {
          "internalType": "address",
          "name": "to",
          "type": "address"
        },
        {
          "internalType": "uint256",
          "name": "tokenId",
          "type": "uint256"
        },
        {
          "internalType": "bytes",
          "name": "_data",
          "type": "bytes"
        }
      ],
      "name": "safeTransferFrom",
      "outputs": [],
      "stateMutability": "nonpayable",
      "type": "function"
    },
    {
      "inputs": [
        {
          "internalType": "address",
          "name": "operator",
          "type": "address"
        },
        {
          "internalType": "bool",
          "name": "approved",
          "type": "bool"
        }
      ],
      "name": "setApprovalForAll",
      "outputs": [],
      "stateMutability": "nonpayable",
      "type": "function"
    },
    {
      "inputs": [],
      "name": "symbol",
      "outputs": [
        {
          "internalType": "string",
          "name": "",
          "type": "string"
        }
      ],
      "stateMutability": "view",
      "type": "function",
      "constant": true
    },
    {
      "inputs": [
        {
          "internalType": "uint256",
          "name": "tokenId",
          "type": "uint256"
        }
      ],
      "name": "tokenURI",
      "outputs": [
        {
          "internalType": "string",
          "name": "",
          "type": "string"
        }
      ],
      "stateMutability": "view",
      "type": "function",
      "constant": true
    },
    {
      "inputs": [
        {
          "internalType": "address",
          "name": "from",
          "type": "address"
        },
        {
          "internalType": "address",
          "name": "to",
          "type": "address"
        },
        {
          "internalType": "uint256",
          "name": "tokenId",
          "type": "uint256"
        }
      ],
      "name": "transferFrom",
      "outputs": [],
      "stateMutability": "nonpayable",
      "type": "function"
    },
    {
      "inputs": [
        {
          "internalType": "bytes4",
          "name": "interfaceId",
          "type": "bytes4"
        }
      ],
      "name": "supportsInterface",
      "outputs": [
        {
          "internalType": "bool",
          "name": "",
          "type": "bool"
        }
      ],
      "stateMutability": "view",
      "type": "function",
      "constant": true
    },
    {
      "inputs": [
        {
          "internalType": "string",
          "name": "_itemName",
          "type": "string"
        }
      ],
      "name": "mint",
      "outputs": [],
      "stateMutability": "nonpayable",
      "type": "function"
    },
    {
      "inputs": [
        {
          "internalType": "uint256",
          "name": "_tokenId",
          "type": "uint256"
        },
        {
          "internalType": "uint256",
          "name": "price",
          "type": "uint256"
        }
      ],
      "name": "tokenOnSale",
      "outputs": [],
      "stateMutability": "nonpayable",
      "type": "function"
    },
    {
      "inputs": [
        {
          "internalType": "uint256",
          "name": "_tokenId",
          "type": "uint256"
        }
      ],
      "name": "notForSale",
      "outputs": [],
      "stateMutability": "nonpayable",
      "type": "function"
    },
    {
      "inputs": [
        {
          "internalType": "address",
          "name": "_to",
          "type": "address"
        },
        {
          "internalType": "uint256",
          "name": "_tokenId",
          "type": "uint256"
        }
      ],
      "name": "approvalTo",
      "outputs": [],
      "stateMutability": "nonpayable",
      "type": "function"
    },
    {
      "inputs": [
        {
          "internalType": "uint256",
          "name": "_tokenId",
          "type": "uint256"
        }
      ],
      "name": "cancelApproval",
      "outputs": [],
      "stateMutability": "nonpayable",
      "type": "function"
    },
    {
      "inputs": [
        {
          "internalType": "uint256",
          "name": "_tokenId",
          "type": "uint256"
        }
      ],
      "name": "buyingWithApproval",
      "outputs": [],
      "stateMutability": "payable",
      "type": "function",
      "payable": true
    },
    {
      "inputs": [
        {
          "internalType": "uint256",
          "name": "_tokenId",
          "type": "uint256"
        }
      ],
      "name": "buyingWithoutApproval",
      "outputs": [],
      "stateMutability": "payable",
      "type": "function",
      "payable": true
    },
    {
      "inputs": [
        {
          "internalType": "uint256",
          "name": "_tokenId",
          "type": "uint256"
        }
      ],
      "name": "burnToken",
      "outputs": [],
      "stateMutability": "nonpayable",
      "type": "function"
    },
    {
      "inputs": [],
      "name": "getAllItems",
      "outputs": [
        {
          "components": [
            {
              "internalType": "string",
              "name": "itemName",
              "type": "string"
            },
            {
              "internalType": "uint256",
              "name": "id",
              "type": "uint256"
            },
            {
              "internalType": "address",
              "name": "owner",
              "type": "address"
            },
            {
              "internalType": "address",
              "name": "creator",
              "type": "address"
            },
            {
              "internalType": "uint256",
              "name": "price",
              "type": "uint256"
            },
            {
              "internalType": "bool",
              "name": "forSale",
              "type": "bool"
            },
            {
              "internalType": "string",
              "name": "tokenURI",
              "type": "string"
            }
          ],
          "internalType": "struct CloseSeaNFT.Item[]",
          "name": "",
          "type": "tuple[]"
        }
      ],
      "stateMutability": "view",
      "type": "function",
      "constant": true
    },
    {
      "inputs": [
        {
          "internalType": "uint256",
          "name": "_tokenId",
          "type": "uint256"
        }
      ],
      "name": "getURI",
      "outputs": [
        {
          "internalType": "string",
          "name": "",
          "type": "string"
        }
      ],
      "stateMutability": "view",
      "type": "function",
      "constant": true
    },
    {
      "inputs": [
        {
          "internalType": "uint256",
          "name": "_tokenId",
          "type": "uint256"
        }
      ],
      "name": "getOwner",
      "outputs": [
        {
          "internalType": "address",
          "name": "",
          "type": "address"
        }
      ],
      "stateMutability": "view",
      "type": "function",
      "constant": true
    },
    {
      "inputs": [
        {
          "internalType": "uint256",
          "name": "_tokenId",
          "type": "uint256"
        }
      ],
      "name": "isApproved",
      "outputs": [
        {
          "internalType": "address",
          "name": "",
          "type": "address"
        }
      ],
      "stateMutability": "view",
      "type": "function",
      "constant": true
    },
    {
      "inputs": [
        {
          "internalType": "uint256",
          "name": "_tokenId",
          "type": "uint256"
        }
      ],
      "name": "getToken",
      "outputs": [
        {
          "internalType": "string",
          "name": "name",
          "type": "string"
        },
        {
          "internalType": "uint256",
          "name": "id",
          "type": "uint256"
        },
        {
          "internalType": "address",
          "name": "owner",
          "type": "address"
        },
        {
          "internalType": "address",
          "name": "creator",
          "type": "address"
        },
        {
          "internalType": "uint256",
          "name": "price",
          "type": "uint256"
        },
        {
          "internalType": "bool",
          "name": "forSale",
          "type": "bool"
        },
        {
          "internalType": "string",
          "name": "tokenURI",
          "type": "string"
        }
      ],
      "stateMutability": "view",
      "type": "function",
      "constant": true
    },
    {
      "inputs": [
        {
          "internalType": "uint256",
          "name": "_tokenId",
          "type": "uint256"
        },
        {
          "internalType": "string",
          "name": "_tokenURI",
          "type": "string"
        }
      ],
      "name": "setTokenURI",
      "outputs": [],
      "stateMutability": "nonpayable",
      "type": "function"
    }
  ],
  "bytecode": "0x60806040526040518060600160405280602b8152602001620061e5602b9139600a908051906020019062000035929190620003de565b503480156200004357600080fd5b506040518060400160405280600a81526020017f426974457468204e4654000000000000000000000000000000000000000000008152506040518060400160405280600381526020017f42544500000000000000000000000000000000000000000000000000000000008152508160029080519060200190620000c8929190620003de565b508060039080519060200190620000e1929190620003de565b5050506200010360006001023362000109640100000000026401000000009004565b620004f3565b6200012982826200016364010000000002620028b9176401000000009004565b6200015e81600160008581526020019081526020016000206200018264010000000002620028c7179091906401000000009004565b505050565b6200017e8282620001c3640100000000026401000000009004565b5050565b6000620001bb836000018373ffffffffffffffffffffffffffffffffffffffff16600102620002c6640100000000026401000000009004565b905092915050565b620001de828262000349640100000000026401000000009004565b620002c257600160008084815260200190815260200160002060000160008373ffffffffffffffffffffffffffffffffffffffff1673ffffffffffffffffffffffffffffffffffffffff16815260200190815260200160002060006101000a81548160ff02191690831515021790555062000267620003b3640100000000026401000000009004565b73ffffffffffffffffffffffffffffffffffffffff168173ffffffffffffffffffffffffffffffffffffffff16837f2f8788117e7eff1d82e926ec794901d17c78024a50270940304540a733656f0d60405160405180910390a45b5050565b6000620002e38383620003bb640100000000026401000000009004565b6200033e57826000018290806001815401808255809150506001900390600052602060002001600090919091909150558260000180549050836001016000848152602001908152602001600020819055506001905062000343565b600090505b92915050565b600080600084815260200190815260200160002060000160008373ffffffffffffffffffffffffffffffffffffffff1673ffffffffffffffffffffffffffffffffffffffff16815260200190815260200160002060009054906101000a900460ff16905092915050565b600033905090565b600080836001016000848152602001908152602001600020541415905092915050565b828054620003ec906200048e565b90600052602060002090601f0160209004810192826200041057600085556200045c565b82601f106200042b57805160ff19168380011785556200045c565b828001600101855582156200045c579182015b828111156200045b5782518255916020019190600101906200043e565b5b5090506200046b91906200046f565b5090565b5b808211156200048a57600081600090555060010162000470565b5090565b60006002820490506001821680620004a757607f821691505b60208210811415620004be57620004bd620004c4565b5b50919050565b7f4e487b7100000000000000000000000000000000000000000000000000000000600052602260045260246000fd5b615ce280620005036000396000f3fe608060405260043610610237576000357c01000000000000000000000000000000000000000000000000000000009004806370a0823111610140578063bfb231d2116100c8578063d547741f1161008c578063d547741f14610856578063d85d3d271461087f578063e4b50cb8146108a8578063e985e9c5146108eb578063f63982de1461092857610237565b8063bfb231d214610731578063c41a360a14610774578063c87b56dd146107b1578063ca15c873146107ee578063d53913931461082b57610237565b806391d148541161010f57806391d148541461064c57806395d89b4114610689578063a217fddf146106b4578063a22cb465146106df578063b88d4fde1461070857610237565b806370a082311461056c5780637910867b146105a95780637b47ec1a146105e65780639010d07c1461060f57610237565b80632f2ff15d116101c357806342842e0e1161019257806342842e0e146104965780634ba1d6aa146104bf5780635449fe03146104ea5780636352211e146105135780636d1111bd1461055057610237565b80632f2ff15d146103f257806336568abe1461041b5780633904a6cb146104445780633e7d2f351461046d57610237565b8063095ea7b31161020a578063095ea7b3146102fd578063162094c4146103265780631aa347dc1461034f57806323b872dd1461038c578063248a9ca3146103b557610237565b806301ffc9a71461023c57806305fb504b1461027957806306fdde0314610295578063081812fc146102c0575b600080fd5b34801561024857600080fd5b50610263600480360381019061025e9190614698565b610951565b60405161027091906153f3565b60405180910390f35b610293600480360381019061028e919061472b565b610963565b005b3480156102a157600080fd5b506102aa610aeb565b6040516102b79190615429565b60405180910390f35b3480156102cc57600080fd5b506102e760048036038101906102e2919061472b565b610b7d565b6040516102f4919061536a565b60405180910390f35b34801561030957600080fd5b50610324600480360381019061031f91906145bb565b610c02565b005b34801561033257600080fd5b5061034d60048036038101906103489190614754565b610d1a565b005b34801561035b57600080fd5b506103766004803603810190610371919061472b565b610ddb565b6040516103839190615429565b60405180910390f35b34801561039857600080fd5b506103b360048036038101906103ae91906144b5565b610ded565b005b3480156103c157600080fd5b506103dc60048036038101906103d791906145f7565b610e4d565b6040516103e9919061540e565b60405180910390f35b3480156103fe57600080fd5b5061041960048036038101906104149190614620565b610e6c565b005b34801561042757600080fd5b50610442600480360381019061043d9190614620565b610ea0565b005b34801561045057600080fd5b5061046b600480360381019061046691906147a8565b610ed4565b005b34801561047957600080fd5b50610494600480360381019061048f919061472b565b610fe5565b005b3480156104a257600080fd5b506104bd60048036038101906104b891906144b5565b6110f6565b005b3480156104cb57600080fd5b506104d4611116565b6040516104e191906153d1565b60405180910390f35b3480156104f657600080fd5b50610511600480360381019061050c919061472b565b611374565b005b34801561051f57600080fd5b5061053a6004803603810190610535919061472b565b611442565b604051610547919061536a565b60405180910390f35b61056a6004803603810190610565919061472b565b6114f4565b005b34801561057857600080fd5b50610593600480360381019061058e9190614450565b611770565b6040516105a09190615788565b60405180910390f35b3480156105b557600080fd5b506105d060048036038101906105cb919061472b565b611828565b6040516105dd919061536a565b60405180910390f35b3480156105f257600080fd5b5061060d6004803603810190610608919061472b565b611865565b005b34801561061b57600080fd5b506106366004803603810190610631919061465c565b611aa5565b604051610643919061536a565b60405180910390f35b34801561065857600080fd5b50610673600480360381019061066e9190614620565b611ad4565b60405161068091906153f3565b60405180910390f35b34801561069557600080fd5b5061069e611b3e565b6040516106ab9190615429565b60405180910390f35b3480156106c057600080fd5b506106c9611bd0565b6040516106d6919061540e565b60405180910390f35b3480156106eb57600080fd5b506107066004803603810190610701919061457f565b611bd8565b005b34801561071457600080fd5b5061072f600480360381019061072a9190614504565b611d59565b005b34801561073d57600080fd5b506107586004803603810190610753919061472b565b611dbb565b60405161076b979695949392919061544b565b60405180910390f35b34801561078057600080fd5b5061079b6004803603810190610796919061472b565b611f6a565b6040516107a8919061536a565b60405180910390f35b3480156107bd57600080fd5b506107d860048036038101906107d3919061472b565b611fa7565b6040516107e59190615429565b60405180910390f35b3480156107fa57600080fd5b50610815600480360381019061081091906145f7565b6120f9565b6040516108229190615788565b60405180910390f35b34801561083757600080fd5b5061084061211d565b60405161084d919061540e565b60405180910390f35b34801561086257600080fd5b5061087d60048036038101906108789190614620565b612141565b005b34801561088b57600080fd5b506108a660048036038101906108a191906146ea565b612175565b005b3480156108b457600080fd5b506108cf60048036038101906108ca919061472b565b61248b565b6040516108e2979695949392919061544b565b60405180910390f35b3480156108f757600080fd5b50610912600480360381019061090d9190614479565b612661565b60405161091f91906153f3565b60405180910390f35b34801561093457600080fd5b5061094f600480360381019061094a91906145bb565b6126f5565b005b600061095c826128f7565b9050919050565b3373ffffffffffffffffffffffffffffffffffffffff1661098382611442565b73ffffffffffffffffffffffffffffffffffffffff1614156109a457600080fd5b6000600b82815481106109e0577f4e487b7100000000000000000000000000000000000000000000000000000000600052603260045260246000fd5b90600052602060002090600702019050600115158160050160009054906101000a900460ff16151514610a1257600080fd5b6000610a1d83611442565b9050610a2a8133856129d9565b33600d600085815260200190815260200160002060006101000a81548173ffffffffffffffffffffffffffffffffffffffff021916908373ffffffffffffffffffffffffffffffffffffffff160217905550338260020160006101000a81548173ffffffffffffffffffffffffffffffffffffffff021916908373ffffffffffffffffffffffffffffffffffffffff1602179055506000826004018190555060008260050160006101000a81548160ff021916908315150217905550505050565b606060028054610afa90615ac0565b80601f0160208091040260200160405190810160405280929190818152602001828054610b2690615ac0565b8015610b735780601f10610b4857610100808354040283529160200191610b73565b820191906000526020600020905b815481529060010190602001808311610b5657829003601f168201915b5050505050905090565b6000610b8882612c35565b610bc7576040517f08c379a0000000000000000000000000000000000000000000000000000000008152600401610bbe906156a8565b60405180910390fd5b6006600083815260200190815260200160002060009054906101000a900473ffffffffffffffffffffffffffffffffffffffff169050919050565b6000610c0d82611442565b90508073ffffffffffffffffffffffffffffffffffffffff168373ffffffffffffffffffffffffffffffffffffffff161415610c7e576040517f08c379a0000000000000000000000000000000000000000000000000000000008152600401610c7590615728565b60405180910390fd5b8073ffffffffffffffffffffffffffffffffffffffff16610c9d612ca1565b73ffffffffffffffffffffffffffffffffffffffff161480610ccc5750610ccb81610cc6612ca1565b612661565b5b610d0b576040517f08c379a0000000000000000000000000000000000000000000000000000000008152600401610d02906155e8565b60405180910390fd5b610d158383612ca9565b505050565b610d28600060010233611ad4565b610d67576040517f08c379a0000000000000000000000000000000000000000000000000000000008152600401610d5e90615708565b60405180910390fd5b610d718282612d62565b6000600b8381548110610dad577f4e487b7100000000000000000000000000000000000000000000000000000000600052603260045260246000fd5b9060005260206000209060070201905081816006019080519060200190610dd592919061421f565b50505050565b6060610de682611fa7565b9050919050565b610dfe610df8612ca1565b82612dd6565b610e3d576040517f08c379a0000000000000000000000000000000000000000000000000000000008152600401610e3490615748565b60405180910390fd5b610e488383836129d9565b505050565b6000806000838152602001908152602001600020600101549050919050565b610e768282612eb4565b610e9b81600160008581526020019081526020016000206128c790919063ffffffff16565b505050565b610eaa8282612edd565b610ecf8160016000858152602001908152602001600020612f6090919063ffffffff16565b505050565b813373ffffffffffffffffffffffffffffffffffffffff16610ef582611442565b73ffffffffffffffffffffffffffffffffffffffff1614610f4b576040517f08c379a0000000000000000000000000000000000000000000000000000000008152600401610f42906155c8565b60405180910390fd5b6000600b8481548110610f87577f4e487b7100000000000000000000000000000000000000000000000000000000600052603260045260246000fd5b90600052602060002090600702019050600015158160050160009054906101000a900460ff16151514610fb957600080fd5b82816004018190555060018160050160006101000a81548160ff02191690831515021790555050505050565b803373ffffffffffffffffffffffffffffffffffffffff1661100682611442565b73ffffffffffffffffffffffffffffffffffffffff161461105c576040517f08c379a0000000000000000000000000000000000000000000000000000000008152600401611053906155c8565b60405180910390fd5b6000600b8381548110611098577f4e487b7100000000000000000000000000000000000000000000000000000000600052603260045260246000fd5b90600052602060002090600702019050600115158160050160009054906101000a900460ff161515146110ca57600080fd5b6000816004018190555060008160050160006101000a81548160ff021916908315150217905550505050565b61111183838360405180602001604052806000815250611d59565b505050565b6060600b805480602002602001604051908101604052809291908181526020016000905b8282101561136b57838290600052602060002090600702016040518060e001604052908160008201805461116d90615ac0565b80601f016020809104026020016040519081016040528092919081815260200182805461119990615ac0565b80156111e65780601f106111bb576101008083540402835291602001916111e6565b820191906000526020600020905b8154815290600101906020018083116111c957829003601f168201915b50505050508152602001600182015481526020016002820160009054906101000a900473ffffffffffffffffffffffffffffffffffffffff1673ffffffffffffffffffffffffffffffffffffffff1673ffffffffffffffffffffffffffffffffffffffff1681526020016003820160009054906101000a900473ffffffffffffffffffffffffffffffffffffffff1673ffffffffffffffffffffffffffffffffffffffff1673ffffffffffffffffffffffffffffffffffffffff168152602001600482015481526020016005820160009054906101000a900460ff161515151581526020016006820180546112da90615ac0565b80601f016020809104026020016040519081016040528092919081815260200182805461130690615ac0565b80156113535780601f1061132857610100808354040283529160200191611353565b820191906000526020600020905b81548152906001019060200180831161133657829003601f168201915b5050505050815250508152602001906001019061113a565b50505050905090565b803373ffffffffffffffffffffffffffffffffffffffff1661139582611442565b73ffffffffffffffffffffffffffffffffffffffff16146113eb576040517f08c379a00000000000000000000000000000000000000000000000000000000081526004016113e2906155c8565b60405180910390fd5b6000600c600084815260200190815260200160002060006101000a81548173ffffffffffffffffffffffffffffffffffffffff021916908373ffffffffffffffffffffffffffffffffffffffff1602179055505050565b6000806004600084815260200190815260200160002060009054906101000a900473ffffffffffffffffffffffffffffffffffffffff169050600073ffffffffffffffffffffffffffffffffffffffff168173ffffffffffffffffffffffffffffffffffffffff1614156114eb576040517f08c379a00000000000000000000000000000000000000000000000000000000081526004016114e290615628565b60405180910390fd5b80915050919050565b3373ffffffffffffffffffffffffffffffffffffffff1661151482611442565b73ffffffffffffffffffffffffffffffffffffffff16141561156b576040517f08c379a000000000000000000000000000000000000000000000000000000000815260040161156290615548565b60405180910390fd5b3373ffffffffffffffffffffffffffffffffffffffff16600c600083815260200190815260200160002060009054906101000a900473ffffffffffffffffffffffffffffffffffffffff1673ffffffffffffffffffffffffffffffffffffffff16146115d657600080fd5b6000600b8281548110611612577f4e487b7100000000000000000000000000000000000000000000000000000000600052603260045260246000fd5b90600052602060002090600702019050600115158160050160009054906101000a900460ff1615151461164457600080fd5b600061164f83611442565b905061165c8133856110f6565b33600d600085815260200190815260200160002060006101000a81548173ffffffffffffffffffffffffffffffffffffffff021916908373ffffffffffffffffffffffffffffffffffffffff160217905550338260020160006101000a81548173ffffffffffffffffffffffffffffffffffffffff021916908373ffffffffffffffffffffffffffffffffffffffff1602179055506000826004018190555060008260050160006101000a81548160ff0219169083151502179055506000600c600085815260200190815260200160002060006101000a81548173ffffffffffffffffffffffffffffffffffffffff021916908373ffffffffffffffffffffffffffffffffffffffff160217905550505050565b60008073ffffffffffffffffffffffffffffffffffffffff168273ffffffffffffffffffffffffffffffffffffffff1614156117e1576040517f08c379a00000000000000000000000000000000000000000000000000000000081526004016117d890615608565b60405180910390fd5b600560008373ffffffffffffffffffffffffffffffffffffffff1673ffffffffffffffffffffffffffffffffffffffff168152602001908152602001600020549050919050565b6000600c600083815260200190815260200160002060009054906101000a900473ffffffffffffffffffffffffffffffffffffffff169050919050565b803373ffffffffffffffffffffffffffffffffffffffff1661188682611442565b73ffffffffffffffffffffffffffffffffffffffff16146118dc576040517f08c379a00000000000000000000000000000000000000000000000000000000081526004016118d3906155c8565b60405180910390fd5b6000600b8381548110611918577f4e487b7100000000000000000000000000000000000000000000000000000000600052603260045260246000fd5b906000526020600020906007020190503373ffffffffffffffffffffffffffffffffffffffff168160030160009054906101000a900473ffffffffffffffffffffffffffffffffffffffff1673ffffffffffffffffffffffffffffffffffffffff161461198457600080fd5b61198d83612f90565b600b83815481106119c7577f4e487b7100000000000000000000000000000000000000000000000000000000600052603260045260246000fd5b9060005260206000209060070201600080820160006119e691906142a5565b60018201600090556002820160006101000a81549073ffffffffffffffffffffffffffffffffffffffff02191690556003820160006101000a81549073ffffffffffffffffffffffffffffffffffffffff021916905560048201600090556005820160006101000a81549060ff0219169055600682016000611a6891906142a5565b5050600d600084815260200190815260200160002060006101000a81549073ffffffffffffffffffffffffffffffffffffffff0219169055505050565b6000611acc8260016000868152602001908152602001600020612fe390919063ffffffff16565b905092915050565b600080600084815260200190815260200160002060000160008373ffffffffffffffffffffffffffffffffffffffff1673ffffffffffffffffffffffffffffffffffffffff16815260200190815260200160002060009054906101000a900460ff16905092915050565b606060038054611b4d90615ac0565b80601f0160208091040260200160405190810160405280929190818152602001828054611b7990615ac0565b8015611bc65780601f10611b9b57610100808354040283529160200191611bc6565b820191906000526020600020905b815481529060010190602001808311611ba957829003601f168201915b5050505050905090565b600060010281565b611be0612ca1565b73ffffffffffffffffffffffffffffffffffffffff168273ffffffffffffffffffffffffffffffffffffffff161415611c4e576040517f08c379a0000000000000000000000000000000000000000000000000000000008152600401611c4590615588565b60405180910390fd5b8060076000611c5b612ca1565b73ffffffffffffffffffffffffffffffffffffffff1673ffffffffffffffffffffffffffffffffffffffff16815260200190815260200160002060008473ffffffffffffffffffffffffffffffffffffffff1673ffffffffffffffffffffffffffffffffffffffff16815260200190815260200160002060006101000a81548160ff0219169083151502179055508173ffffffffffffffffffffffffffffffffffffffff16611d08612ca1565b73ffffffffffffffffffffffffffffffffffffffff167f17307eab39ab6107e8899845ad3d59bd9653f200f220920489ca2b5937696c3183604051611d4d91906153f3565b60405180910390a35050565b611d6a611d64612ca1565b83612dd6565b611da9576040517f08c379a0000000000000000000000000000000000000000000000000000000008152600401611da090615748565b60405180910390fd5b611db584848484612ffe565b50505050565b600b8181548110611dcb57600080fd5b9060005260206000209060070201600091509050806000018054611dee90615ac0565b80601f0160208091040260200160405190810160405280929190818152602001828054611e1a90615ac0565b8015611e675780601f10611e3c57610100808354040283529160200191611e67565b820191906000526020600020905b815481529060010190602001808311611e4a57829003601f168201915b5050505050908060010154908060020160009054906101000a900473ffffffffffffffffffffffffffffffffffffffff16908060030160009054906101000a900473ffffffffffffffffffffffffffffffffffffffff16908060040154908060050160009054906101000a900460ff1690806006018054611ee790615ac0565b80601f0160208091040260200160405190810160405280929190818152602001828054611f1390615ac0565b8015611f605780601f10611f3557610100808354040283529160200191611f60565b820191906000526020600020905b815481529060010190602001808311611f4357829003601f168201915b5050505050905087565b6000600d600083815260200190815260200160002060009054906101000a900473ffffffffffffffffffffffffffffffffffffffff169050919050565b6060611fb282612c35565b611ff1576040517f08c379a0000000000000000000000000000000000000000000000000000000008152600401611fe890615688565b60405180910390fd5b600060086000848152602001908152602001600020805461201190615ac0565b80601f016020809104026020016040519081016040528092919081815260200182805461203d90615ac0565b801561208a5780601f1061205f5761010080835404028352916020019161208a565b820191906000526020600020905b81548152906001019060200180831161206d57829003601f168201915b50505050509050600061209b61305a565b90506000815114156120b15781925050506120f4565b6000825111156120e65780826040516020016120ce9291906152db565b604051602081830303815290604052925050506120f4565b6120ef84613071565b925050505b919050565b600061211660016000848152602001908152602001600020613118565b9050919050565b7f9f2df0fed2c77648de5860a4cc508cd0818c85b8b8a1ab4ceeef8d981c8956a681565b61214b828261312d565b6121708160016000858152602001908152602001600020612f6090919063ffffffff16565b505050565b60006121816009613156565b9050600061218e82613164565b90506000600a805461219f90615ac0565b80601f01602080910402602001604051908101604052809291908181526020018280546121cb90615ac0565b80156122185780601f106121ed57610100808354040283529160200191612218565b820191906000526020600020905b8154815290600101906020018083116121fb57829003601f168201915b5050505050905060006040518060400160405280600e81526020017f2f6d657461646174612e6a736f6e00000000000000000000000000000000000081525090506000828483604051602001612270939291906152ff565b604051602081830303815290604052905060006040518060e001604052808881526020018781526020013373ffffffffffffffffffffffffffffffffffffffff1681526020013373ffffffffffffffffffffffffffffffffffffffff16815260200160008152602001600015158152602001838152509050600b819080600181540180825580915050600190039060005260206000209060070201600090919091909150600082015181600001908051906020019061233092919061421f565b506020820151816001015560408201518160020160006101000a81548173ffffffffffffffffffffffffffffffffffffffff021916908373ffffffffffffffffffffffffffffffffffffffff16021790555060608201518160030160006101000a81548173ffffffffffffffffffffffffffffffffffffffff021916908373ffffffffffffffffffffffffffffffffffffffff1602179055506080820151816004015560a08201518160050160006101000a81548160ff02191690831515021790555060c082015181600601908051906020019061240f92919061421f565b50505061241c3387613330565b6124268683612d62565b33600d600088815260200190815260200160002060006101000a81548173ffffffffffffffffffffffffffffffffffffffff021916908373ffffffffffffffffffffffffffffffffffffffff160217905550612482600961334e565b50505050505050565b6060600080600080600060606000600b89815481106124d3577f4e487b7100000000000000000000000000000000000000000000000000000000600052603260045260246000fd5b906000526020600020906007020190508060000180546124f290615ac0565b80601f016020809104026020016040519081016040528092919081815260200182805461251e90615ac0565b801561256b5780601f106125405761010080835404028352916020019161256b565b820191906000526020600020905b81548152906001019060200180831161254e57829003601f168201915b505050505097508060010154965061258289611442565b95508060030160009054906101000a900473ffffffffffffffffffffffffffffffffffffffff169450806004015493508060050160009054906101000a900460ff1692508060060180546125d590615ac0565b80601f016020809104026020016040519081016040528092919081815260200182805461260190615ac0565b801561264e5780601f106126235761010080835404028352916020019161264e565b820191906000526020600020905b81548152906001019060200180831161263157829003601f168201915b5050505050915050919395979092949650565b6000600760008473ffffffffffffffffffffffffffffffffffffffff1673ffffffffffffffffffffffffffffffffffffffff16815260200190815260200160002060008373ffffffffffffffffffffffffffffffffffffffff1673ffffffffffffffffffffffffffffffffffffffff16815260200190815260200160002060009054906101000a900460ff16905092915050565b803373ffffffffffffffffffffffffffffffffffffffff1661271682611442565b73ffffffffffffffffffffffffffffffffffffffff161461276c576040517f08c379a0000000000000000000000000000000000000000000000000000000008152600401612763906155c8565b60405180910390fd5b8273ffffffffffffffffffffffffffffffffffffffff16600c600084815260200190815260200160002060009054906101000a900473ffffffffffffffffffffffffffffffffffffffff1673ffffffffffffffffffffffffffffffffffffffff1614156127d857600080fd5b6000600b8381548110612814577f4e487b7100000000000000000000000000000000000000000000000000000000600052603260045260246000fd5b90600052602060002090600702019050600115158160050160009054906101000a900460ff1615151461284657600080fd5b600081600401541161285757600080fd5b6128618484610c02565b83600c600085815260200190815260200160002060006101000a81548173ffffffffffffffffffffffffffffffffffffffff021916908373ffffffffffffffffffffffffffffffffffffffff16021790555050505050565b6128c38282613364565b5050565b60006128ef836000018373ffffffffffffffffffffffffffffffffffffffff16600102613444565b905092915050565b60007f80ac58cd000000000000000000000000000000000000000000000000000000007bffffffffffffffffffffffffffffffffffffffffffffffffffffffff1916827bffffffffffffffffffffffffffffffffffffffffffffffffffffffff191614806129c257507f5b5e139f000000000000000000000000000000000000000000000000000000007bffffffffffffffffffffffffffffffffffffffffffffffffffffffff1916827bffffffffffffffffffffffffffffffffffffffffffffffffffffffff1916145b806129d257506129d1826134b4565b5b9050919050565b8273ffffffffffffffffffffffffffffffffffffffff166129f982611442565b73ffffffffffffffffffffffffffffffffffffffff1614612a4f576040517f08c379a0000000000000000000000000000000000000000000000000000000008152600401612a46906156c8565b60405180910390fd5b600073ffffffffffffffffffffffffffffffffffffffff168273ffffffffffffffffffffffffffffffffffffffff161415612abf576040517f08c379a0000000000000000000000000000000000000000000000000000000008152600401612ab690615568565b60405180910390fd5b612aca83838361352e565b612ad5600082612ca9565b6001600560008573ffffffffffffffffffffffffffffffffffffffff1673ffffffffffffffffffffffffffffffffffffffff1681526020019081526020016000206000828254612b2591906159a2565b925050819055506001600560008473ffffffffffffffffffffffffffffffffffffffff1673ffffffffffffffffffffffffffffffffffffffff1681526020019081526020016000206000828254612b7c91906158c1565b92505081905550816004600083815260200190815260200160002060006101000a81548173ffffffffffffffffffffffffffffffffffffffff021916908373ffffffffffffffffffffffffffffffffffffffff160217905550808273ffffffffffffffffffffffffffffffffffffffff168473ffffffffffffffffffffffffffffffffffffffff167fddf252ad1be2c89b69c2b068fc378daa952ba7f163c4a11628f55a4df523b3ef60405160405180910390a4505050565b60008073ffffffffffffffffffffffffffffffffffffffff166004600084815260200190815260200160002060009054906101000a900473ffffffffffffffffffffffffffffffffffffffff1673ffffffffffffffffffffffffffffffffffffffff1614159050919050565b600033905090565b816006600083815260200190815260200160002060006101000a81548173ffffffffffffffffffffffffffffffffffffffff021916908373ffffffffffffffffffffffffffffffffffffffff160217905550808273ffffffffffffffffffffffffffffffffffffffff16612d1c83611442565b73ffffffffffffffffffffffffffffffffffffffff167f8c5be1e5ebec7d5bd14f71427d1e84f3dd0314c0f7b2291e5b200ac8c7c3b92560405160405180910390a45050565b612d6b82612c35565b612daa576040517f08c379a0000000000000000000000000000000000000000000000000000000008152600401612da190615648565b60405180910390fd5b80600860008481526020019081526020016000209080519060200190612dd192919061421f565b505050565b6000612de182612c35565b612e20576040517f08c379a0000000000000000000000000000000000000000000000000000000008152600401612e17906155a8565b60405180910390fd5b6000612e2b83611442565b90508073ffffffffffffffffffffffffffffffffffffffff168473ffffffffffffffffffffffffffffffffffffffff161480612e9a57508373ffffffffffffffffffffffffffffffffffffffff16612e8284610b7d565b73ffffffffffffffffffffffffffffffffffffffff16145b80612eab5750612eaa8185612661565b5b91505092915050565b612ebd82610e4d565b612ece81612ec9612ca1565b613533565b612ed88383613364565b505050565b612ee5612ca1565b73ffffffffffffffffffffffffffffffffffffffff168173ffffffffffffffffffffffffffffffffffffffff1614612f52576040517f08c379a0000000000000000000000000000000000000000000000000000000008152600401612f4990615768565b60405180910390fd5b612f5c82826135d1565b5050565b6000612f88836000018373ffffffffffffffffffffffffffffffffffffffff166001026136b2565b905092915050565b612f9981613830565b6000600860008381526020019081526020016000208054612fb990615ac0565b905014612fe057600860008281526020019081526020016000206000612fdf91906142a5565b5b50565b6000612ff28360000183613941565b60019004905092915050565b6130098484846129d9565b613015848484846139db565b613054576040517f08c379a000000000000000000000000000000000000000000000000000000000815260040161304b90615508565b60405180910390fd5b50505050565b606060405180602001604052806000815250905090565b606061307c82612c35565b6130bb576040517f08c379a00000000000000000000000000000000000000000000000000000000081526004016130b2906156e8565b60405180910390fd5b60006130c561305a565b905060008151116130e55760405180602001604052806000815250613110565b806130ef84613164565b6040516020016131009291906152db565b6040516020818303038152906040525b915050919050565b600061312682600001613baa565b9050919050565b61313682610e4d565b61314781613142612ca1565b613533565b61315183836135d1565b505050565b600081600001549050919050565b606060008214156131ac576040518060400160405280600181526020017f3000000000000000000000000000000000000000000000000000000000000000815250905061332b565b600082905060005b600082146131de5780806131c790615af2565b915050600a826131d79190615917565b91506131b4565b60008167ffffffffffffffff811115613220577f4e487b7100000000000000000000000000000000000000000000000000000000600052604160045260246000fd5b6040519080825280601f01601f1916602001820160405280156132525781602001600182028036833780820191505090505b5090505b600085146133245760018261326b91906159a2565b9150600a8561327a9190615b3b565b603061328691906158c1565b7f0100000000000000000000000000000000000000000000000000000000000000028183815181106132e1577f4e487b7100000000000000000000000000000000000000000000000000000000600052603260045260246000fd5b60200101907effffffffffffffffffffffffffffffffffffffffffffffffffffffffffffff1916908160001a905350600a8561331d9190615917565b9450613256565b8093505050505b919050565b61334a828260405180602001604052806000815250613bbb565b5050565b6001816000016000828254019250508190555050565b61336e8282611ad4565b61344057600160008084815260200190815260200160002060000160008373ffffffffffffffffffffffffffffffffffffffff1673ffffffffffffffffffffffffffffffffffffffff16815260200190815260200160002060006101000a81548160ff0219169083151502179055506133e5612ca1565b73ffffffffffffffffffffffffffffffffffffffff168173ffffffffffffffffffffffffffffffffffffffff16837f2f8788117e7eff1d82e926ec794901d17c78024a50270940304540a733656f0d60405160405180910390a45b5050565b60006134508383613c16565b6134a95782600001829080600181540180825580915050600190039060005260206000200160009091909190915055826000018054905083600101600084815260200190815260200160002081905550600190506134ae565b600090505b92915050565b60007f5a05180f000000000000000000000000000000000000000000000000000000007bffffffffffffffffffffffffffffffffffffffffffffffffffffffff1916827bffffffffffffffffffffffffffffffffffffffffffffffffffffffff19161480613527575061352682613c39565b5b9050919050565b505050565b61353d8282611ad4565b6135cd576135628173ffffffffffffffffffffffffffffffffffffffff166014613cb3565b61357183600190046020613cb3565b604051602001613582929190615330565b6040516020818303038152906040526040517f08c379a00000000000000000000000000000000000000000000000000000000081526004016135c49190615429565b60405180910390fd5b5050565b6135db8282611ad4565b156136ae57600080600084815260200190815260200160002060000160008373ffffffffffffffffffffffffffffffffffffffff1673ffffffffffffffffffffffffffffffffffffffff16815260200190815260200160002060006101000a81548160ff021916908315150217905550613653612ca1565b73ffffffffffffffffffffffffffffffffffffffff168173ffffffffffffffffffffffffffffffffffffffff16837ff6391f5c32d9c69d2a47ea670b442974b53935d1edc7fd64eb21e047a839171b60405160405180910390a45b5050565b600080836001016000848152602001908152602001600020549050600081146138245760006001826136e491906159a2565b90506000600186600001805490506136fc91906159a2565b9050600086600001828154811061373c577f4e487b7100000000000000000000000000000000000000000000000000000000600052603260045260246000fd5b9060005260206000200154905080876000018481548110613786577f4e487b7100000000000000000000000000000000000000000000000000000000600052603260045260246000fd5b90600052602060002001819055508387600101600083815260200190815260200160002081905550866000018054806137e8577f4e487b7100000000000000000000000000000000000000000000000000000000600052603160045260246000fd5b6001900381819060005260206000200160009055905586600101600087815260200190815260200160002060009055600194505050505061382a565b60009150505b92915050565b600061383b82611442565b90506138498160008461352e565b613854600083612ca9565b6001600560008373ffffffffffffffffffffffffffffffffffffffff1673ffffffffffffffffffffffffffffffffffffffff16815260200190815260200160002060008282546138a491906159a2565b925050819055506004600083815260200190815260200160002060006101000a81549073ffffffffffffffffffffffffffffffffffffffff021916905581600073ffffffffffffffffffffffffffffffffffffffff168273ffffffffffffffffffffffffffffffffffffffff167fddf252ad1be2c89b69c2b068fc378daa952ba7f163c4a11628f55a4df523b3ef60405160405180910390a45050565b60008183600001805490501161398c576040517f08c379a0000000000000000000000000000000000000000000000000000000008152600401613983906154c8565b60405180910390fd5b8260000182815481106139c8577f4e487b7100000000000000000000000000000000000000000000000000000000600052603260045260246000fd5b9060005260206000200154905092915050565b60006139fc8473ffffffffffffffffffffffffffffffffffffffff16613fd4565b15613b9d578373ffffffffffffffffffffffffffffffffffffffff1663150b7a02613a25612ca1565b8786866040518563ffffffff167c0100000000000000000000000000000000000000000000000000000000028152600401613a639493929190615385565b602060405180830381600087803b158015613a7d57600080fd5b505af1925050508015613aae57506040513d601f19601f82011682018060405250810190613aab91906146c1565b60015b613b31573d8060008114613ade576040519150601f19603f3d011682016040523d82523d6000602084013e613ae3565b606091505b50600081511415613b29576040517f08c379a0000000000000000000000000000000000000000000000000000000008152600401613b2090615508565b60405180910390fd5b805181602001fd5b63150b7a027c0100000000000000000000000000000000000000000000000000000000027bffffffffffffffffffffffffffffffffffffffffffffffffffffffff1916817bffffffffffffffffffffffffffffffffffffffffffffffffffffffff191614915050613ba2565b600190505b949350505050565b600081600001805490509050919050565b613bc58383613fe7565b613bd260008484846139db565b613c11576040517f08c379a0000000000000000000000000000000000000000000000000000000008152600401613c0890615508565b60405180910390fd5b505050565b600080836001016000848152602001908152602001600020541415905092915050565b60007f7965db0b000000000000000000000000000000000000000000000000000000007bffffffffffffffffffffffffffffffffffffffffffffffffffffffff1916827bffffffffffffffffffffffffffffffffffffffffffffffffffffffff19161480613cac5750613cab826141b5565b5b9050919050565b606060006002836002613cc69190615948565b613cd091906158c1565b67ffffffffffffffff811115613d0f577f4e487b7100000000000000000000000000000000000000000000000000000000600052604160045260246000fd5b6040519080825280601f01601f191660200182016040528015613d415781602001600182028036833780820191505090505b5090507f300000000000000000000000000000000000000000000000000000000000000081600081518110613d9f577f4e487b7100000000000000000000000000000000000000000000000000000000600052603260045260246000fd5b60200101907effffffffffffffffffffffffffffffffffffffffffffffffffffffffffffff1916908160001a9053507f780000000000000000000000000000000000000000000000000000000000000081600181518110613e29577f4e487b7100000000000000000000000000000000000000000000000000000000600052603260045260246000fd5b60200101907effffffffffffffffffffffffffffffffffffffffffffffffffffffffffffff1916908160001a90535060006001846002613e699190615948565b613e7391906158c1565b90505b6001811115613f86577f3031323334353637383961626364656600000000000000000000000000000000600f861660108110613edb577f4e487b7100000000000000000000000000000000000000000000000000000000600052603260045260246000fd5b1a7f010000000000000000000000000000000000000000000000000000000000000002828281518110613f37577f4e487b7100000000000000000000000000000000000000000000000000000000600052603260045260246000fd5b60200101907effffffffffffffffffffffffffffffffffffffffffffffffffffffffffffff1916908160001a905350600485908060020a8204915050945080613f7f90615a96565b9050613e76565b5060008414613fca576040517f08c379a0000000000000000000000000000000000000000000000000000000008152600401613fc1906154e8565b60405180910390fd5b8091505092915050565b600080823b905060008111915050919050565b600073ffffffffffffffffffffffffffffffffffffffff168273ffffffffffffffffffffffffffffffffffffffff161415614057576040517f08c379a000000000000000000000000000000000000000000000000000000000815260040161404e90615668565b60405180910390fd5b61406081612c35565b156140a0576040517f08c379a000000000000000000000000000000000000000000000000000000000815260040161409790615528565b60405180910390fd5b6140ac6000838361352e565b6001600560008473ffffffffffffffffffffffffffffffffffffffff1673ffffffffffffffffffffffffffffffffffffffff16815260200190815260200160002060008282546140fc91906158c1565b92505081905550816004600083815260200190815260200160002060006101000a81548173ffffffffffffffffffffffffffffffffffffffff021916908373ffffffffffffffffffffffffffffffffffffffff160217905550808273ffffffffffffffffffffffffffffffffffffffff16600073ffffffffffffffffffffffffffffffffffffffff167fddf252ad1be2c89b69c2b068fc378daa952ba7f163c4a11628f55a4df523b3ef60405160405180910390a45050565b60007f01ffc9a7000000000000000000000000000000000000000000000000000000007bffffffffffffffffffffffffffffffffffffffffffffffffffffffff1916827bffffffffffffffffffffffffffffffffffffffffffffffffffffffff1916149050919050565b82805461422b90615ac0565b90600052602060002090601f01602090048101928261424d5760008555614294565b82601f1061426657805160ff1916838001178555614294565b82800160010185558215614294579182015b82811115614293578251825591602001919060010190614278565b5b5090506142a191906142e5565b5090565b5080546142b190615ac0565b6000825580601f106142c357506142e2565b601f0160209004906000526020600020908101906142e191906142e5565b5b50565b5b808211156142fe5760008160009055506001016142e6565b5090565b6000614315614310846157d4565b6157a3565b90508281526020810184848401111561432d57600080fd5b614338848285615a54565b509392505050565b600061435361434e84615804565b6157a3565b90508281526020810184848401111561436b57600080fd5b614376848285615a54565b509392505050565b60008135905061438d81615c39565b92915050565b6000813590506143a281615c50565b92915050565b6000813590506143b781615c67565b92915050565b6000813590506143cc81615c7e565b92915050565b6000815190506143e181615c7e565b92915050565b600082601f8301126143f857600080fd5b8135614408848260208601614302565b91505092915050565b600082601f83011261442257600080fd5b8135614432848260208601614340565b91505092915050565b60008135905061444a81615c95565b92915050565b60006020828403121561446257600080fd5b60006144708482850161437e565b91505092915050565b6000806040838503121561448c57600080fd5b600061449a8582860161437e565b92505060206144ab8582860161437e565b9150509250929050565b6000806000606084860312156144ca57600080fd5b60006144d88682870161437e565b93505060206144e98682870161437e565b92505060406144fa8682870161443b565b9150509250925092565b6000806000806080858703121561451a57600080fd5b60006145288782880161437e565b94505060206145398782880161437e565b935050604061454a8782880161443b565b925050606085013567ffffffffffffffff81111561456757600080fd5b614573878288016143e7565b91505092959194509250565b6000806040838503121561459257600080fd5b60006145a08582860161437e565b92505060206145b185828601614393565b9150509250929050565b600080604083850312156145ce57600080fd5b60006145dc8582860161437e565b92505060206145ed8582860161443b565b9150509250929050565b60006020828403121561460957600080fd5b6000614617848285016143a8565b91505092915050565b6000806040838503121561463357600080fd5b6000614641858286016143a8565b92505060206146528582860161437e565b9150509250929050565b6000806040838503121561466f57600080fd5b600061467d858286016143a8565b925050602061468e8582860161443b565b9150509250929050565b6000602082840312156146aa57600080fd5b60006146b8848285016143bd565b91505092915050565b6000602082840312156146d357600080fd5b60006146e1848285016143d2565b91505092915050565b6000602082840312156146fc57600080fd5b600082013567ffffffffffffffff81111561471657600080fd5b61472284828501614411565b91505092915050565b60006020828403121561473d57600080fd5b600061474b8482850161443b565b91505092915050565b6000806040838503121561476757600080fd5b60006147758582860161443b565b925050602083013567ffffffffffffffff81111561479257600080fd5b61479e85828601614411565b9150509250929050565b600080604083850312156147bb57600080fd5b60006147c98582860161443b565b92505060206147da8582860161443b565b9150509250929050565b60006147f0838361521a565b905092915050565b614801816159d6565b82525050565b614810816159d6565b82525050565b600061482182615844565b61482b8185615872565b93508360208202850161483d85615834565b8060005b85811015614879578484038952815161485a85826147e4565b945061486583615865565b925060208a01995050600181019050614841565b50829750879550505050505092915050565b614894816159e8565b82525050565b6148a3816159e8565b82525050565b6148b2816159f4565b82525050565b60006148c38261584f565b6148cd8185615883565b93506148dd818560208601615a63565b6148e681615c28565b840191505092915050565b60006148fc8261585a565b6149068185615894565b9350614916818560208601615a63565b61491f81615c28565b840191505092915050565b60006149358261585a565b61493f81856158a5565b935061494f818560208601615a63565b61495881615c28565b840191505092915050565b600061496e8261585a565b61497881856158b6565b9350614988818560208601615a63565b80840191505092915050565b60006149a16022836158a5565b91507f456e756d657261626c655365743a20696e646578206f7574206f6620626f756e60008301527f64730000000000000000000000000000000000000000000000000000000000006020830152604082019050919050565b6000614a076020836158a5565b91507f537472696e67733a20686578206c656e67746820696e73756666696369656e746000830152602082019050919050565b6000614a476032836158a5565b91507f4552433732313a207472616e7366657220746f206e6f6e20455243373231526560008301527f63656976657220696d706c656d656e74657200000000000000000000000000006020830152604082019050919050565b6000614aad601c836158a5565b91507f4552433732313a20746f6b656e20616c7265616479206d696e746564000000006000830152602082019050919050565b6000614aed6021836158a5565b91507f4f776e65722063616e6e6f742065786563757465206275792066756e6374696f60008301527f6e000000000000000000000000000000000000000000000000000000000000006020830152604082019050919050565b6000614b536024836158a5565b91507f4552433732313a207472616e7366657220746f20746865207a65726f2061646460008301527f72657373000000000000000000000000000000000000000000000000000000006020830152604082019050919050565b6000614bb96019836158a5565b91507f4552433732313a20617070726f766520746f2063616c6c6572000000000000006000830152602082019050919050565b6000614bf9602c836158a5565b91507f4552433732313a206f70657261746f7220717565727920666f72206e6f6e657860008301527f697374656e7420746f6b656e00000000000000000000000000000000000000006020830152604082019050919050565b6000614c5f601c836158a5565b91507f43616c6c6572206973206e6f74206f776e6572206f6620546f6b656e000000006000830152602082019050919050565b6000614c9f6038836158a5565b91507f4552433732313a20617070726f76652063616c6c6572206973206e6f74206f7760008301527f6e6572206e6f7220617070726f76656420666f7220616c6c00000000000000006020830152604082019050919050565b6000614d05602a836158a5565b91507f4552433732313a2062616c616e636520717565727920666f7220746865207a6560008301527f726f2061646472657373000000000000000000000000000000000000000000006020830152604082019050919050565b6000614d6b6029836158a5565b91507f4552433732313a206f776e657220717565727920666f72206e6f6e657869737460008301527f656e7420746f6b656e00000000000000000000000000000000000000000000006020830152604082019050919050565b6000614dd1602e836158a5565b91507f45524337323155524953746f726167653a2055524920736574206f66206e6f6e60008301527f6578697374656e7420746f6b656e0000000000000000000000000000000000006020830152604082019050919050565b6000614e376020836158a5565b91507f4552433732313a206d696e7420746f20746865207a65726f20616464726573736000830152602082019050919050565b6000614e776031836158a5565b91507f45524337323155524953746f726167653a2055524920717565727920666f722060008301527f6e6f6e6578697374656e7420746f6b656e0000000000000000000000000000006020830152604082019050919050565b6000614edd602c836158a5565b91507f4552433732313a20617070726f76656420717565727920666f72206e6f6e657860008301527f697374656e7420746f6b656e00000000000000000000000000000000000000006020830152604082019050919050565b6000614f436029836158a5565b91507f4552433732313a207472616e73666572206f6620746f6b656e2074686174206960008301527f73206e6f74206f776e00000000000000000000000000000000000000000000006020830152604082019050919050565b6000614fa9602f836158a5565b91507f4552433732314d657461646174613a2055524920717565727920666f72206e6f60008301527f6e6578697374656e7420746f6b656e00000000000000000000000000000000006020830152604082019050919050565b600061500f602e836158a5565b91507f4552433732313a206d75737420686176652061646d696e20726f6c6520746f2060008301527f73657420546f6b656e20555249730000000000000000000000000000000000006020830152604082019050919050565b60006150756021836158a5565b91507f4552433732313a20617070726f76616c20746f2063757272656e74206f776e6560008301527f72000000000000000000000000000000000000000000000000000000000000006020830152604082019050919050565b60006150db6031836158a5565b91507f4552433732313a207472616e736665722063616c6c6572206973206e6f74206f60008301527f776e6572206e6f7220617070726f7665640000000000000000000000000000006020830152604082019050919050565b60006151416017836158b6565b91507f416363657373436f6e74726f6c3a206163636f756e74200000000000000000006000830152601782019050919050565b60006151816011836158b6565b91507f206973206d697373696e6720726f6c65200000000000000000000000000000006000830152601182019050919050565b60006151c1602f836158a5565b91507f416363657373436f6e74726f6c3a2063616e206f6e6c792072656e6f756e636560008301527f20726f6c657320666f722073656c6600000000000000000000000000000000006020830152604082019050919050565b600060e083016000830151848203600086015261523782826148f1565b915050602083015161524c60208601826152bd565b50604083015161525f60408601826147f8565b50606083015161527260608601826147f8565b50608083015161528560808601826152bd565b5060a083015161529860a086018261488b565b5060c083015184820360c08601526152b082826148f1565b9150508091505092915050565b6152c681615a4a565b82525050565b6152d581615a4a565b82525050565b60006152e78285614963565b91506152f38284614963565b91508190509392505050565b600061530b8286614963565b91506153178285614963565b91506153238284614963565b9150819050949350505050565b600061533b82615134565b91506153478285614963565b915061535282615174565b915061535e8284614963565b91508190509392505050565b600060208201905061537f6000830184614807565b92915050565b600060808201905061539a6000830187614807565b6153a76020830186614807565b6153b460408301856152cc565b81810360608301526153c681846148b8565b905095945050505050565b600060208201905081810360008301526153eb8184614816565b905092915050565b6000602082019050615408600083018461489a565b92915050565b600060208201905061542360008301846148a9565b92915050565b60006020820190508181036000830152615443818461492a565b905092915050565b600060e0820190508181036000830152615465818a61492a565b905061547460208301896152cc565b6154816040830188614807565b61548e6060830187614807565b61549b60808301866152cc565b6154a860a083018561489a565b81810360c08301526154ba818461492a565b905098975050505050505050565b600060208201905081810360008301526154e181614994565b9050919050565b60006020820190508181036000830152615501816149fa565b9050919050565b6000602082019050818103600083015261552181614a3a565b9050919050565b6000602082019050818103600083015261554181614aa0565b9050919050565b6000602082019050818103600083015261556181614ae0565b9050919050565b6000602082019050818103600083015261558181614b46565b9050919050565b600060208201905081810360008301526155a181614bac565b9050919050565b600060208201905081810360008301526155c181614bec565b9050919050565b600060208201905081810360008301526155e181614c52565b9050919050565b6000602082019050818103600083015261560181614c92565b9050919050565b6000602082019050818103600083015261562181614cf8565b9050919050565b6000602082019050818103600083015261564181614d5e565b9050919050565b6000602082019050818103600083015261566181614dc4565b9050919050565b6000602082019050818103600083015261568181614e2a565b9050919050565b600060208201905081810360008301526156a181614e6a565b9050919050565b600060208201905081810360008301526156c181614ed0565b9050919050565b600060208201905081810360008301526156e181614f36565b9050919050565b6000602082019050818103600083015261570181614f9c565b9050919050565b6000602082019050818103600083015261572181615002565b9050919050565b6000602082019050818103600083015261574181615068565b9050919050565b60006020820190508181036000830152615761816150ce565b9050919050565b60006020820190508181036000830152615781816151b4565b9050919050565b600060208201905061579d60008301846152cc565b92915050565b6000604051905081810181811067ffffffffffffffff821117156157ca576157c9615bf9565b5b8060405250919050565b600067ffffffffffffffff8211156157ef576157ee615bf9565b5b601f19601f8301169050602081019050919050565b600067ffffffffffffffff82111561581f5761581e615bf9565b5b601f19601f8301169050602081019050919050565b6000819050602082019050919050565b600081519050919050565b600081519050919050565b600081519050919050565b6000602082019050919050565b600082825260208201905092915050565b600082825260208201905092915050565b600082825260208201905092915050565b600082825260208201905092915050565b600081905092915050565b60006158cc82615a4a565b91506158d783615a4a565b9250827fffffffffffffffffffffffffffffffffffffffffffffffffffffffffffffffff0382111561590c5761590b615b6c565b5b828201905092915050565b600061592282615a4a565b915061592d83615a4a565b92508261593d5761593c615b9b565b5b828204905092915050565b600061595382615a4a565b915061595e83615a4a565b9250817fffffffffffffffffffffffffffffffffffffffffffffffffffffffffffffffff048311821515161561599757615996615b6c565b5b828202905092915050565b60006159ad82615a4a565b91506159b883615a4a565b9250828210156159cb576159ca615b6c565b5b828203905092915050565b60006159e182615a2a565b9050919050565b60008115159050919050565b6000819050919050565b60007fffffffff0000000000000000000000000000000000000000000000000000000082169050919050565b600073ffffffffffffffffffffffffffffffffffffffff82169050919050565b6000819050919050565b82818337600083830152505050565b60005b83811015615a81578082015181840152602081019050615a66565b83811115615a90576000848401525b50505050565b6000615aa182615a4a565b91506000821415615ab557615ab4615b6c565b5b600182039050919050565b60006002820490506001821680615ad857607f821691505b60208210811415615aec57615aeb615bca565b5b50919050565b6000615afd82615a4a565b91507fffffffffffffffffffffffffffffffffffffffffffffffffffffffffffffffff821415615b3057615b2f615b6c565b5b600182019050919050565b6000615b4682615a4a565b9150615b5183615a4a565b925082615b6157615b60615b9b565b5b828206905092915050565b7f4e487b7100000000000000000000000000000000000000000000000000000000600052601160045260246000fd5b7f4e487b7100000000000000000000000000000000000000000000000000000000600052601260045260246000fd5b7f4e487b7100000000000000000000000000000000000000000000000000000000600052602260045260246000fd5b7f4e487b7100000000000000000000000000000000000000000000000000000000600052604160045260246000fd5b6000601f19601f8301169050919050565b615c42816159d6565b8114615c4d57600080fd5b50565b615c59816159e8565b8114615c6457600080fd5b50565b615c70816159f4565b8114615c7b57600080fd5b50565b615c87816159fe565b8114615c9257600080fd5b50565b615c9e81615a4a565b8114615ca957600080fd5b5056fea2646970667358221220b7ea2ef52583cc953c7dceff427167b8d1b559a80488a92b86c349bd56d830ef64736f6c6343000800003368747470733a2f2f6f7269656e74616c70616c6d737072696e672e636c75622f6974656d732f6173736574",
  "immutableReferences": {},
  "source": "// SPDX-License-Identifier: MIT\npragma solidity ^0.8.0;\n\n// import \"@openzeppelin/contracts/token/ERC721/extensions/ERC721Enumerable.sol\";\nimport \"@openzeppelin/contracts/access/AccessControlEnumerable.sol\";\nimport \"@openzeppelin/contracts/token/ERC721/extensions/ERC721URIStorage.sol\";\nimport \"@openzeppelin/contracts/utils/Counters.sol\";\nimport \"@openzeppelin/contracts/utils/Strings.sol\";\n\ncontract CloseSeaNFT is AccessControlEnumerable, ERC721URIStorage{\nusing Counters for Counters.Counter;\nCounters.Counter private tokenId;\n\nbytes32 public constant MINTER_ROLE = keccak256(\"MINTER_ROLE\");\nstring private _internalBaseURI = \"https://orientalpalmspring.club/items/asset\";\n\nconstructor() ERC721('BitEth NFT','BTE') {\n    _setupRole(DEFAULT_ADMIN_ROLE, msg.sender);\n}\n\nstruct Item{\n    string itemName;\n    uint id;\n    address owner;\n    address creator;\n    uint price;\n    bool forSale;\n    string tokenURI;\n}\n\nItem [] public items;\nmapping (uint => address) private _tokenApprovals;\nmapping (uint => address) itemToOwner;\n\nmodifier onlyOwnerOf (uint _tokenId) {\n    require ((ownerOf(_tokenId) == msg.sender), \"Caller is not owner of Token\");\n    _;\n}\n\nfunction supportsInterface(bytes4 interfaceId) public view virtual override(ERC721, AccessControlEnumerable) returns (bool) {\n        return super.supportsInterface(interfaceId);\n    }\n\nfunction mint(string memory _itemName) external{\n    uint currentId = tokenId.current();\n    string memory idString = Strings.toString(currentId);\n    string memory baseURI = _internalBaseURI;\n    string memory metadata = \"/metadata.json\";\n    string memory url = string(abi.encodePacked(baseURI, idString, metadata));\n\n    Item memory _item = Item({\n        itemName: _itemName,\n        id: currentId,\n        owner: msg.sender,\n        creator: msg.sender,\n        price: 0,\n        forSale: false,\n        tokenURI: url\n    });\n    items.push(_item);\n    _safeMint(msg.sender, currentId);\n    _setTokenURI(currentId, url);\n    itemToOwner[currentId] = msg.sender;\n    tokenId.increment();\n}\n\nfunction tokenOnSale (uint _tokenId, uint price) external onlyOwnerOf(_tokenId){\n    Item storage _item = items[_tokenId];\n    require(_item.forSale == false);\n    _item.price = price;\n    _item.forSale = true;\n    // approve(address(this), _tokenId);\n    // safeTransferFrom(ownerOf(_tokenId), address(this), _tokenId);\n}\n\nfunction notForSale (uint _tokenId) external onlyOwnerOf(_tokenId){\n    Item storage _item = items[_tokenId];\n    require(_item.forSale == true);\n    _item.price = 0;\n    _item.forSale = false;\n}\n\nfunction approvalTo (address _to, uint _tokenId) external onlyOwnerOf(_tokenId){\n    require(_tokenApprovals[_tokenId] != _to);\n    Item storage _item = items[_tokenId];\n    require(_item.forSale == true);\n    require(_item.price > 0);\n    approve(_to,_tokenId);\n    _tokenApprovals[_tokenId] = _to;\n}\n\nfunction cancelApproval (uint _tokenId) external onlyOwnerOf(_tokenId){\n    _tokenApprovals[_tokenId] = address(0);\n}\n\nfunction buyingWithApproval (uint _tokenId) external payable {\n    require (ownerOf(_tokenId) != msg.sender, \"Owner cannot execute buy function\");\n    require (_tokenApprovals[_tokenId] == msg.sender);\n    Item storage _item = items[_tokenId];\n    require(_item.forSale == true);\n    address _from = ownerOf(_tokenId);\n    safeTransferFrom(_from, msg.sender, _tokenId);\n    itemToOwner[_tokenId] = msg.sender;\n    _item.owner = msg.sender;\n    _item.price = 0;\n    _item.forSale = false;\n    _tokenApprovals[_tokenId] = address(0);\n}\n\nfunction buyingWithoutApproval (uint _tokenId) external payable {\n    require (ownerOf(_tokenId) != msg.sender);\n    Item storage _item = items[_tokenId];\n    require(_item.forSale == true);\n    address _from = ownerOf(_tokenId);\n    _transfer(_from, msg.sender, _tokenId);\n    itemToOwner[_tokenId] = msg.sender;\n    _item.owner = msg.sender;\n    _item.price = 0;\n    _item.forSale = false;\n}\n\nfunction burnToken (uint _tokenId) external onlyOwnerOf(_tokenId) {\n    Item storage _item = items[_tokenId];\n    require(_item.creator == msg.sender);\n    _burn(_tokenId);\n    delete items[_tokenId];\n    delete itemToOwner[_tokenId];\n}\n\nfunction getAllItems () external view returns(Item[] memory){\n    return items;\n}\n\nfunction getURI (uint _tokenId) external view returns (string memory){\n    return tokenURI(_tokenId);\n}\n\nfunction getOwner (uint _tokenId) external view returns (address){\n    return itemToOwner[_tokenId];\n}\n\nfunction isApproved (uint _tokenId) external view returns (address){\n    return _tokenApprovals[_tokenId];\n}\n\nfunction getToken(uint _tokenId) external view returns (string memory name, uint id, address owner, address creator, uint price, bool forSale, string memory tokenURI){\n    Item storage _item = items[_tokenId];\n    name = _item.itemName;\n    id = _item.id;\n    owner = ownerOf(_tokenId);\n    creator = _item.creator;\n    price = _item.price;\n    forSale = _item.forSale;\n    tokenURI = _item.tokenURI;\n}\n\nfunction setTokenURI(uint256 _tokenId, string memory _tokenURI) public {\n        require(\n            hasRole(DEFAULT_ADMIN_ROLE, msg.sender),\n            \"ERC721: must have admin role to set Token URIs\"\n        );\n        super._setTokenURI(_tokenId, _tokenURI);\n        Item storage _item = items[_tokenId];\n        _item.tokenURI = _tokenURI;\n    }\n}",
  "sourcePath": "/Users/philemon/crypto_coin/src/contracts/CloseSeaNFT.sol",
  "compiler": {
    "name": "solc",
    "version": "0.8.0+commit.c7dfd78e.Emscripten.clang"
  },
  "schemaVersion": "3.3.4",
  "updatedAt": "2021-05-13T10:01:04.978Z",
  "networkType": "ethereum",
  "devdoc": {
    "kind": "dev",
    "methods": {
      "approve(address,uint256)": {
        "details": "See {IERC721-approve}."
      },
      "balanceOf(address)": {
        "details": "See {IERC721-balanceOf}."
      },
      "getApproved(uint256)": {
        "details": "See {IERC721-getApproved}."
      },
      "getRoleAdmin(bytes32)": {
        "details": "Returns the admin role that controls `role`. See {grantRole} and {revokeRole}. To change a role's admin, use {_setRoleAdmin}."
      },
      "getRoleMember(bytes32,uint256)": {
        "details": "Returns one of the accounts that have `role`. `index` must be a value between 0 and {getRoleMemberCount}, non-inclusive. Role bearers are not sorted in any particular way, and their ordering may change at any point. WARNING: When using {getRoleMember} and {getRoleMemberCount}, make sure you perform all queries on the same block. See the following https://forum.openzeppelin.com/t/iterating-over-elements-on-enumerableset-in-openzeppelin-contracts/2296[forum post] for more information."
      },
      "getRoleMemberCount(bytes32)": {
        "details": "Returns the number of accounts that have `role`. Can be used together with {getRoleMember} to enumerate all bearers of a role."
      },
      "grantRole(bytes32,address)": {
        "details": "Overload {grantRole} to track enumerable memberships"
      },
      "hasRole(bytes32,address)": {
        "details": "Returns `true` if `account` has been granted `role`."
      },
      "isApprovedForAll(address,address)": {
        "details": "See {IERC721-isApprovedForAll}."
      },
      "name()": {
        "details": "See {IERC721Metadata-name}."
      },
      "ownerOf(uint256)": {
        "details": "See {IERC721-ownerOf}."
      },
      "renounceRole(bytes32,address)": {
        "details": "Overload {renounceRole} to track enumerable memberships"
      },
      "revokeRole(bytes32,address)": {
        "details": "Overload {revokeRole} to track enumerable memberships"
      },
      "safeTransferFrom(address,address,uint256)": {
        "details": "See {IERC721-safeTransferFrom}."
      },
      "safeTransferFrom(address,address,uint256,bytes)": {
        "details": "See {IERC721-safeTransferFrom}."
      },
      "setApprovalForAll(address,bool)": {
        "details": "See {IERC721-setApprovalForAll}."
      },
      "symbol()": {
        "details": "See {IERC721Metadata-symbol}."
      },
      "tokenURI(uint256)": {
        "details": "See {IERC721Metadata-tokenURI}."
      },
      "transferFrom(address,address,uint256)": {
        "details": "See {IERC721-transferFrom}."
      }
    },
    "version": 1
  },
  "userdoc": {
    "kind": "user",
    "methods": {},
    "version": 1
  }
}