{
  "contractName": "CloseSeaNFT",
  "abi": [
    {
      "inputs": [],
      "stateMutability": "nonpayable",
      "type": "constructor"
    },
    {
      "anonymous": false,
      "inputs": [
        {
          "indexed": true,
          "internalType": "address",
          "name": "owner",
          "type": "address"
        },
        {
          "indexed": true,
          "internalType": "address",
          "name": "approved",
          "type": "address"
        },
        {
          "indexed": true,
          "internalType": "uint256",
          "name": "tokenId",
          "type": "uint256"
        }
      ],
      "name": "Approval",
      "type": "event"
    },
    {
      "anonymous": false,
      "inputs": [
        {
          "indexed": true,
          "internalType": "address",
          "name": "owner",
          "type": "address"
        },
        {
          "indexed": true,
          "internalType": "address",
          "name": "operator",
          "type": "address"
        },
        {
          "indexed": false,
          "internalType": "bool",
          "name": "approved",
          "type": "bool"
        }
      ],
      "name": "ApprovalForAll",
      "type": "event"
    },
    {
      "anonymous": false,
      "inputs": [
        {
          "indexed": true,
          "internalType": "bytes32",
          "name": "role",
          "type": "bytes32"
        },
        {
          "indexed": true,
          "internalType": "bytes32",
          "name": "previousAdminRole",
          "type": "bytes32"
        },
        {
          "indexed": true,
          "internalType": "bytes32",
          "name": "newAdminRole",
          "type": "bytes32"
        }
      ],
      "name": "RoleAdminChanged",
      "type": "event"
    },
    {
      "anonymous": false,
      "inputs": [
        {
          "indexed": true,
          "internalType": "bytes32",
          "name": "role",
          "type": "bytes32"
        },
        {
          "indexed": true,
          "internalType": "address",
          "name": "account",
          "type": "address"
        },
        {
          "indexed": true,
          "internalType": "address",
          "name": "sender",
          "type": "address"
        }
      ],
      "name": "RoleGranted",
      "type": "event"
    },
    {
      "anonymous": false,
      "inputs": [
        {
          "indexed": true,
          "internalType": "bytes32",
          "name": "role",
          "type": "bytes32"
        },
        {
          "indexed": true,
          "internalType": "address",
          "name": "account",
          "type": "address"
        },
        {
          "indexed": true,
          "internalType": "address",
          "name": "sender",
          "type": "address"
        }
      ],
      "name": "RoleRevoked",
      "type": "event"
    },
    {
      "anonymous": false,
      "inputs": [
        {
          "indexed": true,
          "internalType": "address",
          "name": "from",
          "type": "address"
        },
        {
          "indexed": true,
          "internalType": "address",
          "name": "to",
          "type": "address"
        },
        {
          "indexed": true,
          "internalType": "uint256",
          "name": "tokenId",
          "type": "uint256"
        }
      ],
      "name": "Transfer",
      "type": "event"
    },
    {
      "inputs": [],
      "name": "DEFAULT_ADMIN_ROLE",
      "outputs": [
        {
          "internalType": "bytes32",
          "name": "",
          "type": "bytes32"
        }
      ],
      "stateMutability": "view",
      "type": "function",
      "constant": true
    },
    {
      "inputs": [],
      "name": "MINTER_ROLE",
      "outputs": [
        {
          "internalType": "bytes32",
          "name": "",
          "type": "bytes32"
        }
      ],
      "stateMutability": "view",
      "type": "function",
      "constant": true
    },
    {
      "inputs": [
        {
          "internalType": "address",
          "name": "to",
          "type": "address"
        },
        {
          "internalType": "uint256",
          "name": "tokenId",
          "type": "uint256"
        }
      ],
      "name": "approve",
      "outputs": [],
      "stateMutability": "nonpayable",
      "type": "function"
    },
    {
      "inputs": [
        {
          "internalType": "address",
          "name": "owner",
          "type": "address"
        }
      ],
      "name": "balanceOf",
      "outputs": [
        {
          "internalType": "uint256",
          "name": "",
          "type": "uint256"
        }
      ],
      "stateMutability": "view",
      "type": "function",
      "constant": true
    },
    {
      "inputs": [
        {
          "internalType": "uint256",
          "name": "tokenId",
          "type": "uint256"
        }
      ],
      "name": "getApproved",
      "outputs": [
        {
          "internalType": "address",
          "name": "",
          "type": "address"
        }
      ],
      "stateMutability": "view",
      "type": "function",
      "constant": true
    },
    {
      "inputs": [
        {
          "internalType": "bytes32",
          "name": "role",
          "type": "bytes32"
        }
      ],
      "name": "getRoleAdmin",
      "outputs": [
        {
          "internalType": "bytes32",
          "name": "",
          "type": "bytes32"
        }
      ],
      "stateMutability": "view",
      "type": "function",
      "constant": true
    },
    {
      "inputs": [
        {
          "internalType": "bytes32",
          "name": "role",
          "type": "bytes32"
        },
        {
          "internalType": "uint256",
          "name": "index",
          "type": "uint256"
        }
      ],
      "name": "getRoleMember",
      "outputs": [
        {
          "internalType": "address",
          "name": "",
          "type": "address"
        }
      ],
      "stateMutability": "view",
      "type": "function",
      "constant": true
    },
    {
      "inputs": [
        {
          "internalType": "bytes32",
          "name": "role",
          "type": "bytes32"
        }
      ],
      "name": "getRoleMemberCount",
      "outputs": [
        {
          "internalType": "uint256",
          "name": "",
          "type": "uint256"
        }
      ],
      "stateMutability": "view",
      "type": "function",
      "constant": true
    },
    {
      "inputs": [
        {
          "internalType": "bytes32",
          "name": "role",
          "type": "bytes32"
        },
        {
          "internalType": "address",
          "name": "account",
          "type": "address"
        }
      ],
      "name": "grantRole",
      "outputs": [],
      "stateMutability": "nonpayable",
      "type": "function"
    },
    {
      "inputs": [
        {
          "internalType": "bytes32",
          "name": "role",
          "type": "bytes32"
        },
        {
          "internalType": "address",
          "name": "account",
          "type": "address"
        }
      ],
      "name": "hasRole",
      "outputs": [
        {
          "internalType": "bool",
          "name": "",
          "type": "bool"
        }
      ],
      "stateMutability": "view",
      "type": "function",
      "constant": true
    },
    {
      "inputs": [
        {
          "internalType": "address",
          "name": "owner",
          "type": "address"
        },
        {
          "internalType": "address",
          "name": "operator",
          "type": "address"
        }
      ],
      "name": "isApprovedForAll",
      "outputs": [
        {
          "internalType": "bool",
          "name": "",
          "type": "bool"
        }
      ],
      "stateMutability": "view",
      "type": "function",
      "constant": true
    },
    {
      "inputs": [
        {
          "internalType": "uint256",
          "name": "",
          "type": "uint256"
        }
      ],
      "name": "items",
      "outputs": [
        {
          "internalType": "string",
          "name": "itemName",
          "type": "string"
        },
        {
          "internalType": "uint256",
          "name": "id",
          "type": "uint256"
        },
        {
          "internalType": "address",
          "name": "owner",
          "type": "address"
        },
        {
          "internalType": "address",
          "name": "creator",
          "type": "address"
        },
        {
          "internalType": "uint64",
          "name": "price",
          "type": "uint64"
        },
        {
          "internalType": "bool",
          "name": "forSale",
          "type": "bool"
        },
        {
          "internalType": "string",
          "name": "tokenURI",
          "type": "string"
        }
      ],
      "stateMutability": "view",
      "type": "function",
      "constant": true
    },
    {
      "inputs": [],
      "name": "name",
      "outputs": [
        {
          "internalType": "string",
          "name": "",
          "type": "string"
        }
      ],
      "stateMutability": "view",
      "type": "function",
      "constant": true
    },
    {
      "inputs": [
        {
          "internalType": "uint256",
          "name": "tokenId",
          "type": "uint256"
        }
      ],
      "name": "ownerOf",
      "outputs": [
        {
          "internalType": "address",
          "name": "",
          "type": "address"
        }
      ],
      "stateMutability": "view",
      "type": "function",
      "constant": true
    },
    {
      "inputs": [
        {
          "internalType": "bytes32",
          "name": "role",
          "type": "bytes32"
        },
        {
          "internalType": "address",
          "name": "account",
          "type": "address"
        }
      ],
      "name": "renounceRole",
      "outputs": [],
      "stateMutability": "nonpayable",
      "type": "function"
    },
    {
      "inputs": [
        {
          "internalType": "bytes32",
          "name": "role",
          "type": "bytes32"
        },
        {
          "internalType": "address",
          "name": "account",
          "type": "address"
        }
      ],
      "name": "revokeRole",
      "outputs": [],
      "stateMutability": "nonpayable",
      "type": "function"
    },
    {
      "inputs": [
        {
          "internalType": "address",
          "name": "from",
          "type": "address"
        },
        {
          "internalType": "address",
          "name": "to",
          "type": "address"
        },
        {
          "internalType": "uint256",
          "name": "tokenId",
          "type": "uint256"
        }
      ],
      "name": "safeTransferFrom",
      "outputs": [],
      "stateMutability": "nonpayable",
      "type": "function"
    },
    {
      "inputs": [
        {
          "internalType": "address",
          "name": "from",
          "type": "address"
        },
        {
          "internalType": "address",
          "name": "to",
          "type": "address"
        },
        {
          "internalType": "uint256",
          "name": "tokenId",
          "type": "uint256"
        },
        {
          "internalType": "bytes",
          "name": "_data",
          "type": "bytes"
        }
      ],
      "name": "safeTransferFrom",
      "outputs": [],
      "stateMutability": "nonpayable",
      "type": "function"
    },
    {
      "inputs": [
        {
          "internalType": "address",
          "name": "operator",
          "type": "address"
        },
        {
          "internalType": "bool",
          "name": "approved",
          "type": "bool"
        }
      ],
      "name": "setApprovalForAll",
      "outputs": [],
      "stateMutability": "nonpayable",
      "type": "function"
    },
    {
      "inputs": [],
      "name": "symbol",
      "outputs": [
        {
          "internalType": "string",
          "name": "",
          "type": "string"
        }
      ],
      "stateMutability": "view",
      "type": "function",
      "constant": true
    },
    {
      "inputs": [
        {
          "internalType": "uint256",
          "name": "tokenId",
          "type": "uint256"
        }
      ],
      "name": "tokenURI",
      "outputs": [
        {
          "internalType": "string",
          "name": "",
          "type": "string"
        }
      ],
      "stateMutability": "view",
      "type": "function",
      "constant": true
    },
    {
      "inputs": [
        {
          "internalType": "address",
          "name": "from",
          "type": "address"
        },
        {
          "internalType": "address",
          "name": "to",
          "type": "address"
        },
        {
          "internalType": "uint256",
          "name": "tokenId",
          "type": "uint256"
        }
      ],
      "name": "transferFrom",
      "outputs": [],
      "stateMutability": "nonpayable",
      "type": "function"
    },
    {
      "inputs": [
        {
          "internalType": "bytes4",
          "name": "interfaceId",
          "type": "bytes4"
        }
      ],
      "name": "supportsInterface",
      "outputs": [
        {
          "internalType": "bool",
          "name": "",
          "type": "bool"
        }
      ],
      "stateMutability": "view",
      "type": "function",
      "constant": true
    },
    {
      "inputs": [
        {
          "internalType": "string",
          "name": "_itemName",
          "type": "string"
        }
      ],
      "name": "mint",
      "outputs": [],
      "stateMutability": "nonpayable",
      "type": "function"
    },
    {
      "inputs": [
        {
          "internalType": "uint256",
          "name": "_tokenId",
          "type": "uint256"
        },
        {
          "internalType": "uint64",
          "name": "price",
          "type": "uint64"
        }
      ],
      "name": "tokenOnSale",
      "outputs": [],
      "stateMutability": "nonpayable",
      "type": "function"
    },
    {
      "inputs": [
        {
          "internalType": "uint256",
          "name": "_tokenId",
          "type": "uint256"
        }
      ],
      "name": "notForSale",
      "outputs": [],
      "stateMutability": "nonpayable",
      "type": "function"
    },
    {
      "inputs": [
        {
          "internalType": "address",
          "name": "_to",
          "type": "address"
        },
        {
          "internalType": "uint256",
          "name": "_tokenId",
          "type": "uint256"
        }
      ],
      "name": "approvalTo",
      "outputs": [],
      "stateMutability": "nonpayable",
      "type": "function"
    },
    {
      "inputs": [
        {
          "internalType": "uint256",
          "name": "_tokenId",
          "type": "uint256"
        }
      ],
      "name": "cancelApproval",
      "outputs": [],
      "stateMutability": "nonpayable",
      "type": "function"
    },
    {
      "inputs": [
        {
          "internalType": "uint256",
          "name": "_tokenId",
          "type": "uint256"
        }
      ],
      "name": "buyingWithApproval",
      "outputs": [],
      "stateMutability": "payable",
      "type": "function",
      "payable": true
    },
    {
      "inputs": [
        {
          "internalType": "uint256",
          "name": "_tokenId",
          "type": "uint256"
        }
      ],
      "name": "buyingWithoutApproval",
      "outputs": [],
      "stateMutability": "payable",
      "type": "function",
      "payable": true
    },
    {
      "inputs": [
        {
          "internalType": "uint256",
          "name": "_tokenId",
          "type": "uint256"
        }
      ],
      "name": "burnToken",
      "outputs": [],
      "stateMutability": "nonpayable",
      "type": "function"
    },
    {
      "inputs": [],
      "name": "getAllItems",
      "outputs": [
        {
          "components": [
            {
              "internalType": "string",
              "name": "itemName",
              "type": "string"
            },
            {
              "internalType": "uint256",
              "name": "id",
              "type": "uint256"
            },
            {
              "internalType": "address",
              "name": "owner",
              "type": "address"
            },
            {
              "internalType": "address",
              "name": "creator",
              "type": "address"
            },
            {
              "internalType": "uint64",
              "name": "price",
              "type": "uint64"
            },
            {
              "internalType": "bool",
              "name": "forSale",
              "type": "bool"
            },
            {
              "internalType": "string",
              "name": "tokenURI",
              "type": "string"
            }
          ],
          "internalType": "struct CloseSeaNFT.Item[]",
          "name": "",
          "type": "tuple[]"
        }
      ],
      "stateMutability": "view",
      "type": "function",
      "constant": true
    },
    {
      "inputs": [
        {
          "internalType": "uint256",
          "name": "_tokenId",
          "type": "uint256"
        }
      ],
      "name": "getURI",
      "outputs": [
        {
          "internalType": "string",
          "name": "",
          "type": "string"
        }
      ],
      "stateMutability": "view",
      "type": "function",
      "constant": true
    },
    {
      "inputs": [
        {
          "internalType": "uint256",
          "name": "_tokenId",
          "type": "uint256"
        }
      ],
      "name": "getOwner",
      "outputs": [
        {
          "internalType": "address",
          "name": "",
          "type": "address"
        }
      ],
      "stateMutability": "view",
      "type": "function",
      "constant": true
    },
    {
      "inputs": [
        {
          "internalType": "uint256",
          "name": "_tokenId",
          "type": "uint256"
        }
      ],
      "name": "isApproved",
      "outputs": [
        {
          "internalType": "address",
          "name": "",
          "type": "address"
        }
      ],
      "stateMutability": "view",
      "type": "function",
      "constant": true
    },
    {
      "inputs": [
        {
          "internalType": "uint256",
          "name": "_tokenId",
          "type": "uint256"
        }
      ],
      "name": "getToken",
      "outputs": [
        {
          "internalType": "string",
          "name": "name",
          "type": "string"
        },
        {
          "internalType": "uint256",
          "name": "id",
          "type": "uint256"
        },
        {
          "internalType": "address",
          "name": "owner",
          "type": "address"
        },
        {
          "internalType": "address",
          "name": "creator",
          "type": "address"
        },
        {
          "internalType": "uint64",
          "name": "price",
          "type": "uint64"
        },
        {
          "internalType": "bool",
          "name": "forSale",
          "type": "bool"
        },
        {
          "internalType": "string",
          "name": "tokenURI",
          "type": "string"
        }
      ],
      "stateMutability": "view",
      "type": "function",
      "constant": true
    },
    {
      "inputs": [
        {
          "internalType": "uint256",
          "name": "_tokenId",
          "type": "uint256"
        },
        {
          "internalType": "string",
          "name": "_tokenURI",
          "type": "string"
        }
      ],
      "name": "setTokenURI",
      "outputs": [],
      "stateMutability": "nonpayable",
      "type": "function"
    }
  ],
  "bytecode": "0x60806040526040518060400160405280601681526020017f687474703a2f2f6c6f63616c686f73743a383030302f00000000000000000000815250600a908051906020019062000051929190620003fa565b503480156200005f57600080fd5b506040518060400160405280600a81526020017f426974457468204e4654000000000000000000000000000000000000000000008152506040518060400160405280600381526020017f42544500000000000000000000000000000000000000000000000000000000008152508160029080519060200190620000e4929190620003fa565b508060039080519060200190620000fd929190620003fa565b5050506200011f60006001023362000125640100000000026401000000009004565b6200050f565b6200014582826200017f64010000000002620029f1176401000000009004565b6200017a81600160008581526020019081526020016000206200019e64010000000002620029ff179091906401000000009004565b505050565b6200019a8282620001df640100000000026401000000009004565b5050565b6000620001d7836000018373ffffffffffffffffffffffffffffffffffffffff16600102620002e2640100000000026401000000009004565b905092915050565b620001fa828262000365640100000000026401000000009004565b620002de57600160008084815260200190815260200160002060000160008373ffffffffffffffffffffffffffffffffffffffff1673ffffffffffffffffffffffffffffffffffffffff16815260200190815260200160002060006101000a81548160ff02191690831515021790555062000283620003cf640100000000026401000000009004565b73ffffffffffffffffffffffffffffffffffffffff168173ffffffffffffffffffffffffffffffffffffffff16837f2f8788117e7eff1d82e926ec794901d17c78024a50270940304540a733656f0d60405160405180910390a45b5050565b6000620002ff8383620003d7640100000000026401000000009004565b6200035a5782600001829080600181540180825580915050600190039060005260206000200160009091909190915055826000018054905083600101600084815260200190815260200160002081905550600190506200035f565b600090505b92915050565b600080600084815260200190815260200160002060000160008373ffffffffffffffffffffffffffffffffffffffff1673ffffffffffffffffffffffffffffffffffffffff16815260200190815260200160002060009054906101000a900460ff16905092915050565b600033905090565b600080836001016000848152602001908152602001600020541415905092915050565b8280546200040890620004aa565b90600052602060002090601f0160209004810192826200042c576000855562000478565b82601f106200044757805160ff191683800117855562000478565b8280016001018555821562000478579182015b82811115620004775782518255916020019190600101906200045a565b5b5090506200048791906200048b565b5090565b5b80821115620004a65760008160009055506001016200048c565b5090565b60006002820490506001821680620004c357607f821691505b60208210811415620004da57620004d9620004e0565b5b50919050565b7f4e487b7100000000000000000000000000000000000000000000000000000000600052602260045260246000fd5b615e78806200051f6000396000f3fe608060405260043610610237576000357c01000000000000000000000000000000000000000000000000000000009004806370a0823111610140578063bfb231d2116100c8578063d547741f1161008c578063d547741f14610856578063d85d3d271461087f578063e4b50cb8146108a8578063e985e9c5146108eb578063f63982de1461092857610237565b8063bfb231d214610731578063c41a360a14610774578063c87b56dd146107b1578063ca15c873146107ee578063d53913931461082b57610237565b806391d148541161010f57806391d148541461064c57806395d89b4114610689578063a217fddf146106b4578063a22cb465146106df578063b88d4fde1461070857610237565b806370a082311461056c5780637910867b146105a95780637b47ec1a146105e65780639010d07c1461060f57610237565b80632f2ff15d116101c357806342842e0e1161019257806342842e0e146104965780634ba1d6aa146104bf5780635449fe03146104ea5780636352211e146105135780636d1111bd1461055057610237565b80632f2ff15d146103f257806336568abe1461041b5780633cb527bd146104445780633e7d2f351461046d57610237565b8063095ea7b31161020a578063095ea7b3146102fd578063162094c4146103265780631aa347dc1461034f57806323b872dd1461038c578063248a9ca3146103b557610237565b806301ffc9a71461023c57806305fb504b1461027957806306fdde0314610295578063081812fc146102c0575b600080fd5b34801561024857600080fd5b50610263600480360381019061025e91906147e5565b610951565b604051610270919061555e565b60405180910390f35b610293600480360381019061028e9190614878565b610963565b005b3480156102a157600080fd5b506102aa610b0d565b6040516102b79190615594565b60405180910390f35b3480156102cc57600080fd5b506102e760048036038101906102e29190614878565b610b9f565b6040516102f491906154d5565b60405180910390f35b34801561030957600080fd5b50610324600480360381019061031f9190614708565b610c24565b005b34801561033257600080fd5b5061034d600480360381019061034891906148a1565b610d3c565b005b34801561035b57600080fd5b5061037660048036038101906103719190614878565b610dfd565b6040516103839190615594565b60405180910390f35b34801561039857600080fd5b506103b360048036038101906103ae9190614602565b610e0f565b005b3480156103c157600080fd5b506103dc60048036038101906103d79190614744565b610e6f565b6040516103e99190615579565b60405180910390f35b3480156103fe57600080fd5b506104196004803603810190610414919061476d565b610e8e565b005b34801561042757600080fd5b50610442600480360381019061043d919061476d565b610ec2565b005b34801561045057600080fd5b5061046b600480360381019061046691906148f5565b610ef6565b005b34801561047957600080fd5b50610494600480360381019061048f9190614878565b611029565b005b3480156104a257600080fd5b506104bd60048036038101906104b89190614602565b61115c565b005b3480156104cb57600080fd5b506104d461117c565b6040516104e1919061553c565b60405180910390f35b3480156104f657600080fd5b50610511600480360381019061050c9190614878565b611402565b005b34801561051f57600080fd5b5061053a60048036038101906105359190614878565b6114d0565b60405161054791906154d5565b60405180910390f35b61056a60048036038101906105659190614878565b611582565b005b34801561057857600080fd5b50610593600480360381019061058e919061459d565b611820565b6040516105a091906158f3565b60405180910390f35b3480156105b557600080fd5b506105d060048036038101906105cb9190614878565b6118d8565b6040516105dd91906154d5565b60405180910390f35b3480156105f257600080fd5b5061060d60048036038101906106089190614878565b611915565b005b34801561061b57600080fd5b50610636600480360381019061063191906147a9565b611b68565b60405161064391906154d5565b60405180910390f35b34801561065857600080fd5b50610673600480360381019061066e919061476d565b611b97565b604051610680919061555e565b60405180910390f35b34801561069557600080fd5b5061069e611c01565b6040516106ab9190615594565b60405180910390f35b3480156106c057600080fd5b506106c9611c93565b6040516106d69190615579565b60405180910390f35b3480156106eb57600080fd5b50610706600480360381019061070191906146cc565b611c9b565b005b34801561071457600080fd5b5061072f600480360381019061072a9190614651565b611e1c565b005b34801561073d57600080fd5b5061075860048036038101906107539190614878565b611e7e565b60405161076b97969594939291906155b6565b60405180910390f35b34801561078057600080fd5b5061079b60048036038101906107969190614878565b612041565b6040516107a891906154d5565b60405180910390f35b3480156107bd57600080fd5b506107d860048036038101906107d39190614878565b61207e565b6040516107e59190615594565b60405180910390f35b3480156107fa57600080fd5b5061081560048036038101906108109190614744565b6121d0565b60405161082291906158f3565b60405180910390f35b34801561083757600080fd5b506108406121f4565b60405161084d9190615579565b60405180910390f35b34801561086257600080fd5b5061087d6004803603810190610878919061476d565b612218565b005b34801561088b57600080fd5b506108a660048036038101906108a19190614837565b61224c565b005b3480156108b457600080fd5b506108cf60048036038101906108ca9190614878565b612591565b6040516108e297969594939291906155b6565b60405180910390f35b3480156108f757600080fd5b50610912600480360381019061090d91906145c6565b61277b565b60405161091f919061555e565b60405180910390f35b34801561093457600080fd5b5061094f600480360381019061094a9190614708565b61280f565b005b600061095c82612a2f565b9050919050565b3373ffffffffffffffffffffffffffffffffffffffff16610983826114d0565b73ffffffffffffffffffffffffffffffffffffffff1614156109a457600080fd5b6000600b82815481106109e0577f4e487b7100000000000000000000000000000000000000000000000000000000600052603260045260246000fd5b906000526020600020906005020190506001151581600301601c9054906101000a900460ff16151514610a1257600080fd5b6000610a1d836114d0565b9050610a2a813385612b11565b33600d600085815260200190815260200160002060006101000a81548173ffffffffffffffffffffffffffffffffffffffff021916908373ffffffffffffffffffffffffffffffffffffffff160217905550338260020160006101000a81548173ffffffffffffffffffffffffffffffffffffffff021916908373ffffffffffffffffffffffffffffffffffffffff16021790555060008260030160146101000a81548167ffffffffffffffff021916908367ffffffffffffffff160217905550600082600301601c6101000a81548160ff021916908315150217905550505050565b606060028054610b1c90615c3f565b80601f0160208091040260200160405190810160405280929190818152602001828054610b4890615c3f565b8015610b955780601f10610b6a57610100808354040283529160200191610b95565b820191906000526020600020905b815481529060010190602001808311610b7857829003601f168201915b5050505050905090565b6000610baa82612d6d565b610be9576040517f08c379a0000000000000000000000000000000000000000000000000000000008152600401610be090615813565b60405180910390fd5b6006600083815260200190815260200160002060009054906101000a900473ffffffffffffffffffffffffffffffffffffffff169050919050565b6000610c2f826114d0565b90508073ffffffffffffffffffffffffffffffffffffffff168373ffffffffffffffffffffffffffffffffffffffff161415610ca0576040517f08c379a0000000000000000000000000000000000000000000000000000000008152600401610c9790615893565b60405180910390fd5b8073ffffffffffffffffffffffffffffffffffffffff16610cbf612dd9565b73ffffffffffffffffffffffffffffffffffffffff161480610cee5750610ced81610ce8612dd9565b61277b565b5b610d2d576040517f08c379a0000000000000000000000000000000000000000000000000000000008152600401610d2490615753565b60405180910390fd5b610d378383612de1565b505050565b610d4a600060010233611b97565b610d89576040517f08c379a0000000000000000000000000000000000000000000000000000000008152600401610d8090615873565b60405180910390fd5b610d938282612e9a565b6000600b8381548110610dcf577f4e487b7100000000000000000000000000000000000000000000000000000000600052603260045260246000fd5b9060005260206000209060050201905081816004019080519060200190610df7929190614357565b50505050565b6060610e088261207e565b9050919050565b610e20610e1a612dd9565b82612f0e565b610e5f576040517f08c379a0000000000000000000000000000000000000000000000000000000008152600401610e56906158b3565b60405180910390fd5b610e6a838383612b11565b505050565b6000806000838152602001908152602001600020600101549050919050565b610e988282612fec565b610ebd81600160008581526020019081526020016000206129ff90919063ffffffff16565b505050565b610ecc8282613015565b610ef1816001600085815260200190815260200160002061309890919063ffffffff16565b505050565b813373ffffffffffffffffffffffffffffffffffffffff16610f17826114d0565b73ffffffffffffffffffffffffffffffffffffffff1614610f6d576040517f08c379a0000000000000000000000000000000000000000000000000000000008152600401610f6490615733565b60405180910390fd5b6000600b8481548110610fa9577f4e487b7100000000000000000000000000000000000000000000000000000000600052603260045260246000fd5b906000526020600020906005020190506000151581600301601c9054906101000a900460ff16151514610fdb57600080fd5b828160030160146101000a81548167ffffffffffffffff021916908367ffffffffffffffff160217905550600181600301601c6101000a81548160ff02191690831515021790555050505050565b803373ffffffffffffffffffffffffffffffffffffffff1661104a826114d0565b73ffffffffffffffffffffffffffffffffffffffff16146110a0576040517f08c379a000000000000000000000000000000000000000000000000000000000815260040161109790615733565b60405180910390fd5b6000600b83815481106110dc577f4e487b7100000000000000000000000000000000000000000000000000000000600052603260045260246000fd5b906000526020600020906005020190506001151581600301601c9054906101000a900460ff1615151461110e57600080fd5b60008160030160146101000a81548167ffffffffffffffff021916908367ffffffffffffffff160217905550600081600301601c6101000a81548160ff021916908315150217905550505050565b61117783838360405180602001604052806000815250611e1c565b505050565b6060600b805480602002602001604051908101604052809291908181526020016000905b828210156113f957838290600052602060002090600502016040518060e00160405290816000820180546111d390615c3f565b80601f01602080910402602001604051908101604052809291908181526020018280546111ff90615c3f565b801561124c5780601f106112215761010080835404028352916020019161124c565b820191906000526020600020905b81548152906001019060200180831161122f57829003601f168201915b50505050508152602001600182015481526020016002820160009054906101000a900473ffffffffffffffffffffffffffffffffffffffff1673ffffffffffffffffffffffffffffffffffffffff1673ffffffffffffffffffffffffffffffffffffffff1681526020016003820160009054906101000a900473ffffffffffffffffffffffffffffffffffffffff1673ffffffffffffffffffffffffffffffffffffffff1673ffffffffffffffffffffffffffffffffffffffff1681526020016003820160149054906101000a900467ffffffffffffffff1667ffffffffffffffff1667ffffffffffffffff16815260200160038201601c9054906101000a900460ff1615151515815260200160048201805461136890615c3f565b80601f016020809104026020016040519081016040528092919081815260200182805461139490615c3f565b80156113e15780601f106113b6576101008083540402835291602001916113e1565b820191906000526020600020905b8154815290600101906020018083116113c457829003601f168201915b505050505081525050815260200190600101906111a0565b50505050905090565b803373ffffffffffffffffffffffffffffffffffffffff16611423826114d0565b73ffffffffffffffffffffffffffffffffffffffff1614611479576040517f08c379a000000000000000000000000000000000000000000000000000000000815260040161147090615733565b60405180910390fd5b6000600c600084815260200190815260200160002060006101000a81548173ffffffffffffffffffffffffffffffffffffffff021916908373ffffffffffffffffffffffffffffffffffffffff1602179055505050565b6000806004600084815260200190815260200160002060009054906101000a900473ffffffffffffffffffffffffffffffffffffffff169050600073ffffffffffffffffffffffffffffffffffffffff168173ffffffffffffffffffffffffffffffffffffffff161415611579576040517f08c379a000000000000000000000000000000000000000000000000000000000815260040161157090615793565b60405180910390fd5b80915050919050565b3373ffffffffffffffffffffffffffffffffffffffff166115a2826114d0565b73ffffffffffffffffffffffffffffffffffffffff1614156115f9576040517f08c379a00000000000000000000000000000000000000000000000000000000081526004016115f0906156b3565b60405180910390fd5b3373ffffffffffffffffffffffffffffffffffffffff16600c600083815260200190815260200160002060009054906101000a900473ffffffffffffffffffffffffffffffffffffffff1673ffffffffffffffffffffffffffffffffffffffff161461166457600080fd5b6000600b82815481106116a0577f4e487b7100000000000000000000000000000000000000000000000000000000600052603260045260246000fd5b906000526020600020906005020190506001151581600301601c9054906101000a900460ff161515146116d257600080fd5b60006116dd836114d0565b90506116ea81338561115c565b33600d600085815260200190815260200160002060006101000a81548173ffffffffffffffffffffffffffffffffffffffff021916908373ffffffffffffffffffffffffffffffffffffffff160217905550338260020160006101000a81548173ffffffffffffffffffffffffffffffffffffffff021916908373ffffffffffffffffffffffffffffffffffffffff16021790555060008260030160146101000a81548167ffffffffffffffff021916908367ffffffffffffffff160217905550600082600301601c6101000a81548160ff0219169083151502179055506000600c600085815260200190815260200160002060006101000a81548173ffffffffffffffffffffffffffffffffffffffff021916908373ffffffffffffffffffffffffffffffffffffffff160217905550505050565b60008073ffffffffffffffffffffffffffffffffffffffff168273ffffffffffffffffffffffffffffffffffffffff161415611891576040517f08c379a000000000000000000000000000000000000000000000000000000000815260040161188890615773565b60405180910390fd5b600560008373ffffffffffffffffffffffffffffffffffffffff1673ffffffffffffffffffffffffffffffffffffffff168152602001908152602001600020549050919050565b6000600c600083815260200190815260200160002060009054906101000a900473ffffffffffffffffffffffffffffffffffffffff169050919050565b803373ffffffffffffffffffffffffffffffffffffffff16611936826114d0565b73ffffffffffffffffffffffffffffffffffffffff161461198c576040517f08c379a000000000000000000000000000000000000000000000000000000000815260040161198390615733565b60405180910390fd5b6000600b83815481106119c8577f4e487b7100000000000000000000000000000000000000000000000000000000600052603260045260246000fd5b906000526020600020906005020190503373ffffffffffffffffffffffffffffffffffffffff168160030160009054906101000a900473ffffffffffffffffffffffffffffffffffffffff1673ffffffffffffffffffffffffffffffffffffffff1614611a3457600080fd5b611a3d836130c8565b600b8381548110611a77577f4e487b7100000000000000000000000000000000000000000000000000000000600052603260045260246000fd5b906000526020600020906005020160008082016000611a9691906143dd565b60018201600090556002820160006101000a81549073ffffffffffffffffffffffffffffffffffffffff02191690556003820160006101000a81549073ffffffffffffffffffffffffffffffffffffffff02191690556003820160146101000a81549067ffffffffffffffff021916905560038201601c6101000a81549060ff0219169055600482016000611b2b91906143dd565b5050600d600084815260200190815260200160002060006101000a81549073ffffffffffffffffffffffffffffffffffffffff0219169055505050565b6000611b8f826001600086815260200190815260200160002061311b90919063ffffffff16565b905092915050565b600080600084815260200190815260200160002060000160008373ffffffffffffffffffffffffffffffffffffffff1673ffffffffffffffffffffffffffffffffffffffff16815260200190815260200160002060009054906101000a900460ff16905092915050565b606060038054611c1090615c3f565b80601f0160208091040260200160405190810160405280929190818152602001828054611c3c90615c3f565b8015611c895780601f10611c5e57610100808354040283529160200191611c89565b820191906000526020600020905b815481529060010190602001808311611c6c57829003601f168201915b5050505050905090565b600060010281565b611ca3612dd9565b73ffffffffffffffffffffffffffffffffffffffff168273ffffffffffffffffffffffffffffffffffffffff161415611d11576040517f08c379a0000000000000000000000000000000000000000000000000000000008152600401611d08906156f3565b60405180910390fd5b8060076000611d1e612dd9565b73ffffffffffffffffffffffffffffffffffffffff1673ffffffffffffffffffffffffffffffffffffffff16815260200190815260200160002060008473ffffffffffffffffffffffffffffffffffffffff1673ffffffffffffffffffffffffffffffffffffffff16815260200190815260200160002060006101000a81548160ff0219169083151502179055508173ffffffffffffffffffffffffffffffffffffffff16611dcb612dd9565b73ffffffffffffffffffffffffffffffffffffffff167f17307eab39ab6107e8899845ad3d59bd9653f200f220920489ca2b5937696c3183604051611e10919061555e565b60405180910390a35050565b611e2d611e27612dd9565b83612f0e565b611e6c576040517f08c379a0000000000000000000000000000000000000000000000000000000008152600401611e63906158b3565b60405180910390fd5b611e7884848484613136565b50505050565b600b8181548110611e8e57600080fd5b9060005260206000209060050201600091509050806000018054611eb190615c3f565b80601f0160208091040260200160405190810160405280929190818152602001828054611edd90615c3f565b8015611f2a5780601f10611eff57610100808354040283529160200191611f2a565b820191906000526020600020905b815481529060010190602001808311611f0d57829003601f168201915b5050505050908060010154908060020160009054906101000a900473ffffffffffffffffffffffffffffffffffffffff16908060030160009054906101000a900473ffffffffffffffffffffffffffffffffffffffff16908060030160149054906101000a900467ffffffffffffffff169080600301601c9054906101000a900460ff1690806004018054611fbe90615c3f565b80601f0160208091040260200160405190810160405280929190818152602001828054611fea90615c3f565b80156120375780601f1061200c57610100808354040283529160200191612037565b820191906000526020600020905b81548152906001019060200180831161201a57829003601f168201915b5050505050905087565b6000600d600083815260200190815260200160002060009054906101000a900473ffffffffffffffffffffffffffffffffffffffff169050919050565b606061208982612d6d565b6120c8576040517f08c379a00000000000000000000000000000000000000000000000000000000081526004016120bf906157f3565b60405180910390fd5b60006008600084815260200190815260200160002080546120e890615c3f565b80601f016020809104026020016040519081016040528092919081815260200182805461211490615c3f565b80156121615780601f1061213657610100808354040283529160200191612161565b820191906000526020600020905b81548152906001019060200180831161214457829003601f168201915b505050505090506000612172613192565b90506000815114156121885781925050506121cb565b6000825111156121bd5780826040516020016121a5929190615446565b604051602081830303815290604052925050506121cb565b6121c6846131a9565b925050505b919050565b60006121ed60016000848152602001908152602001600020613250565b9050919050565b7f9f2df0fed2c77648de5860a4cc508cd0818c85b8b8a1ab4ceeef8d981c8956a681565b6122228282613265565b612247816001600085815260200190815260200160002061309890919063ffffffff16565b505050565b6000612258600961328e565b905060006122658261329c565b90506000600a805461227690615c3f565b80601f01602080910402602001604051908101604052809291908181526020018280546122a290615c3f565b80156122ef5780601f106122c4576101008083540402835291602001916122ef565b820191906000526020600020905b8154815290600101906020018083116122d257829003601f168201915b5050505050905060006040518060400160405280600e81526020017f2f6d657461646174612e6a736f6e000000000000000000000000000000000000815250905060008284836040516020016123479392919061546a565b604051602081830303815290604052905060006040518060e001604052808881526020018781526020013373ffffffffffffffffffffffffffffffffffffffff1681526020013373ffffffffffffffffffffffffffffffffffffffff168152602001600067ffffffffffffffff168152602001600015158152602001838152509050600b8190806001815401808255809150506001900390600052602060002090600502016000909190919091506000820151816000019080519060200190612411929190614357565b506020820151816001015560408201518160020160006101000a81548173ffffffffffffffffffffffffffffffffffffffff021916908373ffffffffffffffffffffffffffffffffffffffff16021790555060608201518160030160006101000a81548173ffffffffffffffffffffffffffffffffffffffff021916908373ffffffffffffffffffffffffffffffffffffffff16021790555060808201518160030160146101000a81548167ffffffffffffffff021916908367ffffffffffffffff16021790555060a082015181600301601c6101000a81548160ff02191690831515021790555060c0820151816004019080519060200190612515929190614357565b5050506125223387613468565b61252c8683612e9a565b33600d600088815260200190815260200160002060006101000a81548173ffffffffffffffffffffffffffffffffffffffff021916908373ffffffffffffffffffffffffffffffffffffffff1602179055506125886009613486565b50505050505050565b6060600080600080600060606000600b89815481106125d9577f4e487b7100000000000000000000000000000000000000000000000000000000600052603260045260246000fd5b906000526020600020906005020190508060000180546125f890615c3f565b80601f016020809104026020016040519081016040528092919081815260200182805461262490615c3f565b80156126715780601f1061264657610100808354040283529160200191612671565b820191906000526020600020905b81548152906001019060200180831161265457829003601f168201915b5050505050975080600101549650612688896114d0565b95508060030160009054906101000a900473ffffffffffffffffffffffffffffffffffffffff1694508060030160149054906101000a900467ffffffffffffffff16935080600301601c9054906101000a900460ff1692508060040180546126ef90615c3f565b80601f016020809104026020016040519081016040528092919081815260200182805461271b90615c3f565b80156127685780601f1061273d57610100808354040283529160200191612768565b820191906000526020600020905b81548152906001019060200180831161274b57829003601f168201915b5050505050915050919395979092949650565b6000600760008473ffffffffffffffffffffffffffffffffffffffff1673ffffffffffffffffffffffffffffffffffffffff16815260200190815260200160002060008373ffffffffffffffffffffffffffffffffffffffff1673ffffffffffffffffffffffffffffffffffffffff16815260200190815260200160002060009054906101000a900460ff16905092915050565b803373ffffffffffffffffffffffffffffffffffffffff16612830826114d0565b73ffffffffffffffffffffffffffffffffffffffff1614612886576040517f08c379a000000000000000000000000000000000000000000000000000000000815260040161287d90615733565b60405180910390fd5b8273ffffffffffffffffffffffffffffffffffffffff16600c600084815260200190815260200160002060009054906101000a900473ffffffffffffffffffffffffffffffffffffffff1673ffffffffffffffffffffffffffffffffffffffff1614156128f257600080fd5b6000600b838154811061292e577f4e487b7100000000000000000000000000000000000000000000000000000000600052603260045260246000fd5b906000526020600020906005020190506001151581600301601c9054906101000a900460ff1615151461296057600080fd5b60008160030160149054906101000a900467ffffffffffffffff1667ffffffffffffffff161161298f57600080fd5b6129998484610c24565b83600c600085815260200190815260200160002060006101000a81548173ffffffffffffffffffffffffffffffffffffffff021916908373ffffffffffffffffffffffffffffffffffffffff16021790555050505050565b6129fb828261349c565b5050565b6000612a27836000018373ffffffffffffffffffffffffffffffffffffffff1660010261357c565b905092915050565b60007f80ac58cd000000000000000000000000000000000000000000000000000000007bffffffffffffffffffffffffffffffffffffffffffffffffffffffff1916827bffffffffffffffffffffffffffffffffffffffffffffffffffffffff19161480612afa57507f5b5e139f000000000000000000000000000000000000000000000000000000007bffffffffffffffffffffffffffffffffffffffffffffffffffffffff1916827bffffffffffffffffffffffffffffffffffffffffffffffffffffffff1916145b80612b0a5750612b09826135ec565b5b9050919050565b8273ffffffffffffffffffffffffffffffffffffffff16612b31826114d0565b73ffffffffffffffffffffffffffffffffffffffff1614612b87576040517f08c379a0000000000000000000000000000000000000000000000000000000008152600401612b7e90615833565b60405180910390fd5b600073ffffffffffffffffffffffffffffffffffffffff168273ffffffffffffffffffffffffffffffffffffffff161415612bf7576040517f08c379a0000000000000000000000000000000000000000000000000000000008152600401612bee906156d3565b60405180910390fd5b612c02838383613666565b612c0d600082612de1565b6001600560008573ffffffffffffffffffffffffffffffffffffffff1673ffffffffffffffffffffffffffffffffffffffff1681526020019081526020016000206000828254612c5d9190615b0d565b925050819055506001600560008473ffffffffffffffffffffffffffffffffffffffff1673ffffffffffffffffffffffffffffffffffffffff1681526020019081526020016000206000828254612cb49190615a2c565b92505081905550816004600083815260200190815260200160002060006101000a81548173ffffffffffffffffffffffffffffffffffffffff021916908373ffffffffffffffffffffffffffffffffffffffff160217905550808273ffffffffffffffffffffffffffffffffffffffff168473ffffffffffffffffffffffffffffffffffffffff167fddf252ad1be2c89b69c2b068fc378daa952ba7f163c4a11628f55a4df523b3ef60405160405180910390a4505050565b60008073ffffffffffffffffffffffffffffffffffffffff166004600084815260200190815260200160002060009054906101000a900473ffffffffffffffffffffffffffffffffffffffff1673ffffffffffffffffffffffffffffffffffffffff1614159050919050565b600033905090565b816006600083815260200190815260200160002060006101000a81548173ffffffffffffffffffffffffffffffffffffffff021916908373ffffffffffffffffffffffffffffffffffffffff160217905550808273ffffffffffffffffffffffffffffffffffffffff16612e54836114d0565b73ffffffffffffffffffffffffffffffffffffffff167f8c5be1e5ebec7d5bd14f71427d1e84f3dd0314c0f7b2291e5b200ac8c7c3b92560405160405180910390a45050565b612ea382612d6d565b612ee2576040517f08c379a0000000000000000000000000000000000000000000000000000000008152600401612ed9906157b3565b60405180910390fd5b80600860008481526020019081526020016000209080519060200190612f09929190614357565b505050565b6000612f1982612d6d565b612f58576040517f08c379a0000000000000000000000000000000000000000000000000000000008152600401612f4f90615713565b60405180910390fd5b6000612f63836114d0565b90508073ffffffffffffffffffffffffffffffffffffffff168473ffffffffffffffffffffffffffffffffffffffff161480612fd257508373ffffffffffffffffffffffffffffffffffffffff16612fba84610b9f565b73ffffffffffffffffffffffffffffffffffffffff16145b80612fe35750612fe2818561277b565b5b91505092915050565b612ff582610e6f565b61300681613001612dd9565b61366b565b613010838361349c565b505050565b61301d612dd9565b73ffffffffffffffffffffffffffffffffffffffff168173ffffffffffffffffffffffffffffffffffffffff161461308a576040517f08c379a0000000000000000000000000000000000000000000000000000000008152600401613081906158d3565b60405180910390fd5b6130948282613709565b5050565b60006130c0836000018373ffffffffffffffffffffffffffffffffffffffff166001026137ea565b905092915050565b6130d181613968565b60006008600083815260200190815260200160002080546130f190615c3f565b9050146131185760086000828152602001908152602001600020600061311791906143dd565b5b50565b600061312a8360000183613a79565b60019004905092915050565b613141848484612b11565b61314d84848484613b13565b61318c576040517f08c379a000000000000000000000000000000000000000000000000000000000815260040161318390615673565b60405180910390fd5b50505050565b606060405180602001604052806000815250905090565b60606131b482612d6d565b6131f3576040517f08c379a00000000000000000000000000000000000000000000000000000000081526004016131ea90615853565b60405180910390fd5b60006131fd613192565b9050600081511161321d5760405180602001604052806000815250613248565b806132278461329c565b604051602001613238929190615446565b6040516020818303038152906040525b915050919050565b600061325e82600001613ce2565b9050919050565b61326e82610e6f565b61327f8161327a612dd9565b61366b565b6132898383613709565b505050565b600081600001549050919050565b606060008214156132e4576040518060400160405280600181526020017f30000000000000000000000000000000000000000000000000000000000000008152509050613463565b600082905060005b600082146133165780806132ff90615c71565b915050600a8261330f9190615a82565b91506132ec565b60008167ffffffffffffffff811115613358577f4e487b7100000000000000000000000000000000000000000000000000000000600052604160045260246000fd5b6040519080825280601f01601f19166020018201604052801561338a5781602001600182028036833780820191505090505b5090505b6000851461345c576001826133a39190615b0d565b9150600a856133b29190615cba565b60306133be9190615a2c565b7f010000000000000000000000000000000000000000000000000000000000000002818381518110613419577f4e487b7100000000000000000000000000000000000000000000000000000000600052603260045260246000fd5b60200101907effffffffffffffffffffffffffffffffffffffffffffffffffffffffffffff1916908160001a905350600a856134559190615a82565b945061338e565b8093505050505b919050565b613482828260405180602001604052806000815250613cf3565b5050565b6001816000016000828254019250508190555050565b6134a68282611b97565b61357857600160008084815260200190815260200160002060000160008373ffffffffffffffffffffffffffffffffffffffff1673ffffffffffffffffffffffffffffffffffffffff16815260200190815260200160002060006101000a81548160ff02191690831515021790555061351d612dd9565b73ffffffffffffffffffffffffffffffffffffffff168173ffffffffffffffffffffffffffffffffffffffff16837f2f8788117e7eff1d82e926ec794901d17c78024a50270940304540a733656f0d60405160405180910390a45b5050565b60006135888383613d4e565b6135e15782600001829080600181540180825580915050600190039060005260206000200160009091909190915055826000018054905083600101600084815260200190815260200160002081905550600190506135e6565b600090505b92915050565b60007f5a05180f000000000000000000000000000000000000000000000000000000007bffffffffffffffffffffffffffffffffffffffffffffffffffffffff1916827bffffffffffffffffffffffffffffffffffffffffffffffffffffffff1916148061365f575061365e82613d71565b5b9050919050565b505050565b6136758282611b97565b6137055761369a8173ffffffffffffffffffffffffffffffffffffffff166014613deb565b6136a983600190046020613deb565b6040516020016136ba92919061549b565b6040516020818303038152906040526040517f08c379a00000000000000000000000000000000000000000000000000000000081526004016136fc9190615594565b60405180910390fd5b5050565b6137138282611b97565b156137e657600080600084815260200190815260200160002060000160008373ffffffffffffffffffffffffffffffffffffffff1673ffffffffffffffffffffffffffffffffffffffff16815260200190815260200160002060006101000a81548160ff02191690831515021790555061378b612dd9565b73ffffffffffffffffffffffffffffffffffffffff168173ffffffffffffffffffffffffffffffffffffffff16837ff6391f5c32d9c69d2a47ea670b442974b53935d1edc7fd64eb21e047a839171b60405160405180910390a45b5050565b6000808360010160008481526020019081526020016000205490506000811461395c57600060018261381c9190615b0d565b90506000600186600001805490506138349190615b0d565b90506000866000018281548110613874577f4e487b7100000000000000000000000000000000000000000000000000000000600052603260045260246000fd5b90600052602060002001549050808760000184815481106138be577f4e487b7100000000000000000000000000000000000000000000000000000000600052603260045260246000fd5b9060005260206000200181905550838760010160008381526020019081526020016000208190555086600001805480613920577f4e487b7100000000000000000000000000000000000000000000000000000000600052603160045260246000fd5b60019003818190600052602060002001600090559055866001016000878152602001908152602001600020600090556001945050505050613962565b60009150505b92915050565b6000613973826114d0565b905061398181600084613666565b61398c600083612de1565b6001600560008373ffffffffffffffffffffffffffffffffffffffff1673ffffffffffffffffffffffffffffffffffffffff16815260200190815260200160002060008282546139dc9190615b0d565b925050819055506004600083815260200190815260200160002060006101000a81549073ffffffffffffffffffffffffffffffffffffffff021916905581600073ffffffffffffffffffffffffffffffffffffffff168273ffffffffffffffffffffffffffffffffffffffff167fddf252ad1be2c89b69c2b068fc378daa952ba7f163c4a11628f55a4df523b3ef60405160405180910390a45050565b600081836000018054905011613ac4576040517f08c379a0000000000000000000000000000000000000000000000000000000008152600401613abb90615633565b60405180910390fd5b826000018281548110613b00577f4e487b7100000000000000000000000000000000000000000000000000000000600052603260045260246000fd5b9060005260206000200154905092915050565b6000613b348473ffffffffffffffffffffffffffffffffffffffff1661410c565b15613cd5578373ffffffffffffffffffffffffffffffffffffffff1663150b7a02613b5d612dd9565b8786866040518563ffffffff167c0100000000000000000000000000000000000000000000000000000000028152600401613b9b94939291906154f0565b602060405180830381600087803b158015613bb557600080fd5b505af1925050508015613be657506040513d601f19601f82011682018060405250810190613be3919061480e565b60015b613c69573d8060008114613c16576040519150601f19603f3d011682016040523d82523d6000602084013e613c1b565b606091505b50600081511415613c61576040517f08c379a0000000000000000000000000000000000000000000000000000000008152600401613c5890615673565b60405180910390fd5b805181602001fd5b63150b7a027c0100000000000000000000000000000000000000000000000000000000027bffffffffffffffffffffffffffffffffffffffffffffffffffffffff1916817bffffffffffffffffffffffffffffffffffffffffffffffffffffffff191614915050613cda565b600190505b949350505050565b600081600001805490509050919050565b613cfd838361411f565b613d0a6000848484613b13565b613d49576040517f08c379a0000000000000000000000000000000000000000000000000000000008152600401613d4090615673565b60405180910390fd5b505050565b600080836001016000848152602001908152602001600020541415905092915050565b60007f7965db0b000000000000000000000000000000000000000000000000000000007bffffffffffffffffffffffffffffffffffffffffffffffffffffffff1916827bffffffffffffffffffffffffffffffffffffffffffffffffffffffff19161480613de45750613de3826142ed565b5b9050919050565b606060006002836002613dfe9190615ab3565b613e089190615a2c565b67ffffffffffffffff811115613e47577f4e487b7100000000000000000000000000000000000000000000000000000000600052604160045260246000fd5b6040519080825280601f01601f191660200182016040528015613e795781602001600182028036833780820191505090505b5090507f300000000000000000000000000000000000000000000000000000000000000081600081518110613ed7577f4e487b7100000000000000000000000000000000000000000000000000000000600052603260045260246000fd5b60200101907effffffffffffffffffffffffffffffffffffffffffffffffffffffffffffff1916908160001a9053507f780000000000000000000000000000000000000000000000000000000000000081600181518110613f61577f4e487b7100000000000000000000000000000000000000000000000000000000600052603260045260246000fd5b60200101907effffffffffffffffffffffffffffffffffffffffffffffffffffffffffffff1916908160001a90535060006001846002613fa19190615ab3565b613fab9190615a2c565b90505b60018111156140be577f3031323334353637383961626364656600000000000000000000000000000000600f861660108110614013577f4e487b7100000000000000000000000000000000000000000000000000000000600052603260045260246000fd5b1a7f01000000000000000000000000000000000000000000000000000000000000000282828151811061406f577f4e487b7100000000000000000000000000000000000000000000000000000000600052603260045260246000fd5b60200101907effffffffffffffffffffffffffffffffffffffffffffffffffffffffffffff1916908160001a905350600485908060020a82049150509450806140b790615c15565b9050613fae565b5060008414614102576040517f08c379a00000000000000000000000000000000000000000000000000000000081526004016140f990615653565b60405180910390fd5b8091505092915050565b600080823b905060008111915050919050565b600073ffffffffffffffffffffffffffffffffffffffff168273ffffffffffffffffffffffffffffffffffffffff16141561418f576040517f08c379a0000000000000000000000000000000000000000000000000000000008152600401614186906157d3565b60405180910390fd5b61419881612d6d565b156141d8576040517f08c379a00000000000000000000000000000000000000000000000000000000081526004016141cf90615693565b60405180910390fd5b6141e460008383613666565b6001600560008473ffffffffffffffffffffffffffffffffffffffff1673ffffffffffffffffffffffffffffffffffffffff16815260200190815260200160002060008282546142349190615a2c565b92505081905550816004600083815260200190815260200160002060006101000a81548173ffffffffffffffffffffffffffffffffffffffff021916908373ffffffffffffffffffffffffffffffffffffffff160217905550808273ffffffffffffffffffffffffffffffffffffffff16600073ffffffffffffffffffffffffffffffffffffffff167fddf252ad1be2c89b69c2b068fc378daa952ba7f163c4a11628f55a4df523b3ef60405160405180910390a45050565b60007f01ffc9a7000000000000000000000000000000000000000000000000000000007bffffffffffffffffffffffffffffffffffffffffffffffffffffffff1916827bffffffffffffffffffffffffffffffffffffffffffffffffffffffff1916149050919050565b82805461436390615c3f565b90600052602060002090601f01602090048101928261438557600085556143cc565b82601f1061439e57805160ff19168380011785556143cc565b828001600101855582156143cc579182015b828111156143cb5782518255916020019190600101906143b0565b5b5090506143d9919061441d565b5090565b5080546143e990615c3f565b6000825580601f106143fb575061441a565b601f016020900490600052602060002090810190614419919061441d565b5b50565b5b8082111561443657600081600090555060010161441e565b5090565b600061444d6144488461593f565b61590e565b90508281526020810184848401111561446557600080fd5b614470848285615bd3565b509392505050565b600061448b6144868461596f565b61590e565b9050828152602081018484840111156144a357600080fd5b6144ae848285615bd3565b509392505050565b6000813590506144c581615db8565b92915050565b6000813590506144da81615dcf565b92915050565b6000813590506144ef81615de6565b92915050565b60008135905061450481615dfd565b92915050565b60008151905061451981615dfd565b92915050565b600082601f83011261453057600080fd5b813561454084826020860161443a565b91505092915050565b600082601f83011261455a57600080fd5b813561456a848260208601614478565b91505092915050565b60008135905061458281615e14565b92915050565b60008135905061459781615e2b565b92915050565b6000602082840312156145af57600080fd5b60006145bd848285016144b6565b91505092915050565b600080604083850312156145d957600080fd5b60006145e7858286016144b6565b92505060206145f8858286016144b6565b9150509250929050565b60008060006060848603121561461757600080fd5b6000614625868287016144b6565b9350506020614636868287016144b6565b925050604061464786828701614573565b9150509250925092565b6000806000806080858703121561466757600080fd5b6000614675878288016144b6565b9450506020614686878288016144b6565b935050604061469787828801614573565b925050606085013567ffffffffffffffff8111156146b457600080fd5b6146c08782880161451f565b91505092959194509250565b600080604083850312156146df57600080fd5b60006146ed858286016144b6565b92505060206146fe858286016144cb565b9150509250929050565b6000806040838503121561471b57600080fd5b6000614729858286016144b6565b925050602061473a85828601614573565b9150509250929050565b60006020828403121561475657600080fd5b6000614764848285016144e0565b91505092915050565b6000806040838503121561478057600080fd5b600061478e858286016144e0565b925050602061479f858286016144b6565b9150509250929050565b600080604083850312156147bc57600080fd5b60006147ca858286016144e0565b92505060206147db85828601614573565b9150509250929050565b6000602082840312156147f757600080fd5b6000614805848285016144f5565b91505092915050565b60006020828403121561482057600080fd5b600061482e8482850161450a565b91505092915050565b60006020828403121561484957600080fd5b600082013567ffffffffffffffff81111561486357600080fd5b61486f84828501614549565b91505092915050565b60006020828403121561488a57600080fd5b600061489884828501614573565b91505092915050565b600080604083850312156148b457600080fd5b60006148c285828601614573565b925050602083013567ffffffffffffffff8111156148df57600080fd5b6148eb85828601614549565b9150509250929050565b6000806040838503121561490857600080fd5b600061491685828601614573565b925050602061492785828601614588565b9150509250929050565b600061493d8383615367565b905092915050565b61494e81615b41565b82525050565b61495d81615b41565b82525050565b600061496e826159af565b61497881856159dd565b93508360208202850161498a8561599f565b8060005b858110156149c657848403895281516149a78582614931565b94506149b2836159d0565b925060208a0199505060018101905061498e565b50829750879550505050505092915050565b6149e181615b53565b82525050565b6149f081615b53565b82525050565b6149ff81615b5f565b82525050565b6000614a10826159ba565b614a1a81856159ee565b9350614a2a818560208601615be2565b614a3381615da7565b840191505092915050565b6000614a49826159c5565b614a5381856159ff565b9350614a63818560208601615be2565b614a6c81615da7565b840191505092915050565b6000614a82826159c5565b614a8c8185615a10565b9350614a9c818560208601615be2565b614aa581615da7565b840191505092915050565b6000614abb826159c5565b614ac58185615a21565b9350614ad5818560208601615be2565b80840191505092915050565b6000614aee602283615a10565b91507f456e756d657261626c655365743a20696e646578206f7574206f6620626f756e60008301527f64730000000000000000000000000000000000000000000000000000000000006020830152604082019050919050565b6000614b54602083615a10565b91507f537472696e67733a20686578206c656e67746820696e73756666696369656e746000830152602082019050919050565b6000614b94603283615a10565b91507f4552433732313a207472616e7366657220746f206e6f6e20455243373231526560008301527f63656976657220696d706c656d656e74657200000000000000000000000000006020830152604082019050919050565b6000614bfa601c83615a10565b91507f4552433732313a20746f6b656e20616c7265616479206d696e746564000000006000830152602082019050919050565b6000614c3a602183615a10565b91507f4f776e65722063616e6e6f742065786563757465206275792066756e6374696f60008301527f6e000000000000000000000000000000000000000000000000000000000000006020830152604082019050919050565b6000614ca0602483615a10565b91507f4552433732313a207472616e7366657220746f20746865207a65726f2061646460008301527f72657373000000000000000000000000000000000000000000000000000000006020830152604082019050919050565b6000614d06601983615a10565b91507f4552433732313a20617070726f766520746f2063616c6c6572000000000000006000830152602082019050919050565b6000614d46602c83615a10565b91507f4552433732313a206f70657261746f7220717565727920666f72206e6f6e657860008301527f697374656e7420746f6b656e00000000000000000000000000000000000000006020830152604082019050919050565b6000614dac601c83615a10565b91507f43616c6c6572206973206e6f74206f776e6572206f6620546f6b656e000000006000830152602082019050919050565b6000614dec603883615a10565b91507f4552433732313a20617070726f76652063616c6c6572206973206e6f74206f7760008301527f6e6572206e6f7220617070726f76656420666f7220616c6c00000000000000006020830152604082019050919050565b6000614e52602a83615a10565b91507f4552433732313a2062616c616e636520717565727920666f7220746865207a6560008301527f726f2061646472657373000000000000000000000000000000000000000000006020830152604082019050919050565b6000614eb8602983615a10565b91507f4552433732313a206f776e657220717565727920666f72206e6f6e657869737460008301527f656e7420746f6b656e00000000000000000000000000000000000000000000006020830152604082019050919050565b6000614f1e602e83615a10565b91507f45524337323155524953746f726167653a2055524920736574206f66206e6f6e60008301527f6578697374656e7420746f6b656e0000000000000000000000000000000000006020830152604082019050919050565b6000614f84602083615a10565b91507f4552433732313a206d696e7420746f20746865207a65726f20616464726573736000830152602082019050919050565b6000614fc4603183615a10565b91507f45524337323155524953746f726167653a2055524920717565727920666f722060008301527f6e6f6e6578697374656e7420746f6b656e0000000000000000000000000000006020830152604082019050919050565b600061502a602c83615a10565b91507f4552433732313a20617070726f76656420717565727920666f72206e6f6e657860008301527f697374656e7420746f6b656e00000000000000000000000000000000000000006020830152604082019050919050565b6000615090602983615a10565b91507f4552433732313a207472616e73666572206f6620746f6b656e2074686174206960008301527f73206e6f74206f776e00000000000000000000000000000000000000000000006020830152604082019050919050565b60006150f6602f83615a10565b91507f4552433732314d657461646174613a2055524920717565727920666f72206e6f60008301527f6e6578697374656e7420746f6b656e00000000000000000000000000000000006020830152604082019050919050565b600061515c602e83615a10565b91507f4552433732313a206d75737420686176652061646d696e20726f6c6520746f2060008301527f73657420546f6b656e20555249730000000000000000000000000000000000006020830152604082019050919050565b60006151c2602183615a10565b91507f4552433732313a20617070726f76616c20746f2063757272656e74206f776e6560008301527f72000000000000000000000000000000000000000000000000000000000000006020830152604082019050919050565b6000615228603183615a10565b91507f4552433732313a207472616e736665722063616c6c6572206973206e6f74206f60008301527f776e6572206e6f7220617070726f7665640000000000000000000000000000006020830152604082019050919050565b600061528e601783615a21565b91507f416363657373436f6e74726f6c3a206163636f756e74200000000000000000006000830152601782019050919050565b60006152ce601183615a21565b91507f206973206d697373696e6720726f6c65200000000000000000000000000000006000830152601182019050919050565b600061530e602f83615a10565b91507f416363657373436f6e74726f6c3a2063616e206f6e6c792072656e6f756e636560008301527f20726f6c657320666f722073656c6600000000000000000000000000000000006020830152604082019050919050565b600060e08301600083015184820360008601526153848282614a3e565b9150506020830151615399602086018261540a565b5060408301516153ac6040860182614945565b5060608301516153bf6060860182614945565b5060808301516153d26080860182615428565b5060a08301516153e560a08601826149d8565b5060c083015184820360c08601526153fd8282614a3e565b9150508091505092915050565b61541381615bb5565b82525050565b61542281615bb5565b82525050565b61543181615bbf565b82525050565b61544081615bbf565b82525050565b60006154528285614ab0565b915061545e8284614ab0565b91508190509392505050565b60006154768286614ab0565b91506154828285614ab0565b915061548e8284614ab0565b9150819050949350505050565b60006154a682615281565b91506154b28285614ab0565b91506154bd826152c1565b91506154c98284614ab0565b91508190509392505050565b60006020820190506154ea6000830184614954565b92915050565b60006080820190506155056000830187614954565b6155126020830186614954565b61551f6040830185615419565b81810360608301526155318184614a05565b905095945050505050565b600060208201905081810360008301526155568184614963565b905092915050565b600060208201905061557360008301846149e7565b92915050565b600060208201905061558e60008301846149f6565b92915050565b600060208201905081810360008301526155ae8184614a77565b905092915050565b600060e08201905081810360008301526155d0818a614a77565b90506155df6020830189615419565b6155ec6040830188614954565b6155f96060830187614954565b6156066080830186615437565b61561360a08301856149e7565b81810360c08301526156258184614a77565b905098975050505050505050565b6000602082019050818103600083015261564c81614ae1565b9050919050565b6000602082019050818103600083015261566c81614b47565b9050919050565b6000602082019050818103600083015261568c81614b87565b9050919050565b600060208201905081810360008301526156ac81614bed565b9050919050565b600060208201905081810360008301526156cc81614c2d565b9050919050565b600060208201905081810360008301526156ec81614c93565b9050919050565b6000602082019050818103600083015261570c81614cf9565b9050919050565b6000602082019050818103600083015261572c81614d39565b9050919050565b6000602082019050818103600083015261574c81614d9f565b9050919050565b6000602082019050818103600083015261576c81614ddf565b9050919050565b6000602082019050818103600083015261578c81614e45565b9050919050565b600060208201905081810360008301526157ac81614eab565b9050919050565b600060208201905081810360008301526157cc81614f11565b9050919050565b600060208201905081810360008301526157ec81614f77565b9050919050565b6000602082019050818103600083015261580c81614fb7565b9050919050565b6000602082019050818103600083015261582c8161501d565b9050919050565b6000602082019050818103600083015261584c81615083565b9050919050565b6000602082019050818103600083015261586c816150e9565b9050919050565b6000602082019050818103600083015261588c8161514f565b9050919050565b600060208201905081810360008301526158ac816151b5565b9050919050565b600060208201905081810360008301526158cc8161521b565b9050919050565b600060208201905081810360008301526158ec81615301565b9050919050565b60006020820190506159086000830184615419565b92915050565b6000604051905081810181811067ffffffffffffffff8211171561593557615934615d78565b5b8060405250919050565b600067ffffffffffffffff82111561595a57615959615d78565b5b601f19601f8301169050602081019050919050565b600067ffffffffffffffff82111561598a57615989615d78565b5b601f19601f8301169050602081019050919050565b6000819050602082019050919050565b600081519050919050565b600081519050919050565b600081519050919050565b6000602082019050919050565b600082825260208201905092915050565b600082825260208201905092915050565b600082825260208201905092915050565b600082825260208201905092915050565b600081905092915050565b6000615a3782615bb5565b9150615a4283615bb5565b9250827fffffffffffffffffffffffffffffffffffffffffffffffffffffffffffffffff03821115615a7757615a76615ceb565b5b828201905092915050565b6000615a8d82615bb5565b9150615a9883615bb5565b925082615aa857615aa7615d1a565b5b828204905092915050565b6000615abe82615bb5565b9150615ac983615bb5565b9250817fffffffffffffffffffffffffffffffffffffffffffffffffffffffffffffffff0483118215151615615b0257615b01615ceb565b5b828202905092915050565b6000615b1882615bb5565b9150615b2383615bb5565b925082821015615b3657615b35615ceb565b5b828203905092915050565b6000615b4c82615b95565b9050919050565b60008115159050919050565b6000819050919050565b60007fffffffff0000000000000000000000000000000000000000000000000000000082169050919050565b600073ffffffffffffffffffffffffffffffffffffffff82169050919050565b6000819050919050565b600067ffffffffffffffff82169050919050565b82818337600083830152505050565b60005b83811015615c00578082015181840152602081019050615be5565b83811115615c0f576000848401525b50505050565b6000615c2082615bb5565b91506000821415615c3457615c33615ceb565b5b600182039050919050565b60006002820490506001821680615c5757607f821691505b60208210811415615c6b57615c6a615d49565b5b50919050565b6000615c7c82615bb5565b91507fffffffffffffffffffffffffffffffffffffffffffffffffffffffffffffffff821415615caf57615cae615ceb565b5b600182019050919050565b6000615cc582615bb5565b9150615cd083615bb5565b925082615ce057615cdf615d1a565b5b828206905092915050565b7f4e487b7100000000000000000000000000000000000000000000000000000000600052601160045260246000fd5b7f4e487b7100000000000000000000000000000000000000000000000000000000600052601260045260246000fd5b7f4e487b7100000000000000000000000000000000000000000000000000000000600052602260045260246000fd5b7f4e487b7100000000000000000000000000000000000000000000000000000000600052604160045260246000fd5b6000601f19601f8301169050919050565b615dc181615b41565b8114615dcc57600080fd5b50565b615dd881615b53565b8114615de357600080fd5b50565b615def81615b5f565b8114615dfa57600080fd5b50565b615e0681615b69565b8114615e1157600080fd5b50565b615e1d81615bb5565b8114615e2857600080fd5b50565b615e3481615bbf565b8114615e3f57600080fd5b5056fea2646970667358221220850957cb2a9227737dc0ad9ce1688938f651bad6a9f473007ccfb67efe25efad64736f6c63430008000033",
  "immutableReferences": {},
  "source": "// SPDX-License-Identifier: MIT\npragma solidity ^0.8.0;\n\n// import \"@openzeppelin/contracts/token/ERC721/extensions/ERC721Enumerable.sol\";\nimport \"@openzeppelin/contracts/access/AccessControlEnumerable.sol\";\nimport \"@openzeppelin/contracts/token/ERC721/extensions/ERC721URIStorage.sol\";\nimport \"@openzeppelin/contracts/utils/Counters.sol\";\nimport \"@openzeppelin/contracts/utils/Strings.sol\";\n\ncontract CloseSeaNFT is AccessControlEnumerable, ERC721URIStorage{\nusing Counters for Counters.Counter;\nCounters.Counter private tokenId;\n\nbytes32 public constant MINTER_ROLE = keccak256(\"MINTER_ROLE\");\nstring private _internalBaseURI = \"http://localhost:8000/\";\n\nconstructor() ERC721('BitEth NFT','BTE') {\n    _setupRole(DEFAULT_ADMIN_ROLE, msg.sender);\n}\n\nstruct Item{\n    string itemName;\n    uint id;\n    address owner;\n    address creator;\n    uint64 price;\n    bool forSale;\n    string tokenURI;\n}\n\nItem [] public items;\nmapping (uint => address) private _tokenApprovals;\nmapping (uint => address) itemToOwner;\n\nmodifier onlyOwnerOf (uint _tokenId) {\n    require ((ownerOf(_tokenId) == msg.sender), \"Caller is not owner of Token\");\n    _;\n}\n\nfunction supportsInterface(bytes4 interfaceId) public view virtual override(ERC721, AccessControlEnumerable) returns (bool) {\n        return super.supportsInterface(interfaceId);\n    }\n\nfunction mint(string memory _itemName) external{\n    uint currentId = tokenId.current();\n    string memory idString = Strings.toString(currentId);\n    string memory baseURI = _internalBaseURI;\n    string memory metadata = \"/metadata.json\";\n    string memory url = string(abi.encodePacked(baseURI, idString, metadata));\n\n    Item memory _item = Item({\n        itemName: _itemName,\n        id: currentId,\n        owner: msg.sender,\n        creator: msg.sender,\n        price: 0,\n        forSale: false,\n        tokenURI: url\n    });\n    items.push(_item);\n    _safeMint(msg.sender, currentId);\n    _setTokenURI(currentId, url);\n    itemToOwner[currentId] = msg.sender;\n    tokenId.increment();\n}\n\nfunction tokenOnSale (uint _tokenId, uint64 price) external onlyOwnerOf(_tokenId){\n    Item storage _item = items[_tokenId];\n    require(_item.forSale == false);\n    _item.price = price;\n    _item.forSale = true;\n    // approve(address(this), _tokenId);\n    // safeTransferFrom(ownerOf(_tokenId), address(this), _tokenId);\n}\n\nfunction notForSale (uint _tokenId) external onlyOwnerOf(_tokenId){\n    Item storage _item = items[_tokenId];\n    require(_item.forSale == true);\n    _item.price = 0;\n    _item.forSale = false;\n}\n\nfunction approvalTo (address _to, uint _tokenId) external onlyOwnerOf(_tokenId){\n    require(_tokenApprovals[_tokenId] != _to);\n    Item storage _item = items[_tokenId];\n    require(_item.forSale == true);\n    require(_item.price > 0);\n    approve(_to,_tokenId);\n    _tokenApprovals[_tokenId] = _to;\n}\n\nfunction cancelApproval (uint _tokenId) external onlyOwnerOf(_tokenId){\n    _tokenApprovals[_tokenId] = address(0);\n}\n\nfunction buyingWithApproval (uint _tokenId) external payable {\n    require (ownerOf(_tokenId) != msg.sender, \"Owner cannot execute buy function\");\n    require (_tokenApprovals[_tokenId] == msg.sender);\n    Item storage _item = items[_tokenId];\n    require(_item.forSale == true);\n    address _from = ownerOf(_tokenId);\n    safeTransferFrom(_from, msg.sender, _tokenId);\n    itemToOwner[_tokenId] = msg.sender;\n    _item.owner = msg.sender;\n    _item.price = 0;\n    _item.forSale = false;\n    _tokenApprovals[_tokenId] = address(0);\n}\n\nfunction buyingWithoutApproval (uint _tokenId) external payable {\n    require (ownerOf(_tokenId) != msg.sender);\n    Item storage _item = items[_tokenId];\n    require(_item.forSale == true);\n    address _from = ownerOf(_tokenId);\n    _transfer(_from, msg.sender, _tokenId);\n    itemToOwner[_tokenId] = msg.sender;\n    _item.owner = msg.sender;\n    _item.price = 0;\n    _item.forSale = false;\n}\n\nfunction burnToken (uint _tokenId) external onlyOwnerOf(_tokenId) {\n    Item storage _item = items[_tokenId];\n    require(_item.creator == msg.sender);\n    _burn(_tokenId);\n    delete items[_tokenId];\n    delete itemToOwner[_tokenId];\n}\n\nfunction getAllItems () external view returns(Item[] memory){\n    return items;\n}\n\nfunction getURI (uint _tokenId) external view returns (string memory){\n    return tokenURI(_tokenId);\n}\n\nfunction getOwner (uint _tokenId) external view returns (address){\n    return itemToOwner[_tokenId];\n}\n\nfunction isApproved (uint _tokenId) external view returns (address){\n    return _tokenApprovals[_tokenId];\n}\n\nfunction getToken(uint _tokenId) external view returns (string memory name, uint id, address owner, address creator, uint64 price, bool forSale, string memory tokenURI){\n    Item storage _item = items[_tokenId];\n    name = _item.itemName;\n    id = _item.id;\n    owner = ownerOf(_tokenId);\n    creator = _item.creator;\n    price = _item.price;\n    forSale = _item.forSale;\n    tokenURI = _item.tokenURI;\n}\n\nfunction setTokenURI(uint256 _tokenId, string memory _tokenURI) public {\n        require(\n            hasRole(DEFAULT_ADMIN_ROLE, msg.sender),\n            \"ERC721: must have admin role to set Token URIs\"\n        );\n        super._setTokenURI(_tokenId, _tokenURI);\n        Item storage _item = items[_tokenId];\n        _item.tokenURI = _tokenURI;\n    }\n}",
  "sourcePath": "/Users/Oscar/crypto_coin/src/contracts/CloseSeaNFT.sol",
  "compiler": {
    "name": "solc",
    "version": "0.8.0+commit.c7dfd78e.Emscripten.clang"
  },
  "schemaVersion": "3.3.4",
  "updatedAt": "2021-05-03T06:16:33.420Z",
  "networkType": "ethereum",
  "devdoc": {
    "kind": "dev",
    "methods": {
      "approve(address,uint256)": {
        "details": "See {IERC721-approve}."
      },
      "balanceOf(address)": {
        "details": "See {IERC721-balanceOf}."
      },
      "getApproved(uint256)": {
        "details": "See {IERC721-getApproved}."
      },
      "getRoleAdmin(bytes32)": {
        "details": "Returns the admin role that controls `role`. See {grantRole} and {revokeRole}. To change a role's admin, use {_setRoleAdmin}."
      },
      "getRoleMember(bytes32,uint256)": {
        "details": "Returns one of the accounts that have `role`. `index` must be a value between 0 and {getRoleMemberCount}, non-inclusive. Role bearers are not sorted in any particular way, and their ordering may change at any point. WARNING: When using {getRoleMember} and {getRoleMemberCount}, make sure you perform all queries on the same block. See the following https://forum.openzeppelin.com/t/iterating-over-elements-on-enumerableset-in-openzeppelin-contracts/2296[forum post] for more information."
      },
      "getRoleMemberCount(bytes32)": {
        "details": "Returns the number of accounts that have `role`. Can be used together with {getRoleMember} to enumerate all bearers of a role."
      },
      "grantRole(bytes32,address)": {
        "details": "Overload {grantRole} to track enumerable memberships"
      },
      "hasRole(bytes32,address)": {
        "details": "Returns `true` if `account` has been granted `role`."
      },
      "isApprovedForAll(address,address)": {
        "details": "See {IERC721-isApprovedForAll}."
      },
      "name()": {
        "details": "See {IERC721Metadata-name}."
      },
      "ownerOf(uint256)": {
        "details": "See {IERC721-ownerOf}."
      },
      "renounceRole(bytes32,address)": {
        "details": "Overload {renounceRole} to track enumerable memberships"
      },
      "revokeRole(bytes32,address)": {
        "details": "Overload {revokeRole} to track enumerable memberships"
      },
      "safeTransferFrom(address,address,uint256)": {
        "details": "See {IERC721-safeTransferFrom}."
      },
      "safeTransferFrom(address,address,uint256,bytes)": {
        "details": "See {IERC721-safeTransferFrom}."
      },
      "setApprovalForAll(address,bool)": {
        "details": "See {IERC721-setApprovalForAll}."
      },
      "symbol()": {
        "details": "See {IERC721Metadata-symbol}."
      },
      "tokenURI(uint256)": {
        "details": "See {IERC721Metadata-tokenURI}."
      },
      "transferFrom(address,address,uint256)": {
        "details": "See {IERC721-transferFrom}."
      }
    },
    "version": 1
  },
  "userdoc": {
    "kind": "user",
    "methods": {},
    "version": 1
  }
}