{
  "contractName": "CloseSeaNFT",
  "abi": [
    {
      "inputs": [],
      "stateMutability": "nonpayable",
      "type": "constructor"
    },
    {
      "anonymous": false,
      "inputs": [
        {
          "indexed": true,
          "internalType": "address",
          "name": "owner",
          "type": "address"
        },
        {
          "indexed": true,
          "internalType": "address",
          "name": "approved",
          "type": "address"
        },
        {
          "indexed": true,
          "internalType": "uint256",
          "name": "tokenId",
          "type": "uint256"
        }
      ],
      "name": "Approval",
      "type": "event"
    },
    {
      "anonymous": false,
      "inputs": [
        {
          "indexed": true,
          "internalType": "address",
          "name": "owner",
          "type": "address"
        },
        {
          "indexed": true,
          "internalType": "address",
          "name": "operator",
          "type": "address"
        },
        {
          "indexed": false,
          "internalType": "bool",
          "name": "approved",
          "type": "bool"
        }
      ],
      "name": "ApprovalForAll",
      "type": "event"
    },
    {
      "anonymous": false,
      "inputs": [
        {
          "indexed": true,
          "internalType": "address",
          "name": "from",
          "type": "address"
        },
        {
          "indexed": true,
          "internalType": "address",
          "name": "to",
          "type": "address"
        },
        {
          "indexed": true,
          "internalType": "uint256",
          "name": "tokenId",
          "type": "uint256"
        }
      ],
      "name": "Transfer",
      "type": "event"
    },
    {
      "inputs": [
        {
          "internalType": "address",
          "name": "to",
          "type": "address"
        },
        {
          "internalType": "uint256",
          "name": "tokenId",
          "type": "uint256"
        }
      ],
      "name": "approve",
      "outputs": [],
      "stateMutability": "nonpayable",
      "type": "function"
    },
    {
      "inputs": [
        {
          "internalType": "address",
          "name": "owner",
          "type": "address"
        }
      ],
      "name": "balanceOf",
      "outputs": [
        {
          "internalType": "uint256",
          "name": "",
          "type": "uint256"
        }
      ],
      "stateMutability": "view",
      "type": "function",
      "constant": true
    },
    {
      "inputs": [
        {
          "internalType": "uint256",
          "name": "tokenId",
          "type": "uint256"
        }
      ],
      "name": "getApproved",
      "outputs": [
        {
          "internalType": "address",
          "name": "",
          "type": "address"
        }
      ],
      "stateMutability": "view",
      "type": "function",
      "constant": true
    },
    {
      "inputs": [
        {
          "internalType": "address",
          "name": "owner",
          "type": "address"
        },
        {
          "internalType": "address",
          "name": "operator",
          "type": "address"
        }
      ],
      "name": "isApprovedForAll",
      "outputs": [
        {
          "internalType": "bool",
          "name": "",
          "type": "bool"
        }
      ],
      "stateMutability": "view",
      "type": "function",
      "constant": true
    },
    {
      "inputs": [
        {
          "internalType": "uint256",
          "name": "",
          "type": "uint256"
        }
      ],
      "name": "items",
      "outputs": [
        {
          "internalType": "string",
          "name": "itemName",
          "type": "string"
        },
        {
          "internalType": "uint256",
          "name": "id",
          "type": "uint256"
        },
        {
          "internalType": "address",
          "name": "owner",
          "type": "address"
        },
        {
          "internalType": "address",
          "name": "creator",
          "type": "address"
        },
        {
          "internalType": "uint64",
          "name": "price",
          "type": "uint64"
        },
        {
          "internalType": "bool",
          "name": "forSale",
          "type": "bool"
        },
        {
          "internalType": "string",
          "name": "tokenURI",
          "type": "string"
        }
      ],
      "stateMutability": "view",
      "type": "function",
      "constant": true
    },
    {
      "inputs": [],
      "name": "name",
      "outputs": [
        {
          "internalType": "string",
          "name": "",
          "type": "string"
        }
      ],
      "stateMutability": "view",
      "type": "function",
      "constant": true
    },
    {
      "inputs": [
        {
          "internalType": "uint256",
          "name": "tokenId",
          "type": "uint256"
        }
      ],
      "name": "ownerOf",
      "outputs": [
        {
          "internalType": "address",
          "name": "",
          "type": "address"
        }
      ],
      "stateMutability": "view",
      "type": "function",
      "constant": true
    },
    {
      "inputs": [
        {
          "internalType": "address",
          "name": "from",
          "type": "address"
        },
        {
          "internalType": "address",
          "name": "to",
          "type": "address"
        },
        {
          "internalType": "uint256",
          "name": "tokenId",
          "type": "uint256"
        }
      ],
      "name": "safeTransferFrom",
      "outputs": [],
      "stateMutability": "nonpayable",
      "type": "function"
    },
    {
      "inputs": [
        {
          "internalType": "address",
          "name": "from",
          "type": "address"
        },
        {
          "internalType": "address",
          "name": "to",
          "type": "address"
        },
        {
          "internalType": "uint256",
          "name": "tokenId",
          "type": "uint256"
        },
        {
          "internalType": "bytes",
          "name": "_data",
          "type": "bytes"
        }
      ],
      "name": "safeTransferFrom",
      "outputs": [],
      "stateMutability": "nonpayable",
      "type": "function"
    },
    {
      "inputs": [
        {
          "internalType": "address",
          "name": "operator",
          "type": "address"
        },
        {
          "internalType": "bool",
          "name": "approved",
          "type": "bool"
        }
      ],
      "name": "setApprovalForAll",
      "outputs": [],
      "stateMutability": "nonpayable",
      "type": "function"
    },
    {
      "inputs": [
        {
          "internalType": "bytes4",
          "name": "interfaceId",
          "type": "bytes4"
        }
      ],
      "name": "supportsInterface",
      "outputs": [
        {
          "internalType": "bool",
          "name": "",
          "type": "bool"
        }
      ],
      "stateMutability": "view",
      "type": "function",
      "constant": true
    },
    {
      "inputs": [],
      "name": "symbol",
      "outputs": [
        {
          "internalType": "string",
          "name": "",
          "type": "string"
        }
      ],
      "stateMutability": "view",
      "type": "function",
      "constant": true
    },
    {
      "inputs": [
        {
          "internalType": "uint256",
          "name": "tokenId",
          "type": "uint256"
        }
      ],
      "name": "tokenURI",
      "outputs": [
        {
          "internalType": "string",
          "name": "",
          "type": "string"
        }
      ],
      "stateMutability": "view",
      "type": "function",
      "constant": true
    },
    {
      "inputs": [
        {
          "internalType": "address",
          "name": "from",
          "type": "address"
        },
        {
          "internalType": "address",
          "name": "to",
          "type": "address"
        },
        {
          "internalType": "uint256",
          "name": "tokenId",
          "type": "uint256"
        }
      ],
      "name": "transferFrom",
      "outputs": [],
      "stateMutability": "nonpayable",
      "type": "function"
    },
    {
      "inputs": [
        {
          "internalType": "string",
          "name": "_itemName",
          "type": "string"
        }
      ],
      "name": "mint",
      "outputs": [],
      "stateMutability": "nonpayable",
      "type": "function"
    },
    {
      "inputs": [
        {
          "internalType": "uint256",
          "name": "_tokenId",
          "type": "uint256"
        },
        {
          "internalType": "uint64",
          "name": "price",
          "type": "uint64"
        }
      ],
      "name": "tokenOnSale",
      "outputs": [],
      "stateMutability": "nonpayable",
      "type": "function"
    },
    {
      "inputs": [
        {
          "internalType": "uint256",
          "name": "_tokenId",
          "type": "uint256"
        }
      ],
      "name": "notForSale",
      "outputs": [],
      "stateMutability": "nonpayable",
      "type": "function"
    },
    {
      "inputs": [
        {
          "internalType": "address",
          "name": "_to",
          "type": "address"
        },
        {
          "internalType": "uint256",
          "name": "_tokenId",
          "type": "uint256"
        }
      ],
      "name": "approvalTo",
      "outputs": [],
      "stateMutability": "nonpayable",
      "type": "function"
    },
    {
      "inputs": [
        {
          "internalType": "uint256",
          "name": "_tokenId",
          "type": "uint256"
        }
      ],
      "name": "cancelApproval",
      "outputs": [],
      "stateMutability": "nonpayable",
      "type": "function"
    },
    {
      "inputs": [
        {
          "internalType": "uint256",
          "name": "_tokenId",
          "type": "uint256"
        }
      ],
      "name": "buyingWithApproval",
      "outputs": [],
      "stateMutability": "payable",
      "type": "function",
      "payable": true
    },
    {
      "inputs": [
        {
          "internalType": "uint256",
          "name": "_tokenId",
          "type": "uint256"
        }
      ],
      "name": "buyingWithoutApproval",
      "outputs": [],
      "stateMutability": "payable",
      "type": "function",
      "payable": true
    },
    {
      "inputs": [
        {
          "internalType": "uint256",
          "name": "_tokenId",
          "type": "uint256"
        }
      ],
      "name": "burnToken",
      "outputs": [],
      "stateMutability": "nonpayable",
      "type": "function"
    },
    {
      "inputs": [],
      "name": "getAllItems",
      "outputs": [
        {
          "components": [
            {
              "internalType": "string",
              "name": "itemName",
              "type": "string"
            },
            {
              "internalType": "uint256",
              "name": "id",
              "type": "uint256"
            },
            {
              "internalType": "address",
              "name": "owner",
              "type": "address"
            },
            {
              "internalType": "address",
              "name": "creator",
              "type": "address"
            },
            {
              "internalType": "uint64",
              "name": "price",
              "type": "uint64"
            },
            {
              "internalType": "bool",
              "name": "forSale",
              "type": "bool"
            },
            {
              "internalType": "string",
              "name": "tokenURI",
              "type": "string"
            }
          ],
          "internalType": "struct CloseSeaNFT.Item[]",
          "name": "",
          "type": "tuple[]"
        }
      ],
      "stateMutability": "view",
      "type": "function",
      "constant": true
    },
    {
      "inputs": [
        {
          "internalType": "uint256",
          "name": "_tokenId",
          "type": "uint256"
        }
      ],
      "name": "getURI",
      "outputs": [
        {
          "internalType": "string",
          "name": "",
          "type": "string"
        }
      ],
      "stateMutability": "view",
      "type": "function",
      "constant": true
    },
    {
      "inputs": [
        {
          "internalType": "uint256",
          "name": "_tokenId",
          "type": "uint256"
        }
      ],
      "name": "getOwner",
      "outputs": [
        {
          "internalType": "address",
          "name": "",
          "type": "address"
        }
      ],
      "stateMutability": "view",
      "type": "function",
      "constant": true
    },
    {
      "inputs": [
        {
          "internalType": "uint256",
          "name": "_tokenId",
          "type": "uint256"
        }
      ],
      "name": "getOwnertwo",
      "outputs": [
        {
          "internalType": "address",
          "name": "",
          "type": "address"
        }
      ],
      "stateMutability": "view",
      "type": "function",
      "constant": true
    },
    {
      "inputs": [
        {
          "internalType": "uint256",
          "name": "_tokenId",
          "type": "uint256"
        }
      ],
      "name": "isApproved",
      "outputs": [
        {
          "internalType": "address",
          "name": "",
          "type": "address"
        }
      ],
      "stateMutability": "view",
      "type": "function",
      "constant": true
    },
    {
      "inputs": [
        {
          "internalType": "uint256",
          "name": "_tokenId",
          "type": "uint256"
        }
      ],
      "name": "getToken",
      "outputs": [
        {
          "internalType": "string",
          "name": "name",
          "type": "string"
        },
        {
          "internalType": "uint256",
          "name": "id",
          "type": "uint256"
        },
        {
          "internalType": "address",
          "name": "owner",
          "type": "address"
        },
        {
          "internalType": "address",
          "name": "creator",
          "type": "address"
        },
        {
          "internalType": "uint64",
          "name": "price",
          "type": "uint64"
        },
        {
          "internalType": "bool",
          "name": "forSale",
          "type": "bool"
        },
        {
          "internalType": "string",
          "name": "tokenURI",
          "type": "string"
        }
      ],
      "stateMutability": "view",
      "type": "function",
      "constant": true
    }
  ],
  "bytecode": "0x60806040523480156200001157600080fd5b506040518060400160405280600a81526020017f426974457468204e4654000000000000000000000000000000000000000000008152506040518060400160405280600381526020017f4254450000000000000000000000000000000000000000000000000000000000815250816000908051906020019062000096929190620000b8565b508060019080519060200190620000af929190620000b8565b505050620001cd565b828054620000c69062000168565b90600052602060002090601f016020900481019282620000ea576000855562000136565b82601f106200010557805160ff191683800117855562000136565b8280016001018555821562000136579182015b828111156200013557825182559160200191906001019062000118565b5b50905062000145919062000149565b5090565b5b80821115620001645760008160009055506001016200014a565b5090565b600060028204905060018216806200018157607f821691505b602082108114156200019857620001976200019e565b5b50919050565b7f4e487b7100000000000000000000000000000000000000000000000000000000600052602260045260246000fd5b6149f480620001dd6000396000f3fe6080604052600436106101d4576000357c0100000000000000000000000000000000000000000000000000000000900480636d1111bd11610109578063bfb231d2116100a7578063d85d3d2711610081578063d85d3d271461066b578063e4b50cb814610694578063e985e9c5146106d7578063f63982de14610714576101d4565b8063bfb231d2146105ae578063c41a360a146105f1578063c87b56dd1461062e576101d4565b80637b47ec1a116100e35780637b47ec1a1461050857806395d89b4114610531578063a22cb4651461055c578063b88d4fde14610585576101d4565b80636d1111bd1461047257806370a082311461048e5780637910867b146104cb576101d4565b80633cb527bd116101765780634ba1d6aa116101505780634ba1d6aa146103a45780635449fe03146103cf5780636352211e146103f8578063644d41f414610435576101d4565b80633cb527bd146103295780633e7d2f351461035257806342842e0e1461037b576101d4565b8063081812fc116101b2578063081812fc1461025d578063095ea7b31461029a5780631aa347dc146102c357806323b872dd14610300576101d4565b806301ffc9a7146101d957806305fb504b1461021657806306fdde0314610232575b600080fd5b3480156101e557600080fd5b5061020060048036038101906101fb9190613790565b61073d565b60405161020d919061423a565b60405180910390f35b610230600480360381019061022b9190613823565b61081f565b005b34801561023e57600080fd5b506102476109c9565b6040516102549190614255565b60405180910390f35b34801561026957600080fd5b50610284600480360381019061027f9190613823565b610a5b565b60405161029191906141b1565b60405180910390f35b3480156102a657600080fd5b506102c160048036038101906102bc9190613754565b610ae0565b005b3480156102cf57600080fd5b506102ea60048036038101906102e59190613823565b610bf8565b6040516102f79190614255565b60405180910390f35b34801561030c57600080fd5b506103276004803603810190610322919061364e565b610c0a565b005b34801561033557600080fd5b50610350600480360381019061034b919061384c565b610c6a565b005b34801561035e57600080fd5b5061037960048036038101906103749190613823565b610d67565b005b34801561038757600080fd5b506103a2600480360381019061039d919061364e565b610e64565b005b3480156103b057600080fd5b506103b9610e84565b6040516103c69190614218565b60405180910390f35b3480156103db57600080fd5b506103f660048036038101906103f19190613823565b61110a565b005b34801561040457600080fd5b5061041f600480360381019061041a9190613823565b6111a2565b60405161042c91906141b1565b60405180910390f35b34801561044157600080fd5b5061045c60048036038101906104579190613823565b611254565b60405161046991906141b1565b60405180910390f35b61048c60048036038101906104879190613823565b611346565b005b34801561049a57600080fd5b506104b560048036038101906104b091906135e9565b6115e4565b6040516104c29190614514565b60405180910390f35b3480156104d757600080fd5b506104f260048036038101906104ed9190613823565b61169c565b6040516104ff91906141b1565b60405180910390f35b34801561051457600080fd5b5061052f600480360381019061052a9190613823565b6116d9565b005b34801561053d57600080fd5b506105466118f6565b6040516105539190614255565b60405180910390f35b34801561056857600080fd5b50610583600480360381019061057e9190613718565b611988565b005b34801561059157600080fd5b506105ac60048036038101906105a7919061369d565b611b09565b005b3480156105ba57600080fd5b506105d560048036038101906105d09190613823565b611b6b565b6040516105e89796959493929190614277565b60405180910390f35b3480156105fd57600080fd5b5061061860048036038101906106139190613823565b611d2e565b60405161062591906141b1565b60405180910390f35b34801561063a57600080fd5b5061065560048036038101906106509190613823565b611d6b565b6040516106629190614255565b60405180910390f35b34801561067757600080fd5b50610692600480360381019061068d91906137e2565b611ebd565b005b3480156106a057600080fd5b506106bb60048036038101906106b69190613823565b6121ad565b6040516106ce9796959493929190614277565b60405180910390f35b3480156106e357600080fd5b506106fe60048036038101906106f99190613612565b612397565b60405161070b919061423a565b60405180910390f35b34801561072057600080fd5b5061073b60048036038101906107369190613754565b61242b565b005b60007f80ac58cd000000000000000000000000000000000000000000000000000000007bffffffffffffffffffffffffffffffffffffffffffffffffffffffff1916827bffffffffffffffffffffffffffffffffffffffffffffffffffffffff1916148061080857507f5b5e139f000000000000000000000000000000000000000000000000000000007bffffffffffffffffffffffffffffffffffffffffffffffffffffffff1916827bffffffffffffffffffffffffffffffffffffffffffffffffffffffff1916145b806108185750610817826125d7565b5b9050919050565b3373ffffffffffffffffffffffffffffffffffffffff1661083f826111a2565b73ffffffffffffffffffffffffffffffffffffffff16141561086057600080fd5b60006008828154811061089c577f4e487b7100000000000000000000000000000000000000000000000000000000600052603260045260246000fd5b906000526020600020906005020190506001151581600301601c9054906101000a900460ff161515146108ce57600080fd5b60006108d9836111a2565b90506108e6813385612641565b33600a600085815260200190815260200160002060006101000a81548173ffffffffffffffffffffffffffffffffffffffff021916908373ffffffffffffffffffffffffffffffffffffffff160217905550338260020160006101000a81548173ffffffffffffffffffffffffffffffffffffffff021916908373ffffffffffffffffffffffffffffffffffffffff16021790555060008260030160146101000a81548167ffffffffffffffff021916908367ffffffffffffffff160217905550600082600301601c6101000a81548160ff021916908315150217905550505050565b6060600080546109d8906147d2565b80601f0160208091040260200160405190810160405280929190818152602001828054610a04906147d2565b8015610a515780601f10610a2657610100808354040283529160200191610a51565b820191906000526020600020905b815481529060010190602001808311610a3457829003601f168201915b5050505050905090565b6000610a668261289d565b610aa5576040517f08c379a0000000000000000000000000000000000000000000000000000000008152600401610a9c90614474565b60405180910390fd5b6004600083815260200190815260200160002060009054906101000a900473ffffffffffffffffffffffffffffffffffffffff169050919050565b6000610aeb826111a2565b90508073ffffffffffffffffffffffffffffffffffffffff168373ffffffffffffffffffffffffffffffffffffffff161415610b5c576040517f08c379a0000000000000000000000000000000000000000000000000000000008152600401610b53906144d4565b60405180910390fd5b8073ffffffffffffffffffffffffffffffffffffffff16610b7b612909565b73ffffffffffffffffffffffffffffffffffffffff161480610baa5750610ba981610ba4612909565b612397565b5b610be9576040517f08c379a0000000000000000000000000000000000000000000000000000000008152600401610be0906143b4565b60405180910390fd5b610bf38383612911565b505050565b6060610c0382611d6b565b9050919050565b610c1b610c15612909565b826129ca565b610c5a576040517f08c379a0000000000000000000000000000000000000000000000000000000008152600401610c51906144f4565b60405180910390fd5b610c65838383612641565b505050565b813373ffffffffffffffffffffffffffffffffffffffff16610c8b826111a2565b73ffffffffffffffffffffffffffffffffffffffff1614610cab57600080fd5b600060088481548110610ce7577f4e487b7100000000000000000000000000000000000000000000000000000000600052603260045260246000fd5b906000526020600020906005020190506000151581600301601c9054906101000a900460ff16151514610d1957600080fd5b828160030160146101000a81548167ffffffffffffffff021916908367ffffffffffffffff160217905550600181600301601c6101000a81548160ff02191690831515021790555050505050565b803373ffffffffffffffffffffffffffffffffffffffff16610d88826111a2565b73ffffffffffffffffffffffffffffffffffffffff1614610da857600080fd5b600060088381548110610de4577f4e487b7100000000000000000000000000000000000000000000000000000000600052603260045260246000fd5b906000526020600020906005020190506001151581600301601c9054906101000a900460ff16151514610e1657600080fd5b60008160030160146101000a81548167ffffffffffffffff021916908367ffffffffffffffff160217905550600081600301601c6101000a81548160ff021916908315150217905550505050565b610e7f83838360405180602001604052806000815250611b09565b505050565b60606008805480602002602001604051908101604052809291908181526020016000905b8282101561110157838290600052602060002090600502016040518060e0016040529081600082018054610edb906147d2565b80601f0160208091040260200160405190810160405280929190818152602001828054610f07906147d2565b8015610f545780601f10610f2957610100808354040283529160200191610f54565b820191906000526020600020905b815481529060010190602001808311610f3757829003601f168201915b50505050508152602001600182015481526020016002820160009054906101000a900473ffffffffffffffffffffffffffffffffffffffff1673ffffffffffffffffffffffffffffffffffffffff1673ffffffffffffffffffffffffffffffffffffffff1681526020016003820160009054906101000a900473ffffffffffffffffffffffffffffffffffffffff1673ffffffffffffffffffffffffffffffffffffffff1673ffffffffffffffffffffffffffffffffffffffff1681526020016003820160149054906101000a900467ffffffffffffffff1667ffffffffffffffff1667ffffffffffffffff16815260200160038201601c9054906101000a900460ff16151515158152602001600482018054611070906147d2565b80601f016020809104026020016040519081016040528092919081815260200182805461109c906147d2565b80156110e95780601f106110be576101008083540402835291602001916110e9565b820191906000526020600020905b8154815290600101906020018083116110cc57829003601f168201915b50505050508152505081526020019060010190610ea8565b50505050905090565b803373ffffffffffffffffffffffffffffffffffffffff1661112b826111a2565b73ffffffffffffffffffffffffffffffffffffffff161461114b57600080fd5b60006009600084815260200190815260200160002060006101000a81548173ffffffffffffffffffffffffffffffffffffffff021916908373ffffffffffffffffffffffffffffffffffffffff1602179055505050565b6000806002600084815260200190815260200160002060009054906101000a900473ffffffffffffffffffffffffffffffffffffffff169050600073ffffffffffffffffffffffffffffffffffffffff168173ffffffffffffffffffffffffffffffffffffffff16141561124b576040517f08c379a0000000000000000000000000000000000000000000000000000000008152600401611242906143f4565b60405180910390fd5b80915050919050565b60008060005b60088054905081101561133c5783600882815481106112a2577f4e487b7100000000000000000000000000000000000000000000000000000000600052603260045260246000fd5b906000526020600020906005020160010154141561132957600881815481106112f4577f4e487b7100000000000000000000000000000000000000000000000000000000600052603260045260246000fd5b906000526020600020906005020160020160009054906101000a900473ffffffffffffffffffffffffffffffffffffffff1691505b808061133490614804565b91505061125a565b5080915050919050565b3373ffffffffffffffffffffffffffffffffffffffff16611366826111a2565b73ffffffffffffffffffffffffffffffffffffffff1614156113bd576040517f08c379a00000000000000000000000000000000000000000000000000000000081526004016113b490614334565b60405180910390fd5b3373ffffffffffffffffffffffffffffffffffffffff166009600083815260200190815260200160002060009054906101000a900473ffffffffffffffffffffffffffffffffffffffff1673ffffffffffffffffffffffffffffffffffffffff161461142857600080fd5b600060088281548110611464577f4e487b7100000000000000000000000000000000000000000000000000000000600052603260045260246000fd5b906000526020600020906005020190506001151581600301601c9054906101000a900460ff1615151461149657600080fd5b60006114a1836111a2565b90506114ae813385610e64565b33600a600085815260200190815260200160002060006101000a81548173ffffffffffffffffffffffffffffffffffffffff021916908373ffffffffffffffffffffffffffffffffffffffff160217905550338260020160006101000a81548173ffffffffffffffffffffffffffffffffffffffff021916908373ffffffffffffffffffffffffffffffffffffffff16021790555060008260030160146101000a81548167ffffffffffffffff021916908367ffffffffffffffff160217905550600082600301601c6101000a81548160ff02191690831515021790555060006009600085815260200190815260200160002060006101000a81548173ffffffffffffffffffffffffffffffffffffffff021916908373ffffffffffffffffffffffffffffffffffffffff160217905550505050565b60008073ffffffffffffffffffffffffffffffffffffffff168273ffffffffffffffffffffffffffffffffffffffff161415611655576040517f08c379a000000000000000000000000000000000000000000000000000000000815260040161164c906143d4565b60405180910390fd5b600360008373ffffffffffffffffffffffffffffffffffffffff1673ffffffffffffffffffffffffffffffffffffffff168152602001908152602001600020549050919050565b60006009600083815260200190815260200160002060009054906101000a900473ffffffffffffffffffffffffffffffffffffffff169050919050565b803373ffffffffffffffffffffffffffffffffffffffff166116fa826111a2565b73ffffffffffffffffffffffffffffffffffffffff161461171a57600080fd5b600060088381548110611756577f4e487b7100000000000000000000000000000000000000000000000000000000600052603260045260246000fd5b906000526020600020906005020190503373ffffffffffffffffffffffffffffffffffffffff168160030160009054906101000a900473ffffffffffffffffffffffffffffffffffffffff1673ffffffffffffffffffffffffffffffffffffffff16146117c257600080fd5b6117cb83612aa8565b60088381548110611805577f4e487b7100000000000000000000000000000000000000000000000000000000600052603260045260246000fd5b90600052602060002090600502016000808201600061182491906133b8565b60018201600090556002820160006101000a81549073ffffffffffffffffffffffffffffffffffffffff02191690556003820160006101000a81549073ffffffffffffffffffffffffffffffffffffffff02191690556003820160146101000a81549067ffffffffffffffff021916905560038201601c6101000a81549060ff02191690556004820160006118b991906133b8565b5050600a600084815260200190815260200160002060006101000a81549073ffffffffffffffffffffffffffffffffffffffff0219169055505050565b606060018054611905906147d2565b80601f0160208091040260200160405190810160405280929190818152602001828054611931906147d2565b801561197e5780601f106119535761010080835404028352916020019161197e565b820191906000526020600020905b81548152906001019060200180831161196157829003601f168201915b5050505050905090565b611990612909565b73ffffffffffffffffffffffffffffffffffffffff168273ffffffffffffffffffffffffffffffffffffffff1614156119fe576040517f08c379a00000000000000000000000000000000000000000000000000000000081526004016119f590614374565b60405180910390fd5b8060056000611a0b612909565b73ffffffffffffffffffffffffffffffffffffffff1673ffffffffffffffffffffffffffffffffffffffff16815260200190815260200160002060008473ffffffffffffffffffffffffffffffffffffffff1673ffffffffffffffffffffffffffffffffffffffff16815260200190815260200160002060006101000a81548160ff0219169083151502179055508173ffffffffffffffffffffffffffffffffffffffff16611ab8612909565b73ffffffffffffffffffffffffffffffffffffffff167f17307eab39ab6107e8899845ad3d59bd9653f200f220920489ca2b5937696c3183604051611afd919061423a565b60405180910390a35050565b611b1a611b14612909565b836129ca565b611b59576040517f08c379a0000000000000000000000000000000000000000000000000000000008152600401611b50906144f4565b60405180910390fd5b611b6584848484612afb565b50505050565b60088181548110611b7b57600080fd5b9060005260206000209060050201600091509050806000018054611b9e906147d2565b80601f0160208091040260200160405190810160405280929190818152602001828054611bca906147d2565b8015611c175780601f10611bec57610100808354040283529160200191611c17565b820191906000526020600020905b815481529060010190602001808311611bfa57829003601f168201915b5050505050908060010154908060020160009054906101000a900473ffffffffffffffffffffffffffffffffffffffff16908060030160009054906101000a900473ffffffffffffffffffffffffffffffffffffffff16908060030160149054906101000a900467ffffffffffffffff169080600301601c9054906101000a900460ff1690806004018054611cab906147d2565b80601f0160208091040260200160405190810160405280929190818152602001828054611cd7906147d2565b8015611d245780601f10611cf957610100808354040283529160200191611d24565b820191906000526020600020905b815481529060010190602001808311611d0757829003601f168201915b5050505050905087565b6000600a600083815260200190815260200160002060009054906101000a900473ffffffffffffffffffffffffffffffffffffffff169050919050565b6060611d768261289d565b611db5576040517f08c379a0000000000000000000000000000000000000000000000000000000008152600401611dac90614454565b60405180910390fd5b6000600660008481526020019081526020016000208054611dd5906147d2565b80601f0160208091040260200160405190810160405280929190818152602001828054611e01906147d2565b8015611e4e5780601f10611e2357610100808354040283529160200191611e4e565b820191906000526020600020905b815481529060010190602001808311611e3157829003601f168201915b505050505090506000611e5f612b57565b9050600081511415611e75578192505050611eb8565b600082511115611eaa578082604051602001611e9292919061415c565b60405160208183030381529060405292505050611eb8565b611eb384612b6e565b925050505b919050565b6000611ec96007612c15565b90506000611ed682612c23565b905060006040518060400160405280601681526020017f687474703a2f2f6c6f63616c686f73743a383030302f00000000000000000000815250905060006040518060400160405280600e81526020017f2f6d657461646174612e6a736f6e00000000000000000000000000000000000081525090506000828483604051602001611f6393929190614180565b604051602081830303815290604052905060006040518060e001604052808881526020018781526020013373ffffffffffffffffffffffffffffffffffffffff1681526020013373ffffffffffffffffffffffffffffffffffffffff168152602001600067ffffffffffffffff1681526020016000151581526020018381525090506008819080600181540180825580915050600190039060005260206000209060050201600090919091909150600082015181600001908051906020019061202d9291906133f8565b506020820151816001015560408201518160020160006101000a81548173ffffffffffffffffffffffffffffffffffffffff021916908373ffffffffffffffffffffffffffffffffffffffff16021790555060608201518160030160006101000a81548173ffffffffffffffffffffffffffffffffffffffff021916908373ffffffffffffffffffffffffffffffffffffffff16021790555060808201518160030160146101000a81548167ffffffffffffffff021916908367ffffffffffffffff16021790555060a082015181600301601c6101000a81548160ff02191690831515021790555060c08201518160040190805190602001906121319291906133f8565b50505061213e3387612def565b6121488683612e0d565b33600a600088815260200190815260200160002060006101000a81548173ffffffffffffffffffffffffffffffffffffffff021916908373ffffffffffffffffffffffffffffffffffffffff1602179055506121a46007612e81565b50505050505050565b6060600080600080600060606000600889815481106121f5577f4e487b7100000000000000000000000000000000000000000000000000000000600052603260045260246000fd5b90600052602060002090600502019050806000018054612214906147d2565b80601f0160208091040260200160405190810160405280929190818152602001828054612240906147d2565b801561228d5780601f106122625761010080835404028352916020019161228d565b820191906000526020600020905b81548152906001019060200180831161227057829003601f168201915b50505050509750806001015496506122a4896111a2565b95508060030160009054906101000a900473ffffffffffffffffffffffffffffffffffffffff1694508060030160149054906101000a900467ffffffffffffffff16935080600301601c9054906101000a900460ff16925080600401805461230b906147d2565b80601f0160208091040260200160405190810160405280929190818152602001828054612337906147d2565b80156123845780601f1061235957610100808354040283529160200191612384565b820191906000526020600020905b81548152906001019060200180831161236757829003601f168201915b5050505050915050919395979092949650565b6000600560008473ffffffffffffffffffffffffffffffffffffffff1673ffffffffffffffffffffffffffffffffffffffff16815260200190815260200160002060008373ffffffffffffffffffffffffffffffffffffffff1673ffffffffffffffffffffffffffffffffffffffff16815260200190815260200160002060009054906101000a900460ff16905092915050565b803373ffffffffffffffffffffffffffffffffffffffff1661244c826111a2565b73ffffffffffffffffffffffffffffffffffffffff161461246c57600080fd5b8273ffffffffffffffffffffffffffffffffffffffff166009600084815260200190815260200160002060009054906101000a900473ffffffffffffffffffffffffffffffffffffffff1673ffffffffffffffffffffffffffffffffffffffff1614156124d857600080fd5b600060088381548110612514577f4e487b7100000000000000000000000000000000000000000000000000000000600052603260045260246000fd5b906000526020600020906005020190506001151581600301601c9054906101000a900460ff1615151461254657600080fd5b60008160030160149054906101000a900467ffffffffffffffff1667ffffffffffffffff161161257557600080fd5b61257f8484610ae0565b836009600085815260200190815260200160002060006101000a81548173ffffffffffffffffffffffffffffffffffffffff021916908373ffffffffffffffffffffffffffffffffffffffff16021790555050505050565b60007f01ffc9a7000000000000000000000000000000000000000000000000000000007bffffffffffffffffffffffffffffffffffffffffffffffffffffffff1916827bffffffffffffffffffffffffffffffffffffffffffffffffffffffff1916149050919050565b8273ffffffffffffffffffffffffffffffffffffffff16612661826111a2565b73ffffffffffffffffffffffffffffffffffffffff16146126b7576040517f08c379a00000000000000000000000000000000000000000000000000000000081526004016126ae90614494565b60405180910390fd5b600073ffffffffffffffffffffffffffffffffffffffff168273ffffffffffffffffffffffffffffffffffffffff161415612727576040517f08c379a000000000000000000000000000000000000000000000000000000000815260040161271e90614354565b60405180910390fd5b612732838383612e97565b61273d600082612911565b6001600360008573ffffffffffffffffffffffffffffffffffffffff1673ffffffffffffffffffffffffffffffffffffffff168152602001908152602001600020600082825461278d91906146d4565b925050819055506001600360008473ffffffffffffffffffffffffffffffffffffffff1673ffffffffffffffffffffffffffffffffffffffff16815260200190815260200160002060008282546127e4919061464d565b92505081905550816002600083815260200190815260200160002060006101000a81548173ffffffffffffffffffffffffffffffffffffffff021916908373ffffffffffffffffffffffffffffffffffffffff160217905550808273ffffffffffffffffffffffffffffffffffffffff168473ffffffffffffffffffffffffffffffffffffffff167fddf252ad1be2c89b69c2b068fc378daa952ba7f163c4a11628f55a4df523b3ef60405160405180910390a4505050565b60008073ffffffffffffffffffffffffffffffffffffffff166002600084815260200190815260200160002060009054906101000a900473ffffffffffffffffffffffffffffffffffffffff1673ffffffffffffffffffffffffffffffffffffffff1614159050919050565b600033905090565b816004600083815260200190815260200160002060006101000a81548173ffffffffffffffffffffffffffffffffffffffff021916908373ffffffffffffffffffffffffffffffffffffffff160217905550808273ffffffffffffffffffffffffffffffffffffffff16612984836111a2565b73ffffffffffffffffffffffffffffffffffffffff167f8c5be1e5ebec7d5bd14f71427d1e84f3dd0314c0f7b2291e5b200ac8c7c3b92560405160405180910390a45050565b60006129d58261289d565b612a14576040517f08c379a0000000000000000000000000000000000000000000000000000000008152600401612a0b90614394565b60405180910390fd5b6000612a1f836111a2565b90508073ffffffffffffffffffffffffffffffffffffffff168473ffffffffffffffffffffffffffffffffffffffff161480612a8e57508373ffffffffffffffffffffffffffffffffffffffff16612a7684610a5b565b73ffffffffffffffffffffffffffffffffffffffff16145b80612a9f5750612a9e8185612397565b5b91505092915050565b612ab181612e9c565b6000600660008381526020019081526020016000208054612ad1906147d2565b905014612af857600660008281526020019081526020016000206000612af791906133b8565b5b50565b612b06848484612641565b612b1284848484612fad565b612b51576040517f08c379a0000000000000000000000000000000000000000000000000000000008152600401612b48906142f4565b60405180910390fd5b50505050565b606060405180602001604052806000815250905090565b6060612b798261289d565b612bb8576040517f08c379a0000000000000000000000000000000000000000000000000000000008152600401612baf906144b4565b60405180910390fd5b6000612bc2612b57565b90506000815111612be25760405180602001604052806000815250612c0d565b80612bec84612c23565b604051602001612bfd92919061415c565b6040516020818303038152906040525b915050919050565b600081600001549050919050565b60606000821415612c6b576040518060400160405280600181526020017f30000000000000000000000000000000000000000000000000000000000000008152509050612dea565b600082905060005b60008214612c9d578080612c8690614804565b915050600a82612c9691906146a3565b9150612c73565b60008167ffffffffffffffff811115612cdf577f4e487b7100000000000000000000000000000000000000000000000000000000600052604160045260246000fd5b6040519080825280601f01601f191660200182016040528015612d115781602001600182028036833780820191505090505b5090505b60008514612de357600182612d2a91906146d4565b9150600a85612d39919061484d565b6030612d45919061464d565b7f010000000000000000000000000000000000000000000000000000000000000002818381518110612da0577f4e487b7100000000000000000000000000000000000000000000000000000000600052603260045260246000fd5b60200101907effffffffffffffffffffffffffffffffffffffffffffffffffffffffffffff1916908160001a905350600a85612ddc91906146a3565b9450612d15565b8093505050505b919050565b612e0982826040518060200160405280600081525061317c565b5050565b612e168261289d565b612e55576040517f08c379a0000000000000000000000000000000000000000000000000000000008152600401612e4c90614414565b60405180910390fd5b80600660008481526020019081526020016000209080519060200190612e7c9291906133f8565b505050565b6001816000016000828254019250508190555050565b505050565b6000612ea7826111a2565b9050612eb581600084612e97565b612ec0600083612911565b6001600360008373ffffffffffffffffffffffffffffffffffffffff1673ffffffffffffffffffffffffffffffffffffffff1681526020019081526020016000206000828254612f1091906146d4565b925050819055506002600083815260200190815260200160002060006101000a81549073ffffffffffffffffffffffffffffffffffffffff021916905581600073ffffffffffffffffffffffffffffffffffffffff168273ffffffffffffffffffffffffffffffffffffffff167fddf252ad1be2c89b69c2b068fc378daa952ba7f163c4a11628f55a4df523b3ef60405160405180910390a45050565b6000612fce8473ffffffffffffffffffffffffffffffffffffffff166131d7565b1561316f578373ffffffffffffffffffffffffffffffffffffffff1663150b7a02612ff7612909565b8786866040518563ffffffff167c010000000000000000000000000000000000000000000000000000000002815260040161303594939291906141cc565b602060405180830381600087803b15801561304f57600080fd5b505af192505050801561308057506040513d601f19601f8201168201806040525081019061307d91906137b9565b60015b613103573d80600081146130b0576040519150601f19603f3d011682016040523d82523d6000602084013e6130b5565b606091505b506000815114156130fb576040517f08c379a00000000000000000000000000000000000000000000000000000000081526004016130f2906142f4565b60405180910390fd5b805181602001fd5b63150b7a027c0100000000000000000000000000000000000000000000000000000000027bffffffffffffffffffffffffffffffffffffffffffffffffffffffff1916817bffffffffffffffffffffffffffffffffffffffffffffffffffffffff191614915050613174565b600190505b949350505050565b61318683836131ea565b6131936000848484612fad565b6131d2576040517f08c379a00000000000000000000000000000000000000000000000000000000081526004016131c9906142f4565b60405180910390fd5b505050565b600080823b905060008111915050919050565b600073ffffffffffffffffffffffffffffffffffffffff168273ffffffffffffffffffffffffffffffffffffffff16141561325a576040517f08c379a000000000000000000000000000000000000000000000000000000000815260040161325190614434565b60405180910390fd5b6132638161289d565b156132a3576040517f08c379a000000000000000000000000000000000000000000000000000000000815260040161329a90614314565b60405180910390fd5b6132af60008383612e97565b6001600360008473ffffffffffffffffffffffffffffffffffffffff1673ffffffffffffffffffffffffffffffffffffffff16815260200190815260200160002060008282546132ff919061464d565b92505081905550816002600083815260200190815260200160002060006101000a81548173ffffffffffffffffffffffffffffffffffffffff021916908373ffffffffffffffffffffffffffffffffffffffff160217905550808273ffffffffffffffffffffffffffffffffffffffff16600073ffffffffffffffffffffffffffffffffffffffff167fddf252ad1be2c89b69c2b068fc378daa952ba7f163c4a11628f55a4df523b3ef60405160405180910390a45050565b5080546133c4906147d2565b6000825580601f106133d657506133f5565b601f0160209004906000526020600020908101906133f4919061347e565b5b50565b828054613404906147d2565b90600052602060002090601f016020900481019282613426576000855561346d565b82601f1061343f57805160ff191683800117855561346d565b8280016001018555821561346d579182015b8281111561346c578251825591602001919060010190613451565b5b50905061347a919061347e565b5090565b5b8082111561349757600081600090555060010161347f565b5090565b60006134ae6134a984614560565b61452f565b9050828152602081018484840111156134c657600080fd5b6134d1848285614790565b509392505050565b60006134ec6134e784614590565b61452f565b90508281526020810184848401111561350457600080fd5b61350f848285614790565b509392505050565b6000813590506135268161494b565b92915050565b60008135905061353b81614962565b92915050565b60008135905061355081614979565b92915050565b60008151905061356581614979565b92915050565b600082601f83011261357c57600080fd5b813561358c84826020860161349b565b91505092915050565b600082601f8301126135a657600080fd5b81356135b68482602086016134d9565b91505092915050565b6000813590506135ce81614990565b92915050565b6000813590506135e3816149a7565b92915050565b6000602082840312156135fb57600080fd5b600061360984828501613517565b91505092915050565b6000806040838503121561362557600080fd5b600061363385828601613517565b925050602061364485828601613517565b9150509250929050565b60008060006060848603121561366357600080fd5b600061367186828701613517565b935050602061368286828701613517565b9250506040613693868287016135bf565b9150509250925092565b600080600080608085870312156136b357600080fd5b60006136c187828801613517565b94505060206136d287828801613517565b93505060406136e3878288016135bf565b925050606085013567ffffffffffffffff81111561370057600080fd5b61370c8782880161356b565b91505092959194509250565b6000806040838503121561372b57600080fd5b600061373985828601613517565b925050602061374a8582860161352c565b9150509250929050565b6000806040838503121561376757600080fd5b600061377585828601613517565b9250506020613786858286016135bf565b9150509250929050565b6000602082840312156137a257600080fd5b60006137b084828501613541565b91505092915050565b6000602082840312156137cb57600080fd5b60006137d984828501613556565b91505092915050565b6000602082840312156137f457600080fd5b600082013567ffffffffffffffff81111561380e57600080fd5b61381a84828501613595565b91505092915050565b60006020828403121561383557600080fd5b6000613843848285016135bf565b91505092915050565b6000806040838503121561385f57600080fd5b600061386d858286016135bf565b925050602061387e858286016135d4565b9150509250929050565b6000613894838361407d565b905092915050565b6138a581614708565b82525050565b6138b481614708565b82525050565b60006138c5826145d0565b6138cf81856145fe565b9350836020820285016138e1856145c0565b8060005b8581101561391d57848403895281516138fe8582613888565b9450613909836145f1565b925060208a019950506001810190506138e5565b50829750879550505050505092915050565b6139388161471a565b82525050565b6139478161471a565b82525050565b6000613958826145db565b613962818561460f565b935061397281856020860161479f565b61397b8161493a565b840191505092915050565b6000613991826145e6565b61399b8185614620565b93506139ab81856020860161479f565b6139b48161493a565b840191505092915050565b60006139ca826145e6565b6139d48185614631565b93506139e481856020860161479f565b6139ed8161493a565b840191505092915050565b6000613a03826145e6565b613a0d8185614642565b9350613a1d81856020860161479f565b80840191505092915050565b6000613a36603283614631565b91507f4552433732313a207472616e7366657220746f206e6f6e20455243373231526560008301527f63656976657220696d706c656d656e74657200000000000000000000000000006020830152604082019050919050565b6000613a9c601c83614631565b91507f4552433732313a20746f6b656e20616c7265616479206d696e746564000000006000830152602082019050919050565b6000613adc602183614631565b91507f4f776e65722063616e6e6f742065786563757465206275792066756e6374696f60008301527f6e000000000000000000000000000000000000000000000000000000000000006020830152604082019050919050565b6000613b42602483614631565b91507f4552433732313a207472616e7366657220746f20746865207a65726f2061646460008301527f72657373000000000000000000000000000000000000000000000000000000006020830152604082019050919050565b6000613ba8601983614631565b91507f4552433732313a20617070726f766520746f2063616c6c6572000000000000006000830152602082019050919050565b6000613be8602c83614631565b91507f4552433732313a206f70657261746f7220717565727920666f72206e6f6e657860008301527f697374656e7420746f6b656e00000000000000000000000000000000000000006020830152604082019050919050565b6000613c4e603883614631565b91507f4552433732313a20617070726f76652063616c6c6572206973206e6f74206f7760008301527f6e6572206e6f7220617070726f76656420666f7220616c6c00000000000000006020830152604082019050919050565b6000613cb4602a83614631565b91507f4552433732313a2062616c616e636520717565727920666f7220746865207a6560008301527f726f2061646472657373000000000000000000000000000000000000000000006020830152604082019050919050565b6000613d1a602983614631565b91507f4552433732313a206f776e657220717565727920666f72206e6f6e657869737460008301527f656e7420746f6b656e00000000000000000000000000000000000000000000006020830152604082019050919050565b6000613d80602e83614631565b91507f45524337323155524953746f726167653a2055524920736574206f66206e6f6e60008301527f6578697374656e7420746f6b656e0000000000000000000000000000000000006020830152604082019050919050565b6000613de6602083614631565b91507f4552433732313a206d696e7420746f20746865207a65726f20616464726573736000830152602082019050919050565b6000613e26603183614631565b91507f45524337323155524953746f726167653a2055524920717565727920666f722060008301527f6e6f6e6578697374656e7420746f6b656e0000000000000000000000000000006020830152604082019050919050565b6000613e8c602c83614631565b91507f4552433732313a20617070726f76656420717565727920666f72206e6f6e657860008301527f697374656e7420746f6b656e00000000000000000000000000000000000000006020830152604082019050919050565b6000613ef2602983614631565b91507f4552433732313a207472616e73666572206f6620746f6b656e2074686174206960008301527f73206e6f74206f776e00000000000000000000000000000000000000000000006020830152604082019050919050565b6000613f58602f83614631565b91507f4552433732314d657461646174613a2055524920717565727920666f72206e6f60008301527f6e6578697374656e7420746f6b656e00000000000000000000000000000000006020830152604082019050919050565b6000613fbe602183614631565b91507f4552433732313a20617070726f76616c20746f2063757272656e74206f776e6560008301527f72000000000000000000000000000000000000000000000000000000000000006020830152604082019050919050565b6000614024603183614631565b91507f4552433732313a207472616e736665722063616c6c6572206973206e6f74206f60008301527f776e6572206e6f7220617070726f7665640000000000000000000000000000006020830152604082019050919050565b600060e083016000830151848203600086015261409a8282613986565b91505060208301516140af6020860182614120565b5060408301516140c2604086018261389c565b5060608301516140d5606086018261389c565b5060808301516140e8608086018261413e565b5060a08301516140fb60a086018261392f565b5060c083015184820360c08601526141138282613986565b9150508091505092915050565b61412981614772565b82525050565b61413881614772565b82525050565b6141478161477c565b82525050565b6141568161477c565b82525050565b600061416882856139f8565b915061417482846139f8565b91508190509392505050565b600061418c82866139f8565b915061419882856139f8565b91506141a482846139f8565b9150819050949350505050565b60006020820190506141c660008301846138ab565b92915050565b60006080820190506141e160008301876138ab565b6141ee60208301866138ab565b6141fb604083018561412f565b818103606083015261420d818461394d565b905095945050505050565b6000602082019050818103600083015261423281846138ba565b905092915050565b600060208201905061424f600083018461393e565b92915050565b6000602082019050818103600083015261426f81846139bf565b905092915050565b600060e0820190508181036000830152614291818a6139bf565b90506142a0602083018961412f565b6142ad60408301886138ab565b6142ba60608301876138ab565b6142c7608083018661414d565b6142d460a083018561393e565b81810360c08301526142e681846139bf565b905098975050505050505050565b6000602082019050818103600083015261430d81613a29565b9050919050565b6000602082019050818103600083015261432d81613a8f565b9050919050565b6000602082019050818103600083015261434d81613acf565b9050919050565b6000602082019050818103600083015261436d81613b35565b9050919050565b6000602082019050818103600083015261438d81613b9b565b9050919050565b600060208201905081810360008301526143ad81613bdb565b9050919050565b600060208201905081810360008301526143cd81613c41565b9050919050565b600060208201905081810360008301526143ed81613ca7565b9050919050565b6000602082019050818103600083015261440d81613d0d565b9050919050565b6000602082019050818103600083015261442d81613d73565b9050919050565b6000602082019050818103600083015261444d81613dd9565b9050919050565b6000602082019050818103600083015261446d81613e19565b9050919050565b6000602082019050818103600083015261448d81613e7f565b9050919050565b600060208201905081810360008301526144ad81613ee5565b9050919050565b600060208201905081810360008301526144cd81613f4b565b9050919050565b600060208201905081810360008301526144ed81613fb1565b9050919050565b6000602082019050818103600083015261450d81614017565b9050919050565b6000602082019050614529600083018461412f565b92915050565b6000604051905081810181811067ffffffffffffffff821117156145565761455561490b565b5b8060405250919050565b600067ffffffffffffffff82111561457b5761457a61490b565b5b601f19601f8301169050602081019050919050565b600067ffffffffffffffff8211156145ab576145aa61490b565b5b601f19601f8301169050602081019050919050565b6000819050602082019050919050565b600081519050919050565b600081519050919050565b600081519050919050565b6000602082019050919050565b600082825260208201905092915050565b600082825260208201905092915050565b600082825260208201905092915050565b600082825260208201905092915050565b600081905092915050565b600061465882614772565b915061466383614772565b9250827fffffffffffffffffffffffffffffffffffffffffffffffffffffffffffffffff038211156146985761469761487e565b5b828201905092915050565b60006146ae82614772565b91506146b983614772565b9250826146c9576146c86148ad565b5b828204905092915050565b60006146df82614772565b91506146ea83614772565b9250828210156146fd576146fc61487e565b5b828203905092915050565b600061471382614752565b9050919050565b60008115159050919050565b60007fffffffff0000000000000000000000000000000000000000000000000000000082169050919050565b600073ffffffffffffffffffffffffffffffffffffffff82169050919050565b6000819050919050565b600067ffffffffffffffff82169050919050565b82818337600083830152505050565b60005b838110156147bd5780820151818401526020810190506147a2565b838111156147cc576000848401525b50505050565b600060028204905060018216806147ea57607f821691505b602082108114156147fe576147fd6148dc565b5b50919050565b600061480f82614772565b91507fffffffffffffffffffffffffffffffffffffffffffffffffffffffffffffffff8214156148425761484161487e565b5b600182019050919050565b600061485882614772565b915061486383614772565b925082614873576148726148ad565b5b828206905092915050565b7f4e487b7100000000000000000000000000000000000000000000000000000000600052601160045260246000fd5b7f4e487b7100000000000000000000000000000000000000000000000000000000600052601260045260246000fd5b7f4e487b7100000000000000000000000000000000000000000000000000000000600052602260045260246000fd5b7f4e487b7100000000000000000000000000000000000000000000000000000000600052604160045260246000fd5b6000601f19601f8301169050919050565b61495481614708565b811461495f57600080fd5b50565b61496b8161471a565b811461497657600080fd5b50565b61498281614726565b811461498d57600080fd5b50565b61499981614772565b81146149a457600080fd5b50565b6149b08161477c565b81146149bb57600080fd5b5056fea2646970667358221220b862193dc75f5a7f7e7efe0c679812159dff89752b9d39e66c9fd752224401d064736f6c63430008000033",
  "immutableReferences": {},
  "source": "// SPDX-License-Identifier: MIT\npragma solidity ^0.8.0;\n\n// import \"@openzeppelin/contracts/token/ERC721/extensions/ERC721Enumerable.sol\";\nimport \"@openzeppelin/contracts/token/ERC721/extensions/ERC721URIStorage.sol\";\nimport \"@openzeppelin/contracts/utils/Counters.sol\";\nimport \"@openzeppelin/contracts/utils/Strings.sol\";\n\ncontract CloseSeaNFT is ERC721URIStorage{\nusing Counters for Counters.Counter;\nCounters.Counter private tokenId;\n\nconstructor() ERC721('BitEth NFT','BTE') {\n}\n\nstruct Item{\n    string itemName;\n    uint id;\n    address owner;\n    address creator;\n    uint64 price;\n    bool forSale;\n    string tokenURI;\n}\n\nItem [] public items;\nmapping (uint => address) private _tokenApprovals;\nmapping (uint => address) itemToOwner;\n\nmodifier onlyOwnerOf (uint _tokenId) {\n    require (ownerOf(_tokenId) == msg.sender);\n    _;\n}\n\nfunction mint(string memory _itemName) external{\n    uint currentId = tokenId.current();\n    string memory idString = Strings.toString(currentId);\n    string memory baseURI = \"http://localhost:8000/\";\n    string memory metadata = \"/metadata.json\";\n    string memory url = string(abi.encodePacked(baseURI, idString, metadata));\n\n    Item memory _item = Item({\n        itemName: _itemName,\n        id: currentId,\n        owner: msg.sender,\n        creator: msg.sender,\n        price: 0,\n        forSale: false,\n        tokenURI: url\n    });\n    items.push(_item);\n    _safeMint(msg.sender, currentId);\n    _setTokenURI(currentId, url);\n    itemToOwner[currentId] = msg.sender;\n    tokenId.increment();\n}\n\nfunction tokenOnSale (uint _tokenId, uint64 price) external onlyOwnerOf(_tokenId){\n    Item storage _item = items[_tokenId];\n    require(_item.forSale == false);\n    _item.price = price;\n    _item.forSale = true;\n    // approve(address(this), _tokenId);\n    // safeTransferFrom(ownerOf(_tokenId), address(this), _tokenId);\n}\n\nfunction notForSale (uint _tokenId) external onlyOwnerOf(_tokenId){\n    Item storage _item = items[_tokenId];\n    require(_item.forSale == true);\n    _item.price = 0;\n    _item.forSale = false;\n}\n\nfunction approvalTo (address _to, uint _tokenId) external onlyOwnerOf(_tokenId){\n    require(_tokenApprovals[_tokenId] != _to);\n    Item storage _item = items[_tokenId];\n    require(_item.forSale == true);\n    require(_item.price > 0);\n    approve(_to,_tokenId);\n    _tokenApprovals[_tokenId] = _to;\n}\n\nfunction cancelApproval (uint _tokenId) external onlyOwnerOf(_tokenId){\n    _tokenApprovals[_tokenId] = address(0);\n}\n\nfunction buyingWithApproval (uint _tokenId) external payable {\n    require (ownerOf(_tokenId) != msg.sender, \"Owner cannot execute buy function\");\n    require (_tokenApprovals[_tokenId] == msg.sender);\n    Item storage _item = items[_tokenId];\n    require(_item.forSale == true);\n    address _from = ownerOf(_tokenId);\n    safeTransferFrom(_from, msg.sender, _tokenId);\n    itemToOwner[_tokenId] = msg.sender;\n    _item.owner = msg.sender;\n    _item.price = 0;\n    _item.forSale = false;\n    _tokenApprovals[_tokenId] = address(0);\n}\n\nfunction buyingWithoutApproval (uint _tokenId) external payable {\n    require (ownerOf(_tokenId) != msg.sender);\n    Item storage _item = items[_tokenId];\n    require(_item.forSale == true);\n    address _from = ownerOf(_tokenId);\n    _transfer(_from, msg.sender, _tokenId);\n    itemToOwner[_tokenId] = msg.sender;\n    _item.owner = msg.sender;\n    _item.price = 0;\n    _item.forSale = false;\n}\n\nfunction burnToken (uint _tokenId) external onlyOwnerOf(_tokenId) {\n    Item storage _item = items[_tokenId];\n    require(_item.creator == msg.sender);\n    _burn(_tokenId);\n    delete items[_tokenId];\n    delete itemToOwner[_tokenId];\n}\n\nfunction getAllItems () external view returns(Item[] memory){\n    return items;\n}\n\nfunction getURI (uint _tokenId) external view returns (string memory){\n    return tokenURI(_tokenId);\n}\n\nfunction getOwner (uint _tokenId) external view returns (address){\n    return itemToOwner[_tokenId];\n}\n\nfunction getOwnertwo (uint _tokenId) external view returns (address){\n    address owner;\n    for (uint i=0; i<items.length;i++){\n        if(items[i].id == _tokenId){\n            owner = items[i].owner;\n        } \n    } return owner;\n}\n\nfunction isApproved (uint _tokenId) external view returns (address){\n    return _tokenApprovals[_tokenId];\n}\n\nfunction getToken(uint _tokenId) external view returns (string memory name, uint id, address owner, address creator, uint64 price, bool forSale, string memory tokenURI){\n    Item storage _item = items[_tokenId];\n    name = _item.itemName;\n    id = _item.id;\n    owner = ownerOf(_tokenId);\n    creator = _item.creator;\n    price = _item.price;\n    forSale = _item.forSale;\n    tokenURI = _item.tokenURI;\n}\n\n\n}",
  "sourcePath": "/Users/philemon/crypto_coin/src/contracts/CloseSeaNFT.sol",
  "compiler": {
    "name": "solc",
    "version": "0.8.0+commit.c7dfd78e.Emscripten.clang"
  },
  "schemaVersion": "3.3.4",
  "updatedAt": "2021-04-29T10:31:45.862Z",
  "networkType": "ethereum",
  "devdoc": {
    "kind": "dev",
    "methods": {
      "approve(address,uint256)": {
        "details": "See {IERC721-approve}."
      },
      "balanceOf(address)": {
        "details": "See {IERC721-balanceOf}."
      },
      "getApproved(uint256)": {
        "details": "See {IERC721-getApproved}."
      },
      "isApprovedForAll(address,address)": {
        "details": "See {IERC721-isApprovedForAll}."
      },
      "name()": {
        "details": "See {IERC721Metadata-name}."
      },
      "ownerOf(uint256)": {
        "details": "See {IERC721-ownerOf}."
      },
      "safeTransferFrom(address,address,uint256)": {
        "details": "See {IERC721-safeTransferFrom}."
      },
      "safeTransferFrom(address,address,uint256,bytes)": {
        "details": "See {IERC721-safeTransferFrom}."
      },
      "setApprovalForAll(address,bool)": {
        "details": "See {IERC721-setApprovalForAll}."
      },
      "supportsInterface(bytes4)": {
        "details": "See {IERC165-supportsInterface}."
      },
      "symbol()": {
        "details": "See {IERC721Metadata-symbol}."
      },
      "tokenURI(uint256)": {
        "details": "See {IERC721Metadata-tokenURI}."
      },
      "transferFrom(address,address,uint256)": {
        "details": "See {IERC721-transferFrom}."
      }
    },
    "version": 1
  },
  "userdoc": {
    "kind": "user",
    "methods": {},
    "version": 1
  }
}