{
  "contractName": "CloseSeaNFT",
  "abi": [
    {
      "inputs": [],
      "stateMutability": "nonpayable",
      "type": "constructor"
    },
    {
      "anonymous": false,
      "inputs": [
        {
          "indexed": true,
          "internalType": "address",
          "name": "owner",
          "type": "address"
        },
        {
          "indexed": true,
          "internalType": "address",
          "name": "approved",
          "type": "address"
        },
        {
          "indexed": true,
          "internalType": "uint256",
          "name": "tokenId",
          "type": "uint256"
        }
      ],
      "name": "Approval",
      "type": "event"
    },
    {
      "anonymous": false,
      "inputs": [
        {
          "indexed": true,
          "internalType": "address",
          "name": "owner",
          "type": "address"
        },
        {
          "indexed": true,
          "internalType": "address",
          "name": "operator",
          "type": "address"
        },
        {
          "indexed": false,
          "internalType": "bool",
          "name": "approved",
          "type": "bool"
        }
      ],
      "name": "ApprovalForAll",
      "type": "event"
    },
    {
      "anonymous": false,
      "inputs": [
        {
          "indexed": true,
          "internalType": "bytes32",
          "name": "role",
          "type": "bytes32"
        },
        {
          "indexed": true,
          "internalType": "bytes32",
          "name": "previousAdminRole",
          "type": "bytes32"
        },
        {
          "indexed": true,
          "internalType": "bytes32",
          "name": "newAdminRole",
          "type": "bytes32"
        }
      ],
      "name": "RoleAdminChanged",
      "type": "event"
    },
    {
      "anonymous": false,
      "inputs": [
        {
          "indexed": true,
          "internalType": "bytes32",
          "name": "role",
          "type": "bytes32"
        },
        {
          "indexed": true,
          "internalType": "address",
          "name": "account",
          "type": "address"
        },
        {
          "indexed": true,
          "internalType": "address",
          "name": "sender",
          "type": "address"
        }
      ],
      "name": "RoleGranted",
      "type": "event"
    },
    {
      "anonymous": false,
      "inputs": [
        {
          "indexed": true,
          "internalType": "bytes32",
          "name": "role",
          "type": "bytes32"
        },
        {
          "indexed": true,
          "internalType": "address",
          "name": "account",
          "type": "address"
        },
        {
          "indexed": true,
          "internalType": "address",
          "name": "sender",
          "type": "address"
        }
      ],
      "name": "RoleRevoked",
      "type": "event"
    },
    {
      "anonymous": false,
      "inputs": [
        {
          "indexed": true,
          "internalType": "address",
          "name": "from",
          "type": "address"
        },
        {
          "indexed": true,
          "internalType": "address",
          "name": "to",
          "type": "address"
        },
        {
          "indexed": true,
          "internalType": "uint256",
          "name": "tokenId",
          "type": "uint256"
        }
      ],
      "name": "Transfer",
      "type": "event"
    },
    {
      "inputs": [],
      "name": "DEFAULT_ADMIN_ROLE",
      "outputs": [
        {
          "internalType": "bytes32",
          "name": "",
          "type": "bytes32"
        }
      ],
      "stateMutability": "view",
      "type": "function",
      "constant": true
    },
    {
      "inputs": [],
      "name": "MINTER_ROLE",
      "outputs": [
        {
          "internalType": "bytes32",
          "name": "",
          "type": "bytes32"
        }
      ],
      "stateMutability": "view",
      "type": "function",
      "constant": true
    },
    {
      "inputs": [
        {
          "internalType": "address",
          "name": "to",
          "type": "address"
        },
        {
          "internalType": "uint256",
          "name": "tokenId",
          "type": "uint256"
        }
      ],
      "name": "approve",
      "outputs": [],
      "stateMutability": "nonpayable",
      "type": "function"
    },
    {
      "inputs": [
        {
          "internalType": "address",
          "name": "owner",
          "type": "address"
        }
      ],
      "name": "balanceOf",
      "outputs": [
        {
          "internalType": "uint256",
          "name": "",
          "type": "uint256"
        }
      ],
      "stateMutability": "view",
      "type": "function",
      "constant": true
    },
    {
      "inputs": [
        {
          "internalType": "uint256",
          "name": "tokenId",
          "type": "uint256"
        }
      ],
      "name": "getApproved",
      "outputs": [
        {
          "internalType": "address",
          "name": "",
          "type": "address"
        }
      ],
      "stateMutability": "view",
      "type": "function",
      "constant": true
    },
    {
      "inputs": [
        {
          "internalType": "bytes32",
          "name": "role",
          "type": "bytes32"
        }
      ],
      "name": "getRoleAdmin",
      "outputs": [
        {
          "internalType": "bytes32",
          "name": "",
          "type": "bytes32"
        }
      ],
      "stateMutability": "view",
      "type": "function",
      "constant": true
    },
    {
      "inputs": [
        {
          "internalType": "bytes32",
          "name": "role",
          "type": "bytes32"
        },
        {
          "internalType": "uint256",
          "name": "index",
          "type": "uint256"
        }
      ],
      "name": "getRoleMember",
      "outputs": [
        {
          "internalType": "address",
          "name": "",
          "type": "address"
        }
      ],
      "stateMutability": "view",
      "type": "function",
      "constant": true
    },
    {
      "inputs": [
        {
          "internalType": "bytes32",
          "name": "role",
          "type": "bytes32"
        }
      ],
      "name": "getRoleMemberCount",
      "outputs": [
        {
          "internalType": "uint256",
          "name": "",
          "type": "uint256"
        }
      ],
      "stateMutability": "view",
      "type": "function",
      "constant": true
    },
    {
      "inputs": [
        {
          "internalType": "bytes32",
          "name": "role",
          "type": "bytes32"
        },
        {
          "internalType": "address",
          "name": "account",
          "type": "address"
        }
      ],
      "name": "grantRole",
      "outputs": [],
      "stateMutability": "nonpayable",
      "type": "function"
    },
    {
      "inputs": [
        {
          "internalType": "bytes32",
          "name": "role",
          "type": "bytes32"
        },
        {
          "internalType": "address",
          "name": "account",
          "type": "address"
        }
      ],
      "name": "hasRole",
      "outputs": [
        {
          "internalType": "bool",
          "name": "",
          "type": "bool"
        }
      ],
      "stateMutability": "view",
      "type": "function",
      "constant": true
    },
    {
      "inputs": [
        {
          "internalType": "address",
          "name": "owner",
          "type": "address"
        },
        {
          "internalType": "address",
          "name": "operator",
          "type": "address"
        }
      ],
      "name": "isApprovedForAll",
      "outputs": [
        {
          "internalType": "bool",
          "name": "",
          "type": "bool"
        }
      ],
      "stateMutability": "view",
      "type": "function",
      "constant": true
    },
    {
      "inputs": [
        {
          "internalType": "uint256",
          "name": "",
          "type": "uint256"
        }
      ],
      "name": "items",
      "outputs": [
        {
          "internalType": "string",
          "name": "itemName",
          "type": "string"
        },
        {
          "internalType": "uint256",
          "name": "id",
          "type": "uint256"
        },
        {
          "internalType": "address",
          "name": "owner",
          "type": "address"
        },
        {
          "internalType": "address",
          "name": "creator",
          "type": "address"
        },
        {
          "internalType": "uint64",
          "name": "price",
          "type": "uint64"
        },
        {
          "internalType": "bool",
          "name": "forSale",
          "type": "bool"
        },
        {
          "internalType": "string",
          "name": "tokenURI",
          "type": "string"
        }
      ],
      "stateMutability": "view",
      "type": "function",
      "constant": true
    },
    {
      "inputs": [],
      "name": "name",
      "outputs": [
        {
          "internalType": "string",
          "name": "",
          "type": "string"
        }
      ],
      "stateMutability": "view",
      "type": "function",
      "constant": true
    },
    {
      "inputs": [
        {
          "internalType": "uint256",
          "name": "tokenId",
          "type": "uint256"
        }
      ],
      "name": "ownerOf",
      "outputs": [
        {
          "internalType": "address",
          "name": "",
          "type": "address"
        }
      ],
      "stateMutability": "view",
      "type": "function",
      "constant": true
    },
    {
      "inputs": [
        {
          "internalType": "bytes32",
          "name": "role",
          "type": "bytes32"
        },
        {
          "internalType": "address",
          "name": "account",
          "type": "address"
        }
      ],
      "name": "renounceRole",
      "outputs": [],
      "stateMutability": "nonpayable",
      "type": "function"
    },
    {
      "inputs": [
        {
          "internalType": "bytes32",
          "name": "role",
          "type": "bytes32"
        },
        {
          "internalType": "address",
          "name": "account",
          "type": "address"
        }
      ],
      "name": "revokeRole",
      "outputs": [],
      "stateMutability": "nonpayable",
      "type": "function"
    },
    {
      "inputs": [
        {
          "internalType": "address",
          "name": "from",
          "type": "address"
        },
        {
          "internalType": "address",
          "name": "to",
          "type": "address"
        },
        {
          "internalType": "uint256",
          "name": "tokenId",
          "type": "uint256"
        }
      ],
      "name": "safeTransferFrom",
      "outputs": [],
      "stateMutability": "nonpayable",
      "type": "function"
    },
    {
      "inputs": [
        {
          "internalType": "address",
          "name": "from",
          "type": "address"
        },
        {
          "internalType": "address",
          "name": "to",
          "type": "address"
        },
        {
          "internalType": "uint256",
          "name": "tokenId",
          "type": "uint256"
        },
        {
          "internalType": "bytes",
          "name": "_data",
          "type": "bytes"
        }
      ],
      "name": "safeTransferFrom",
      "outputs": [],
      "stateMutability": "nonpayable",
      "type": "function"
    },
    {
      "inputs": [
        {
          "internalType": "address",
          "name": "operator",
          "type": "address"
        },
        {
          "internalType": "bool",
          "name": "approved",
          "type": "bool"
        }
      ],
      "name": "setApprovalForAll",
      "outputs": [],
      "stateMutability": "nonpayable",
      "type": "function"
    },
    {
      "inputs": [],
      "name": "symbol",
      "outputs": [
        {
          "internalType": "string",
          "name": "",
          "type": "string"
        }
      ],
      "stateMutability": "view",
      "type": "function",
      "constant": true
    },
    {
      "inputs": [
        {
          "internalType": "uint256",
          "name": "tokenId",
          "type": "uint256"
        }
      ],
      "name": "tokenURI",
      "outputs": [
        {
          "internalType": "string",
          "name": "",
          "type": "string"
        }
      ],
      "stateMutability": "view",
      "type": "function",
      "constant": true
    },
    {
      "inputs": [
        {
          "internalType": "address",
          "name": "from",
          "type": "address"
        },
        {
          "internalType": "address",
          "name": "to",
          "type": "address"
        },
        {
          "internalType": "uint256",
          "name": "tokenId",
          "type": "uint256"
        }
      ],
      "name": "transferFrom",
      "outputs": [],
      "stateMutability": "nonpayable",
      "type": "function"
    },
    {
      "inputs": [
        {
          "internalType": "bytes4",
          "name": "interfaceId",
          "type": "bytes4"
        }
      ],
      "name": "supportsInterface",
      "outputs": [
        {
          "internalType": "bool",
          "name": "",
          "type": "bool"
        }
      ],
      "stateMutability": "view",
      "type": "function",
      "constant": true
    },
    {
      "inputs": [
        {
          "internalType": "string",
          "name": "_itemName",
          "type": "string"
        }
      ],
      "name": "mint",
      "outputs": [],
      "stateMutability": "nonpayable",
      "type": "function"
    },
    {
      "inputs": [
        {
          "internalType": "uint256",
          "name": "_tokenId",
          "type": "uint256"
        },
        {
          "internalType": "uint64",
          "name": "price",
          "type": "uint64"
        }
      ],
      "name": "tokenOnSale",
      "outputs": [],
      "stateMutability": "nonpayable",
      "type": "function"
    },
    {
      "inputs": [
        {
          "internalType": "uint256",
          "name": "_tokenId",
          "type": "uint256"
        }
      ],
      "name": "notForSale",
      "outputs": [],
      "stateMutability": "nonpayable",
      "type": "function"
    },
    {
      "inputs": [
        {
          "internalType": "address",
          "name": "_to",
          "type": "address"
        },
        {
          "internalType": "uint256",
          "name": "_tokenId",
          "type": "uint256"
        }
      ],
      "name": "approvalTo",
      "outputs": [],
      "stateMutability": "nonpayable",
      "type": "function"
    },
    {
      "inputs": [
        {
          "internalType": "uint256",
          "name": "_tokenId",
          "type": "uint256"
        }
      ],
      "name": "cancelApproval",
      "outputs": [],
      "stateMutability": "nonpayable",
      "type": "function"
    },
    {
      "inputs": [
        {
          "internalType": "uint256",
          "name": "_tokenId",
          "type": "uint256"
        }
      ],
      "name": "buyingWithApproval",
      "outputs": [],
      "stateMutability": "payable",
      "type": "function",
      "payable": true
    },
    {
      "inputs": [
        {
          "internalType": "uint256",
          "name": "_tokenId",
          "type": "uint256"
        }
      ],
      "name": "buyingWithoutApproval",
      "outputs": [],
      "stateMutability": "payable",
      "type": "function",
      "payable": true
    },
    {
      "inputs": [
        {
          "internalType": "uint256",
          "name": "_tokenId",
          "type": "uint256"
        }
      ],
      "name": "burnToken",
      "outputs": [],
      "stateMutability": "nonpayable",
      "type": "function"
    },
    {
      "inputs": [],
      "name": "getAllItems",
      "outputs": [
        {
          "components": [
            {
              "internalType": "string",
              "name": "itemName",
              "type": "string"
            },
            {
              "internalType": "uint256",
              "name": "id",
              "type": "uint256"
            },
            {
              "internalType": "address",
              "name": "owner",
              "type": "address"
            },
            {
              "internalType": "address",
              "name": "creator",
              "type": "address"
            },
            {
              "internalType": "uint64",
              "name": "price",
              "type": "uint64"
            },
            {
              "internalType": "bool",
              "name": "forSale",
              "type": "bool"
            },
            {
              "internalType": "string",
              "name": "tokenURI",
              "type": "string"
            }
          ],
          "internalType": "struct CloseSeaNFT.Item[]",
          "name": "",
          "type": "tuple[]"
        }
      ],
      "stateMutability": "view",
      "type": "function",
      "constant": true
    },
    {
      "inputs": [
        {
          "internalType": "uint256",
          "name": "_tokenId",
          "type": "uint256"
        }
      ],
      "name": "getURI",
      "outputs": [
        {
          "internalType": "string",
          "name": "",
          "type": "string"
        }
      ],
      "stateMutability": "view",
      "type": "function",
      "constant": true
    },
    {
      "inputs": [
        {
          "internalType": "uint256",
          "name": "_tokenId",
          "type": "uint256"
        }
      ],
      "name": "getOwner",
      "outputs": [
        {
          "internalType": "address",
          "name": "",
          "type": "address"
        }
      ],
      "stateMutability": "view",
      "type": "function",
      "constant": true
    },
    {
      "inputs": [
        {
          "internalType": "uint256",
          "name": "_tokenId",
          "type": "uint256"
        }
      ],
      "name": "isApproved",
      "outputs": [
        {
          "internalType": "address",
          "name": "",
          "type": "address"
        }
      ],
      "stateMutability": "view",
      "type": "function",
      "constant": true
    },
    {
      "inputs": [
        {
          "internalType": "uint256",
          "name": "_tokenId",
          "type": "uint256"
        }
      ],
      "name": "getToken",
      "outputs": [
        {
          "internalType": "string",
          "name": "name",
          "type": "string"
        },
        {
          "internalType": "uint256",
          "name": "id",
          "type": "uint256"
        },
        {
          "internalType": "address",
          "name": "owner",
          "type": "address"
        },
        {
          "internalType": "address",
          "name": "creator",
          "type": "address"
        },
        {
          "internalType": "uint64",
          "name": "price",
          "type": "uint64"
        },
        {
          "internalType": "bool",
          "name": "forSale",
          "type": "bool"
        },
        {
          "internalType": "string",
          "name": "tokenURI",
          "type": "string"
        }
      ],
      "stateMutability": "view",
      "type": "function",
      "constant": true
    },
    {
      "inputs": [
        {
          "internalType": "uint256",
          "name": "_tokenId",
          "type": "uint256"
        },
        {
          "internalType": "string",
          "name": "_tokenURI",
          "type": "string"
        }
      ],
      "name": "setTokenURI",
      "outputs": [],
      "stateMutability": "nonpayable",
      "type": "function"
    }
  ],
  "bytecode": "0x60806040526040518060400160405280601681526020017f687474703a2f2f6c6f63616c686f73743a383030302f00000000000000000000815250600a908051906020019062000051929190620003fa565b503480156200005f57600080fd5b506040518060400160405280600a81526020017f426974457468204e4654000000000000000000000000000000000000000000008152506040518060400160405280600381526020017f42544500000000000000000000000000000000000000000000000000000000008152508160029080519060200190620000e4929190620003fa565b508060039080519060200190620000fd929190620003fa565b5050506200011f60006001023362000125640100000000026401000000009004565b6200050f565b6200014582826200017f64010000000002620029f1176401000000009004565b6200017a81600160008581526020019081526020016000206200019e64010000000002620029ff179091906401000000009004565b505050565b6200019a8282620001df640100000000026401000000009004565b5050565b6000620001d7836000018373ffffffffffffffffffffffffffffffffffffffff16600102620002e2640100000000026401000000009004565b905092915050565b620001fa828262000365640100000000026401000000009004565b620002de57600160008084815260200190815260200160002060000160008373ffffffffffffffffffffffffffffffffffffffff1673ffffffffffffffffffffffffffffffffffffffff16815260200190815260200160002060006101000a81548160ff02191690831515021790555062000283620003cf640100000000026401000000009004565b73ffffffffffffffffffffffffffffffffffffffff168173ffffffffffffffffffffffffffffffffffffffff16837f2f8788117e7eff1d82e926ec794901d17c78024a50270940304540a733656f0d60405160405180910390a45b5050565b6000620002ff8383620003d7640100000000026401000000009004565b6200035a5782600001829080600181540180825580915050600190039060005260206000200160009091909190915055826000018054905083600101600084815260200190815260200160002081905550600190506200035f565b600090505b92915050565b600080600084815260200190815260200160002060000160008373ffffffffffffffffffffffffffffffffffffffff1673ffffffffffffffffffffffffffffffffffffffff16815260200190815260200160002060009054906101000a900460ff16905092915050565b600033905090565b600080836001016000848152602001908152602001600020541415905092915050565b8280546200040890620004aa565b90600052602060002090601f0160209004810192826200042c576000855562000478565b82601f106200044757805160ff191683800117855562000478565b8280016001018555821562000478579182015b82811115620004775782518255916020019190600101906200045a565b5b5090506200048791906200048b565b5090565b5b80821115620004a65760008160009055506001016200048c565b5090565b60006002820490506001821680620004c357607f821691505b60208210811415620004da57620004d9620004e0565b5b50919050565b7f4e487b7100000000000000000000000000000000000000000000000000000000600052602260045260246000fd5b615aad806200051f6000396000f3fe608060405260043610610237576000357c01000000000000000000000000000000000000000000000000000000009004806370a0823111610140578063bfb231d2116100c8578063d547741f1161008c578063d547741f14610856578063d85d3d271461087f578063e4b50cb8146108a8578063e985e9c5146108eb578063f63982de1461092857610237565b8063bfb231d214610731578063c41a360a14610774578063c87b56dd146107b1578063ca15c873146107ee578063d53913931461082b57610237565b806391d148541161010f57806391d148541461064c57806395d89b4114610689578063a217fddf146106b4578063a22cb465146106df578063b88d4fde1461070857610237565b806370a082311461056c5780637910867b146105a95780637b47ec1a146105e65780639010d07c1461060f57610237565b80632f2ff15d116101c357806342842e0e1161019257806342842e0e146104965780634ba1d6aa146104bf5780635449fe03146104ea5780636352211e146105135780636d1111bd1461055057610237565b80632f2ff15d146103f257806336568abe1461041b5780633cb527bd146104445780633e7d2f351461046d57610237565b8063095ea7b31161020a578063095ea7b3146102fd578063162094c4146103265780631aa347dc1461034f57806323b872dd1461038c578063248a9ca3146103b557610237565b806301ffc9a71461023c57806305fb504b1461027957806306fdde0314610295578063081812fc146102c0575b600080fd5b34801561024857600080fd5b50610263600480360381019061025e91906144ac565b610951565b60405161027091906151f7565b60405180910390f35b610293600480360381019061028e919061453f565b610963565b005b3480156102a157600080fd5b506102aa610b0d565b6040516102b7919061522d565b60405180910390f35b3480156102cc57600080fd5b506102e760048036038101906102e2919061453f565b610b9f565b6040516102f4919061516e565b60405180910390f35b34801561030957600080fd5b50610324600480360381019061031f91906143cf565b610c24565b005b34801561033257600080fd5b5061034d60048036038101906103489190614568565b610d3c565b005b34801561035b57600080fd5b506103766004803603810190610371919061453f565b610dfd565b604051610383919061522d565b60405180910390f35b34801561039857600080fd5b506103b360048036038101906103ae91906142c9565b610e0f565b005b3480156103c157600080fd5b506103dc60048036038101906103d7919061440b565b610e6f565b6040516103e99190615212565b60405180910390f35b3480156103fe57600080fd5b5061041960048036038101906104149190614434565b610e8e565b005b34801561042757600080fd5b50610442600480360381019061043d9190614434565b610ec2565b005b34801561045057600080fd5b5061046b600480360381019061046691906145bc565b610ef6565b005b34801561047957600080fd5b50610494600480360381019061048f919061453f565b611029565b005b3480156104a257600080fd5b506104bd60048036038101906104b891906142c9565b61115c565b005b3480156104cb57600080fd5b506104d461117c565b6040516104e191906151d5565b60405180910390f35b3480156104f657600080fd5b50610511600480360381019061050c919061453f565b611402565b005b34801561051f57600080fd5b5061053a6004803603810190610535919061453f565b6114d0565b604051610547919061516e565b60405180910390f35b61056a6004803603810190610565919061453f565b611582565b005b34801561057857600080fd5b50610593600480360381019061058e9190614264565b611820565b6040516105a091906155ac565b60405180910390f35b3480156105b557600080fd5b506105d060048036038101906105cb919061453f565b6118d8565b6040516105dd919061516e565b60405180910390f35b3480156105f257600080fd5b5061060d6004803603810190610608919061453f565b611915565b005b34801561061b57600080fd5b5061063660048036038101906106319190614470565b611b68565b604051610643919061516e565b60405180910390f35b34801561065857600080fd5b50610673600480360381019061066e9190614434565b611b97565b60405161068091906151f7565b60405180910390f35b34801561069557600080fd5b5061069e611c01565b6040516106ab919061522d565b60405180910390f35b3480156106c057600080fd5b506106c9611c93565b6040516106d69190615212565b60405180910390f35b3480156106eb57600080fd5b5061070660048036038101906107019190614393565b611c9b565b005b34801561071457600080fd5b5061072f600480360381019061072a9190614318565b611e1c565b005b34801561073d57600080fd5b506107586004803603810190610753919061453f565b611e7e565b60405161076b979695949392919061524f565b60405180910390f35b34801561078057600080fd5b5061079b6004803603810190610796919061453f565b612041565b6040516107a8919061516e565b60405180910390f35b3480156107bd57600080fd5b506107d860048036038101906107d3919061453f565b61207e565b6040516107e5919061522d565b60405180910390f35b3480156107fa57600080fd5b506108156004803603810190610810919061440b565b6121d0565b60405161082291906155ac565b60405180910390f35b34801561083757600080fd5b506108406121f4565b60405161084d9190615212565b60405180910390f35b34801561086257600080fd5b5061087d60048036038101906108789190614434565b612218565b005b34801561088b57600080fd5b506108a660048036038101906108a191906144fe565b61224c565b005b3480156108b457600080fd5b506108cf60048036038101906108ca919061453f565b612591565b6040516108e2979695949392919061524f565b60405180910390f35b3480156108f757600080fd5b50610912600480360381019061090d919061428d565b61277b565b60405161091f91906151f7565b60405180910390f35b34801561093457600080fd5b5061094f600480360381019061094a91906143cf565b61280f565b005b600061095c82612a2f565b9050919050565b3373ffffffffffffffffffffffffffffffffffffffff16610983826114d0565b73ffffffffffffffffffffffffffffffffffffffff1614156109a457600080fd5b6000600b82815481106109e0577f4e487b7100000000000000000000000000000000000000000000000000000000600052603260045260246000fd5b906000526020600020906005020190506001151581600301601c9054906101000a900460ff16151514610a1257600080fd5b6000610a1d836114d0565b9050610a2a813385612b11565b33600d600085815260200190815260200160002060006101000a81548173ffffffffffffffffffffffffffffffffffffffff021916908373ffffffffffffffffffffffffffffffffffffffff160217905550338260020160006101000a81548173ffffffffffffffffffffffffffffffffffffffff021916908373ffffffffffffffffffffffffffffffffffffffff16021790555060008260030160146101000a81548167ffffffffffffffff021916908367ffffffffffffffff160217905550600082600301601c6101000a81548160ff021916908315150217905550505050565b606060028054610b1c90615874565b80601f0160208091040260200160405190810160405280929190818152602001828054610b4890615874565b8015610b955780601f10610b6a57610100808354040283529160200191610b95565b820191906000526020600020905b815481529060010190602001808311610b7857829003601f168201915b5050505050905090565b6000610baa82612d6d565b610be9576040517f08c379a0000000000000000000000000000000000000000000000000000000008152600401610be0906154cc565b60405180910390fd5b6006600083815260200190815260200160002060009054906101000a900473ffffffffffffffffffffffffffffffffffffffff169050919050565b6000610c2f826114d0565b90508073ffffffffffffffffffffffffffffffffffffffff168373ffffffffffffffffffffffffffffffffffffffff161415610ca0576040517f08c379a0000000000000000000000000000000000000000000000000000000008152600401610c979061554c565b60405180910390fd5b8073ffffffffffffffffffffffffffffffffffffffff16610cbf612dd9565b73ffffffffffffffffffffffffffffffffffffffff161480610cee5750610ced81610ce8612dd9565b61277b565b5b610d2d576040517f08c379a0000000000000000000000000000000000000000000000000000000008152600401610d249061540c565b60405180910390fd5b610d378383612de1565b505050565b610d4a600060010233611b97565b610d89576040517f08c379a0000000000000000000000000000000000000000000000000000000008152600401610d809061552c565b60405180910390fd5b610d938282612e9a565b6000600b8381548110610dcf577f4e487b7100000000000000000000000000000000000000000000000000000000600052603260045260246000fd5b9060005260206000209060050201905081816004019080519060200190610df792919061401e565b50505050565b6060610e088261207e565b9050919050565b610e20610e1a612dd9565b82612f0e565b610e5f576040517f08c379a0000000000000000000000000000000000000000000000000000000008152600401610e569061556c565b60405180910390fd5b610e6a838383612b11565b505050565b6000806000838152602001908152602001600020600101549050919050565b610e988282612fec565b610ebd81600160008581526020019081526020016000206129ff90919063ffffffff16565b505050565b610ecc8282613052565b610ef181600160008581526020019081526020016000206130d590919063ffffffff16565b505050565b813373ffffffffffffffffffffffffffffffffffffffff16610f17826114d0565b73ffffffffffffffffffffffffffffffffffffffff1614610f6d576040517f08c379a0000000000000000000000000000000000000000000000000000000008152600401610f64906153ec565b60405180910390fd5b6000600b8481548110610fa9577f4e487b7100000000000000000000000000000000000000000000000000000000600052603260045260246000fd5b906000526020600020906005020190506000151581600301601c9054906101000a900460ff16151514610fdb57600080fd5b828160030160146101000a81548167ffffffffffffffff021916908367ffffffffffffffff160217905550600181600301601c6101000a81548160ff02191690831515021790555050505050565b803373ffffffffffffffffffffffffffffffffffffffff1661104a826114d0565b73ffffffffffffffffffffffffffffffffffffffff16146110a0576040517f08c379a0000000000000000000000000000000000000000000000000000000008152600401611097906153ec565b60405180910390fd5b6000600b83815481106110dc577f4e487b7100000000000000000000000000000000000000000000000000000000600052603260045260246000fd5b906000526020600020906005020190506001151581600301601c9054906101000a900460ff1615151461110e57600080fd5b60008160030160146101000a81548167ffffffffffffffff021916908367ffffffffffffffff160217905550600081600301601c6101000a81548160ff021916908315150217905550505050565b61117783838360405180602001604052806000815250611e1c565b505050565b6060600b805480602002602001604051908101604052809291908181526020016000905b828210156113f957838290600052602060002090600502016040518060e00160405290816000820180546111d390615874565b80601f01602080910402602001604051908101604052809291908181526020018280546111ff90615874565b801561124c5780601f106112215761010080835404028352916020019161124c565b820191906000526020600020905b81548152906001019060200180831161122f57829003601f168201915b50505050508152602001600182015481526020016002820160009054906101000a900473ffffffffffffffffffffffffffffffffffffffff1673ffffffffffffffffffffffffffffffffffffffff1673ffffffffffffffffffffffffffffffffffffffff1681526020016003820160009054906101000a900473ffffffffffffffffffffffffffffffffffffffff1673ffffffffffffffffffffffffffffffffffffffff1673ffffffffffffffffffffffffffffffffffffffff1681526020016003820160149054906101000a900467ffffffffffffffff1667ffffffffffffffff1667ffffffffffffffff16815260200160038201601c9054906101000a900460ff1615151515815260200160048201805461136890615874565b80601f016020809104026020016040519081016040528092919081815260200182805461139490615874565b80156113e15780601f106113b6576101008083540402835291602001916113e1565b820191906000526020600020905b8154815290600101906020018083116113c457829003601f168201915b505050505081525050815260200190600101906111a0565b50505050905090565b803373ffffffffffffffffffffffffffffffffffffffff16611423826114d0565b73ffffffffffffffffffffffffffffffffffffffff1614611479576040517f08c379a0000000000000000000000000000000000000000000000000000000008152600401611470906153ec565b60405180910390fd5b6000600c600084815260200190815260200160002060006101000a81548173ffffffffffffffffffffffffffffffffffffffff021916908373ffffffffffffffffffffffffffffffffffffffff1602179055505050565b6000806004600084815260200190815260200160002060009054906101000a900473ffffffffffffffffffffffffffffffffffffffff169050600073ffffffffffffffffffffffffffffffffffffffff168173ffffffffffffffffffffffffffffffffffffffff161415611579576040517f08c379a00000000000000000000000000000000000000000000000000000000081526004016115709061544c565b60405180910390fd5b80915050919050565b3373ffffffffffffffffffffffffffffffffffffffff166115a2826114d0565b73ffffffffffffffffffffffffffffffffffffffff1614156115f9576040517f08c379a00000000000000000000000000000000000000000000000000000000081526004016115f09061534c565b60405180910390fd5b3373ffffffffffffffffffffffffffffffffffffffff16600c600083815260200190815260200160002060009054906101000a900473ffffffffffffffffffffffffffffffffffffffff1673ffffffffffffffffffffffffffffffffffffffff161461166457600080fd5b6000600b82815481106116a0577f4e487b7100000000000000000000000000000000000000000000000000000000600052603260045260246000fd5b906000526020600020906005020190506001151581600301601c9054906101000a900460ff161515146116d257600080fd5b60006116dd836114d0565b90506116ea81338561115c565b33600d600085815260200190815260200160002060006101000a81548173ffffffffffffffffffffffffffffffffffffffff021916908373ffffffffffffffffffffffffffffffffffffffff160217905550338260020160006101000a81548173ffffffffffffffffffffffffffffffffffffffff021916908373ffffffffffffffffffffffffffffffffffffffff16021790555060008260030160146101000a81548167ffffffffffffffff021916908367ffffffffffffffff160217905550600082600301601c6101000a81548160ff0219169083151502179055506000600c600085815260200190815260200160002060006101000a81548173ffffffffffffffffffffffffffffffffffffffff021916908373ffffffffffffffffffffffffffffffffffffffff160217905550505050565b60008073ffffffffffffffffffffffffffffffffffffffff168273ffffffffffffffffffffffffffffffffffffffff161415611891576040517f08c379a00000000000000000000000000000000000000000000000000000000081526004016118889061542c565b60405180910390fd5b600560008373ffffffffffffffffffffffffffffffffffffffff1673ffffffffffffffffffffffffffffffffffffffff168152602001908152602001600020549050919050565b6000600c600083815260200190815260200160002060009054906101000a900473ffffffffffffffffffffffffffffffffffffffff169050919050565b803373ffffffffffffffffffffffffffffffffffffffff16611936826114d0565b73ffffffffffffffffffffffffffffffffffffffff161461198c576040517f08c379a0000000000000000000000000000000000000000000000000000000008152600401611983906153ec565b60405180910390fd5b6000600b83815481106119c8577f4e487b7100000000000000000000000000000000000000000000000000000000600052603260045260246000fd5b906000526020600020906005020190503373ffffffffffffffffffffffffffffffffffffffff168160030160009054906101000a900473ffffffffffffffffffffffffffffffffffffffff1673ffffffffffffffffffffffffffffffffffffffff1614611a3457600080fd5b611a3d83613105565b600b8381548110611a77577f4e487b7100000000000000000000000000000000000000000000000000000000600052603260045260246000fd5b906000526020600020906005020160008082016000611a9691906140a4565b60018201600090556002820160006101000a81549073ffffffffffffffffffffffffffffffffffffffff02191690556003820160006101000a81549073ffffffffffffffffffffffffffffffffffffffff02191690556003820160146101000a81549067ffffffffffffffff021916905560038201601c6101000a81549060ff0219169055600482016000611b2b91906140a4565b5050600d600084815260200190815260200160002060006101000a81549073ffffffffffffffffffffffffffffffffffffffff0219169055505050565b6000611b8f826001600086815260200190815260200160002061315890919063ffffffff16565b905092915050565b600080600084815260200190815260200160002060000160008373ffffffffffffffffffffffffffffffffffffffff1673ffffffffffffffffffffffffffffffffffffffff16815260200190815260200160002060009054906101000a900460ff16905092915050565b606060038054611c1090615874565b80601f0160208091040260200160405190810160405280929190818152602001828054611c3c90615874565b8015611c895780601f10611c5e57610100808354040283529160200191611c89565b820191906000526020600020905b815481529060010190602001808311611c6c57829003601f168201915b5050505050905090565b600060010281565b611ca3612dd9565b73ffffffffffffffffffffffffffffffffffffffff168273ffffffffffffffffffffffffffffffffffffffff161415611d11576040517f08c379a0000000000000000000000000000000000000000000000000000000008152600401611d089061538c565b60405180910390fd5b8060076000611d1e612dd9565b73ffffffffffffffffffffffffffffffffffffffff1673ffffffffffffffffffffffffffffffffffffffff16815260200190815260200160002060008473ffffffffffffffffffffffffffffffffffffffff1673ffffffffffffffffffffffffffffffffffffffff16815260200190815260200160002060006101000a81548160ff0219169083151502179055508173ffffffffffffffffffffffffffffffffffffffff16611dcb612dd9565b73ffffffffffffffffffffffffffffffffffffffff167f17307eab39ab6107e8899845ad3d59bd9653f200f220920489ca2b5937696c3183604051611e1091906151f7565b60405180910390a35050565b611e2d611e27612dd9565b83612f0e565b611e6c576040517f08c379a0000000000000000000000000000000000000000000000000000000008152600401611e639061556c565b60405180910390fd5b611e7884848484613173565b50505050565b600b8181548110611e8e57600080fd5b9060005260206000209060050201600091509050806000018054611eb190615874565b80601f0160208091040260200160405190810160405280929190818152602001828054611edd90615874565b8015611f2a5780601f10611eff57610100808354040283529160200191611f2a565b820191906000526020600020905b815481529060010190602001808311611f0d57829003601f168201915b5050505050908060010154908060020160009054906101000a900473ffffffffffffffffffffffffffffffffffffffff16908060030160009054906101000a900473ffffffffffffffffffffffffffffffffffffffff16908060030160149054906101000a900467ffffffffffffffff169080600301601c9054906101000a900460ff1690806004018054611fbe90615874565b80601f0160208091040260200160405190810160405280929190818152602001828054611fea90615874565b80156120375780601f1061200c57610100808354040283529160200191612037565b820191906000526020600020905b81548152906001019060200180831161201a57829003601f168201915b5050505050905087565b6000600d600083815260200190815260200160002060009054906101000a900473ffffffffffffffffffffffffffffffffffffffff169050919050565b606061208982612d6d565b6120c8576040517f08c379a00000000000000000000000000000000000000000000000000000000081526004016120bf906154ac565b60405180910390fd5b60006008600084815260200190815260200160002080546120e890615874565b80601f016020809104026020016040519081016040528092919081815260200182805461211490615874565b80156121615780601f1061213657610100808354040283529160200191612161565b820191906000526020600020905b81548152906001019060200180831161214457829003601f168201915b5050505050905060006121726131cf565b90506000815114156121885781925050506121cb565b6000825111156121bd5780826040516020016121a5929190615119565b604051602081830303815290604052925050506121cb565b6121c6846131e6565b925050505b919050565b60006121ed6001600084815260200190815260200160002061328d565b9050919050565b7f9f2df0fed2c77648de5860a4cc508cd0818c85b8b8a1ab4ceeef8d981c8956a681565b61222282826132a2565b61224781600160008581526020019081526020016000206130d590919063ffffffff16565b505050565b60006122586009613308565b9050600061226582613316565b90506000600a805461227690615874565b80601f01602080910402602001604051908101604052809291908181526020018280546122a290615874565b80156122ef5780601f106122c4576101008083540402835291602001916122ef565b820191906000526020600020905b8154815290600101906020018083116122d257829003601f168201915b5050505050905060006040518060400160405280600e81526020017f2f6d657461646174612e6a736f6e000000000000000000000000000000000000815250905060008284836040516020016123479392919061513d565b604051602081830303815290604052905060006040518060e001604052808881526020018781526020013373ffffffffffffffffffffffffffffffffffffffff1681526020013373ffffffffffffffffffffffffffffffffffffffff168152602001600067ffffffffffffffff168152602001600015158152602001838152509050600b819080600181540180825580915050600190039060005260206000209060050201600090919091909150600082015181600001908051906020019061241192919061401e565b506020820151816001015560408201518160020160006101000a81548173ffffffffffffffffffffffffffffffffffffffff021916908373ffffffffffffffffffffffffffffffffffffffff16021790555060608201518160030160006101000a81548173ffffffffffffffffffffffffffffffffffffffff021916908373ffffffffffffffffffffffffffffffffffffffff16021790555060808201518160030160146101000a81548167ffffffffffffffff021916908367ffffffffffffffff16021790555060a082015181600301601c6101000a81548160ff02191690831515021790555060c082015181600401908051906020019061251592919061401e565b50505061252233876134e2565b61252c8683612e9a565b33600d600088815260200190815260200160002060006101000a81548173ffffffffffffffffffffffffffffffffffffffff021916908373ffffffffffffffffffffffffffffffffffffffff1602179055506125886009613500565b50505050505050565b6060600080600080600060606000600b89815481106125d9577f4e487b7100000000000000000000000000000000000000000000000000000000600052603260045260246000fd5b906000526020600020906005020190508060000180546125f890615874565b80601f016020809104026020016040519081016040528092919081815260200182805461262490615874565b80156126715780601f1061264657610100808354040283529160200191612671565b820191906000526020600020905b81548152906001019060200180831161265457829003601f168201915b5050505050975080600101549650612688896114d0565b95508060030160009054906101000a900473ffffffffffffffffffffffffffffffffffffffff1694508060030160149054906101000a900467ffffffffffffffff16935080600301601c9054906101000a900460ff1692508060040180546126ef90615874565b80601f016020809104026020016040519081016040528092919081815260200182805461271b90615874565b80156127685780601f1061273d57610100808354040283529160200191612768565b820191906000526020600020905b81548152906001019060200180831161274b57829003601f168201915b5050505050915050919395979092949650565b6000600760008473ffffffffffffffffffffffffffffffffffffffff1673ffffffffffffffffffffffffffffffffffffffff16815260200190815260200160002060008373ffffffffffffffffffffffffffffffffffffffff1673ffffffffffffffffffffffffffffffffffffffff16815260200190815260200160002060009054906101000a900460ff16905092915050565b803373ffffffffffffffffffffffffffffffffffffffff16612830826114d0565b73ffffffffffffffffffffffffffffffffffffffff1614612886576040517f08c379a000000000000000000000000000000000000000000000000000000000815260040161287d906153ec565b60405180910390fd5b8273ffffffffffffffffffffffffffffffffffffffff16600c600084815260200190815260200160002060009054906101000a900473ffffffffffffffffffffffffffffffffffffffff1673ffffffffffffffffffffffffffffffffffffffff1614156128f257600080fd5b6000600b838154811061292e577f4e487b7100000000000000000000000000000000000000000000000000000000600052603260045260246000fd5b906000526020600020906005020190506001151581600301601c9054906101000a900460ff1615151461296057600080fd5b60008160030160149054906101000a900467ffffffffffffffff1667ffffffffffffffff161161298f57600080fd5b6129998484610c24565b83600c600085815260200190815260200160002060006101000a81548173ffffffffffffffffffffffffffffffffffffffff021916908373ffffffffffffffffffffffffffffffffffffffff16021790555050505050565b6129fb8282613516565b5050565b6000612a27836000018373ffffffffffffffffffffffffffffffffffffffff166001026135f6565b905092915050565b60007f80ac58cd000000000000000000000000000000000000000000000000000000007bffffffffffffffffffffffffffffffffffffffffffffffffffffffff1916827bffffffffffffffffffffffffffffffffffffffffffffffffffffffff19161480612afa57507f5b5e139f000000000000000000000000000000000000000000000000000000007bffffffffffffffffffffffffffffffffffffffffffffffffffffffff1916827bffffffffffffffffffffffffffffffffffffffffffffffffffffffff1916145b80612b0a5750612b0982613666565b5b9050919050565b8273ffffffffffffffffffffffffffffffffffffffff16612b31826114d0565b73ffffffffffffffffffffffffffffffffffffffff1614612b87576040517f08c379a0000000000000000000000000000000000000000000000000000000008152600401612b7e906154ec565b60405180910390fd5b600073ffffffffffffffffffffffffffffffffffffffff168273ffffffffffffffffffffffffffffffffffffffff161415612bf7576040517f08c379a0000000000000000000000000000000000000000000000000000000008152600401612bee9061536c565b60405180910390fd5b612c028383836136e0565b612c0d600082612de1565b6001600560008573ffffffffffffffffffffffffffffffffffffffff1673ffffffffffffffffffffffffffffffffffffffff1681526020019081526020016000206000828254612c5d919061576c565b925050819055506001600560008473ffffffffffffffffffffffffffffffffffffffff1673ffffffffffffffffffffffffffffffffffffffff1681526020019081526020016000206000828254612cb491906156e5565b92505081905550816004600083815260200190815260200160002060006101000a81548173ffffffffffffffffffffffffffffffffffffffff021916908373ffffffffffffffffffffffffffffffffffffffff160217905550808273ffffffffffffffffffffffffffffffffffffffff168473ffffffffffffffffffffffffffffffffffffffff167fddf252ad1be2c89b69c2b068fc378daa952ba7f163c4a11628f55a4df523b3ef60405160405180910390a4505050565b60008073ffffffffffffffffffffffffffffffffffffffff166004600084815260200190815260200160002060009054906101000a900473ffffffffffffffffffffffffffffffffffffffff1673ffffffffffffffffffffffffffffffffffffffff1614159050919050565b600033905090565b816006600083815260200190815260200160002060006101000a81548173ffffffffffffffffffffffffffffffffffffffff021916908373ffffffffffffffffffffffffffffffffffffffff160217905550808273ffffffffffffffffffffffffffffffffffffffff16612e54836114d0565b73ffffffffffffffffffffffffffffffffffffffff167f8c5be1e5ebec7d5bd14f71427d1e84f3dd0314c0f7b2291e5b200ac8c7c3b92560405160405180910390a45050565b612ea382612d6d565b612ee2576040517f08c379a0000000000000000000000000000000000000000000000000000000008152600401612ed99061546c565b60405180910390fd5b80600860008481526020019081526020016000209080519060200190612f0992919061401e565b505050565b6000612f1982612d6d565b612f58576040517f08c379a0000000000000000000000000000000000000000000000000000000008152600401612f4f906153ac565b60405180910390fd5b6000612f63836114d0565b90508073ffffffffffffffffffffffffffffffffffffffff168473ffffffffffffffffffffffffffffffffffffffff161480612fd257508373ffffffffffffffffffffffffffffffffffffffff16612fba84610b9f565b73ffffffffffffffffffffffffffffffffffffffff16145b80612fe35750612fe2818561277b565b5b91505092915050565b613005612ff883610e6f565b613000612dd9565b611b97565b613044576040517f08c379a000000000000000000000000000000000000000000000000000000000815260040161303b906152ec565b60405180910390fd5b61304e8282613516565b5050565b61305a612dd9565b73ffffffffffffffffffffffffffffffffffffffff168173ffffffffffffffffffffffffffffffffffffffff16146130c7576040517f08c379a00000000000000000000000000000000000000000000000000000000081526004016130be9061558c565b60405180910390fd5b6130d182826136e5565b5050565b60006130fd836000018373ffffffffffffffffffffffffffffffffffffffff166001026137c6565b905092915050565b61310e81613950565b600060086000838152602001908152602001600020805461312e90615874565b9050146131555760086000828152602001908152602001600020600061315491906140a4565b5b50565b60006131678360000183613a61565b60019004905092915050565b61317e848484612b11565b61318a84848484613afb565b6131c9576040517f08c379a00000000000000000000000000000000000000000000000000000000081526004016131c09061530c565b60405180910390fd5b50505050565b606060405180602001604052806000815250905090565b60606131f182612d6d565b613230576040517f08c379a00000000000000000000000000000000000000000000000000000000081526004016132279061550c565b60405180910390fd5b600061323a6131cf565b9050600081511161325a5760405180602001604052806000815250613285565b8061326484613316565b604051602001613275929190615119565b6040516020818303038152906040525b915050919050565b600061329b82600001613cca565b9050919050565b6132bb6132ae83610e6f565b6132b6612dd9565b611b97565b6132fa576040517f08c379a00000000000000000000000000000000000000000000000000000000081526004016132f1906153cc565b60405180910390fd5b61330482826136e5565b5050565b600081600001549050919050565b6060600082141561335e576040518060400160405280600181526020017f300000000000000000000000000000000000000000000000000000000000000081525090506134dd565b600082905060005b60008214613390578080613379906158a6565b915050600a82613389919061573b565b9150613366565b60008167ffffffffffffffff8111156133d2577f4e487b7100000000000000000000000000000000000000000000000000000000600052604160045260246000fd5b6040519080825280601f01601f1916602001820160405280156134045781602001600182028036833780820191505090505b5090505b600085146134d65760018261341d919061576c565b9150600a8561342c91906158ef565b603061343891906156e5565b7f010000000000000000000000000000000000000000000000000000000000000002818381518110613493577f4e487b7100000000000000000000000000000000000000000000000000000000600052603260045260246000fd5b60200101907effffffffffffffffffffffffffffffffffffffffffffffffffffffffffffff1916908160001a905350600a856134cf919061573b565b9450613408565b8093505050505b919050565b6134fc828260405180602001604052806000815250613cdb565b5050565b6001816000016000828254019250508190555050565b6135208282611b97565b6135f257600160008084815260200190815260200160002060000160008373ffffffffffffffffffffffffffffffffffffffff1673ffffffffffffffffffffffffffffffffffffffff16815260200190815260200160002060006101000a81548160ff021916908315150217905550613597612dd9565b73ffffffffffffffffffffffffffffffffffffffff168173ffffffffffffffffffffffffffffffffffffffff16837f2f8788117e7eff1d82e926ec794901d17c78024a50270940304540a733656f0d60405160405180910390a45b5050565b60006136028383613d36565b61365b578260000182908060018154018082558091505060019003906000526020600020016000909190919091505582600001805490508360010160008481526020019081526020016000208190555060019050613660565b600090505b92915050565b60007f5a05180f000000000000000000000000000000000000000000000000000000007bffffffffffffffffffffffffffffffffffffffffffffffffffffffff1916827bffffffffffffffffffffffffffffffffffffffffffffffffffffffff191614806136d957506136d882613d59565b5b9050919050565b505050565b6136ef8282611b97565b156137c257600080600084815260200190815260200160002060000160008373ffffffffffffffffffffffffffffffffffffffff1673ffffffffffffffffffffffffffffffffffffffff16815260200190815260200160002060006101000a81548160ff021916908315150217905550613767612dd9565b73ffffffffffffffffffffffffffffffffffffffff168173ffffffffffffffffffffffffffffffffffffffff16837ff6391f5c32d9c69d2a47ea670b442974b53935d1edc7fd64eb21e047a839171b60405160405180910390a45b5050565b600080836001016000848152602001908152602001600020549050600081146139445760006001826137f8919061576c565b9050600060018660000180549050613810919061576c565b90506000866000018281548110613850577f4e487b7100000000000000000000000000000000000000000000000000000000600052603260045260246000fd5b906000526020600020015490508087600001848154811061389a577f4e487b7100000000000000000000000000000000000000000000000000000000600052603260045260246000fd5b90600052602060002001819055506001836138b591906156e5565b8760010160008381526020019081526020016000208190555086600001805480613908577f4e487b7100000000000000000000000000000000000000000000000000000000600052603160045260246000fd5b6001900381819060005260206000200160009055905586600101600087815260200190815260200160002060009055600194505050505061394a565b60009150505b92915050565b600061395b826114d0565b9050613969816000846136e0565b613974600083612de1565b6001600560008373ffffffffffffffffffffffffffffffffffffffff1673ffffffffffffffffffffffffffffffffffffffff16815260200190815260200160002060008282546139c4919061576c565b925050819055506004600083815260200190815260200160002060006101000a81549073ffffffffffffffffffffffffffffffffffffffff021916905581600073ffffffffffffffffffffffffffffffffffffffff168273ffffffffffffffffffffffffffffffffffffffff167fddf252ad1be2c89b69c2b068fc378daa952ba7f163c4a11628f55a4df523b3ef60405160405180910390a45050565b600081836000018054905011613aac576040517f08c379a0000000000000000000000000000000000000000000000000000000008152600401613aa3906152cc565b60405180910390fd5b826000018281548110613ae8577f4e487b7100000000000000000000000000000000000000000000000000000000600052603260045260246000fd5b9060005260206000200154905092915050565b6000613b1c8473ffffffffffffffffffffffffffffffffffffffff16613dd3565b15613cbd578373ffffffffffffffffffffffffffffffffffffffff1663150b7a02613b45612dd9565b8786866040518563ffffffff167c0100000000000000000000000000000000000000000000000000000000028152600401613b839493929190615189565b602060405180830381600087803b158015613b9d57600080fd5b505af1925050508015613bce57506040513d601f19601f82011682018060405250810190613bcb91906144d5565b60015b613c51573d8060008114613bfe576040519150601f19603f3d011682016040523d82523d6000602084013e613c03565b606091505b50600081511415613c49576040517f08c379a0000000000000000000000000000000000000000000000000000000008152600401613c409061530c565b60405180910390fd5b805181602001fd5b63150b7a027c0100000000000000000000000000000000000000000000000000000000027bffffffffffffffffffffffffffffffffffffffffffffffffffffffff1916817bffffffffffffffffffffffffffffffffffffffffffffffffffffffff191614915050613cc2565b600190505b949350505050565b600081600001805490509050919050565b613ce58383613de6565b613cf26000848484613afb565b613d31576040517f08c379a0000000000000000000000000000000000000000000000000000000008152600401613d289061530c565b60405180910390fd5b505050565b600080836001016000848152602001908152602001600020541415905092915050565b60007f7965db0b000000000000000000000000000000000000000000000000000000007bffffffffffffffffffffffffffffffffffffffffffffffffffffffff1916827bffffffffffffffffffffffffffffffffffffffffffffffffffffffff19161480613dcc5750613dcb82613fb4565b5b9050919050565b600080823b905060008111915050919050565b600073ffffffffffffffffffffffffffffffffffffffff168273ffffffffffffffffffffffffffffffffffffffff161415613e56576040517f08c379a0000000000000000000000000000000000000000000000000000000008152600401613e4d9061548c565b60405180910390fd5b613e5f81612d6d565b15613e9f576040517f08c379a0000000000000000000000000000000000000000000000000000000008152600401613e969061532c565b60405180910390fd5b613eab600083836136e0565b6001600560008473ffffffffffffffffffffffffffffffffffffffff1673ffffffffffffffffffffffffffffffffffffffff1681526020019081526020016000206000828254613efb91906156e5565b92505081905550816004600083815260200190815260200160002060006101000a81548173ffffffffffffffffffffffffffffffffffffffff021916908373ffffffffffffffffffffffffffffffffffffffff160217905550808273ffffffffffffffffffffffffffffffffffffffff16600073ffffffffffffffffffffffffffffffffffffffff167fddf252ad1be2c89b69c2b068fc378daa952ba7f163c4a11628f55a4df523b3ef60405160405180910390a45050565b60007f01ffc9a7000000000000000000000000000000000000000000000000000000007bffffffffffffffffffffffffffffffffffffffffffffffffffffffff1916827bffffffffffffffffffffffffffffffffffffffffffffffffffffffff1916149050919050565b82805461402a90615874565b90600052602060002090601f01602090048101928261404c5760008555614093565b82601f1061406557805160ff1916838001178555614093565b82800160010185558215614093579182015b82811115614092578251825591602001919060010190614077565b5b5090506140a091906140e4565b5090565b5080546140b090615874565b6000825580601f106140c257506140e1565b601f0160209004906000526020600020908101906140e091906140e4565b5b50565b5b808211156140fd5760008160009055506001016140e5565b5090565b600061411461410f846155f8565b6155c7565b90508281526020810184848401111561412c57600080fd5b614137848285615832565b509392505050565b600061415261414d84615628565b6155c7565b90508281526020810184848401111561416a57600080fd5b614175848285615832565b509392505050565b60008135905061418c816159ed565b92915050565b6000813590506141a181615a04565b92915050565b6000813590506141b681615a1b565b92915050565b6000813590506141cb81615a32565b92915050565b6000815190506141e081615a32565b92915050565b600082601f8301126141f757600080fd5b8135614207848260208601614101565b91505092915050565b600082601f83011261422157600080fd5b813561423184826020860161413f565b91505092915050565b60008135905061424981615a49565b92915050565b60008135905061425e81615a60565b92915050565b60006020828403121561427657600080fd5b60006142848482850161417d565b91505092915050565b600080604083850312156142a057600080fd5b60006142ae8582860161417d565b92505060206142bf8582860161417d565b9150509250929050565b6000806000606084860312156142de57600080fd5b60006142ec8682870161417d565b93505060206142fd8682870161417d565b925050604061430e8682870161423a565b9150509250925092565b6000806000806080858703121561432e57600080fd5b600061433c8782880161417d565b945050602061434d8782880161417d565b935050604061435e8782880161423a565b925050606085013567ffffffffffffffff81111561437b57600080fd5b614387878288016141e6565b91505092959194509250565b600080604083850312156143a657600080fd5b60006143b48582860161417d565b92505060206143c585828601614192565b9150509250929050565b600080604083850312156143e257600080fd5b60006143f08582860161417d565b92505060206144018582860161423a565b9150509250929050565b60006020828403121561441d57600080fd5b600061442b848285016141a7565b91505092915050565b6000806040838503121561444757600080fd5b6000614455858286016141a7565b92505060206144668582860161417d565b9150509250929050565b6000806040838503121561448357600080fd5b6000614491858286016141a7565b92505060206144a28582860161423a565b9150509250929050565b6000602082840312156144be57600080fd5b60006144cc848285016141bc565b91505092915050565b6000602082840312156144e757600080fd5b60006144f5848285016141d1565b91505092915050565b60006020828403121561451057600080fd5b600082013567ffffffffffffffff81111561452a57600080fd5b61453684828501614210565b91505092915050565b60006020828403121561455157600080fd5b600061455f8482850161423a565b91505092915050565b6000806040838503121561457b57600080fd5b60006145898582860161423a565b925050602083013567ffffffffffffffff8111156145a657600080fd5b6145b285828601614210565b9150509250929050565b600080604083850312156145cf57600080fd5b60006145dd8582860161423a565b92505060206145ee8582860161424f565b9150509250929050565b6000614604838361503a565b905092915050565b614615816157a0565b82525050565b614624816157a0565b82525050565b600061463582615668565b61463f8185615696565b93508360208202850161465185615658565b8060005b8581101561468d578484038952815161466e85826145f8565b945061467983615689565b925060208a01995050600181019050614655565b50829750879550505050505092915050565b6146a8816157b2565b82525050565b6146b7816157b2565b82525050565b6146c6816157be565b82525050565b60006146d782615673565b6146e181856156a7565b93506146f1818560208601615841565b6146fa816159dc565b840191505092915050565b60006147108261567e565b61471a81856156b8565b935061472a818560208601615841565b614733816159dc565b840191505092915050565b60006147498261567e565b61475381856156c9565b9350614763818560208601615841565b61476c816159dc565b840191505092915050565b60006147828261567e565b61478c81856156da565b935061479c818560208601615841565b80840191505092915050565b60006147b56022836156c9565b91507f456e756d657261626c655365743a20696e646578206f7574206f6620626f756e60008301527f64730000000000000000000000000000000000000000000000000000000000006020830152604082019050919050565b600061481b602f836156c9565b91507f416363657373436f6e74726f6c3a2073656e646572206d75737420626520616e60008301527f2061646d696e20746f206772616e7400000000000000000000000000000000006020830152604082019050919050565b60006148816032836156c9565b91507f4552433732313a207472616e7366657220746f206e6f6e20455243373231526560008301527f63656976657220696d706c656d656e74657200000000000000000000000000006020830152604082019050919050565b60006148e7601c836156c9565b91507f4552433732313a20746f6b656e20616c7265616479206d696e746564000000006000830152602082019050919050565b60006149276021836156c9565b91507f4f776e65722063616e6e6f742065786563757465206275792066756e6374696f60008301527f6e000000000000000000000000000000000000000000000000000000000000006020830152604082019050919050565b600061498d6024836156c9565b91507f4552433732313a207472616e7366657220746f20746865207a65726f2061646460008301527f72657373000000000000000000000000000000000000000000000000000000006020830152604082019050919050565b60006149f36019836156c9565b91507f4552433732313a20617070726f766520746f2063616c6c6572000000000000006000830152602082019050919050565b6000614a33602c836156c9565b91507f4552433732313a206f70657261746f7220717565727920666f72206e6f6e657860008301527f697374656e7420746f6b656e00000000000000000000000000000000000000006020830152604082019050919050565b6000614a996030836156c9565b91507f416363657373436f6e74726f6c3a2073656e646572206d75737420626520616e60008301527f2061646d696e20746f207265766f6b65000000000000000000000000000000006020830152604082019050919050565b6000614aff601c836156c9565b91507f43616c6c6572206973206e6f74206f776e6572206f6620546f6b656e000000006000830152602082019050919050565b6000614b3f6038836156c9565b91507f4552433732313a20617070726f76652063616c6c6572206973206e6f74206f7760008301527f6e6572206e6f7220617070726f76656420666f7220616c6c00000000000000006020830152604082019050919050565b6000614ba5602a836156c9565b91507f4552433732313a2062616c616e636520717565727920666f7220746865207a6560008301527f726f2061646472657373000000000000000000000000000000000000000000006020830152604082019050919050565b6000614c0b6029836156c9565b91507f4552433732313a206f776e657220717565727920666f72206e6f6e657869737460008301527f656e7420746f6b656e00000000000000000000000000000000000000000000006020830152604082019050919050565b6000614c71602e836156c9565b91507f45524337323155524953746f726167653a2055524920736574206f66206e6f6e60008301527f6578697374656e7420746f6b656e0000000000000000000000000000000000006020830152604082019050919050565b6000614cd76020836156c9565b91507f4552433732313a206d696e7420746f20746865207a65726f20616464726573736000830152602082019050919050565b6000614d176031836156c9565b91507f45524337323155524953746f726167653a2055524920717565727920666f722060008301527f6e6f6e6578697374656e7420746f6b656e0000000000000000000000000000006020830152604082019050919050565b6000614d7d602c836156c9565b91507f4552433732313a20617070726f76656420717565727920666f72206e6f6e657860008301527f697374656e7420746f6b656e00000000000000000000000000000000000000006020830152604082019050919050565b6000614de36029836156c9565b91507f4552433732313a207472616e73666572206f6620746f6b656e2074686174206960008301527f73206e6f74206f776e00000000000000000000000000000000000000000000006020830152604082019050919050565b6000614e49602f836156c9565b91507f4552433732314d657461646174613a2055524920717565727920666f72206e6f60008301527f6e6578697374656e7420746f6b656e00000000000000000000000000000000006020830152604082019050919050565b6000614eaf602e836156c9565b91507f4552433732313a206d75737420686176652061646d696e20726f6c6520746f2060008301527f73657420546f6b656e20555249730000000000000000000000000000000000006020830152604082019050919050565b6000614f156021836156c9565b91507f4552433732313a20617070726f76616c20746f2063757272656e74206f776e6560008301527f72000000000000000000000000000000000000000000000000000000000000006020830152604082019050919050565b6000614f7b6031836156c9565b91507f4552433732313a207472616e736665722063616c6c6572206973206e6f74206f60008301527f776e6572206e6f7220617070726f7665640000000000000000000000000000006020830152604082019050919050565b6000614fe1602f836156c9565b91507f416363657373436f6e74726f6c3a2063616e206f6e6c792072656e6f756e636560008301527f20726f6c657320666f722073656c6600000000000000000000000000000000006020830152604082019050919050565b600060e08301600083015184820360008601526150578282614705565b915050602083015161506c60208601826150dd565b50604083015161507f604086018261460c565b506060830151615092606086018261460c565b5060808301516150a560808601826150fb565b5060a08301516150b860a086018261469f565b5060c083015184820360c08601526150d08282614705565b9150508091505092915050565b6150e681615814565b82525050565b6150f581615814565b82525050565b6151048161581e565b82525050565b6151138161581e565b82525050565b60006151258285614777565b91506151318284614777565b91508190509392505050565b60006151498286614777565b91506151558285614777565b91506151618284614777565b9150819050949350505050565b6000602082019050615183600083018461461b565b92915050565b600060808201905061519e600083018761461b565b6151ab602083018661461b565b6151b860408301856150ec565b81810360608301526151ca81846146cc565b905095945050505050565b600060208201905081810360008301526151ef818461462a565b905092915050565b600060208201905061520c60008301846146ae565b92915050565b600060208201905061522760008301846146bd565b92915050565b60006020820190508181036000830152615247818461473e565b905092915050565b600060e0820190508181036000830152615269818a61473e565b905061527860208301896150ec565b615285604083018861461b565b615292606083018761461b565b61529f608083018661510a565b6152ac60a08301856146ae565b81810360c08301526152be818461473e565b905098975050505050505050565b600060208201905081810360008301526152e5816147a8565b9050919050565b600060208201905081810360008301526153058161480e565b9050919050565b6000602082019050818103600083015261532581614874565b9050919050565b60006020820190508181036000830152615345816148da565b9050919050565b600060208201905081810360008301526153658161491a565b9050919050565b6000602082019050818103600083015261538581614980565b9050919050565b600060208201905081810360008301526153a5816149e6565b9050919050565b600060208201905081810360008301526153c581614a26565b9050919050565b600060208201905081810360008301526153e581614a8c565b9050919050565b6000602082019050818103600083015261540581614af2565b9050919050565b6000602082019050818103600083015261542581614b32565b9050919050565b6000602082019050818103600083015261544581614b98565b9050919050565b6000602082019050818103600083015261546581614bfe565b9050919050565b6000602082019050818103600083015261548581614c64565b9050919050565b600060208201905081810360008301526154a581614cca565b9050919050565b600060208201905081810360008301526154c581614d0a565b9050919050565b600060208201905081810360008301526154e581614d70565b9050919050565b6000602082019050818103600083015261550581614dd6565b9050919050565b6000602082019050818103600083015261552581614e3c565b9050919050565b6000602082019050818103600083015261554581614ea2565b9050919050565b6000602082019050818103600083015261556581614f08565b9050919050565b6000602082019050818103600083015261558581614f6e565b9050919050565b600060208201905081810360008301526155a581614fd4565b9050919050565b60006020820190506155c160008301846150ec565b92915050565b6000604051905081810181811067ffffffffffffffff821117156155ee576155ed6159ad565b5b8060405250919050565b600067ffffffffffffffff821115615613576156126159ad565b5b601f19601f8301169050602081019050919050565b600067ffffffffffffffff821115615643576156426159ad565b5b601f19601f8301169050602081019050919050565b6000819050602082019050919050565b600081519050919050565b600081519050919050565b600081519050919050565b6000602082019050919050565b600082825260208201905092915050565b600082825260208201905092915050565b600082825260208201905092915050565b600082825260208201905092915050565b600081905092915050565b60006156f082615814565b91506156fb83615814565b9250827fffffffffffffffffffffffffffffffffffffffffffffffffffffffffffffffff038211156157305761572f615920565b5b828201905092915050565b600061574682615814565b915061575183615814565b9250826157615761576061594f565b5b828204905092915050565b600061577782615814565b915061578283615814565b92508282101561579557615794615920565b5b828203905092915050565b60006157ab826157f4565b9050919050565b60008115159050919050565b6000819050919050565b60007fffffffff0000000000000000000000000000000000000000000000000000000082169050919050565b600073ffffffffffffffffffffffffffffffffffffffff82169050919050565b6000819050919050565b600067ffffffffffffffff82169050919050565b82818337600083830152505050565b60005b8381101561585f578082015181840152602081019050615844565b8381111561586e576000848401525b50505050565b6000600282049050600182168061588c57607f821691505b602082108114156158a05761589f61597e565b5b50919050565b60006158b182615814565b91507fffffffffffffffffffffffffffffffffffffffffffffffffffffffffffffffff8214156158e4576158e3615920565b5b600182019050919050565b60006158fa82615814565b915061590583615814565b9250826159155761591461594f565b5b828206905092915050565b7f4e487b7100000000000000000000000000000000000000000000000000000000600052601160045260246000fd5b7f4e487b7100000000000000000000000000000000000000000000000000000000600052601260045260246000fd5b7f4e487b7100000000000000000000000000000000000000000000000000000000600052602260045260246000fd5b7f4e487b7100000000000000000000000000000000000000000000000000000000600052604160045260246000fd5b6000601f19601f8301169050919050565b6159f6816157a0565b8114615a0157600080fd5b50565b615a0d816157b2565b8114615a1857600080fd5b50565b615a24816157be565b8114615a2f57600080fd5b50565b615a3b816157c8565b8114615a4657600080fd5b50565b615a5281615814565b8114615a5d57600080fd5b50565b615a698161581e565b8114615a7457600080fd5b5056fea26469706673582212201b1be4cfc12b1611bb8fb0244598c9166ce6e75a0969adf72830dc9ccb30b4da64736f6c63430008000033",
  "immutableReferences": {},
  "source": "// SPDX-License-Identifier: MIT\npragma solidity ^0.8.0;\n\n// import \"@openzeppelin/contracts/token/ERC721/extensions/ERC721Enumerable.sol\";\nimport \"@openzeppelin/contracts/access/AccessControlEnumerable.sol\";\nimport \"@openzeppelin/contracts/token/ERC721/extensions/ERC721URIStorage.sol\";\nimport \"@openzeppelin/contracts/utils/Counters.sol\";\nimport \"@openzeppelin/contracts/utils/Strings.sol\";\n\ncontract CloseSeaNFT is AccessControlEnumerable, ERC721URIStorage{\nusing Counters for Counters.Counter;\nCounters.Counter private tokenId;\n\n bytes32 public constant MINTER_ROLE = keccak256(\"MINTER_ROLE\");\n  string private _internalBaseURI = \"http://localhost:8000/\";\n\nconstructor() ERC721('BitEth NFT','BTE') {\n     _setupRole(DEFAULT_ADMIN_ROLE, msg.sender);\n}\n\nstruct Item{\n    string itemName;\n    uint id;\n    address owner;\n    address creator;\n    uint64 price;\n    bool forSale;\n    string tokenURI;\n}\n\nItem [] public items;\nmapping (uint => address) private _tokenApprovals;\nmapping (uint => address) itemToOwner;\n\nmodifier onlyOwnerOf (uint _tokenId) {\n    require ((ownerOf(_tokenId) == msg.sender), \"Caller is not owner of Token\");\n    _;\n}\n\n function supportsInterface(bytes4 interfaceId) public view virtual override(ERC721, AccessControlEnumerable) returns (bool) {\n        return super.supportsInterface(interfaceId);\n    }\n\nfunction mint(string memory _itemName) external{\n    uint currentId = tokenId.current();\n    string memory idString = Strings.toString(currentId);\n    string memory baseURI = _internalBaseURI;\n    string memory metadata = \"/metadata.json\";\n    string memory url = string(abi.encodePacked(baseURI, idString, metadata));\n\n    Item memory _item = Item({\n        itemName: _itemName,\n        id: currentId,\n        owner: msg.sender,\n        creator: msg.sender,\n        price: 0,\n        forSale: false,\n        tokenURI: url\n    });\n    items.push(_item);\n    _safeMint(msg.sender, currentId);\n    _setTokenURI(currentId, url);\n    itemToOwner[currentId] = msg.sender;\n    tokenId.increment();\n}\n\nfunction tokenOnSale (uint _tokenId, uint64 price) external onlyOwnerOf(_tokenId){\n    Item storage _item = items[_tokenId];\n    require(_item.forSale == false);\n    _item.price = price;\n    _item.forSale = true;\n    // approve(address(this), _tokenId);\n    // safeTransferFrom(ownerOf(_tokenId), address(this), _tokenId);\n}\n\nfunction notForSale (uint _tokenId) external onlyOwnerOf(_tokenId){\n    Item storage _item = items[_tokenId];\n    require(_item.forSale == true);\n    _item.price = 0;\n    _item.forSale = false;\n}\n\nfunction approvalTo (address _to, uint _tokenId) external onlyOwnerOf(_tokenId){\n    require(_tokenApprovals[_tokenId] != _to);\n    Item storage _item = items[_tokenId];\n    require(_item.forSale == true);\n    require(_item.price > 0);\n    approve(_to,_tokenId);\n    _tokenApprovals[_tokenId] = _to;\n}\n\nfunction cancelApproval (uint _tokenId) external onlyOwnerOf(_tokenId){\n    _tokenApprovals[_tokenId] = address(0);\n}\n\nfunction buyingWithApproval (uint _tokenId) external payable {\n    require (ownerOf(_tokenId) != msg.sender, \"Owner cannot execute buy function\");\n    require (_tokenApprovals[_tokenId] == msg.sender);\n    Item storage _item = items[_tokenId];\n    require(_item.forSale == true);\n    address _from = ownerOf(_tokenId);\n    safeTransferFrom(_from, msg.sender, _tokenId);\n    itemToOwner[_tokenId] = msg.sender;\n    _item.owner = msg.sender;\n    _item.price = 0;\n    _item.forSale = false;\n    _tokenApprovals[_tokenId] = address(0);\n}\n\nfunction buyingWithoutApproval (uint _tokenId) external payable {\n    require (ownerOf(_tokenId) != msg.sender);\n    Item storage _item = items[_tokenId];\n    require(_item.forSale == true);\n    address _from = ownerOf(_tokenId);\n    _transfer(_from, msg.sender, _tokenId);\n    itemToOwner[_tokenId] = msg.sender;\n    _item.owner = msg.sender;\n    _item.price = 0;\n    _item.forSale = false;\n}\n\nfunction burnToken (uint _tokenId) external onlyOwnerOf(_tokenId) {\n    Item storage _item = items[_tokenId];\n    require(_item.creator == msg.sender);\n    _burn(_tokenId);\n    delete items[_tokenId];\n    delete itemToOwner[_tokenId];\n}\n\nfunction getAllItems () external view returns(Item[] memory){\n    return items;\n}\n\nfunction getURI (uint _tokenId) external view returns (string memory){\n    return tokenURI(_tokenId);\n}\n\nfunction getOwner (uint _tokenId) external view returns (address){\n    return itemToOwner[_tokenId];\n}\n\nfunction isApproved (uint _tokenId) external view returns (address){\n    return _tokenApprovals[_tokenId];\n}\n\nfunction getToken(uint _tokenId) external view returns (string memory name, uint id, address owner, address creator, uint64 price, bool forSale, string memory tokenURI){\n    Item storage _item = items[_tokenId];\n    name = _item.itemName;\n    id = _item.id;\n    owner = ownerOf(_tokenId);\n    creator = _item.creator;\n    price = _item.price;\n    forSale = _item.forSale;\n    tokenURI = _item.tokenURI;\n}\n  function setTokenURI(uint256 _tokenId, string memory _tokenURI) public {\n        require(\n            hasRole(DEFAULT_ADMIN_ROLE, msg.sender),\n            \"ERC721: must have admin role to set Token URIs\"\n        );\n        super._setTokenURI(_tokenId, _tokenURI);\n        Item storage _item = items[_tokenId];\n        _item.tokenURI = _tokenURI;\n    }\n}",
  "sourcePath": "/Users/philemon/crypto_coin/src/contracts/CloseSeaNFT.sol",
  "compiler": {
    "name": "solc",
    "version": "0.8.0+commit.c7dfd78e.Emscripten.clang"
  },
  "schemaVersion": "3.3.4",
  "updatedAt": "2021-04-30T11:06:59.536Z",
  "networkType": "ethereum",
  "devdoc": {
    "kind": "dev",
    "methods": {
      "approve(address,uint256)": {
        "details": "See {IERC721-approve}."
      },
      "balanceOf(address)": {
        "details": "See {IERC721-balanceOf}."
      },
      "getApproved(uint256)": {
        "details": "See {IERC721-getApproved}."
      },
      "getRoleAdmin(bytes32)": {
        "details": "Returns the admin role that controls `role`. See {grantRole} and {revokeRole}. To change a role's admin, use {_setRoleAdmin}."
      },
      "getRoleMember(bytes32,uint256)": {
        "details": "Returns one of the accounts that have `role`. `index` must be a value between 0 and {getRoleMemberCount}, non-inclusive. Role bearers are not sorted in any particular way, and their ordering may change at any point. WARNING: When using {getRoleMember} and {getRoleMemberCount}, make sure you perform all queries on the same block. See the following https://forum.openzeppelin.com/t/iterating-over-elements-on-enumerableset-in-openzeppelin-contracts/2296[forum post] for more information."
      },
      "getRoleMemberCount(bytes32)": {
        "details": "Returns the number of accounts that have `role`. Can be used together with {getRoleMember} to enumerate all bearers of a role."
      },
      "grantRole(bytes32,address)": {
        "details": "Overload {grantRole} to track enumerable memberships"
      },
      "hasRole(bytes32,address)": {
        "details": "Returns `true` if `account` has been granted `role`."
      },
      "isApprovedForAll(address,address)": {
        "details": "See {IERC721-isApprovedForAll}."
      },
      "name()": {
        "details": "See {IERC721Metadata-name}."
      },
      "ownerOf(uint256)": {
        "details": "See {IERC721-ownerOf}."
      },
      "renounceRole(bytes32,address)": {
        "details": "Overload {renounceRole} to track enumerable memberships"
      },
      "revokeRole(bytes32,address)": {
        "details": "Overload {revokeRole} to track enumerable memberships"
      },
      "safeTransferFrom(address,address,uint256)": {
        "details": "See {IERC721-safeTransferFrom}."
      },
      "safeTransferFrom(address,address,uint256,bytes)": {
        "details": "See {IERC721-safeTransferFrom}."
      },
      "setApprovalForAll(address,bool)": {
        "details": "See {IERC721-setApprovalForAll}."
      },
      "symbol()": {
        "details": "See {IERC721Metadata-symbol}."
      },
      "tokenURI(uint256)": {
        "details": "See {IERC721Metadata-tokenURI}."
      },
      "transferFrom(address,address,uint256)": {
        "details": "See {IERC721-transferFrom}."
      }
    },
    "version": 1
  },
  "userdoc": {
    "kind": "user",
    "methods": {},
    "version": 1
  }
}