{
  "contractName": "Color",
  "abi": [
    {
      "inputs": [],
      "stateMutability": "nonpayable",
      "type": "constructor"
    },
    {
      "anonymous": false,
      "inputs": [
        {
          "indexed": true,
          "internalType": "address",
          "name": "owner",
          "type": "address"
        },
        {
          "indexed": true,
          "internalType": "address",
          "name": "approved",
          "type": "address"
        },
        {
          "indexed": true,
          "internalType": "uint256",
          "name": "tokenId",
          "type": "uint256"
        }
      ],
      "name": "Approval",
      "type": "event"
    },
    {
      "anonymous": false,
      "inputs": [
        {
          "indexed": true,
          "internalType": "address",
          "name": "owner",
          "type": "address"
        },
        {
          "indexed": true,
          "internalType": "address",
          "name": "operator",
          "type": "address"
        },
        {
          "indexed": false,
          "internalType": "bool",
          "name": "approved",
          "type": "bool"
        }
      ],
      "name": "ApprovalForAll",
      "type": "event"
    },
    {
      "anonymous": false,
      "inputs": [
        {
          "indexed": true,
          "internalType": "address",
          "name": "from",
          "type": "address"
        },
        {
          "indexed": true,
          "internalType": "address",
          "name": "to",
          "type": "address"
        },
        {
          "indexed": true,
          "internalType": "uint256",
          "name": "tokenId",
          "type": "uint256"
        }
      ],
      "name": "Transfer",
      "type": "event"
    },
    {
      "inputs": [
        {
          "internalType": "address",
          "name": "to",
          "type": "address"
        },
        {
          "internalType": "uint256",
          "name": "tokenId",
          "type": "uint256"
        }
      ],
      "name": "approve",
      "outputs": [],
      "stateMutability": "nonpayable",
      "type": "function"
    },
    {
      "inputs": [
        {
          "internalType": "address",
          "name": "owner",
          "type": "address"
        }
      ],
      "name": "balanceOf",
      "outputs": [
        {
          "internalType": "uint256",
          "name": "",
          "type": "uint256"
        }
      ],
      "stateMutability": "view",
      "type": "function"
    },
    {
      "inputs": [
        {
          "internalType": "uint256",
          "name": "tokenId",
          "type": "uint256"
        }
      ],
      "name": "getApproved",
      "outputs": [
        {
          "internalType": "address",
          "name": "",
          "type": "address"
        }
      ],
      "stateMutability": "view",
      "type": "function"
    },
    {
      "inputs": [
        {
          "internalType": "address",
          "name": "owner",
          "type": "address"
        },
        {
          "internalType": "address",
          "name": "operator",
          "type": "address"
        }
      ],
      "name": "isApprovedForAll",
      "outputs": [
        {
          "internalType": "bool",
          "name": "",
          "type": "bool"
        }
      ],
      "stateMutability": "view",
      "type": "function"
    },
    {
      "inputs": [],
      "name": "name",
      "outputs": [
        {
          "internalType": "string",
          "name": "",
          "type": "string"
        }
      ],
      "stateMutability": "view",
      "type": "function"
    },
    {
      "inputs": [
        {
          "internalType": "uint256",
          "name": "tokenId",
          "type": "uint256"
        }
      ],
      "name": "ownerOf",
      "outputs": [
        {
          "internalType": "address",
          "name": "",
          "type": "address"
        }
      ],
      "stateMutability": "view",
      "type": "function"
    },
    {
      "inputs": [
        {
          "internalType": "address",
          "name": "from",
          "type": "address"
        },
        {
          "internalType": "address",
          "name": "to",
          "type": "address"
        },
        {
          "internalType": "uint256",
          "name": "tokenId",
          "type": "uint256"
        }
      ],
      "name": "safeTransferFrom",
      "outputs": [],
      "stateMutability": "nonpayable",
      "type": "function"
    },
    {
      "inputs": [
        {
          "internalType": "address",
          "name": "from",
          "type": "address"
        },
        {
          "internalType": "address",
          "name": "to",
          "type": "address"
        },
        {
          "internalType": "uint256",
          "name": "tokenId",
          "type": "uint256"
        },
        {
          "internalType": "bytes",
          "name": "_data",
          "type": "bytes"
        }
      ],
      "name": "safeTransferFrom",
      "outputs": [],
      "stateMutability": "nonpayable",
      "type": "function"
    },
    {
      "inputs": [
        {
          "internalType": "address",
          "name": "operator",
          "type": "address"
        },
        {
          "internalType": "bool",
          "name": "approved",
          "type": "bool"
        }
      ],
      "name": "setApprovalForAll",
      "outputs": [],
      "stateMutability": "nonpayable",
      "type": "function"
    },
    {
      "inputs": [
        {
          "internalType": "bytes4",
          "name": "interfaceId",
          "type": "bytes4"
        }
      ],
      "name": "supportsInterface",
      "outputs": [
        {
          "internalType": "bool",
          "name": "",
          "type": "bool"
        }
      ],
      "stateMutability": "view",
      "type": "function"
    },
    {
      "inputs": [],
      "name": "symbol",
      "outputs": [
        {
          "internalType": "string",
          "name": "",
          "type": "string"
        }
      ],
      "stateMutability": "view",
      "type": "function"
    },
    {
      "inputs": [
        {
          "internalType": "uint256",
          "name": "index",
          "type": "uint256"
        }
      ],
      "name": "tokenByIndex",
      "outputs": [
        {
          "internalType": "uint256",
          "name": "",
          "type": "uint256"
        }
      ],
      "stateMutability": "view",
      "type": "function"
    },
    {
      "inputs": [
        {
          "internalType": "address",
          "name": "owner",
          "type": "address"
        },
        {
          "internalType": "uint256",
          "name": "index",
          "type": "uint256"
        }
      ],
      "name": "tokenOfOwnerByIndex",
      "outputs": [
        {
          "internalType": "uint256",
          "name": "",
          "type": "uint256"
        }
      ],
      "stateMutability": "view",
      "type": "function"
    },
    {
      "inputs": [
        {
          "internalType": "uint256",
          "name": "tokenId",
          "type": "uint256"
        }
      ],
      "name": "tokenURI",
      "outputs": [
        {
          "internalType": "string",
          "name": "",
          "type": "string"
        }
      ],
      "stateMutability": "view",
      "type": "function"
    },
    {
      "inputs": [],
      "name": "totalSupply",
      "outputs": [
        {
          "internalType": "uint256",
          "name": "",
          "type": "uint256"
        }
      ],
      "stateMutability": "view",
      "type": "function"
    },
    {
      "inputs": [
        {
          "internalType": "address",
          "name": "from",
          "type": "address"
        },
        {
          "internalType": "address",
          "name": "to",
          "type": "address"
        },
        {
          "internalType": "uint256",
          "name": "tokenId",
          "type": "uint256"
        }
      ],
      "name": "transferFrom",
      "outputs": [],
      "stateMutability": "nonpayable",
      "type": "function"
    },
    {
      "inputs": [
        {
          "internalType": "string",
          "name": "_color",
          "type": "string"
        }
      ],
      "name": "mint",
      "outputs": [],
      "stateMutability": "nonpayable",
      "type": "function"
    }
  ],
  "bytecode": "0x60806040523480156200001157600080fd5b506040518060400160405280600581526020017f436f6c6f720000000000000000000000000000000000000000000000000000008152506040518060400160405280600581526020017f434f4c4f52000000000000000000000000000000000000000000000000000000815250816000908051906020019062000096929190620000b8565b508060019080519060200190620000af929190620000b8565b505050620001cd565b828054620000c69062000168565b90600052602060002090601f016020900481019282620000ea576000855562000136565b82601f106200010557805160ff191683800117855562000136565b8280016001018555821562000136579182015b828111156200013557825182559160200191906001019062000118565b5b50905062000145919062000149565b5090565b5b80821115620001645760008160009055506001016200014a565b5090565b600060028204905060018216806200018157607f821691505b602082108114156200019857620001976200019e565b5b50919050565b7f4e487b7100000000000000000000000000000000000000000000000000000000600052602260045260246000fd5b61310480620001dd6000396000f3fe608060405234801561001057600080fd5b5060043610610128576000357c0100000000000000000000000000000000000000000000000000000000900480634f6ccce7116100bf578063a22cb4651161008e578063a22cb465146102fb578063b88d4fde14610317578063c87b56dd14610333578063d85d3d2714610363578063e985e9c51461037f57610128565b80634f6ccce71461024d5780636352211e1461027d57806370a08231146102ad57806395d89b41146102dd57610128565b806318160ddd116100fb57806318160ddd146101c757806323b872dd146101e55780632f745c591461020157806342842e0e1461023157610128565b806301ffc9a71461012d57806306fdde031461015d578063081812fc1461017b578063095ea7b3146101ab575b600080fd5b61014760048036038101906101429190612240565b6103af565b6040516101549190612a5c565b60405180910390f35b610165610429565b6040516101729190612a77565b60405180910390f35b610195600480360381019061019091906122d3565b6104bb565b6040516101a291906129f5565b60405180910390f35b6101c560048036038101906101c09190612204565b610540565b005b6101cf610658565b6040516101dc9190612c99565b60405180910390f35b6101ff60048036038101906101fa91906120fe565b610665565b005b61021b60048036038101906102169190612204565b6106c5565b6040516102289190612c99565b60405180910390f35b61024b600480360381019061024691906120fe565b61076a565b005b610267600480360381019061026291906122d3565b61078a565b6040516102749190612c99565b60405180910390f35b610297600480360381019061029291906122d3565b610821565b6040516102a491906129f5565b60405180910390f35b6102c760048036038101906102c29190612099565b6108d3565b6040516102d49190612c99565b60405180910390f35b6102e561098b565b6040516102f29190612a77565b60405180910390f35b610315600480360381019061031091906121c8565b610a1d565b005b610331600480360381019061032c919061214d565b610b9e565b005b61034d600480360381019061034891906122d3565b610c00565b60405161035a9190612a77565b60405180910390f35b61037d60048036038101906103789190612292565b610ca7565b005b610399600480360381019061039491906120c2565b610d7d565b6040516103a69190612a5c565b60405180910390f35b60007f780e9d63000000000000000000000000000000000000000000000000000000007bffffffffffffffffffffffffffffffffffffffffffffffffffffffff1916827bffffffffffffffffffffffffffffffffffffffffffffffffffffffff19161480610422575061042182610e11565b5b9050919050565b60606000805461043890612ef9565b80601f016020809104026020016040519081016040528092919081815260200182805461046490612ef9565b80156104b15780601f10610486576101008083540402835291602001916104b1565b820191906000526020600020905b81548152906001019060200180831161049457829003601f168201915b5050505050905090565b60006104c682610ef3565b610505576040517f08c379a00000000000000000000000000000000000000000000000000000000081526004016104fc90612bd9565b60405180910390fd5b6004600083815260200190815260200160002060009054906101000a900473ffffffffffffffffffffffffffffffffffffffff169050919050565b600061054b82610821565b90508073ffffffffffffffffffffffffffffffffffffffff168373ffffffffffffffffffffffffffffffffffffffff1614156105bc576040517f08c379a00000000000000000000000000000000000000000000000000000000081526004016105b390612c39565b60405180910390fd5b8073ffffffffffffffffffffffffffffffffffffffff166105db610f5f565b73ffffffffffffffffffffffffffffffffffffffff16148061060a575061060981610604610f5f565b610d7d565b5b610649576040517f08c379a000000000000000000000000000000000000000000000000000000000815260040161064090612b59565b60405180910390fd5b6106538383610f67565b505050565b6000600880549050905090565b610676610670610f5f565b82611020565b6106b5576040517f08c379a00000000000000000000000000000000000000000000000000000000081526004016106ac90612c59565b60405180910390fd5b6106c08383836110fe565b505050565b60006106d0836108d3565b8210610711576040517f08c379a000000000000000000000000000000000000000000000000000000000815260040161070890612a99565b60405180910390fd5b600660008473ffffffffffffffffffffffffffffffffffffffff1673ffffffffffffffffffffffffffffffffffffffff168152602001908152602001600020600083815260200190815260200160002054905092915050565b61078583838360405180602001604052806000815250610b9e565b505050565b6000610794610658565b82106107d5576040517f08c379a00000000000000000000000000000000000000000000000000000000081526004016107cc90612c79565b60405180910390fd5b6008828154811061080f577f4e487b7100000000000000000000000000000000000000000000000000000000600052603260045260246000fd5b90600052602060002001549050919050565b6000806002600084815260200190815260200160002060009054906101000a900473ffffffffffffffffffffffffffffffffffffffff169050600073ffffffffffffffffffffffffffffffffffffffff168173ffffffffffffffffffffffffffffffffffffffff1614156108ca576040517f08c379a00000000000000000000000000000000000000000000000000000000081526004016108c190612b99565b60405180910390fd5b80915050919050565b60008073ffffffffffffffffffffffffffffffffffffffff168273ffffffffffffffffffffffffffffffffffffffff161415610944576040517f08c379a000000000000000000000000000000000000000000000000000000000815260040161093b90612b79565b60405180910390fd5b600360008373ffffffffffffffffffffffffffffffffffffffff1673ffffffffffffffffffffffffffffffffffffffff168152602001908152602001600020549050919050565b60606001805461099a90612ef9565b80601f01602080910402602001604051908101604052809291908181526020018280546109c690612ef9565b8015610a135780601f106109e857610100808354040283529160200191610a13565b820191906000526020600020905b8154815290600101906020018083116109f657829003601f168201915b5050505050905090565b610a25610f5f565b73ffffffffffffffffffffffffffffffffffffffff168273ffffffffffffffffffffffffffffffffffffffff161415610a93576040517f08c379a0000000000000000000000000000000000000000000000000000000008152600401610a8a90612b19565b60405180910390fd5b8060056000610aa0610f5f565b73ffffffffffffffffffffffffffffffffffffffff1673ffffffffffffffffffffffffffffffffffffffff16815260200190815260200160002060008473ffffffffffffffffffffffffffffffffffffffff1673ffffffffffffffffffffffffffffffffffffffff16815260200190815260200160002060006101000a81548160ff0219169083151502179055508173ffffffffffffffffffffffffffffffffffffffff16610b4d610f5f565b73ffffffffffffffffffffffffffffffffffffffff167f17307eab39ab6107e8899845ad3d59bd9653f200f220920489ca2b5937696c3183604051610b929190612a5c565b60405180910390a35050565b610baf610ba9610f5f565b83611020565b610bee576040517f08c379a0000000000000000000000000000000000000000000000000000000008152600401610be590612c59565b60405180910390fd5b610bfa8484848461135a565b50505050565b6060610c0b82610ef3565b610c4a576040517f08c379a0000000000000000000000000000000000000000000000000000000008152600401610c4190612c19565b60405180910390fd5b6000610c546113b6565b90506000815111610c745760405180602001604052806000815250610c9f565b80610c7e846113cd565b604051602001610c8f9291906129d1565b6040516020818303038152906040525b915050919050565b6000600b82604051610cb991906129ba565b908152602001604051809103902060006101000a81548160ff0219169083151502179055610ce657600080fd5b600a81908060018154018082558091505060019003906000526020600020016000909190919091509080519060200190610d21929190611ebd565b5060006001600a80549050610d369190612e0f565b9050610d423382611599565b6001600b83604051610d5491906129ba565b908152602001604051809103902060006101000a81548160ff0219169083151502179055505050565b6000600560008473ffffffffffffffffffffffffffffffffffffffff1673ffffffffffffffffffffffffffffffffffffffff16815260200190815260200160002060008373ffffffffffffffffffffffffffffffffffffffff1673ffffffffffffffffffffffffffffffffffffffff16815260200190815260200160002060009054906101000a900460ff16905092915050565b60007f80ac58cd000000000000000000000000000000000000000000000000000000007bffffffffffffffffffffffffffffffffffffffffffffffffffffffff1916827bffffffffffffffffffffffffffffffffffffffffffffffffffffffff19161480610edc57507f5b5e139f000000000000000000000000000000000000000000000000000000007bffffffffffffffffffffffffffffffffffffffffffffffffffffffff1916827bffffffffffffffffffffffffffffffffffffffffffffffffffffffff1916145b80610eec5750610eeb826115b7565b5b9050919050565b60008073ffffffffffffffffffffffffffffffffffffffff166002600084815260200190815260200160002060009054906101000a900473ffffffffffffffffffffffffffffffffffffffff1673ffffffffffffffffffffffffffffffffffffffff1614159050919050565b600033905090565b816004600083815260200190815260200160002060006101000a81548173ffffffffffffffffffffffffffffffffffffffff021916908373ffffffffffffffffffffffffffffffffffffffff160217905550808273ffffffffffffffffffffffffffffffffffffffff16610fda83610821565b73ffffffffffffffffffffffffffffffffffffffff167f8c5be1e5ebec7d5bd14f71427d1e84f3dd0314c0f7b2291e5b200ac8c7c3b92560405160405180910390a45050565b600061102b82610ef3565b61106a576040517f08c379a000000000000000000000000000000000000000000000000000000000815260040161106190612b39565b60405180910390fd5b600061107583610821565b90508073ffffffffffffffffffffffffffffffffffffffff168473ffffffffffffffffffffffffffffffffffffffff1614806110e457508373ffffffffffffffffffffffffffffffffffffffff166110cc846104bb565b73ffffffffffffffffffffffffffffffffffffffff16145b806110f557506110f48185610d7d565b5b91505092915050565b8273ffffffffffffffffffffffffffffffffffffffff1661111e82610821565b73ffffffffffffffffffffffffffffffffffffffff1614611174576040517f08c379a000000000000000000000000000000000000000000000000000000000815260040161116b90612bf9565b60405180910390fd5b600073ffffffffffffffffffffffffffffffffffffffff168273ffffffffffffffffffffffffffffffffffffffff1614156111e4576040517f08c379a00000000000000000000000000000000000000000000000000000000081526004016111db90612af9565b60405180910390fd5b6111ef838383611621565b6111fa600082610f67565b6001600360008573ffffffffffffffffffffffffffffffffffffffff1673ffffffffffffffffffffffffffffffffffffffff168152602001908152602001600020600082825461124a9190612e0f565b925050819055506001600360008473ffffffffffffffffffffffffffffffffffffffff1673ffffffffffffffffffffffffffffffffffffffff16815260200190815260200160002060008282546112a19190612d88565b92505081905550816002600083815260200190815260200160002060006101000a81548173ffffffffffffffffffffffffffffffffffffffff021916908373ffffffffffffffffffffffffffffffffffffffff160217905550808273ffffffffffffffffffffffffffffffffffffffff168473ffffffffffffffffffffffffffffffffffffffff167fddf252ad1be2c89b69c2b068fc378daa952ba7f163c4a11628f55a4df523b3ef60405160405180910390a4505050565b6113658484846110fe565b61137184848484611735565b6113b0576040517f08c379a00000000000000000000000000000000000000000000000000000000081526004016113a790612ab9565b60405180910390fd5b50505050565b606060405180602001604052806000815250905090565b60606000821415611415576040518060400160405280600181526020017f30000000000000000000000000000000000000000000000000000000000000008152509050611594565b600082905060005b6000821461144757808061143090612f2b565b915050600a826114409190612dde565b915061141d565b60008167ffffffffffffffff811115611489577f4e487b7100000000000000000000000000000000000000000000000000000000600052604160045260246000fd5b6040519080825280601f01601f1916602001820160405280156114bb5781602001600182028036833780820191505090505b5090505b6000851461158d576001826114d49190612e0f565b9150600a856114e39190612f74565b60306114ef9190612d88565b7f01000000000000000000000000000000000000000000000000000000000000000281838151811061154a577f4e487b7100000000000000000000000000000000000000000000000000000000600052603260045260246000fd5b60200101907effffffffffffffffffffffffffffffffffffffffffffffffffffffffffffff1916908160001a905350600a856115869190612dde565b94506114bf565b8093505050505b919050565b6115b3828260405180602001604052806000815250611904565b5050565b60007f01ffc9a7000000000000000000000000000000000000000000000000000000007bffffffffffffffffffffffffffffffffffffffffffffffffffffffff1916827bffffffffffffffffffffffffffffffffffffffffffffffffffffffff1916149050919050565b61162c83838361195f565b600073ffffffffffffffffffffffffffffffffffffffff168373ffffffffffffffffffffffffffffffffffffffff16141561166f5761166a81611964565b6116ae565b8173ffffffffffffffffffffffffffffffffffffffff168373ffffffffffffffffffffffffffffffffffffffff16146116ad576116ac83826119ad565b5b5b600073ffffffffffffffffffffffffffffffffffffffff168273ffffffffffffffffffffffffffffffffffffffff1614156116f1576116ec81611b1a565b611730565b8273ffffffffffffffffffffffffffffffffffffffff168273ffffffffffffffffffffffffffffffffffffffff161461172f5761172e8282611c5d565b5b5b505050565b60006117568473ffffffffffffffffffffffffffffffffffffffff16611cdc565b156118f7578373ffffffffffffffffffffffffffffffffffffffff1663150b7a0261177f610f5f565b8786866040518563ffffffff167c01000000000000000000000000000000000000000000000000000000000281526004016117bd9493929190612a10565b602060405180830381600087803b1580156117d757600080fd5b505af192505050801561180857506040513d601f19601f820116820180604052508101906118059190612269565b60015b61188b573d8060008114611838576040519150601f19603f3d011682016040523d82523d6000602084013e61183d565b606091505b50600081511415611883576040517f08c379a000000000000000000000000000000000000000000000000000000000815260040161187a90612ab9565b60405180910390fd5b805181602001fd5b63150b7a027c0100000000000000000000000000000000000000000000000000000000027bffffffffffffffffffffffffffffffffffffffffffffffffffffffff1916817bffffffffffffffffffffffffffffffffffffffffffffffffffffffff1916149150506118fc565b600190505b949350505050565b61190e8383611cef565b61191b6000848484611735565b61195a576040517f08c379a000000000000000000000000000000000000000000000000000000000815260040161195190612ab9565b60405180910390fd5b505050565b505050565b6008805490506009600083815260200190815260200160002081905550600881908060018154018082558091505060019003906000526020600020016000909190919091505550565b600060016119ba846108d3565b6119c49190612e0f565b9050600060076000848152602001908152602001600020549050818114611aa9576000600660008673ffffffffffffffffffffffffffffffffffffffff1673ffffffffffffffffffffffffffffffffffffffff168152602001908152602001600020600084815260200190815260200160002054905080600660008773ffffffffffffffffffffffffffffffffffffffff1673ffffffffffffffffffffffffffffffffffffffff168152602001908152602001600020600084815260200190815260200160002081905550816007600083815260200190815260200160002081905550505b6007600084815260200190815260200160002060009055600660008573ffffffffffffffffffffffffffffffffffffffff1673ffffffffffffffffffffffffffffffffffffffff16815260200190815260200160002060008381526020019081526020016000206000905550505050565b60006001600880549050611b2e9190612e0f565b9050600060096000848152602001908152602001600020549050600060088381548110611b84577f4e487b7100000000000000000000000000000000000000000000000000000000600052603260045260246000fd5b906000526020600020015490508060088381548110611bcc577f4e487b7100000000000000000000000000000000000000000000000000000000600052603260045260246000fd5b906000526020600020018190555081600960008381526020019081526020016000208190555060096000858152602001908152602001600020600090556008805480611c41577f4e487b7100000000000000000000000000000000000000000000000000000000600052603160045260246000fd5b6001900381819060005260206000200160009055905550505050565b6000611c68836108d3565b905081600660008573ffffffffffffffffffffffffffffffffffffffff1673ffffffffffffffffffffffffffffffffffffffff168152602001908152602001600020600083815260200190815260200160002081905550806007600084815260200190815260200160002081905550505050565b600080823b905060008111915050919050565b600073ffffffffffffffffffffffffffffffffffffffff168273ffffffffffffffffffffffffffffffffffffffff161415611d5f576040517f08c379a0000000000000000000000000000000000000000000000000000000008152600401611d5690612bb9565b60405180910390fd5b611d6881610ef3565b15611da8576040517f08c379a0000000000000000000000000000000000000000000000000000000008152600401611d9f90612ad9565b60405180910390fd5b611db460008383611621565b6001600360008473ffffffffffffffffffffffffffffffffffffffff1673ffffffffffffffffffffffffffffffffffffffff1681526020019081526020016000206000828254611e049190612d88565b92505081905550816002600083815260200190815260200160002060006101000a81548173ffffffffffffffffffffffffffffffffffffffff021916908373ffffffffffffffffffffffffffffffffffffffff160217905550808273ffffffffffffffffffffffffffffffffffffffff16600073ffffffffffffffffffffffffffffffffffffffff167fddf252ad1be2c89b69c2b068fc378daa952ba7f163c4a11628f55a4df523b3ef60405160405180910390a45050565b828054611ec990612ef9565b90600052602060002090601f016020900481019282611eeb5760008555611f32565b82601f10611f0457805160ff1916838001178555611f32565b82800160010185558215611f32579182015b82811115611f31578251825591602001919060010190611f16565b5b509050611f3f9190611f43565b5090565b5b80821115611f5c576000816000905550600101611f44565b5090565b6000611f73611f6e84612ce5565b612cb4565b905082815260208101848484011115611f8b57600080fd5b611f96848285612eb7565b509392505050565b6000611fb1611fac84612d15565b612cb4565b905082815260208101848484011115611fc957600080fd5b611fd4848285612eb7565b509392505050565b600081359050611feb81613072565b92915050565b60008135905061200081613089565b92915050565b600081359050612015816130a0565b92915050565b60008151905061202a816130a0565b92915050565b600082601f83011261204157600080fd5b8135612051848260208601611f60565b91505092915050565b600082601f83011261206b57600080fd5b813561207b848260208601611f9e565b91505092915050565b600081359050612093816130b7565b92915050565b6000602082840312156120ab57600080fd5b60006120b984828501611fdc565b91505092915050565b600080604083850312156120d557600080fd5b60006120e385828601611fdc565b92505060206120f485828601611fdc565b9150509250929050565b60008060006060848603121561211357600080fd5b600061212186828701611fdc565b935050602061213286828701611fdc565b925050604061214386828701612084565b9150509250925092565b6000806000806080858703121561216357600080fd5b600061217187828801611fdc565b945050602061218287828801611fdc565b935050604061219387828801612084565b925050606085013567ffffffffffffffff8111156121b057600080fd5b6121bc87828801612030565b91505092959194509250565b600080604083850312156121db57600080fd5b60006121e985828601611fdc565b92505060206121fa85828601611ff1565b9150509250929050565b6000806040838503121561221757600080fd5b600061222585828601611fdc565b925050602061223685828601612084565b9150509250929050565b60006020828403121561225257600080fd5b600061226084828501612006565b91505092915050565b60006020828403121561227b57600080fd5b60006122898482850161201b565b91505092915050565b6000602082840312156122a457600080fd5b600082013567ffffffffffffffff8111156122be57600080fd5b6122ca8482850161205a565b91505092915050565b6000602082840312156122e557600080fd5b60006122f384828501612084565b91505092915050565b61230581612e43565b82525050565b61231481612e55565b82525050565b600061232582612d45565b61232f8185612d5b565b935061233f818560208601612ec6565b61234881613061565b840191505092915050565b600061235e82612d50565b6123688185612d6c565b9350612378818560208601612ec6565b61238181613061565b840191505092915050565b600061239782612d50565b6123a18185612d7d565b93506123b1818560208601612ec6565b80840191505092915050565b60006123ca602b83612d6c565b91507f455243373231456e756d657261626c653a206f776e657220696e646578206f7560008301527f74206f6620626f756e64730000000000000000000000000000000000000000006020830152604082019050919050565b6000612430603283612d6c565b91507f4552433732313a207472616e7366657220746f206e6f6e20455243373231526560008301527f63656976657220696d706c656d656e74657200000000000000000000000000006020830152604082019050919050565b6000612496601c83612d6c565b91507f4552433732313a20746f6b656e20616c7265616479206d696e746564000000006000830152602082019050919050565b60006124d6602483612d6c565b91507f4552433732313a207472616e7366657220746f20746865207a65726f2061646460008301527f72657373000000000000000000000000000000000000000000000000000000006020830152604082019050919050565b600061253c601983612d6c565b91507f4552433732313a20617070726f766520746f2063616c6c6572000000000000006000830152602082019050919050565b600061257c602c83612d6c565b91507f4552433732313a206f70657261746f7220717565727920666f72206e6f6e657860008301527f697374656e7420746f6b656e00000000000000000000000000000000000000006020830152604082019050919050565b60006125e2603883612d6c565b91507f4552433732313a20617070726f76652063616c6c6572206973206e6f74206f7760008301527f6e6572206e6f7220617070726f76656420666f7220616c6c00000000000000006020830152604082019050919050565b6000612648602a83612d6c565b91507f4552433732313a2062616c616e636520717565727920666f7220746865207a6560008301527f726f2061646472657373000000000000000000000000000000000000000000006020830152604082019050919050565b60006126ae602983612d6c565b91507f4552433732313a206f776e657220717565727920666f72206e6f6e657869737460008301527f656e7420746f6b656e00000000000000000000000000000000000000000000006020830152604082019050919050565b6000612714602083612d6c565b91507f4552433732313a206d696e7420746f20746865207a65726f20616464726573736000830152602082019050919050565b6000612754602c83612d6c565b91507f4552433732313a20617070726f76656420717565727920666f72206e6f6e657860008301527f697374656e7420746f6b656e00000000000000000000000000000000000000006020830152604082019050919050565b60006127ba602983612d6c565b91507f4552433732313a207472616e73666572206f6620746f6b656e2074686174206960008301527f73206e6f74206f776e00000000000000000000000000000000000000000000006020830152604082019050919050565b6000612820602f83612d6c565b91507f4552433732314d657461646174613a2055524920717565727920666f72206e6f60008301527f6e6578697374656e7420746f6b656e00000000000000000000000000000000006020830152604082019050919050565b6000612886602183612d6c565b91507f4552433732313a20617070726f76616c20746f2063757272656e74206f776e6560008301527f72000000000000000000000000000000000000000000000000000000000000006020830152604082019050919050565b60006128ec603183612d6c565b91507f4552433732313a207472616e736665722063616c6c6572206973206e6f74206f60008301527f776e6572206e6f7220617070726f7665640000000000000000000000000000006020830152604082019050919050565b6000612952602c83612d6c565b91507f455243373231456e756d657261626c653a20676c6f62616c20696e646578206f60008301527f7574206f6620626f756e647300000000000000000000000000000000000000006020830152604082019050919050565b6129b481612ead565b82525050565b60006129c6828461238c565b915081905092915050565b60006129dd828561238c565b91506129e9828461238c565b91508190509392505050565b6000602082019050612a0a60008301846122fc565b92915050565b6000608082019050612a2560008301876122fc565b612a3260208301866122fc565b612a3f60408301856129ab565b8181036060830152612a51818461231a565b905095945050505050565b6000602082019050612a71600083018461230b565b92915050565b60006020820190508181036000830152612a918184612353565b905092915050565b60006020820190508181036000830152612ab2816123bd565b9050919050565b60006020820190508181036000830152612ad281612423565b9050919050565b60006020820190508181036000830152612af281612489565b9050919050565b60006020820190508181036000830152612b12816124c9565b9050919050565b60006020820190508181036000830152612b328161252f565b9050919050565b60006020820190508181036000830152612b528161256f565b9050919050565b60006020820190508181036000830152612b72816125d5565b9050919050565b60006020820190508181036000830152612b928161263b565b9050919050565b60006020820190508181036000830152612bb2816126a1565b9050919050565b60006020820190508181036000830152612bd281612707565b9050919050565b60006020820190508181036000830152612bf281612747565b9050919050565b60006020820190508181036000830152612c12816127ad565b9050919050565b60006020820190508181036000830152612c3281612813565b9050919050565b60006020820190508181036000830152612c5281612879565b9050919050565b60006020820190508181036000830152612c72816128df565b9050919050565b60006020820190508181036000830152612c9281612945565b9050919050565b6000602082019050612cae60008301846129ab565b92915050565b6000604051905081810181811067ffffffffffffffff82111715612cdb57612cda613032565b5b8060405250919050565b600067ffffffffffffffff821115612d0057612cff613032565b5b601f19601f8301169050602081019050919050565b600067ffffffffffffffff821115612d3057612d2f613032565b5b601f19601f8301169050602081019050919050565b600081519050919050565b600081519050919050565b600082825260208201905092915050565b600082825260208201905092915050565b600081905092915050565b6000612d9382612ead565b9150612d9e83612ead565b9250827fffffffffffffffffffffffffffffffffffffffffffffffffffffffffffffffff03821115612dd357612dd2612fa5565b5b828201905092915050565b6000612de982612ead565b9150612df483612ead565b925082612e0457612e03612fd4565b5b828204905092915050565b6000612e1a82612ead565b9150612e2583612ead565b925082821015612e3857612e37612fa5565b5b828203905092915050565b6000612e4e82612e8d565b9050919050565b60008115159050919050565b60007fffffffff0000000000000000000000000000000000000000000000000000000082169050919050565b600073ffffffffffffffffffffffffffffffffffffffff82169050919050565b6000819050919050565b82818337600083830152505050565b60005b83811015612ee4578082015181840152602081019050612ec9565b83811115612ef3576000848401525b50505050565b60006002820490506001821680612f1157607f821691505b60208210811415612f2557612f24613003565b5b50919050565b6000612f3682612ead565b91507fffffffffffffffffffffffffffffffffffffffffffffffffffffffffffffffff821415612f6957612f68612fa5565b5b600182019050919050565b6000612f7f82612ead565b9150612f8a83612ead565b925082612f9a57612f99612fd4565b5b828206905092915050565b7f4e487b7100000000000000000000000000000000000000000000000000000000600052601160045260246000fd5b7f4e487b7100000000000000000000000000000000000000000000000000000000600052601260045260246000fd5b7f4e487b7100000000000000000000000000000000000000000000000000000000600052602260045260246000fd5b7f4e487b7100000000000000000000000000000000000000000000000000000000600052604160045260246000fd5b6000601f19601f8301169050919050565b61307b81612e43565b811461308657600080fd5b50565b61309281612e55565b811461309d57600080fd5b50565b6130a981612e61565b81146130b457600080fd5b50565b6130c081612ead565b81146130cb57600080fd5b5056fea26469706673582212206818f8e4de9c76bd9b481b6afd0b4349c666be2b703d49f909d537950e7a60e864736f6c63430008000033",
  "immutableReferences": {},
  "source": "// SPDX-License-Identifier: MIT\npragma solidity ^0.8.0;\n\nimport \"@openzeppelin/contracts/token/ERC721/ERC721.sol\";\nimport \"@openzeppelin/contracts/token/ERC721/extensions/ERC721Enumerable.sol\";\n\ncontract Color is ERC721Enumerable{\n    constructor() ERC721(\"Color\", \"COLOR\") {}\n\nstring [] colors;\nmapping(string => bool) _colorExists;\n\nfunction mint(string memory _color) external{\nrequire(_colorExists[_color] = false);\ncolors.push(_color);\nuint _id = colors.length-1;\n_safeMint(msg.sender, _id);\n_colorExists[_color] = true;\n\n}\n\n// function getToken(uint _id)public view returns(string memory){\n\n\n// }\n\n\n}\n\n",
  "sourcePath": "/Users/Oscar/crypto_coin/src/contracts/fivetoken.sol",
  "compiler": {
    "name": "solc",
    "version": "0.8.0+commit.c7dfd78e.Emscripten.clang"
  },
  "schemaVersion": "3.3.4",
  "updatedAt": "2021-04-23T03:09:20.398Z",
  "devdoc": {
    "kind": "dev",
    "methods": {
      "approve(address,uint256)": {
        "details": "See {IERC721-approve}."
      },
      "balanceOf(address)": {
        "details": "See {IERC721-balanceOf}."
      },
      "getApproved(uint256)": {
        "details": "See {IERC721-getApproved}."
      },
      "isApprovedForAll(address,address)": {
        "details": "See {IERC721-isApprovedForAll}."
      },
      "name()": {
        "details": "See {IERC721Metadata-name}."
      },
      "ownerOf(uint256)": {
        "details": "See {IERC721-ownerOf}."
      },
      "safeTransferFrom(address,address,uint256)": {
        "details": "See {IERC721-safeTransferFrom}."
      },
      "safeTransferFrom(address,address,uint256,bytes)": {
        "details": "See {IERC721-safeTransferFrom}."
      },
      "setApprovalForAll(address,bool)": {
        "details": "See {IERC721-setApprovalForAll}."
      },
      "supportsInterface(bytes4)": {
        "details": "See {IERC165-supportsInterface}."
      },
      "symbol()": {
        "details": "See {IERC721Metadata-symbol}."
      },
      "tokenByIndex(uint256)": {
        "details": "See {IERC721Enumerable-tokenByIndex}."
      },
      "tokenOfOwnerByIndex(address,uint256)": {
        "details": "See {IERC721Enumerable-tokenOfOwnerByIndex}."
      },
      "tokenURI(uint256)": {
        "details": "See {IERC721Metadata-tokenURI}."
      },
      "totalSupply()": {
        "details": "See {IERC721Enumerable-totalSupply}."
      },
      "transferFrom(address,address,uint256)": {
        "details": "See {IERC721-transferFrom}."
      }
    },
    "version": 1
  },
  "userdoc": {
    "kind": "user",
    "methods": {},
    "version": 1
  }
}