{
  "contractName": "FiveToken",
  "abi": [
    {
      "inputs": [],
      "stateMutability": "nonpayable",
      "type": "constructor"
    },
    {
      "anonymous": false,
      "inputs": [
        {
          "indexed": true,
          "internalType": "address",
          "name": "owner",
          "type": "address"
        },
        {
          "indexed": true,
          "internalType": "address",
          "name": "approved",
          "type": "address"
        },
        {
          "indexed": true,
          "internalType": "uint256",
          "name": "tokenId",
          "type": "uint256"
        }
      ],
      "name": "Approval",
      "type": "event"
    },
    {
      "anonymous": false,
      "inputs": [
        {
          "indexed": true,
          "internalType": "address",
          "name": "owner",
          "type": "address"
        },
        {
          "indexed": true,
          "internalType": "address",
          "name": "operator",
          "type": "address"
        },
        {
          "indexed": false,
          "internalType": "bool",
          "name": "approved",
          "type": "bool"
        }
      ],
      "name": "ApprovalForAll",
      "type": "event"
    },
    {
      "anonymous": false,
      "inputs": [
        {
          "indexed": true,
          "internalType": "address",
          "name": "from",
          "type": "address"
        },
        {
          "indexed": true,
          "internalType": "address",
          "name": "to",
          "type": "address"
        },
        {
          "indexed": true,
          "internalType": "uint256",
          "name": "tokenId",
          "type": "uint256"
        }
      ],
      "name": "Transfer",
      "type": "event"
    },
    {
      "inputs": [
        {
          "internalType": "address",
          "name": "to",
          "type": "address"
        },
        {
          "internalType": "uint256",
          "name": "tokenId",
          "type": "uint256"
        }
      ],
      "name": "approve",
      "outputs": [],
      "stateMutability": "nonpayable",
      "type": "function"
    },
    {
      "inputs": [
        {
          "internalType": "address",
          "name": "owner",
          "type": "address"
        }
      ],
      "name": "balanceOf",
      "outputs": [
        {
          "internalType": "uint256",
          "name": "",
          "type": "uint256"
        }
      ],
      "stateMutability": "view",
      "type": "function",
      "constant": true
    },
    {
      "inputs": [
        {
          "internalType": "uint256",
          "name": "",
          "type": "uint256"
        }
      ],
      "name": "colors",
      "outputs": [
        {
          "internalType": "string",
          "name": "color",
          "type": "string"
        },
        {
          "internalType": "uint256",
          "name": "id",
          "type": "uint256"
        }
      ],
      "stateMutability": "view",
      "type": "function",
      "constant": true
    },
    {
      "inputs": [
        {
          "internalType": "uint256",
          "name": "tokenId",
          "type": "uint256"
        }
      ],
      "name": "getApproved",
      "outputs": [
        {
          "internalType": "address",
          "name": "",
          "type": "address"
        }
      ],
      "stateMutability": "view",
      "type": "function",
      "constant": true
    },
    {
      "inputs": [
        {
          "internalType": "address",
          "name": "owner",
          "type": "address"
        },
        {
          "internalType": "address",
          "name": "operator",
          "type": "address"
        }
      ],
      "name": "isApprovedForAll",
      "outputs": [
        {
          "internalType": "bool",
          "name": "",
          "type": "bool"
        }
      ],
      "stateMutability": "view",
      "type": "function",
      "constant": true
    },
    {
      "inputs": [],
      "name": "name",
      "outputs": [
        {
          "internalType": "string",
          "name": "",
          "type": "string"
        }
      ],
      "stateMutability": "view",
      "type": "function",
      "constant": true
    },
    {
      "inputs": [
        {
          "internalType": "uint256",
          "name": "tokenId",
          "type": "uint256"
        }
      ],
      "name": "ownerOf",
      "outputs": [
        {
          "internalType": "address",
          "name": "",
          "type": "address"
        }
      ],
      "stateMutability": "view",
      "type": "function",
      "constant": true
    },
    {
      "inputs": [
        {
          "internalType": "address",
          "name": "from",
          "type": "address"
        },
        {
          "internalType": "address",
          "name": "to",
          "type": "address"
        },
        {
          "internalType": "uint256",
          "name": "tokenId",
          "type": "uint256"
        }
      ],
      "name": "safeTransferFrom",
      "outputs": [],
      "stateMutability": "nonpayable",
      "type": "function"
    },
    {
      "inputs": [
        {
          "internalType": "address",
          "name": "from",
          "type": "address"
        },
        {
          "internalType": "address",
          "name": "to",
          "type": "address"
        },
        {
          "internalType": "uint256",
          "name": "tokenId",
          "type": "uint256"
        },
        {
          "internalType": "bytes",
          "name": "_data",
          "type": "bytes"
        }
      ],
      "name": "safeTransferFrom",
      "outputs": [],
      "stateMutability": "nonpayable",
      "type": "function"
    },
    {
      "inputs": [
        {
          "internalType": "address",
          "name": "operator",
          "type": "address"
        },
        {
          "internalType": "bool",
          "name": "approved",
          "type": "bool"
        }
      ],
      "name": "setApprovalForAll",
      "outputs": [],
      "stateMutability": "nonpayable",
      "type": "function"
    },
    {
      "inputs": [
        {
          "internalType": "bytes4",
          "name": "interfaceId",
          "type": "bytes4"
        }
      ],
      "name": "supportsInterface",
      "outputs": [
        {
          "internalType": "bool",
          "name": "",
          "type": "bool"
        }
      ],
      "stateMutability": "view",
      "type": "function",
      "constant": true
    },
    {
      "inputs": [],
      "name": "symbol",
      "outputs": [
        {
          "internalType": "string",
          "name": "",
          "type": "string"
        }
      ],
      "stateMutability": "view",
      "type": "function",
      "constant": true
    },
    {
      "inputs": [
        {
          "internalType": "uint256",
          "name": "index",
          "type": "uint256"
        }
      ],
      "name": "tokenByIndex",
      "outputs": [
        {
          "internalType": "uint256",
          "name": "",
          "type": "uint256"
        }
      ],
      "stateMutability": "view",
      "type": "function",
      "constant": true
    },
    {
      "inputs": [
        {
          "internalType": "address",
          "name": "owner",
          "type": "address"
        },
        {
          "internalType": "uint256",
          "name": "index",
          "type": "uint256"
        }
      ],
      "name": "tokenOfOwnerByIndex",
      "outputs": [
        {
          "internalType": "uint256",
          "name": "",
          "type": "uint256"
        }
      ],
      "stateMutability": "view",
      "type": "function",
      "constant": true
    },
    {
      "inputs": [
        {
          "internalType": "uint256",
          "name": "tokenId",
          "type": "uint256"
        }
      ],
      "name": "tokenURI",
      "outputs": [
        {
          "internalType": "string",
          "name": "",
          "type": "string"
        }
      ],
      "stateMutability": "view",
      "type": "function",
      "constant": true
    },
    {
      "inputs": [],
      "name": "totalSupply",
      "outputs": [
        {
          "internalType": "uint256",
          "name": "",
          "type": "uint256"
        }
      ],
      "stateMutability": "view",
      "type": "function",
      "constant": true
    },
    {
      "inputs": [
        {
          "internalType": "address",
          "name": "from",
          "type": "address"
        },
        {
          "internalType": "address",
          "name": "to",
          "type": "address"
        },
        {
          "internalType": "uint256",
          "name": "tokenId",
          "type": "uint256"
        }
      ],
      "name": "transferFrom",
      "outputs": [],
      "stateMutability": "nonpayable",
      "type": "function"
    },
    {
      "inputs": [
        {
          "internalType": "string",
          "name": "_color",
          "type": "string"
        }
      ],
      "name": "mint",
      "outputs": [],
      "stateMutability": "nonpayable",
      "type": "function"
    },
    {
      "inputs": [],
      "name": "getArray",
      "outputs": [
        {
          "components": [
            {
              "internalType": "string",
              "name": "color",
              "type": "string"
            },
            {
              "internalType": "uint256",
              "name": "id",
              "type": "uint256"
            }
          ],
          "internalType": "struct FiveToken.Colors[]",
          "name": "",
          "type": "tuple[]"
        }
      ],
      "stateMutability": "view",
      "type": "function",
      "constant": true
    }
  ],
  "bytecode": "0x60806040523480156200001157600080fd5b506040518060400160405280600981526020017f46697665546f6b656e00000000000000000000000000000000000000000000008152506040518060400160405280600381526020017f46544b0000000000000000000000000000000000000000000000000000000000815250816000908051906020019062000096929190620000b8565b508060019080519060200190620000af929190620000b8565b505050620001cd565b828054620000c69062000168565b90600052602060002090601f016020900481019282620000ea576000855562000136565b82601f106200010557805160ff191683800117855562000136565b8280016001018555821562000136579182015b828111156200013557825182559160200191906001019062000118565b5b50905062000145919062000149565b5090565b5b80821115620001645760008160009055506001016200014a565b5090565b600060028204905060018216806200018157607f821691505b602082108114156200019857620001976200019e565b5b50919050565b7f4e487b7100000000000000000000000000000000000000000000000000000000600052602260045260246000fd5b6134e880620001dd6000396000f3fe608060405234801561001057600080fd5b506004361061013e576000357c0100000000000000000000000000000000000000000000000000000000900480636352211e116100ca578063bd11f69d1161008e578063bd11f69d14610349578063c87b56dd1461037a578063d504ea1d146103aa578063d85d3d27146103c8578063e985e9c5146103e45761013e565b80636352211e1461029357806370a08231146102c357806395d89b41146102f3578063a22cb46514610311578063b88d4fde1461032d5761013e565b806318160ddd1161011157806318160ddd146101dd57806323b872dd146101fb5780632f745c591461021757806342842e0e146102475780634f6ccce7146102635761013e565b806301ffc9a71461014357806306fdde0314610173578063081812fc14610191578063095ea7b3146101c1575b600080fd5b61015d6004803603810190610158919061247a565b610414565b60405161016a9190612dc6565b60405180910390f35b61017b61048e565b6040516101889190612de1565b60405180910390f35b6101ab60048036038101906101a6919061250d565b610520565b6040516101b89190612d3d565b60405180910390f35b6101db60048036038101906101d6919061243e565b6105a5565b005b6101e56106bd565b6040516101f29190613033565b60405180910390f35b61021560048036038101906102109190612338565b6106ca565b005b610231600480360381019061022c919061243e565b61072a565b60405161023e9190613033565b60405180910390f35b610261600480360381019061025c9190612338565b6107cf565b005b61027d6004803603810190610278919061250d565b6107ef565b60405161028a9190613033565b60405180910390f35b6102ad60048036038101906102a8919061250d565b610886565b6040516102ba9190612d3d565b60405180910390f35b6102dd60048036038101906102d891906122d3565b610938565b6040516102ea9190613033565b60405180910390f35b6102fb6109f0565b6040516103089190612de1565b60405180910390f35b61032b60048036038101906103269190612402565b610a82565b005b61034760048036038101906103429190612387565b610c03565b005b610363600480360381019061035e919061250d565b610c65565b604051610371929190612e03565b60405180910390f35b610394600480360381019061038f919061250d565b610d21565b6040516103a19190612de1565b60405180910390f35b6103b2610dc8565b6040516103bf9190612da4565b60405180910390f35b6103e260048036038101906103dd91906124cc565b610ec3565b005b6103fe60048036038101906103f991906122fc565b610fb7565b60405161040b9190612dc6565b60405180910390f35b60007f780e9d63000000000000000000000000000000000000000000000000000000007bffffffffffffffffffffffffffffffffffffffffffffffffffffffff1916827bffffffffffffffffffffffffffffffffffffffffffffffffffffffff1916148061048757506104868261104b565b5b9050919050565b60606000805461049d906132dd565b80601f01602080910402602001604051908101604052809291908181526020018280546104c9906132dd565b80156105165780601f106104eb57610100808354040283529160200191610516565b820191906000526020600020905b8154815290600101906020018083116104f957829003601f168201915b5050505050905090565b600061052b8261112d565b61056a576040517f08c379a000000000000000000000000000000000000000000000000000000000815260040161056190612f73565b60405180910390fd5b6004600083815260200190815260200160002060009054906101000a900473ffffffffffffffffffffffffffffffffffffffff169050919050565b60006105b082610886565b90508073ffffffffffffffffffffffffffffffffffffffff168373ffffffffffffffffffffffffffffffffffffffff161415610621576040517f08c379a000000000000000000000000000000000000000000000000000000000815260040161061890612fd3565b60405180910390fd5b8073ffffffffffffffffffffffffffffffffffffffff16610640611199565b73ffffffffffffffffffffffffffffffffffffffff16148061066f575061066e81610669611199565b610fb7565b5b6106ae576040517f08c379a00000000000000000000000000000000000000000000000000000000081526004016106a590612ef3565b60405180910390fd5b6106b883836111a1565b505050565b6000600880549050905090565b6106db6106d5611199565b8261125a565b61071a576040517f08c379a000000000000000000000000000000000000000000000000000000000815260040161071190612ff3565b60405180910390fd5b610725838383611338565b505050565b600061073583610938565b8210610776576040517f08c379a000000000000000000000000000000000000000000000000000000000815260040161076d90612e33565b60405180910390fd5b600660008473ffffffffffffffffffffffffffffffffffffffff1673ffffffffffffffffffffffffffffffffffffffff168152602001908152602001600020600083815260200190815260200160002054905092915050565b6107ea83838360405180602001604052806000815250610c03565b505050565b60006107f96106bd565b821061083a576040517f08c379a000000000000000000000000000000000000000000000000000000000815260040161083190613013565b60405180910390fd5b60088281548110610874577f4e487b7100000000000000000000000000000000000000000000000000000000600052603260045260246000fd5b90600052602060002001549050919050565b6000806002600084815260200190815260200160002060009054906101000a900473ffffffffffffffffffffffffffffffffffffffff169050600073ffffffffffffffffffffffffffffffffffffffff168173ffffffffffffffffffffffffffffffffffffffff16141561092f576040517f08c379a000000000000000000000000000000000000000000000000000000000815260040161092690612f33565b60405180910390fd5b80915050919050565b60008073ffffffffffffffffffffffffffffffffffffffff168273ffffffffffffffffffffffffffffffffffffffff1614156109a9576040517f08c379a00000000000000000000000000000000000000000000000000000000081526004016109a090612f13565b60405180910390fd5b600360008373ffffffffffffffffffffffffffffffffffffffff1673ffffffffffffffffffffffffffffffffffffffff168152602001908152602001600020549050919050565b6060600180546109ff906132dd565b80601f0160208091040260200160405190810160405280929190818152602001828054610a2b906132dd565b8015610a785780601f10610a4d57610100808354040283529160200191610a78565b820191906000526020600020905b815481529060010190602001808311610a5b57829003601f168201915b5050505050905090565b610a8a611199565b73ffffffffffffffffffffffffffffffffffffffff168273ffffffffffffffffffffffffffffffffffffffff161415610af8576040517f08c379a0000000000000000000000000000000000000000000000000000000008152600401610aef90612eb3565b60405180910390fd5b8060056000610b05611199565b73ffffffffffffffffffffffffffffffffffffffff1673ffffffffffffffffffffffffffffffffffffffff16815260200190815260200160002060008473ffffffffffffffffffffffffffffffffffffffff1673ffffffffffffffffffffffffffffffffffffffff16815260200190815260200160002060006101000a81548160ff0219169083151502179055508173ffffffffffffffffffffffffffffffffffffffff16610bb2611199565b73ffffffffffffffffffffffffffffffffffffffff167f17307eab39ab6107e8899845ad3d59bd9653f200f220920489ca2b5937696c3183604051610bf79190612dc6565b60405180910390a35050565b610c14610c0e611199565b8361125a565b610c53576040517f08c379a0000000000000000000000000000000000000000000000000000000008152600401610c4a90612ff3565b60405180910390fd5b610c5f84848484611594565b50505050565b600a8181548110610c7557600080fd5b9060005260206000209060020201600091509050806000018054610c98906132dd565b80601f0160208091040260200160405190810160405280929190818152602001828054610cc4906132dd565b8015610d115780601f10610ce657610100808354040283529160200191610d11565b820191906000526020600020905b815481529060010190602001808311610cf457829003601f168201915b5050505050908060010154905082565b6060610d2c8261112d565b610d6b576040517f08c379a0000000000000000000000000000000000000000000000000000000008152600401610d6290612fb3565b60405180910390fd5b6000610d756115f0565b90506000815111610d955760405180602001604052806000815250610dc0565b80610d9f84611607565b604051602001610db0929190612d19565b6040516020818303038152906040525b915050919050565b6060600a805480602002602001604051908101604052809291908181526020016000905b82821015610eba5783829060005260206000209060020201604051806040016040529081600082018054610e1f906132dd565b80601f0160208091040260200160405190810160405280929190818152602001828054610e4b906132dd565b8015610e985780601f10610e6d57610100808354040283529160200191610e98565b820191906000526020600020905b815481529060010190602001808311610e7b57829003601f168201915b5050505050815260200160018201548152505081526020019060010190610dec565b50505050905090565b60001515600b82604051610ed79190612d02565b908152602001604051809103902060009054906101000a900460ff16151514610eff57600080fd5b6000600a805490509050600a60405180604001604052808481526020018381525090806001815401808255809150506001900390600052602060002090600202016000909190919091506000820151816000019080519060200190610f659291906120f7565b50602082015181600101555050610f7c33826117d3565b6001600b83604051610f8e9190612d02565b908152602001604051809103902060006101000a81548160ff0219169083151502179055505050565b6000600560008473ffffffffffffffffffffffffffffffffffffffff1673ffffffffffffffffffffffffffffffffffffffff16815260200190815260200160002060008373ffffffffffffffffffffffffffffffffffffffff1673ffffffffffffffffffffffffffffffffffffffff16815260200190815260200160002060009054906101000a900460ff16905092915050565b60007f80ac58cd000000000000000000000000000000000000000000000000000000007bffffffffffffffffffffffffffffffffffffffffffffffffffffffff1916827bffffffffffffffffffffffffffffffffffffffffffffffffffffffff1916148061111657507f5b5e139f000000000000000000000000000000000000000000000000000000007bffffffffffffffffffffffffffffffffffffffffffffffffffffffff1916827bffffffffffffffffffffffffffffffffffffffffffffffffffffffff1916145b806111265750611125826117f1565b5b9050919050565b60008073ffffffffffffffffffffffffffffffffffffffff166002600084815260200190815260200160002060009054906101000a900473ffffffffffffffffffffffffffffffffffffffff1673ffffffffffffffffffffffffffffffffffffffff1614159050919050565b600033905090565b816004600083815260200190815260200160002060006101000a81548173ffffffffffffffffffffffffffffffffffffffff021916908373ffffffffffffffffffffffffffffffffffffffff160217905550808273ffffffffffffffffffffffffffffffffffffffff1661121483610886565b73ffffffffffffffffffffffffffffffffffffffff167f8c5be1e5ebec7d5bd14f71427d1e84f3dd0314c0f7b2291e5b200ac8c7c3b92560405160405180910390a45050565b60006112658261112d565b6112a4576040517f08c379a000000000000000000000000000000000000000000000000000000000815260040161129b90612ed3565b60405180910390fd5b60006112af83610886565b90508073ffffffffffffffffffffffffffffffffffffffff168473ffffffffffffffffffffffffffffffffffffffff16148061131e57508373ffffffffffffffffffffffffffffffffffffffff1661130684610520565b73ffffffffffffffffffffffffffffffffffffffff16145b8061132f575061132e8185610fb7565b5b91505092915050565b8273ffffffffffffffffffffffffffffffffffffffff1661135882610886565b73ffffffffffffffffffffffffffffffffffffffff16146113ae576040517f08c379a00000000000000000000000000000000000000000000000000000000081526004016113a590612f93565b60405180910390fd5b600073ffffffffffffffffffffffffffffffffffffffff168273ffffffffffffffffffffffffffffffffffffffff16141561141e576040517f08c379a000000000000000000000000000000000000000000000000000000000815260040161141590612e93565b60405180910390fd5b61142983838361185b565b6114346000826111a1565b6001600360008573ffffffffffffffffffffffffffffffffffffffff1673ffffffffffffffffffffffffffffffffffffffff168152602001908152602001600020600082825461148491906131f3565b925050819055506001600360008473ffffffffffffffffffffffffffffffffffffffff1673ffffffffffffffffffffffffffffffffffffffff16815260200190815260200160002060008282546114db919061316c565b92505081905550816002600083815260200190815260200160002060006101000a81548173ffffffffffffffffffffffffffffffffffffffff021916908373ffffffffffffffffffffffffffffffffffffffff160217905550808273ffffffffffffffffffffffffffffffffffffffff168473ffffffffffffffffffffffffffffffffffffffff167fddf252ad1be2c89b69c2b068fc378daa952ba7f163c4a11628f55a4df523b3ef60405160405180910390a4505050565b61159f848484611338565b6115ab8484848461196f565b6115ea576040517f08c379a00000000000000000000000000000000000000000000000000000000081526004016115e190612e53565b60405180910390fd5b50505050565b606060405180602001604052806000815250905090565b6060600082141561164f576040518060400160405280600181526020017f300000000000000000000000000000000000000000000000000000000000000081525090506117ce565b600082905060005b6000821461168157808061166a9061330f565b915050600a8261167a91906131c2565b9150611657565b60008167ffffffffffffffff8111156116c3577f4e487b7100000000000000000000000000000000000000000000000000000000600052604160045260246000fd5b6040519080825280601f01601f1916602001820160405280156116f55781602001600182028036833780820191505090505b5090505b600085146117c75760018261170e91906131f3565b9150600a8561171d9190613358565b6030611729919061316c565b7f010000000000000000000000000000000000000000000000000000000000000002818381518110611784577f4e487b7100000000000000000000000000000000000000000000000000000000600052603260045260246000fd5b60200101907effffffffffffffffffffffffffffffffffffffffffffffffffffffffffffff1916908160001a905350600a856117c091906131c2565b94506116f9565b8093505050505b919050565b6117ed828260405180602001604052806000815250611b3e565b5050565b60007f01ffc9a7000000000000000000000000000000000000000000000000000000007bffffffffffffffffffffffffffffffffffffffffffffffffffffffff1916827bffffffffffffffffffffffffffffffffffffffffffffffffffffffff1916149050919050565b611866838383611b99565b600073ffffffffffffffffffffffffffffffffffffffff168373ffffffffffffffffffffffffffffffffffffffff1614156118a9576118a481611b9e565b6118e8565b8173ffffffffffffffffffffffffffffffffffffffff168373ffffffffffffffffffffffffffffffffffffffff16146118e7576118e68382611be7565b5b5b600073ffffffffffffffffffffffffffffffffffffffff168273ffffffffffffffffffffffffffffffffffffffff16141561192b5761192681611d54565b61196a565b8273ffffffffffffffffffffffffffffffffffffffff168273ffffffffffffffffffffffffffffffffffffffff1614611969576119688282611e97565b5b5b505050565b60006119908473ffffffffffffffffffffffffffffffffffffffff16611f16565b15611b31578373ffffffffffffffffffffffffffffffffffffffff1663150b7a026119b9611199565b8786866040518563ffffffff167c01000000000000000000000000000000000000000000000000000000000281526004016119f79493929190612d58565b602060405180830381600087803b158015611a1157600080fd5b505af1925050508015611a4257506040513d601f19601f82011682018060405250810190611a3f91906124a3565b60015b611ac5573d8060008114611a72576040519150601f19603f3d011682016040523d82523d6000602084013e611a77565b606091505b50600081511415611abd576040517f08c379a0000000000000000000000000000000000000000000000000000000008152600401611ab490612e53565b60405180910390fd5b805181602001fd5b63150b7a027c0100000000000000000000000000000000000000000000000000000000027bffffffffffffffffffffffffffffffffffffffffffffffffffffffff1916817bffffffffffffffffffffffffffffffffffffffffffffffffffffffff191614915050611b36565b600190505b949350505050565b611b488383611f29565b611b55600084848461196f565b611b94576040517f08c379a0000000000000000000000000000000000000000000000000000000008152600401611b8b90612e53565b60405180910390fd5b505050565b505050565b6008805490506009600083815260200190815260200160002081905550600881908060018154018082558091505060019003906000526020600020016000909190919091505550565b60006001611bf484610938565b611bfe91906131f3565b9050600060076000848152602001908152602001600020549050818114611ce3576000600660008673ffffffffffffffffffffffffffffffffffffffff1673ffffffffffffffffffffffffffffffffffffffff168152602001908152602001600020600084815260200190815260200160002054905080600660008773ffffffffffffffffffffffffffffffffffffffff1673ffffffffffffffffffffffffffffffffffffffff168152602001908152602001600020600084815260200190815260200160002081905550816007600083815260200190815260200160002081905550505b6007600084815260200190815260200160002060009055600660008573ffffffffffffffffffffffffffffffffffffffff1673ffffffffffffffffffffffffffffffffffffffff16815260200190815260200160002060008381526020019081526020016000206000905550505050565b60006001600880549050611d6891906131f3565b9050600060096000848152602001908152602001600020549050600060088381548110611dbe577f4e487b7100000000000000000000000000000000000000000000000000000000600052603260045260246000fd5b906000526020600020015490508060088381548110611e06577f4e487b7100000000000000000000000000000000000000000000000000000000600052603260045260246000fd5b906000526020600020018190555081600960008381526020019081526020016000208190555060096000858152602001908152602001600020600090556008805480611e7b577f4e487b7100000000000000000000000000000000000000000000000000000000600052603160045260246000fd5b6001900381819060005260206000200160009055905550505050565b6000611ea283610938565b905081600660008573ffffffffffffffffffffffffffffffffffffffff1673ffffffffffffffffffffffffffffffffffffffff168152602001908152602001600020600083815260200190815260200160002081905550806007600084815260200190815260200160002081905550505050565b600080823b905060008111915050919050565b600073ffffffffffffffffffffffffffffffffffffffff168273ffffffffffffffffffffffffffffffffffffffff161415611f99576040517f08c379a0000000000000000000000000000000000000000000000000000000008152600401611f9090612f53565b60405180910390fd5b611fa28161112d565b15611fe2576040517f08c379a0000000000000000000000000000000000000000000000000000000008152600401611fd990612e73565b60405180910390fd5b611fee6000838361185b565b6001600360008473ffffffffffffffffffffffffffffffffffffffff1673ffffffffffffffffffffffffffffffffffffffff168152602001908152602001600020600082825461203e919061316c565b92505081905550816002600083815260200190815260200160002060006101000a81548173ffffffffffffffffffffffffffffffffffffffff021916908373ffffffffffffffffffffffffffffffffffffffff160217905550808273ffffffffffffffffffffffffffffffffffffffff16600073ffffffffffffffffffffffffffffffffffffffff167fddf252ad1be2c89b69c2b068fc378daa952ba7f163c4a11628f55a4df523b3ef60405160405180910390a45050565b828054612103906132dd565b90600052602060002090601f016020900481019282612125576000855561216c565b82601f1061213e57805160ff191683800117855561216c565b8280016001018555821561216c579182015b8281111561216b578251825591602001919060010190612150565b5b509050612179919061217d565b5090565b5b8082111561219657600081600090555060010161217e565b5090565b60006121ad6121a88461307f565b61304e565b9050828152602081018484840111156121c557600080fd5b6121d084828561329b565b509392505050565b60006121eb6121e6846130af565b61304e565b90508281526020810184848401111561220357600080fd5b61220e84828561329b565b509392505050565b60008135905061222581613456565b92915050565b60008135905061223a8161346d565b92915050565b60008135905061224f81613484565b92915050565b60008151905061226481613484565b92915050565b600082601f83011261227b57600080fd5b813561228b84826020860161219a565b91505092915050565b600082601f8301126122a557600080fd5b81356122b58482602086016121d8565b91505092915050565b6000813590506122cd8161349b565b92915050565b6000602082840312156122e557600080fd5b60006122f384828501612216565b91505092915050565b6000806040838503121561230f57600080fd5b600061231d85828601612216565b925050602061232e85828601612216565b9150509250929050565b60008060006060848603121561234d57600080fd5b600061235b86828701612216565b935050602061236c86828701612216565b925050604061237d868287016122be565b9150509250925092565b6000806000806080858703121561239d57600080fd5b60006123ab87828801612216565b94505060206123bc87828801612216565b93505060406123cd878288016122be565b925050606085013567ffffffffffffffff8111156123ea57600080fd5b6123f68782880161226a565b91505092959194509250565b6000806040838503121561241557600080fd5b600061242385828601612216565b92505060206124348582860161222b565b9150509250929050565b6000806040838503121561245157600080fd5b600061245f85828601612216565b9250506020612470858286016122be565b9150509250929050565b60006020828403121561248c57600080fd5b600061249a84828501612240565b91505092915050565b6000602082840312156124b557600080fd5b60006124c384828501612255565b91505092915050565b6000602082840312156124de57600080fd5b600082013567ffffffffffffffff8111156124f857600080fd5b61250484828501612294565b91505092915050565b60006020828403121561251f57600080fd5b600061252d848285016122be565b91505092915050565b60006125428383612ca7565b905092915050565b61255381613227565b82525050565b6000612564826130ef565b61256e818561311d565b935083602082028501612580856130df565b8060005b858110156125bc578484038952815161259d8582612536565b94506125a883613110565b925060208a01995050600181019050612584565b50829750879550505050505092915050565b6125d781613239565b82525050565b60006125e8826130fa565b6125f2818561312e565b93506126028185602086016132aa565b61260b81613445565b840191505092915050565b600061262182613105565b61262b818561313f565b935061263b8185602086016132aa565b61264481613445565b840191505092915050565b600061265a82613105565b6126648185613150565b93506126748185602086016132aa565b61267d81613445565b840191505092915050565b600061269382613105565b61269d8185613161565b93506126ad8185602086016132aa565b80840191505092915050565b60006126c6602b83613150565b91507f455243373231456e756d657261626c653a206f776e657220696e646578206f7560008301527f74206f6620626f756e64730000000000000000000000000000000000000000006020830152604082019050919050565b600061272c603283613150565b91507f4552433732313a207472616e7366657220746f206e6f6e20455243373231526560008301527f63656976657220696d706c656d656e74657200000000000000000000000000006020830152604082019050919050565b6000612792601c83613150565b91507f4552433732313a20746f6b656e20616c7265616479206d696e746564000000006000830152602082019050919050565b60006127d2602483613150565b91507f4552433732313a207472616e7366657220746f20746865207a65726f2061646460008301527f72657373000000000000000000000000000000000000000000000000000000006020830152604082019050919050565b6000612838601983613150565b91507f4552433732313a20617070726f766520746f2063616c6c6572000000000000006000830152602082019050919050565b6000612878602c83613150565b91507f4552433732313a206f70657261746f7220717565727920666f72206e6f6e657860008301527f697374656e7420746f6b656e00000000000000000000000000000000000000006020830152604082019050919050565b60006128de603883613150565b91507f4552433732313a20617070726f76652063616c6c6572206973206e6f74206f7760008301527f6e6572206e6f7220617070726f76656420666f7220616c6c00000000000000006020830152604082019050919050565b6000612944602a83613150565b91507f4552433732313a2062616c616e636520717565727920666f7220746865207a6560008301527f726f2061646472657373000000000000000000000000000000000000000000006020830152604082019050919050565b60006129aa602983613150565b91507f4552433732313a206f776e657220717565727920666f72206e6f6e657869737460008301527f656e7420746f6b656e00000000000000000000000000000000000000000000006020830152604082019050919050565b6000612a10602083613150565b91507f4552433732313a206d696e7420746f20746865207a65726f20616464726573736000830152602082019050919050565b6000612a50602c83613150565b91507f4552433732313a20617070726f76656420717565727920666f72206e6f6e657860008301527f697374656e7420746f6b656e00000000000000000000000000000000000000006020830152604082019050919050565b6000612ab6602983613150565b91507f4552433732313a207472616e73666572206f6620746f6b656e2074686174206960008301527f73206e6f74206f776e00000000000000000000000000000000000000000000006020830152604082019050919050565b6000612b1c602f83613150565b91507f4552433732314d657461646174613a2055524920717565727920666f72206e6f60008301527f6e6578697374656e7420746f6b656e00000000000000000000000000000000006020830152604082019050919050565b6000612b82602183613150565b91507f4552433732313a20617070726f76616c20746f2063757272656e74206f776e6560008301527f72000000000000000000000000000000000000000000000000000000000000006020830152604082019050919050565b6000612be8603183613150565b91507f4552433732313a207472616e736665722063616c6c6572206973206e6f74206f60008301527f776e6572206e6f7220617070726f7665640000000000000000000000000000006020830152604082019050919050565b6000612c4e602c83613150565b91507f455243373231456e756d657261626c653a20676c6f62616c20696e646578206f60008301527f7574206f6620626f756e647300000000000000000000000000000000000000006020830152604082019050919050565b60006040830160008301518482036000860152612cc48282612616565b9150506020830151612cd96020860182612ce4565b508091505092915050565b612ced81613291565b82525050565b612cfc81613291565b82525050565b6000612d0e8284612688565b915081905092915050565b6000612d258285612688565b9150612d318284612688565b91508190509392505050565b6000602082019050612d52600083018461254a565b92915050565b6000608082019050612d6d600083018761254a565b612d7a602083018661254a565b612d876040830185612cf3565b8181036060830152612d9981846125dd565b905095945050505050565b60006020820190508181036000830152612dbe8184612559565b905092915050565b6000602082019050612ddb60008301846125ce565b92915050565b60006020820190508181036000830152612dfb818461264f565b905092915050565b60006040820190508181036000830152612e1d818561264f565b9050612e2c6020830184612cf3565b9392505050565b60006020820190508181036000830152612e4c816126b9565b9050919050565b60006020820190508181036000830152612e6c8161271f565b9050919050565b60006020820190508181036000830152612e8c81612785565b9050919050565b60006020820190508181036000830152612eac816127c5565b9050919050565b60006020820190508181036000830152612ecc8161282b565b9050919050565b60006020820190508181036000830152612eec8161286b565b9050919050565b60006020820190508181036000830152612f0c816128d1565b9050919050565b60006020820190508181036000830152612f2c81612937565b9050919050565b60006020820190508181036000830152612f4c8161299d565b9050919050565b60006020820190508181036000830152612f6c81612a03565b9050919050565b60006020820190508181036000830152612f8c81612a43565b9050919050565b60006020820190508181036000830152612fac81612aa9565b9050919050565b60006020820190508181036000830152612fcc81612b0f565b9050919050565b60006020820190508181036000830152612fec81612b75565b9050919050565b6000602082019050818103600083015261300c81612bdb565b9050919050565b6000602082019050818103600083015261302c81612c41565b9050919050565b60006020820190506130486000830184612cf3565b92915050565b6000604051905081810181811067ffffffffffffffff8211171561307557613074613416565b5b8060405250919050565b600067ffffffffffffffff82111561309a57613099613416565b5b601f19601f8301169050602081019050919050565b600067ffffffffffffffff8211156130ca576130c9613416565b5b601f19601f8301169050602081019050919050565b6000819050602082019050919050565b600081519050919050565b600081519050919050565b600081519050919050565b6000602082019050919050565b600082825260208201905092915050565b600082825260208201905092915050565b600082825260208201905092915050565b600082825260208201905092915050565b600081905092915050565b600061317782613291565b915061318283613291565b9250827fffffffffffffffffffffffffffffffffffffffffffffffffffffffffffffffff038211156131b7576131b6613389565b5b828201905092915050565b60006131cd82613291565b91506131d883613291565b9250826131e8576131e76133b8565b5b828204905092915050565b60006131fe82613291565b915061320983613291565b92508282101561321c5761321b613389565b5b828203905092915050565b600061323282613271565b9050919050565b60008115159050919050565b60007fffffffff0000000000000000000000000000000000000000000000000000000082169050919050565b600073ffffffffffffffffffffffffffffffffffffffff82169050919050565b6000819050919050565b82818337600083830152505050565b60005b838110156132c85780820151818401526020810190506132ad565b838111156132d7576000848401525b50505050565b600060028204905060018216806132f557607f821691505b60208210811415613309576133086133e7565b5b50919050565b600061331a82613291565b91507fffffffffffffffffffffffffffffffffffffffffffffffffffffffffffffffff82141561334d5761334c613389565b5b600182019050919050565b600061336382613291565b915061336e83613291565b92508261337e5761337d6133b8565b5b828206905092915050565b7f4e487b7100000000000000000000000000000000000000000000000000000000600052601160045260246000fd5b7f4e487b7100000000000000000000000000000000000000000000000000000000600052601260045260246000fd5b7f4e487b7100000000000000000000000000000000000000000000000000000000600052602260045260246000fd5b7f4e487b7100000000000000000000000000000000000000000000000000000000600052604160045260246000fd5b6000601f19601f8301169050919050565b61345f81613227565b811461346a57600080fd5b50565b61347681613239565b811461348157600080fd5b50565b61348d81613245565b811461349857600080fd5b50565b6134a481613291565b81146134af57600080fd5b5056fea26469706673582212202e8ddb82cfb55617ffeae9af2992bdc18a5aa31e0e617932f268a0342cf87ceb64736f6c63430008000033",
  "immutableReferences": {},
  "source": "// SPDX-License-Identifier: MIT\npragma solidity ^0.8.0;\n\nimport \"@openzeppelin/contracts/token/ERC721/ERC721.sol\";\nimport \"@openzeppelin/contracts/token/ERC721/extensions/ERC721Enumerable.sol\";\n\ncontract FiveToken is ERC721Enumerable{\n    constructor() ERC721(\"FiveToken\", \"FTK\") public {}\n\nstruct Colors{\n    string color;\n    uint id;\n}\nColors [] public colors;\n\nmapping(string => bool) _colorExists;\n\nfunction mint(string memory _color) public{\nrequire(_colorExists[_color] == false);\n\nuint _id = colors.length;\ncolors.push(Colors(_color, _id));\n\n_safeMint(msg.sender, _id);\n_colorExists[_color] = true;\n\n}\n\nfunction getArray() public view returns(Colors[] memory){\n    return colors;\n}\n\n\n\n}\n\n",
  "sourcePath": "/Users/Oscar/crypto_coin/src/contracts/fivetoken.sol",
  "compiler": {
    "name": "solc",
    "version": "0.8.0+commit.c7dfd78e.Emscripten.clang"
  },
  "schemaVersion": "3.3.4",
  "updatedAt": "2021-04-24T02:36:42.723Z",
  "networkType": "ethereum",
  "devdoc": {
    "kind": "dev",
    "methods": {
      "approve(address,uint256)": {
        "details": "See {IERC721-approve}."
      },
      "balanceOf(address)": {
        "details": "See {IERC721-balanceOf}."
      },
      "getApproved(uint256)": {
        "details": "See {IERC721-getApproved}."
      },
      "isApprovedForAll(address,address)": {
        "details": "See {IERC721-isApprovedForAll}."
      },
      "name()": {
        "details": "See {IERC721Metadata-name}."
      },
      "ownerOf(uint256)": {
        "details": "See {IERC721-ownerOf}."
      },
      "safeTransferFrom(address,address,uint256)": {
        "details": "See {IERC721-safeTransferFrom}."
      },
      "safeTransferFrom(address,address,uint256,bytes)": {
        "details": "See {IERC721-safeTransferFrom}."
      },
      "setApprovalForAll(address,bool)": {
        "details": "See {IERC721-setApprovalForAll}."
      },
      "supportsInterface(bytes4)": {
        "details": "See {IERC165-supportsInterface}."
      },
      "symbol()": {
        "details": "See {IERC721Metadata-symbol}."
      },
      "tokenByIndex(uint256)": {
        "details": "See {IERC721Enumerable-tokenByIndex}."
      },
      "tokenOfOwnerByIndex(address,uint256)": {
        "details": "See {IERC721Enumerable-tokenOfOwnerByIndex}."
      },
      "tokenURI(uint256)": {
        "details": "See {IERC721Metadata-tokenURI}."
      },
      "totalSupply()": {
        "details": "See {IERC721Enumerable-totalSupply}."
      },
      "transferFrom(address,address,uint256)": {
        "details": "See {IERC721-transferFrom}."
      }
    },
    "version": 1
  },
  "userdoc": {
    "kind": "user",
    "methods": {},
    "version": 1
  }
}