{
  "contractName": "FiveToken",
  "abi": [
    {
      "inputs": [],
      "stateMutability": "nonpayable",
      "type": "constructor"
    },
    {
      "anonymous": false,
      "inputs": [
        {
          "indexed": true,
          "internalType": "address",
          "name": "owner",
          "type": "address"
        },
        {
          "indexed": true,
          "internalType": "address",
          "name": "approved",
          "type": "address"
        },
        {
          "indexed": true,
          "internalType": "uint256",
          "name": "tokenId",
          "type": "uint256"
        }
      ],
      "name": "Approval",
      "type": "event"
    },
    {
      "anonymous": false,
      "inputs": [
        {
          "indexed": true,
          "internalType": "address",
          "name": "owner",
          "type": "address"
        },
        {
          "indexed": true,
          "internalType": "address",
          "name": "operator",
          "type": "address"
        },
        {
          "indexed": false,
          "internalType": "bool",
          "name": "approved",
          "type": "bool"
        }
      ],
      "name": "ApprovalForAll",
      "type": "event"
    },
    {
      "anonymous": false,
      "inputs": [
        {
          "indexed": true,
          "internalType": "address",
          "name": "from",
          "type": "address"
        },
        {
          "indexed": true,
          "internalType": "address",
          "name": "to",
          "type": "address"
        },
        {
          "indexed": true,
          "internalType": "uint256",
          "name": "tokenId",
          "type": "uint256"
        }
      ],
      "name": "Transfer",
      "type": "event"
    },
    {
      "inputs": [
        {
          "internalType": "address",
          "name": "to",
          "type": "address"
        },
        {
          "internalType": "uint256",
          "name": "tokenId",
          "type": "uint256"
        }
      ],
      "name": "approve",
      "outputs": [],
      "stateMutability": "nonpayable",
      "type": "function"
    },
    {
      "inputs": [
        {
          "internalType": "address",
          "name": "owner",
          "type": "address"
        }
      ],
      "name": "balanceOf",
      "outputs": [
        {
          "internalType": "uint256",
          "name": "",
          "type": "uint256"
        }
      ],
      "stateMutability": "view",
      "type": "function",
      "constant": true
    },
    {
      "inputs": [
        {
          "internalType": "uint256",
          "name": "",
          "type": "uint256"
        }
      ],
      "name": "colors",
      "outputs": [
        {
          "internalType": "string",
          "name": "color",
          "type": "string"
        },
        {
          "internalType": "uint256",
          "name": "id",
          "type": "uint256"
        }
      ],
      "stateMutability": "view",
      "type": "function",
      "constant": true
    },
    {
      "inputs": [
        {
          "internalType": "uint256",
          "name": "tokenId",
          "type": "uint256"
        }
      ],
      "name": "getApproved",
      "outputs": [
        {
          "internalType": "address",
          "name": "",
          "type": "address"
        }
      ],
      "stateMutability": "view",
      "type": "function",
      "constant": true
    },
    {
      "inputs": [
        {
          "internalType": "address",
          "name": "owner",
          "type": "address"
        },
        {
          "internalType": "address",
          "name": "operator",
          "type": "address"
        }
      ],
      "name": "isApprovedForAll",
      "outputs": [
        {
          "internalType": "bool",
          "name": "",
          "type": "bool"
        }
      ],
      "stateMutability": "view",
      "type": "function",
      "constant": true
    },
    {
      "inputs": [],
      "name": "name",
      "outputs": [
        {
          "internalType": "string",
          "name": "",
          "type": "string"
        }
      ],
      "stateMutability": "view",
      "type": "function",
      "constant": true
    },
    {
      "inputs": [
        {
          "internalType": "uint256",
          "name": "tokenId",
          "type": "uint256"
        }
      ],
      "name": "ownerOf",
      "outputs": [
        {
          "internalType": "address",
          "name": "",
          "type": "address"
        }
      ],
      "stateMutability": "view",
      "type": "function",
      "constant": true
    },
    {
      "inputs": [
        {
          "internalType": "address",
          "name": "from",
          "type": "address"
        },
        {
          "internalType": "address",
          "name": "to",
          "type": "address"
        },
        {
          "internalType": "uint256",
          "name": "tokenId",
          "type": "uint256"
        }
      ],
      "name": "safeTransferFrom",
      "outputs": [],
      "stateMutability": "nonpayable",
      "type": "function"
    },
    {
      "inputs": [
        {
          "internalType": "address",
          "name": "from",
          "type": "address"
        },
        {
          "internalType": "address",
          "name": "to",
          "type": "address"
        },
        {
          "internalType": "uint256",
          "name": "tokenId",
          "type": "uint256"
        },
        {
          "internalType": "bytes",
          "name": "_data",
          "type": "bytes"
        }
      ],
      "name": "safeTransferFrom",
      "outputs": [],
      "stateMutability": "nonpayable",
      "type": "function"
    },
    {
      "inputs": [
        {
          "internalType": "address",
          "name": "operator",
          "type": "address"
        },
        {
          "internalType": "bool",
          "name": "approved",
          "type": "bool"
        }
      ],
      "name": "setApprovalForAll",
      "outputs": [],
      "stateMutability": "nonpayable",
      "type": "function"
    },
    {
      "inputs": [
        {
          "internalType": "bytes4",
          "name": "interfaceId",
          "type": "bytes4"
        }
      ],
      "name": "supportsInterface",
      "outputs": [
        {
          "internalType": "bool",
          "name": "",
          "type": "bool"
        }
      ],
      "stateMutability": "view",
      "type": "function",
      "constant": true
    },
    {
      "inputs": [],
      "name": "symbol",
      "outputs": [
        {
          "internalType": "string",
          "name": "",
          "type": "string"
        }
      ],
      "stateMutability": "view",
      "type": "function",
      "constant": true
    },
    {
      "inputs": [
        {
          "internalType": "uint256",
          "name": "index",
          "type": "uint256"
        }
      ],
      "name": "tokenByIndex",
      "outputs": [
        {
          "internalType": "uint256",
          "name": "",
          "type": "uint256"
        }
      ],
      "stateMutability": "view",
      "type": "function",
      "constant": true
    },
    {
      "inputs": [
        {
          "internalType": "address",
          "name": "owner",
          "type": "address"
        },
        {
          "internalType": "uint256",
          "name": "index",
          "type": "uint256"
        }
      ],
      "name": "tokenOfOwnerByIndex",
      "outputs": [
        {
          "internalType": "uint256",
          "name": "",
          "type": "uint256"
        }
      ],
      "stateMutability": "view",
      "type": "function",
      "constant": true
    },
    {
      "inputs": [
        {
          "internalType": "uint256",
          "name": "tokenId",
          "type": "uint256"
        }
      ],
      "name": "tokenURI",
      "outputs": [
        {
          "internalType": "string",
          "name": "",
          "type": "string"
        }
      ],
      "stateMutability": "view",
      "type": "function",
      "constant": true
    },
    {
      "inputs": [],
      "name": "totalSupply",
      "outputs": [
        {
          "internalType": "uint256",
          "name": "",
          "type": "uint256"
        }
      ],
      "stateMutability": "view",
      "type": "function",
      "constant": true
    },
    {
      "inputs": [
        {
          "internalType": "address",
          "name": "from",
          "type": "address"
        },
        {
          "internalType": "address",
          "name": "to",
          "type": "address"
        },
        {
          "internalType": "uint256",
          "name": "tokenId",
          "type": "uint256"
        }
      ],
      "name": "transferFrom",
      "outputs": [],
      "stateMutability": "nonpayable",
      "type": "function"
    },
    {
      "inputs": [
        {
          "internalType": "string",
          "name": "_color",
          "type": "string"
        }
      ],
      "name": "mint",
      "outputs": [],
      "stateMutability": "nonpayable",
      "type": "function"
    },
    {
      "inputs": [],
      "name": "getArray",
      "outputs": [
        {
          "components": [
            {
              "internalType": "string",
              "name": "color",
              "type": "string"
            },
            {
              "internalType": "uint256",
              "name": "id",
              "type": "uint256"
            }
          ],
          "internalType": "struct FiveToken.Colors[]",
          "name": "",
          "type": "tuple[]"
        }
      ],
      "stateMutability": "view",
      "type": "function",
      "constant": true
    },
    {
      "inputs": [
        {
          "internalType": "uint256",
          "name": "_id",
          "type": "uint256"
        }
      ],
      "name": "findOwner",
      "outputs": [
        {
          "internalType": "address",
          "name": "",
          "type": "address"
        }
      ],
      "stateMutability": "view",
      "type": "function",
      "constant": true
    }
  ],
  "bytecode": "0x60806040523480156200001157600080fd5b506040518060400160405280600981526020017f46697665546f6b656e00000000000000000000000000000000000000000000008152506040518060400160405280600381526020017f46544b0000000000000000000000000000000000000000000000000000000000815250816000908051906020019062000096929190620000b8565b508060019080519060200190620000af929190620000b8565b505050620001cd565b828054620000c69062000168565b90600052602060002090601f016020900481019282620000ea576000855562000136565b82601f106200010557805160ff191683800117855562000136565b8280016001018555821562000136579182015b828111156200013557825182559160200191906001019062000118565b5b50905062000145919062000149565b5090565b5b80821115620001645760008160009055506001016200014a565b5090565b600060028204905060018216806200018157607f821691505b602082108114156200019857620001976200019e565b5b50919050565b7f4e487b7100000000000000000000000000000000000000000000000000000000600052602260045260246000fd5b6135b280620001dd6000396000f3fe608060405234801561001057600080fd5b5060043610610149576000357c0100000000000000000000000000000000000000000000000000000000900480636352211e116100ca578063bd11f69d1161008e578063bd11f69d14610384578063c87b56dd146103b5578063d504ea1d146103e5578063d85d3d2714610403578063e985e9c51461041f57610149565b80636352211e146102ce57806370a08231146102fe57806395d89b411461032e578063a22cb4651461034c578063b88d4fde1461036857610149565b806323b872dd1161011157806323b872dd146102065780632f745c591461022257806342842e0e146102525780634f6ccce71461026e57806355f4b74d1461029e57610149565b806301ffc9a71461014e57806306fdde031461017e578063081812fc1461019c578063095ea7b3146101cc57806318160ddd146101e8575b600080fd5b61016860048036038101906101639190612544565b61044f565b6040516101759190612e90565b60405180910390f35b6101866104c9565b6040516101939190612eab565b60405180910390f35b6101b660048036038101906101b191906125d7565b61055b565b6040516101c39190612e07565b60405180910390f35b6101e660048036038101906101e19190612508565b6105e0565b005b6101f06106f8565b6040516101fd91906130fd565b60405180910390f35b610220600480360381019061021b9190612402565b610705565b005b61023c60048036038101906102379190612508565b610765565b60405161024991906130fd565b60405180910390f35b61026c60048036038101906102679190612402565b61080a565b005b610288600480360381019061028391906125d7565b61082a565b60405161029591906130fd565b60405180910390f35b6102b860048036038101906102b391906125d7565b6108c1565b6040516102c59190612e07565b60405180910390f35b6102e860048036038101906102e391906125d7565b6108fe565b6040516102f59190612e07565b60405180910390f35b6103186004803603810190610313919061239d565b6109b0565b60405161032591906130fd565b60405180910390f35b610336610a68565b6040516103439190612eab565b60405180910390f35b610366600480360381019061036191906124cc565b610afa565b005b610382600480360381019061037d9190612451565b610c7b565b005b61039e600480360381019061039991906125d7565b610cdd565b6040516103ac929190612ecd565b60405180910390f35b6103cf60048036038101906103ca91906125d7565b610d99565b6040516103dc9190612eab565b60405180910390f35b6103ed610e40565b6040516103fa9190612e6e565b60405180910390f35b61041d60048036038101906104189190612596565b610f3b565b005b610439600480360381019061043491906123c6565b611081565b6040516104469190612e90565b60405180910390f35b60007f780e9d63000000000000000000000000000000000000000000000000000000007bffffffffffffffffffffffffffffffffffffffffffffffffffffffff1916827bffffffffffffffffffffffffffffffffffffffffffffffffffffffff191614806104c257506104c182611115565b5b9050919050565b6060600080546104d8906133a7565b80601f0160208091040260200160405190810160405280929190818152602001828054610504906133a7565b80156105515780601f1061052657610100808354040283529160200191610551565b820191906000526020600020905b81548152906001019060200180831161053457829003601f168201915b5050505050905090565b6000610566826111f7565b6105a5576040517f08c379a000000000000000000000000000000000000000000000000000000000815260040161059c9061303d565b60405180910390fd5b6004600083815260200190815260200160002060009054906101000a900473ffffffffffffffffffffffffffffffffffffffff169050919050565b60006105eb826108fe565b90508073ffffffffffffffffffffffffffffffffffffffff168373ffffffffffffffffffffffffffffffffffffffff16141561065c576040517f08c379a00000000000000000000000000000000000000000000000000000000081526004016106539061309d565b60405180910390fd5b8073ffffffffffffffffffffffffffffffffffffffff1661067b611263565b73ffffffffffffffffffffffffffffffffffffffff1614806106aa57506106a9816106a4611263565b611081565b5b6106e9576040517f08c379a00000000000000000000000000000000000000000000000000000000081526004016106e090612fbd565b60405180910390fd5b6106f3838361126b565b505050565b6000600880549050905090565b610716610710611263565b82611324565b610755576040517f08c379a000000000000000000000000000000000000000000000000000000000815260040161074c906130bd565b60405180910390fd5b610760838383611402565b505050565b6000610770836109b0565b82106107b1576040517f08c379a00000000000000000000000000000000000000000000000000000000081526004016107a890612efd565b60405180910390fd5b600660008473ffffffffffffffffffffffffffffffffffffffff1673ffffffffffffffffffffffffffffffffffffffff168152602001908152602001600020600083815260200190815260200160002054905092915050565b61082583838360405180602001604052806000815250610c7b565b505050565b60006108346106f8565b8210610875576040517f08c379a000000000000000000000000000000000000000000000000000000000815260040161086c906130dd565b60405180910390fd5b600882815481106108af577f4e487b7100000000000000000000000000000000000000000000000000000000600052603260045260246000fd5b90600052602060002001549050919050565b6000600c600083815260200190815260200160002060009054906101000a900473ffffffffffffffffffffffffffffffffffffffff169050919050565b6000806002600084815260200190815260200160002060009054906101000a900473ffffffffffffffffffffffffffffffffffffffff169050600073ffffffffffffffffffffffffffffffffffffffff168173ffffffffffffffffffffffffffffffffffffffff1614156109a7576040517f08c379a000000000000000000000000000000000000000000000000000000000815260040161099e90612ffd565b60405180910390fd5b80915050919050565b60008073ffffffffffffffffffffffffffffffffffffffff168273ffffffffffffffffffffffffffffffffffffffff161415610a21576040517f08c379a0000000000000000000000000000000000000000000000000000000008152600401610a1890612fdd565b60405180910390fd5b600360008373ffffffffffffffffffffffffffffffffffffffff1673ffffffffffffffffffffffffffffffffffffffff168152602001908152602001600020549050919050565b606060018054610a77906133a7565b80601f0160208091040260200160405190810160405280929190818152602001828054610aa3906133a7565b8015610af05780601f10610ac557610100808354040283529160200191610af0565b820191906000526020600020905b815481529060010190602001808311610ad357829003601f168201915b5050505050905090565b610b02611263565b73ffffffffffffffffffffffffffffffffffffffff168273ffffffffffffffffffffffffffffffffffffffff161415610b70576040517f08c379a0000000000000000000000000000000000000000000000000000000008152600401610b6790612f7d565b60405180910390fd5b8060056000610b7d611263565b73ffffffffffffffffffffffffffffffffffffffff1673ffffffffffffffffffffffffffffffffffffffff16815260200190815260200160002060008473ffffffffffffffffffffffffffffffffffffffff1673ffffffffffffffffffffffffffffffffffffffff16815260200190815260200160002060006101000a81548160ff0219169083151502179055508173ffffffffffffffffffffffffffffffffffffffff16610c2a611263565b73ffffffffffffffffffffffffffffffffffffffff167f17307eab39ab6107e8899845ad3d59bd9653f200f220920489ca2b5937696c3183604051610c6f9190612e90565b60405180910390a35050565b610c8c610c86611263565b83611324565b610ccb576040517f08c379a0000000000000000000000000000000000000000000000000000000008152600401610cc2906130bd565b60405180910390fd5b610cd78484848461165e565b50505050565b600a8181548110610ced57600080fd5b9060005260206000209060020201600091509050806000018054610d10906133a7565b80601f0160208091040260200160405190810160405280929190818152602001828054610d3c906133a7565b8015610d895780601f10610d5e57610100808354040283529160200191610d89565b820191906000526020600020905b815481529060010190602001808311610d6c57829003601f168201915b5050505050908060010154905082565b6060610da4826111f7565b610de3576040517f08c379a0000000000000000000000000000000000000000000000000000000008152600401610dda9061307d565b60405180910390fd5b6000610ded6116ba565b90506000815111610e0d5760405180602001604052806000815250610e38565b80610e17846116d1565b604051602001610e28929190612de3565b6040516020818303038152906040525b915050919050565b6060600a805480602002602001604051908101604052809291908181526020016000905b82821015610f325783829060005260206000209060020201604051806040016040529081600082018054610e97906133a7565b80601f0160208091040260200160405190810160405280929190818152602001828054610ec3906133a7565b8015610f105780601f10610ee557610100808354040283529160200191610f10565b820191906000526020600020905b815481529060010190602001808311610ef357829003601f168201915b5050505050815260200160018201548152505081526020019060010190610e64565b50505050905090565b60001515600b82604051610f4f9190612dcc565b908152602001604051809103902060009054906101000a900460ff16151514610f7757600080fd5b6000600a805490509050600a60405180604001604052808481526020018381525090806001815401808255809150506001900390600052602060002090600202016000909190919091506000820151816000019080519060200190610fdd9291906121c1565b50602082015181600101555050610ff4338261189d565b33600c600083815260200190815260200160002060006101000a81548173ffffffffffffffffffffffffffffffffffffffff021916908373ffffffffffffffffffffffffffffffffffffffff1602179055506001600b836040516110589190612dcc565b908152602001604051809103902060006101000a81548160ff0219169083151502179055505050565b6000600560008473ffffffffffffffffffffffffffffffffffffffff1673ffffffffffffffffffffffffffffffffffffffff16815260200190815260200160002060008373ffffffffffffffffffffffffffffffffffffffff1673ffffffffffffffffffffffffffffffffffffffff16815260200190815260200160002060009054906101000a900460ff16905092915050565b60007f80ac58cd000000000000000000000000000000000000000000000000000000007bffffffffffffffffffffffffffffffffffffffffffffffffffffffff1916827bffffffffffffffffffffffffffffffffffffffffffffffffffffffff191614806111e057507f5b5e139f000000000000000000000000000000000000000000000000000000007bffffffffffffffffffffffffffffffffffffffffffffffffffffffff1916827bffffffffffffffffffffffffffffffffffffffffffffffffffffffff1916145b806111f057506111ef826118bb565b5b9050919050565b60008073ffffffffffffffffffffffffffffffffffffffff166002600084815260200190815260200160002060009054906101000a900473ffffffffffffffffffffffffffffffffffffffff1673ffffffffffffffffffffffffffffffffffffffff1614159050919050565b600033905090565b816004600083815260200190815260200160002060006101000a81548173ffffffffffffffffffffffffffffffffffffffff021916908373ffffffffffffffffffffffffffffffffffffffff160217905550808273ffffffffffffffffffffffffffffffffffffffff166112de836108fe565b73ffffffffffffffffffffffffffffffffffffffff167f8c5be1e5ebec7d5bd14f71427d1e84f3dd0314c0f7b2291e5b200ac8c7c3b92560405160405180910390a45050565b600061132f826111f7565b61136e576040517f08c379a000000000000000000000000000000000000000000000000000000000815260040161136590612f9d565b60405180910390fd5b6000611379836108fe565b90508073ffffffffffffffffffffffffffffffffffffffff168473ffffffffffffffffffffffffffffffffffffffff1614806113e857508373ffffffffffffffffffffffffffffffffffffffff166113d08461055b565b73ffffffffffffffffffffffffffffffffffffffff16145b806113f957506113f88185611081565b5b91505092915050565b8273ffffffffffffffffffffffffffffffffffffffff16611422826108fe565b73ffffffffffffffffffffffffffffffffffffffff1614611478576040517f08c379a000000000000000000000000000000000000000000000000000000000815260040161146f9061305d565b60405180910390fd5b600073ffffffffffffffffffffffffffffffffffffffff168273ffffffffffffffffffffffffffffffffffffffff1614156114e8576040517f08c379a00000000000000000000000000000000000000000000000000000000081526004016114df90612f5d565b60405180910390fd5b6114f3838383611925565b6114fe60008261126b565b6001600360008573ffffffffffffffffffffffffffffffffffffffff1673ffffffffffffffffffffffffffffffffffffffff168152602001908152602001600020600082825461154e91906132bd565b925050819055506001600360008473ffffffffffffffffffffffffffffffffffffffff1673ffffffffffffffffffffffffffffffffffffffff16815260200190815260200160002060008282546115a59190613236565b92505081905550816002600083815260200190815260200160002060006101000a81548173ffffffffffffffffffffffffffffffffffffffff021916908373ffffffffffffffffffffffffffffffffffffffff160217905550808273ffffffffffffffffffffffffffffffffffffffff168473ffffffffffffffffffffffffffffffffffffffff167fddf252ad1be2c89b69c2b068fc378daa952ba7f163c4a11628f55a4df523b3ef60405160405180910390a4505050565b611669848484611402565b61167584848484611a39565b6116b4576040517f08c379a00000000000000000000000000000000000000000000000000000000081526004016116ab90612f1d565b60405180910390fd5b50505050565b606060405180602001604052806000815250905090565b60606000821415611719576040518060400160405280600181526020017f30000000000000000000000000000000000000000000000000000000000000008152509050611898565b600082905060005b6000821461174b578080611734906133d9565b915050600a82611744919061328c565b9150611721565b60008167ffffffffffffffff81111561178d577f4e487b7100000000000000000000000000000000000000000000000000000000600052604160045260246000fd5b6040519080825280601f01601f1916602001820160405280156117bf5781602001600182028036833780820191505090505b5090505b60008514611891576001826117d891906132bd565b9150600a856117e79190613422565b60306117f39190613236565b7f01000000000000000000000000000000000000000000000000000000000000000281838151811061184e577f4e487b7100000000000000000000000000000000000000000000000000000000600052603260045260246000fd5b60200101907effffffffffffffffffffffffffffffffffffffffffffffffffffffffffffff1916908160001a905350600a8561188a919061328c565b94506117c3565b8093505050505b919050565b6118b7828260405180602001604052806000815250611c08565b5050565b60007f01ffc9a7000000000000000000000000000000000000000000000000000000007bffffffffffffffffffffffffffffffffffffffffffffffffffffffff1916827bffffffffffffffffffffffffffffffffffffffffffffffffffffffff1916149050919050565b611930838383611c63565b600073ffffffffffffffffffffffffffffffffffffffff168373ffffffffffffffffffffffffffffffffffffffff1614156119735761196e81611c68565b6119b2565b8173ffffffffffffffffffffffffffffffffffffffff168373ffffffffffffffffffffffffffffffffffffffff16146119b1576119b08382611cb1565b5b5b600073ffffffffffffffffffffffffffffffffffffffff168273ffffffffffffffffffffffffffffffffffffffff1614156119f5576119f081611e1e565b611a34565b8273ffffffffffffffffffffffffffffffffffffffff168273ffffffffffffffffffffffffffffffffffffffff1614611a3357611a328282611f61565b5b5b505050565b6000611a5a8473ffffffffffffffffffffffffffffffffffffffff16611fe0565b15611bfb578373ffffffffffffffffffffffffffffffffffffffff1663150b7a02611a83611263565b8786866040518563ffffffff167c0100000000000000000000000000000000000000000000000000000000028152600401611ac19493929190612e22565b602060405180830381600087803b158015611adb57600080fd5b505af1925050508015611b0c57506040513d601f19601f82011682018060405250810190611b09919061256d565b60015b611b8f573d8060008114611b3c576040519150601f19603f3d011682016040523d82523d6000602084013e611b41565b606091505b50600081511415611b87576040517f08c379a0000000000000000000000000000000000000000000000000000000008152600401611b7e90612f1d565b60405180910390fd5b805181602001fd5b63150b7a027c0100000000000000000000000000000000000000000000000000000000027bffffffffffffffffffffffffffffffffffffffffffffffffffffffff1916817bffffffffffffffffffffffffffffffffffffffffffffffffffffffff191614915050611c00565b600190505b949350505050565b611c128383611ff3565b611c1f6000848484611a39565b611c5e576040517f08c379a0000000000000000000000000000000000000000000000000000000008152600401611c5590612f1d565b60405180910390fd5b505050565b505050565b6008805490506009600083815260200190815260200160002081905550600881908060018154018082558091505060019003906000526020600020016000909190919091505550565b60006001611cbe846109b0565b611cc891906132bd565b9050600060076000848152602001908152602001600020549050818114611dad576000600660008673ffffffffffffffffffffffffffffffffffffffff1673ffffffffffffffffffffffffffffffffffffffff168152602001908152602001600020600084815260200190815260200160002054905080600660008773ffffffffffffffffffffffffffffffffffffffff1673ffffffffffffffffffffffffffffffffffffffff168152602001908152602001600020600084815260200190815260200160002081905550816007600083815260200190815260200160002081905550505b6007600084815260200190815260200160002060009055600660008573ffffffffffffffffffffffffffffffffffffffff1673ffffffffffffffffffffffffffffffffffffffff16815260200190815260200160002060008381526020019081526020016000206000905550505050565b60006001600880549050611e3291906132bd565b9050600060096000848152602001908152602001600020549050600060088381548110611e88577f4e487b7100000000000000000000000000000000000000000000000000000000600052603260045260246000fd5b906000526020600020015490508060088381548110611ed0577f4e487b7100000000000000000000000000000000000000000000000000000000600052603260045260246000fd5b906000526020600020018190555081600960008381526020019081526020016000208190555060096000858152602001908152602001600020600090556008805480611f45577f4e487b7100000000000000000000000000000000000000000000000000000000600052603160045260246000fd5b6001900381819060005260206000200160009055905550505050565b6000611f6c836109b0565b905081600660008573ffffffffffffffffffffffffffffffffffffffff1673ffffffffffffffffffffffffffffffffffffffff168152602001908152602001600020600083815260200190815260200160002081905550806007600084815260200190815260200160002081905550505050565b600080823b905060008111915050919050565b600073ffffffffffffffffffffffffffffffffffffffff168273ffffffffffffffffffffffffffffffffffffffff161415612063576040517f08c379a000000000000000000000000000000000000000000000000000000000815260040161205a9061301d565b60405180910390fd5b61206c816111f7565b156120ac576040517f08c379a00000000000000000000000000000000000000000000000000000000081526004016120a390612f3d565b60405180910390fd5b6120b860008383611925565b6001600360008473ffffffffffffffffffffffffffffffffffffffff1673ffffffffffffffffffffffffffffffffffffffff16815260200190815260200160002060008282546121089190613236565b92505081905550816002600083815260200190815260200160002060006101000a81548173ffffffffffffffffffffffffffffffffffffffff021916908373ffffffffffffffffffffffffffffffffffffffff160217905550808273ffffffffffffffffffffffffffffffffffffffff16600073ffffffffffffffffffffffffffffffffffffffff167fddf252ad1be2c89b69c2b068fc378daa952ba7f163c4a11628f55a4df523b3ef60405160405180910390a45050565b8280546121cd906133a7565b90600052602060002090601f0160209004810192826121ef5760008555612236565b82601f1061220857805160ff1916838001178555612236565b82800160010185558215612236579182015b8281111561223557825182559160200191906001019061221a565b5b5090506122439190612247565b5090565b5b80821115612260576000816000905550600101612248565b5090565b600061227761227284613149565b613118565b90508281526020810184848401111561228f57600080fd5b61229a848285613365565b509392505050565b60006122b56122b084613179565b613118565b9050828152602081018484840111156122cd57600080fd5b6122d8848285613365565b509392505050565b6000813590506122ef81613520565b92915050565b60008135905061230481613537565b92915050565b6000813590506123198161354e565b92915050565b60008151905061232e8161354e565b92915050565b600082601f83011261234557600080fd5b8135612355848260208601612264565b91505092915050565b600082601f83011261236f57600080fd5b813561237f8482602086016122a2565b91505092915050565b60008135905061239781613565565b92915050565b6000602082840312156123af57600080fd5b60006123bd848285016122e0565b91505092915050565b600080604083850312156123d957600080fd5b60006123e7858286016122e0565b92505060206123f8858286016122e0565b9150509250929050565b60008060006060848603121561241757600080fd5b6000612425868287016122e0565b9350506020612436868287016122e0565b925050604061244786828701612388565b9150509250925092565b6000806000806080858703121561246757600080fd5b6000612475878288016122e0565b9450506020612486878288016122e0565b935050604061249787828801612388565b925050606085013567ffffffffffffffff8111156124b457600080fd5b6124c087828801612334565b91505092959194509250565b600080604083850312156124df57600080fd5b60006124ed858286016122e0565b92505060206124fe858286016122f5565b9150509250929050565b6000806040838503121561251b57600080fd5b6000612529858286016122e0565b925050602061253a85828601612388565b9150509250929050565b60006020828403121561255657600080fd5b60006125648482850161230a565b91505092915050565b60006020828403121561257f57600080fd5b600061258d8482850161231f565b91505092915050565b6000602082840312156125a857600080fd5b600082013567ffffffffffffffff8111156125c257600080fd5b6125ce8482850161235e565b91505092915050565b6000602082840312156125e957600080fd5b60006125f784828501612388565b91505092915050565b600061260c8383612d71565b905092915050565b61261d816132f1565b82525050565b600061262e826131b9565b61263881856131e7565b93508360208202850161264a856131a9565b8060005b8581101561268657848403895281516126678582612600565b9450612672836131da565b925060208a0199505060018101905061264e565b50829750879550505050505092915050565b6126a181613303565b82525050565b60006126b2826131c4565b6126bc81856131f8565b93506126cc818560208601613374565b6126d58161350f565b840191505092915050565b60006126eb826131cf565b6126f58185613209565b9350612705818560208601613374565b61270e8161350f565b840191505092915050565b6000612724826131cf565b61272e818561321a565b935061273e818560208601613374565b6127478161350f565b840191505092915050565b600061275d826131cf565b612767818561322b565b9350612777818560208601613374565b80840191505092915050565b6000612790602b8361321a565b91507f455243373231456e756d657261626c653a206f776e657220696e646578206f7560008301527f74206f6620626f756e64730000000000000000000000000000000000000000006020830152604082019050919050565b60006127f660328361321a565b91507f4552433732313a207472616e7366657220746f206e6f6e20455243373231526560008301527f63656976657220696d706c656d656e74657200000000000000000000000000006020830152604082019050919050565b600061285c601c8361321a565b91507f4552433732313a20746f6b656e20616c7265616479206d696e746564000000006000830152602082019050919050565b600061289c60248361321a565b91507f4552433732313a207472616e7366657220746f20746865207a65726f2061646460008301527f72657373000000000000000000000000000000000000000000000000000000006020830152604082019050919050565b600061290260198361321a565b91507f4552433732313a20617070726f766520746f2063616c6c6572000000000000006000830152602082019050919050565b6000612942602c8361321a565b91507f4552433732313a206f70657261746f7220717565727920666f72206e6f6e657860008301527f697374656e7420746f6b656e00000000000000000000000000000000000000006020830152604082019050919050565b60006129a860388361321a565b91507f4552433732313a20617070726f76652063616c6c6572206973206e6f74206f7760008301527f6e6572206e6f7220617070726f76656420666f7220616c6c00000000000000006020830152604082019050919050565b6000612a0e602a8361321a565b91507f4552433732313a2062616c616e636520717565727920666f7220746865207a6560008301527f726f2061646472657373000000000000000000000000000000000000000000006020830152604082019050919050565b6000612a7460298361321a565b91507f4552433732313a206f776e657220717565727920666f72206e6f6e657869737460008301527f656e7420746f6b656e00000000000000000000000000000000000000000000006020830152604082019050919050565b6000612ada60208361321a565b91507f4552433732313a206d696e7420746f20746865207a65726f20616464726573736000830152602082019050919050565b6000612b1a602c8361321a565b91507f4552433732313a20617070726f76656420717565727920666f72206e6f6e657860008301527f697374656e7420746f6b656e00000000000000000000000000000000000000006020830152604082019050919050565b6000612b8060298361321a565b91507f4552433732313a207472616e73666572206f6620746f6b656e2074686174206960008301527f73206e6f74206f776e00000000000000000000000000000000000000000000006020830152604082019050919050565b6000612be6602f8361321a565b91507f4552433732314d657461646174613a2055524920717565727920666f72206e6f60008301527f6e6578697374656e7420746f6b656e00000000000000000000000000000000006020830152604082019050919050565b6000612c4c60218361321a565b91507f4552433732313a20617070726f76616c20746f2063757272656e74206f776e6560008301527f72000000000000000000000000000000000000000000000000000000000000006020830152604082019050919050565b6000612cb260318361321a565b91507f4552433732313a207472616e736665722063616c6c6572206973206e6f74206f60008301527f776e6572206e6f7220617070726f7665640000000000000000000000000000006020830152604082019050919050565b6000612d18602c8361321a565b91507f455243373231456e756d657261626c653a20676c6f62616c20696e646578206f60008301527f7574206f6620626f756e647300000000000000000000000000000000000000006020830152604082019050919050565b60006040830160008301518482036000860152612d8e82826126e0565b9150506020830151612da36020860182612dae565b508091505092915050565b612db78161335b565b82525050565b612dc68161335b565b82525050565b6000612dd88284612752565b915081905092915050565b6000612def8285612752565b9150612dfb8284612752565b91508190509392505050565b6000602082019050612e1c6000830184612614565b92915050565b6000608082019050612e376000830187612614565b612e446020830186612614565b612e516040830185612dbd565b8181036060830152612e6381846126a7565b905095945050505050565b60006020820190508181036000830152612e888184612623565b905092915050565b6000602082019050612ea56000830184612698565b92915050565b60006020820190508181036000830152612ec58184612719565b905092915050565b60006040820190508181036000830152612ee78185612719565b9050612ef66020830184612dbd565b9392505050565b60006020820190508181036000830152612f1681612783565b9050919050565b60006020820190508181036000830152612f36816127e9565b9050919050565b60006020820190508181036000830152612f568161284f565b9050919050565b60006020820190508181036000830152612f768161288f565b9050919050565b60006020820190508181036000830152612f96816128f5565b9050919050565b60006020820190508181036000830152612fb681612935565b9050919050565b60006020820190508181036000830152612fd68161299b565b9050919050565b60006020820190508181036000830152612ff681612a01565b9050919050565b6000602082019050818103600083015261301681612a67565b9050919050565b6000602082019050818103600083015261303681612acd565b9050919050565b6000602082019050818103600083015261305681612b0d565b9050919050565b6000602082019050818103600083015261307681612b73565b9050919050565b6000602082019050818103600083015261309681612bd9565b9050919050565b600060208201905081810360008301526130b681612c3f565b9050919050565b600060208201905081810360008301526130d681612ca5565b9050919050565b600060208201905081810360008301526130f681612d0b565b9050919050565b60006020820190506131126000830184612dbd565b92915050565b6000604051905081810181811067ffffffffffffffff8211171561313f5761313e6134e0565b5b8060405250919050565b600067ffffffffffffffff821115613164576131636134e0565b5b601f19601f8301169050602081019050919050565b600067ffffffffffffffff821115613194576131936134e0565b5b601f19601f8301169050602081019050919050565b6000819050602082019050919050565b600081519050919050565b600081519050919050565b600081519050919050565b6000602082019050919050565b600082825260208201905092915050565b600082825260208201905092915050565b600082825260208201905092915050565b600082825260208201905092915050565b600081905092915050565b60006132418261335b565b915061324c8361335b565b9250827fffffffffffffffffffffffffffffffffffffffffffffffffffffffffffffffff0382111561328157613280613453565b5b828201905092915050565b60006132978261335b565b91506132a28361335b565b9250826132b2576132b1613482565b5b828204905092915050565b60006132c88261335b565b91506132d38361335b565b9250828210156132e6576132e5613453565b5b828203905092915050565b60006132fc8261333b565b9050919050565b60008115159050919050565b60007fffffffff0000000000000000000000000000000000000000000000000000000082169050919050565b600073ffffffffffffffffffffffffffffffffffffffff82169050919050565b6000819050919050565b82818337600083830152505050565b60005b83811015613392578082015181840152602081019050613377565b838111156133a1576000848401525b50505050565b600060028204905060018216806133bf57607f821691505b602082108114156133d3576133d26134b1565b5b50919050565b60006133e48261335b565b91507fffffffffffffffffffffffffffffffffffffffffffffffffffffffffffffffff82141561341757613416613453565b5b600182019050919050565b600061342d8261335b565b91506134388361335b565b92508261344857613447613482565b5b828206905092915050565b7f4e487b7100000000000000000000000000000000000000000000000000000000600052601160045260246000fd5b7f4e487b7100000000000000000000000000000000000000000000000000000000600052601260045260246000fd5b7f4e487b7100000000000000000000000000000000000000000000000000000000600052602260045260246000fd5b7f4e487b7100000000000000000000000000000000000000000000000000000000600052604160045260246000fd5b6000601f19601f8301169050919050565b613529816132f1565b811461353457600080fd5b50565b61354081613303565b811461354b57600080fd5b50565b6135578161330f565b811461356257600080fd5b50565b61356e8161335b565b811461357957600080fd5b5056fea2646970667358221220a7a3b620369475b7a1014c28861562a464588ea0aa3ff1361403e2a61d0bcc2c64736f6c63430008000033",
  "immutableReferences": {},
  "source": "// SPDX-License-Identifier: MIT\npragma solidity ^0.8.0;\n\nimport \"@openzeppelin/contracts/token/ERC721/ERC721.sol\";\nimport \"@openzeppelin/contracts/token/ERC721/extensions/ERC721Enumerable.sol\";\n\ncontract FiveToken is ERC721Enumerable{\n    constructor() ERC721(\"FiveToken\", \"FTK\") public {}\n\nstruct Colors{\n    string color;\n    uint id;\n}\nColors [] public colors;\n\nmapping(string => bool) _colorExists;\nmapping (uint => address) toOwner;\n\n\nfunction mint(string memory _color) public{\nrequire(_colorExists[_color] == false);\n\nuint _id = colors.length;\ncolors.push(Colors(_color, _id));\n_safeMint(msg.sender, _id);\ntoOwner[_id] = msg.sender;\n_colorExists[_color] = true;\n}\n\nfunction getArray() public view returns(Colors[] memory){\n    return colors;\n}\n\nfunction findOwner(uint _id) public view returns(address){\n    return toOwner[_id];\n}\n\n\n\n}\n\n",
  "sourcePath": "/Users/philemon/crypto_coin/src/contracts/fivetoken.sol",
  "compiler": {
    "name": "solc",
    "version": "0.8.0+commit.c7dfd78e.Emscripten.clang"
  },
  "schemaVersion": "3.3.4",
  "updatedAt": "2021-04-28T06:17:07.514Z",
  "networkType": "ethereum",
  "devdoc": {
    "kind": "dev",
    "methods": {
      "approve(address,uint256)": {
        "details": "See {IERC721-approve}."
      },
      "balanceOf(address)": {
        "details": "See {IERC721-balanceOf}."
      },
      "getApproved(uint256)": {
        "details": "See {IERC721-getApproved}."
      },
      "isApprovedForAll(address,address)": {
        "details": "See {IERC721-isApprovedForAll}."
      },
      "name()": {
        "details": "See {IERC721Metadata-name}."
      },
      "ownerOf(uint256)": {
        "details": "See {IERC721-ownerOf}."
      },
      "safeTransferFrom(address,address,uint256)": {
        "details": "See {IERC721-safeTransferFrom}."
      },
      "safeTransferFrom(address,address,uint256,bytes)": {
        "details": "See {IERC721-safeTransferFrom}."
      },
      "setApprovalForAll(address,bool)": {
        "details": "See {IERC721-setApprovalForAll}."
      },
      "supportsInterface(bytes4)": {
        "details": "See {IERC165-supportsInterface}."
      },
      "symbol()": {
        "details": "See {IERC721Metadata-symbol}."
      },
      "tokenByIndex(uint256)": {
        "details": "See {IERC721Enumerable-tokenByIndex}."
      },
      "tokenOfOwnerByIndex(address,uint256)": {
        "details": "See {IERC721Enumerable-tokenOfOwnerByIndex}."
      },
      "tokenURI(uint256)": {
        "details": "See {IERC721Metadata-tokenURI}."
      },
      "totalSupply()": {
        "details": "See {IERC721Enumerable-totalSupply}."
      },
      "transferFrom(address,address,uint256)": {
        "details": "See {IERC721-transferFrom}."
      }
    },
    "version": 1
  },
  "userdoc": {
    "kind": "user",
    "methods": {},
    "version": 1
  }
}