{
  "contractName": "FiveToken",
  "abi": [
    {
      "inputs": [],
      "stateMutability": "nonpayable",
      "type": "constructor"
    },
    {
      "anonymous": false,
      "inputs": [
        {
          "indexed": true,
          "internalType": "address",
          "name": "owner",
          "type": "address"
        },
        {
          "indexed": true,
          "internalType": "address",
          "name": "approved",
          "type": "address"
        },
        {
          "indexed": true,
          "internalType": "uint256",
          "name": "tokenId",
          "type": "uint256"
        }
      ],
      "name": "Approval",
      "type": "event"
    },
    {
      "anonymous": false,
      "inputs": [
        {
          "indexed": true,
          "internalType": "address",
          "name": "owner",
          "type": "address"
        },
        {
          "indexed": true,
          "internalType": "address",
          "name": "operator",
          "type": "address"
        },
        {
          "indexed": false,
          "internalType": "bool",
          "name": "approved",
          "type": "bool"
        }
      ],
      "name": "ApprovalForAll",
      "type": "event"
    },
    {
      "anonymous": false,
      "inputs": [
        {
          "indexed": true,
          "internalType": "address",
          "name": "from",
          "type": "address"
        },
        {
          "indexed": true,
          "internalType": "address",
          "name": "to",
          "type": "address"
        },
        {
          "indexed": true,
          "internalType": "uint256",
          "name": "tokenId",
          "type": "uint256"
        }
      ],
      "name": "Transfer",
      "type": "event"
    },
    {
      "inputs": [
        {
          "internalType": "address",
          "name": "to",
          "type": "address"
        },
        {
          "internalType": "uint256",
          "name": "tokenId",
          "type": "uint256"
        }
      ],
      "name": "approve",
      "outputs": [],
      "stateMutability": "nonpayable",
      "type": "function"
    },
    {
      "inputs": [
        {
          "internalType": "address",
          "name": "owner",
          "type": "address"
        }
      ],
      "name": "balanceOf",
      "outputs": [
        {
          "internalType": "uint256",
          "name": "",
          "type": "uint256"
        }
      ],
      "stateMutability": "view",
      "type": "function",
      "constant": true
    },
    {
      "inputs": [
        {
          "internalType": "uint256",
          "name": "",
          "type": "uint256"
        }
      ],
      "name": "colors",
      "outputs": [
        {
          "internalType": "string",
          "name": "",
          "type": "string"
        }
      ],
      "stateMutability": "view",
      "type": "function",
      "constant": true
    },
    {
      "inputs": [
        {
          "internalType": "uint256",
          "name": "tokenId",
          "type": "uint256"
        }
      ],
      "name": "getApproved",
      "outputs": [
        {
          "internalType": "address",
          "name": "",
          "type": "address"
        }
      ],
      "stateMutability": "view",
      "type": "function",
      "constant": true
    },
    {
      "inputs": [
        {
          "internalType": "address",
          "name": "owner",
          "type": "address"
        },
        {
          "internalType": "address",
          "name": "operator",
          "type": "address"
        }
      ],
      "name": "isApprovedForAll",
      "outputs": [
        {
          "internalType": "bool",
          "name": "",
          "type": "bool"
        }
      ],
      "stateMutability": "view",
      "type": "function",
      "constant": true
    },
    {
      "inputs": [],
      "name": "name",
      "outputs": [
        {
          "internalType": "string",
          "name": "",
          "type": "string"
        }
      ],
      "stateMutability": "view",
      "type": "function",
      "constant": true
    },
    {
      "inputs": [
        {
          "internalType": "uint256",
          "name": "tokenId",
          "type": "uint256"
        }
      ],
      "name": "ownerOf",
      "outputs": [
        {
          "internalType": "address",
          "name": "",
          "type": "address"
        }
      ],
      "stateMutability": "view",
      "type": "function",
      "constant": true
    },
    {
      "inputs": [
        {
          "internalType": "address",
          "name": "from",
          "type": "address"
        },
        {
          "internalType": "address",
          "name": "to",
          "type": "address"
        },
        {
          "internalType": "uint256",
          "name": "tokenId",
          "type": "uint256"
        }
      ],
      "name": "safeTransferFrom",
      "outputs": [],
      "stateMutability": "nonpayable",
      "type": "function"
    },
    {
      "inputs": [
        {
          "internalType": "address",
          "name": "from",
          "type": "address"
        },
        {
          "internalType": "address",
          "name": "to",
          "type": "address"
        },
        {
          "internalType": "uint256",
          "name": "tokenId",
          "type": "uint256"
        },
        {
          "internalType": "bytes",
          "name": "_data",
          "type": "bytes"
        }
      ],
      "name": "safeTransferFrom",
      "outputs": [],
      "stateMutability": "nonpayable",
      "type": "function"
    },
    {
      "inputs": [
        {
          "internalType": "address",
          "name": "operator",
          "type": "address"
        },
        {
          "internalType": "bool",
          "name": "approved",
          "type": "bool"
        }
      ],
      "name": "setApprovalForAll",
      "outputs": [],
      "stateMutability": "nonpayable",
      "type": "function"
    },
    {
      "inputs": [
        {
          "internalType": "bytes4",
          "name": "interfaceId",
          "type": "bytes4"
        }
      ],
      "name": "supportsInterface",
      "outputs": [
        {
          "internalType": "bool",
          "name": "",
          "type": "bool"
        }
      ],
      "stateMutability": "view",
      "type": "function",
      "constant": true
    },
    {
      "inputs": [],
      "name": "symbol",
      "outputs": [
        {
          "internalType": "string",
          "name": "",
          "type": "string"
        }
      ],
      "stateMutability": "view",
      "type": "function",
      "constant": true
    },
    {
      "inputs": [
        {
          "internalType": "uint256",
          "name": "index",
          "type": "uint256"
        }
      ],
      "name": "tokenByIndex",
      "outputs": [
        {
          "internalType": "uint256",
          "name": "",
          "type": "uint256"
        }
      ],
      "stateMutability": "view",
      "type": "function",
      "constant": true
    },
    {
      "inputs": [
        {
          "internalType": "address",
          "name": "owner",
          "type": "address"
        },
        {
          "internalType": "uint256",
          "name": "index",
          "type": "uint256"
        }
      ],
      "name": "tokenOfOwnerByIndex",
      "outputs": [
        {
          "internalType": "uint256",
          "name": "",
          "type": "uint256"
        }
      ],
      "stateMutability": "view",
      "type": "function",
      "constant": true
    },
    {
      "inputs": [
        {
          "internalType": "uint256",
          "name": "tokenId",
          "type": "uint256"
        }
      ],
      "name": "tokenURI",
      "outputs": [
        {
          "internalType": "string",
          "name": "",
          "type": "string"
        }
      ],
      "stateMutability": "view",
      "type": "function",
      "constant": true
    },
    {
      "inputs": [],
      "name": "totalSupply",
      "outputs": [
        {
          "internalType": "uint256",
          "name": "",
          "type": "uint256"
        }
      ],
      "stateMutability": "view",
      "type": "function",
      "constant": true
    },
    {
      "inputs": [
        {
          "internalType": "address",
          "name": "from",
          "type": "address"
        },
        {
          "internalType": "address",
          "name": "to",
          "type": "address"
        },
        {
          "internalType": "uint256",
          "name": "tokenId",
          "type": "uint256"
        }
      ],
      "name": "transferFrom",
      "outputs": [],
      "stateMutability": "nonpayable",
      "type": "function"
    },
    {
      "inputs": [
        {
          "internalType": "string",
          "name": "_color",
          "type": "string"
        }
      ],
      "name": "mint",
      "outputs": [],
      "stateMutability": "nonpayable",
      "type": "function"
    },
    {
      "inputs": [],
      "name": "getArray",
      "outputs": [
        {
          "internalType": "string[]",
          "name": "",
          "type": "string[]"
        }
      ],
      "stateMutability": "view",
      "type": "function",
      "constant": true
    }
  ],
  "bytecode": "0x60806040523480156200001157600080fd5b506040518060400160405280600981526020017f46697665546f6b656e00000000000000000000000000000000000000000000008152506040518060400160405280600381526020017f46544b0000000000000000000000000000000000000000000000000000000000815250816000908051906020019062000096929190620000b8565b508060019080519060200190620000af929190620000b8565b505050620001cd565b828054620000c69062000168565b90600052602060002090601f016020900481019282620000ea576000855562000136565b82601f106200010557805160ff191683800117855562000136565b8280016001018555821562000136579182015b828111156200013557825182559160200191906001019062000118565b5b50905062000145919062000149565b5090565b5b80821115620001645760008160009055506001016200014a565b5090565b600060028204905060018216806200018157607f821691505b602082108114156200019857620001976200019e565b5b50919050565b7f4e487b7100000000000000000000000000000000000000000000000000000000600052602260045260246000fd5b61340c80620001dd6000396000f3fe608060405234801561001057600080fd5b506004361061013e576000357c0100000000000000000000000000000000000000000000000000000000900480636352211e116100ca578063bd11f69d1161008e578063bd11f69d14610349578063c87b56dd14610379578063d504ea1d146103a9578063d85d3d27146103c7578063e985e9c5146103e35761013e565b80636352211e1461029357806370a08231146102c357806395d89b41146102f3578063a22cb46514610311578063b88d4fde1461032d5761013e565b806318160ddd1161011157806318160ddd146101dd57806323b872dd146101fb5780632f745c591461021757806342842e0e146102475780634f6ccce7146102635761013e565b806301ffc9a71461014357806306fdde0314610173578063081812fc14610191578063095ea7b3146101c1575b600080fd5b61015d6004803603810190610158919061241a565b610413565b60405161016a9190612d1a565b60405180910390f35b61017b61048d565b6040516101889190612d35565b60405180910390f35b6101ab60048036038101906101a691906124ad565b61051f565b6040516101b89190612c91565b60405180910390f35b6101db60048036038101906101d691906123de565b6105a4565b005b6101e56106bc565b6040516101f29190612f57565b60405180910390f35b610215600480360381019061021091906122d8565b6106c9565b005b610231600480360381019061022c91906123de565b610729565b60405161023e9190612f57565b60405180910390f35b610261600480360381019061025c91906122d8565b6107ce565b005b61027d600480360381019061027891906124ad565b6107ee565b60405161028a9190612f57565b60405180910390f35b6102ad60048036038101906102a891906124ad565b610885565b6040516102ba9190612c91565b60405180910390f35b6102dd60048036038101906102d89190612273565b610937565b6040516102ea9190612f57565b60405180910390f35b6102fb6109ef565b6040516103089190612d35565b60405180910390f35b61032b600480360381019061032691906123a2565b610a81565b005b61034760048036038101906103429190612327565b610c02565b005b610363600480360381019061035e91906124ad565b610c64565b6040516103709190612d35565b60405180910390f35b610393600480360381019061038e91906124ad565b610d10565b6040516103a09190612d35565b60405180910390f35b6103b1610db7565b6040516103be9190612cf8565b60405180910390f35b6103e160048036038101906103dc919061246c565b610e90565b005b6103fd60048036038101906103f8919061229c565b610f57565b60405161040a9190612d1a565b60405180910390f35b60007f780e9d63000000000000000000000000000000000000000000000000000000007bffffffffffffffffffffffffffffffffffffffffffffffffffffffff1916827bffffffffffffffffffffffffffffffffffffffffffffffffffffffff19161480610486575061048582610feb565b5b9050919050565b60606000805461049c90613201565b80601f01602080910402602001604051908101604052809291908181526020018280546104c890613201565b80156105155780601f106104ea57610100808354040283529160200191610515565b820191906000526020600020905b8154815290600101906020018083116104f857829003601f168201915b5050505050905090565b600061052a826110cd565b610569576040517f08c379a000000000000000000000000000000000000000000000000000000000815260040161056090612e97565b60405180910390fd5b6004600083815260200190815260200160002060009054906101000a900473ffffffffffffffffffffffffffffffffffffffff169050919050565b60006105af82610885565b90508073ffffffffffffffffffffffffffffffffffffffff168373ffffffffffffffffffffffffffffffffffffffff161415610620576040517f08c379a000000000000000000000000000000000000000000000000000000000815260040161061790612ef7565b60405180910390fd5b8073ffffffffffffffffffffffffffffffffffffffff1661063f611139565b73ffffffffffffffffffffffffffffffffffffffff16148061066e575061066d81610668611139565b610f57565b5b6106ad576040517f08c379a00000000000000000000000000000000000000000000000000000000081526004016106a490612e17565b60405180910390fd5b6106b78383611141565b505050565b6000600880549050905090565b6106da6106d4611139565b826111fa565b610719576040517f08c379a000000000000000000000000000000000000000000000000000000000815260040161071090612f17565b60405180910390fd5b6107248383836112d8565b505050565b600061073483610937565b8210610775576040517f08c379a000000000000000000000000000000000000000000000000000000000815260040161076c90612d57565b60405180910390fd5b600660008473ffffffffffffffffffffffffffffffffffffffff1673ffffffffffffffffffffffffffffffffffffffff168152602001908152602001600020600083815260200190815260200160002054905092915050565b6107e983838360405180602001604052806000815250610c02565b505050565b60006107f86106bc565b8210610839576040517f08c379a000000000000000000000000000000000000000000000000000000000815260040161083090612f37565b60405180910390fd5b60088281548110610873577f4e487b7100000000000000000000000000000000000000000000000000000000600052603260045260246000fd5b90600052602060002001549050919050565b6000806002600084815260200190815260200160002060009054906101000a900473ffffffffffffffffffffffffffffffffffffffff169050600073ffffffffffffffffffffffffffffffffffffffff168173ffffffffffffffffffffffffffffffffffffffff16141561092e576040517f08c379a000000000000000000000000000000000000000000000000000000000815260040161092590612e57565b60405180910390fd5b80915050919050565b60008073ffffffffffffffffffffffffffffffffffffffff168273ffffffffffffffffffffffffffffffffffffffff1614156109a8576040517f08c379a000000000000000000000000000000000000000000000000000000000815260040161099f90612e37565b60405180910390fd5b600360008373ffffffffffffffffffffffffffffffffffffffff1673ffffffffffffffffffffffffffffffffffffffff168152602001908152602001600020549050919050565b6060600180546109fe90613201565b80601f0160208091040260200160405190810160405280929190818152602001828054610a2a90613201565b8015610a775780601f10610a4c57610100808354040283529160200191610a77565b820191906000526020600020905b815481529060010190602001808311610a5a57829003601f168201915b5050505050905090565b610a89611139565b73ffffffffffffffffffffffffffffffffffffffff168273ffffffffffffffffffffffffffffffffffffffff161415610af7576040517f08c379a0000000000000000000000000000000000000000000000000000000008152600401610aee90612dd7565b60405180910390fd5b8060056000610b04611139565b73ffffffffffffffffffffffffffffffffffffffff1673ffffffffffffffffffffffffffffffffffffffff16815260200190815260200160002060008473ffffffffffffffffffffffffffffffffffffffff1673ffffffffffffffffffffffffffffffffffffffff16815260200190815260200160002060006101000a81548160ff0219169083151502179055508173ffffffffffffffffffffffffffffffffffffffff16610bb1611139565b73ffffffffffffffffffffffffffffffffffffffff167f17307eab39ab6107e8899845ad3d59bd9653f200f220920489ca2b5937696c3183604051610bf69190612d1a565b60405180910390a35050565b610c13610c0d611139565b836111fa565b610c52576040517f08c379a0000000000000000000000000000000000000000000000000000000008152600401610c4990612f17565b60405180910390fd5b610c5e84848484611534565b50505050565b600a8181548110610c7457600080fd5b906000526020600020016000915090508054610c8f90613201565b80601f0160208091040260200160405190810160405280929190818152602001828054610cbb90613201565b8015610d085780601f10610cdd57610100808354040283529160200191610d08565b820191906000526020600020905b815481529060010190602001808311610ceb57829003601f168201915b505050505081565b6060610d1b826110cd565b610d5a576040517f08c379a0000000000000000000000000000000000000000000000000000000008152600401610d5190612ed7565b60405180910390fd5b6000610d64611590565b90506000815111610d845760405180602001604052806000815250610daf565b80610d8e846115a7565b604051602001610d9f929190612c6d565b6040516020818303038152906040525b915050919050565b6060600a805480602002602001604051908101604052809291908181526020016000905b82821015610e87578382906000526020600020018054610dfa90613201565b80601f0160208091040260200160405190810160405280929190818152602001828054610e2690613201565b8015610e735780601f10610e4857610100808354040283529160200191610e73565b820191906000526020600020905b815481529060010190602001808311610e5657829003601f168201915b505050505081526020019060010190610ddb565b50505050905090565b60001515600b82604051610ea49190612c56565b908152602001604051809103902060009054906101000a900460ff16151514610ecc57600080fd5b600a81908060018154018082558091505060019003906000526020600020016000909190919091509080519060200190610f07929190612097565b506000600a805490509050610f1c3382611773565b6001600b83604051610f2e9190612c56565b908152602001604051809103902060006101000a81548160ff0219169083151502179055505050565b6000600560008473ffffffffffffffffffffffffffffffffffffffff1673ffffffffffffffffffffffffffffffffffffffff16815260200190815260200160002060008373ffffffffffffffffffffffffffffffffffffffff1673ffffffffffffffffffffffffffffffffffffffff16815260200190815260200160002060009054906101000a900460ff16905092915050565b60007f80ac58cd000000000000000000000000000000000000000000000000000000007bffffffffffffffffffffffffffffffffffffffffffffffffffffffff1916827bffffffffffffffffffffffffffffffffffffffffffffffffffffffff191614806110b657507f5b5e139f000000000000000000000000000000000000000000000000000000007bffffffffffffffffffffffffffffffffffffffffffffffffffffffff1916827bffffffffffffffffffffffffffffffffffffffffffffffffffffffff1916145b806110c657506110c582611791565b5b9050919050565b60008073ffffffffffffffffffffffffffffffffffffffff166002600084815260200190815260200160002060009054906101000a900473ffffffffffffffffffffffffffffffffffffffff1673ffffffffffffffffffffffffffffffffffffffff1614159050919050565b600033905090565b816004600083815260200190815260200160002060006101000a81548173ffffffffffffffffffffffffffffffffffffffff021916908373ffffffffffffffffffffffffffffffffffffffff160217905550808273ffffffffffffffffffffffffffffffffffffffff166111b483610885565b73ffffffffffffffffffffffffffffffffffffffff167f8c5be1e5ebec7d5bd14f71427d1e84f3dd0314c0f7b2291e5b200ac8c7c3b92560405160405180910390a45050565b6000611205826110cd565b611244576040517f08c379a000000000000000000000000000000000000000000000000000000000815260040161123b90612df7565b60405180910390fd5b600061124f83610885565b90508073ffffffffffffffffffffffffffffffffffffffff168473ffffffffffffffffffffffffffffffffffffffff1614806112be57508373ffffffffffffffffffffffffffffffffffffffff166112a68461051f565b73ffffffffffffffffffffffffffffffffffffffff16145b806112cf57506112ce8185610f57565b5b91505092915050565b8273ffffffffffffffffffffffffffffffffffffffff166112f882610885565b73ffffffffffffffffffffffffffffffffffffffff161461134e576040517f08c379a000000000000000000000000000000000000000000000000000000000815260040161134590612eb7565b60405180910390fd5b600073ffffffffffffffffffffffffffffffffffffffff168273ffffffffffffffffffffffffffffffffffffffff1614156113be576040517f08c379a00000000000000000000000000000000000000000000000000000000081526004016113b590612db7565b60405180910390fd5b6113c98383836117fb565b6113d4600082611141565b6001600360008573ffffffffffffffffffffffffffffffffffffffff1673ffffffffffffffffffffffffffffffffffffffff16815260200190815260200160002060008282546114249190613117565b925050819055506001600360008473ffffffffffffffffffffffffffffffffffffffff1673ffffffffffffffffffffffffffffffffffffffff168152602001908152602001600020600082825461147b9190613090565b92505081905550816002600083815260200190815260200160002060006101000a81548173ffffffffffffffffffffffffffffffffffffffff021916908373ffffffffffffffffffffffffffffffffffffffff160217905550808273ffffffffffffffffffffffffffffffffffffffff168473ffffffffffffffffffffffffffffffffffffffff167fddf252ad1be2c89b69c2b068fc378daa952ba7f163c4a11628f55a4df523b3ef60405160405180910390a4505050565b61153f8484846112d8565b61154b8484848461190f565b61158a576040517f08c379a000000000000000000000000000000000000000000000000000000000815260040161158190612d77565b60405180910390fd5b50505050565b606060405180602001604052806000815250905090565b606060008214156115ef576040518060400160405280600181526020017f3000000000000000000000000000000000000000000000000000000000000000815250905061176e565b600082905060005b6000821461162157808061160a90613233565b915050600a8261161a91906130e6565b91506115f7565b60008167ffffffffffffffff811115611663577f4e487b7100000000000000000000000000000000000000000000000000000000600052604160045260246000fd5b6040519080825280601f01601f1916602001820160405280156116955781602001600182028036833780820191505090505b5090505b60008514611767576001826116ae9190613117565b9150600a856116bd919061327c565b60306116c99190613090565b7f010000000000000000000000000000000000000000000000000000000000000002818381518110611724577f4e487b7100000000000000000000000000000000000000000000000000000000600052603260045260246000fd5b60200101907effffffffffffffffffffffffffffffffffffffffffffffffffffffffffffff1916908160001a905350600a8561176091906130e6565b9450611699565b8093505050505b919050565b61178d828260405180602001604052806000815250611ade565b5050565b60007f01ffc9a7000000000000000000000000000000000000000000000000000000007bffffffffffffffffffffffffffffffffffffffffffffffffffffffff1916827bffffffffffffffffffffffffffffffffffffffffffffffffffffffff1916149050919050565b611806838383611b39565b600073ffffffffffffffffffffffffffffffffffffffff168373ffffffffffffffffffffffffffffffffffffffff1614156118495761184481611b3e565b611888565b8173ffffffffffffffffffffffffffffffffffffffff168373ffffffffffffffffffffffffffffffffffffffff1614611887576118868382611b87565b5b5b600073ffffffffffffffffffffffffffffffffffffffff168273ffffffffffffffffffffffffffffffffffffffff1614156118cb576118c681611cf4565b61190a565b8273ffffffffffffffffffffffffffffffffffffffff168273ffffffffffffffffffffffffffffffffffffffff1614611909576119088282611e37565b5b5b505050565b60006119308473ffffffffffffffffffffffffffffffffffffffff16611eb6565b15611ad1578373ffffffffffffffffffffffffffffffffffffffff1663150b7a02611959611139565b8786866040518563ffffffff167c01000000000000000000000000000000000000000000000000000000000281526004016119979493929190612cac565b602060405180830381600087803b1580156119b157600080fd5b505af19250505080156119e257506040513d601f19601f820116820180604052508101906119df9190612443565b60015b611a65573d8060008114611a12576040519150601f19603f3d011682016040523d82523d6000602084013e611a17565b606091505b50600081511415611a5d576040517f08c379a0000000000000000000000000000000000000000000000000000000008152600401611a5490612d77565b60405180910390fd5b805181602001fd5b63150b7a027c0100000000000000000000000000000000000000000000000000000000027bffffffffffffffffffffffffffffffffffffffffffffffffffffffff1916817bffffffffffffffffffffffffffffffffffffffffffffffffffffffff191614915050611ad6565b600190505b949350505050565b611ae88383611ec9565b611af5600084848461190f565b611b34576040517f08c379a0000000000000000000000000000000000000000000000000000000008152600401611b2b90612d77565b60405180910390fd5b505050565b505050565b6008805490506009600083815260200190815260200160002081905550600881908060018154018082558091505060019003906000526020600020016000909190919091505550565b60006001611b9484610937565b611b9e9190613117565b9050600060076000848152602001908152602001600020549050818114611c83576000600660008673ffffffffffffffffffffffffffffffffffffffff1673ffffffffffffffffffffffffffffffffffffffff168152602001908152602001600020600084815260200190815260200160002054905080600660008773ffffffffffffffffffffffffffffffffffffffff1673ffffffffffffffffffffffffffffffffffffffff168152602001908152602001600020600084815260200190815260200160002081905550816007600083815260200190815260200160002081905550505b6007600084815260200190815260200160002060009055600660008573ffffffffffffffffffffffffffffffffffffffff1673ffffffffffffffffffffffffffffffffffffffff16815260200190815260200160002060008381526020019081526020016000206000905550505050565b60006001600880549050611d089190613117565b9050600060096000848152602001908152602001600020549050600060088381548110611d5e577f4e487b7100000000000000000000000000000000000000000000000000000000600052603260045260246000fd5b906000526020600020015490508060088381548110611da6577f4e487b7100000000000000000000000000000000000000000000000000000000600052603260045260246000fd5b906000526020600020018190555081600960008381526020019081526020016000208190555060096000858152602001908152602001600020600090556008805480611e1b577f4e487b7100000000000000000000000000000000000000000000000000000000600052603160045260246000fd5b6001900381819060005260206000200160009055905550505050565b6000611e4283610937565b905081600660008573ffffffffffffffffffffffffffffffffffffffff1673ffffffffffffffffffffffffffffffffffffffff168152602001908152602001600020600083815260200190815260200160002081905550806007600084815260200190815260200160002081905550505050565b600080823b905060008111915050919050565b600073ffffffffffffffffffffffffffffffffffffffff168273ffffffffffffffffffffffffffffffffffffffff161415611f39576040517f08c379a0000000000000000000000000000000000000000000000000000000008152600401611f3090612e77565b60405180910390fd5b611f42816110cd565b15611f82576040517f08c379a0000000000000000000000000000000000000000000000000000000008152600401611f7990612d97565b60405180910390fd5b611f8e600083836117fb565b6001600360008473ffffffffffffffffffffffffffffffffffffffff1673ffffffffffffffffffffffffffffffffffffffff1681526020019081526020016000206000828254611fde9190613090565b92505081905550816002600083815260200190815260200160002060006101000a81548173ffffffffffffffffffffffffffffffffffffffff021916908373ffffffffffffffffffffffffffffffffffffffff160217905550808273ffffffffffffffffffffffffffffffffffffffff16600073ffffffffffffffffffffffffffffffffffffffff167fddf252ad1be2c89b69c2b068fc378daa952ba7f163c4a11628f55a4df523b3ef60405160405180910390a45050565b8280546120a390613201565b90600052602060002090601f0160209004810192826120c5576000855561210c565b82601f106120de57805160ff191683800117855561210c565b8280016001018555821561210c579182015b8281111561210b5782518255916020019190600101906120f0565b5b509050612119919061211d565b5090565b5b8082111561213657600081600090555060010161211e565b5090565b600061214d61214884612fa3565b612f72565b90508281526020810184848401111561216557600080fd5b6121708482856131bf565b509392505050565b600061218b61218684612fd3565b612f72565b9050828152602081018484840111156121a357600080fd5b6121ae8482856131bf565b509392505050565b6000813590506121c58161337a565b92915050565b6000813590506121da81613391565b92915050565b6000813590506121ef816133a8565b92915050565b600081519050612204816133a8565b92915050565b600082601f83011261221b57600080fd5b813561222b84826020860161213a565b91505092915050565b600082601f83011261224557600080fd5b8135612255848260208601612178565b91505092915050565b60008135905061226d816133bf565b92915050565b60006020828403121561228557600080fd5b6000612293848285016121b6565b91505092915050565b600080604083850312156122af57600080fd5b60006122bd858286016121b6565b92505060206122ce858286016121b6565b9150509250929050565b6000806000606084860312156122ed57600080fd5b60006122fb868287016121b6565b935050602061230c868287016121b6565b925050604061231d8682870161225e565b9150509250925092565b6000806000806080858703121561233d57600080fd5b600061234b878288016121b6565b945050602061235c878288016121b6565b935050604061236d8782880161225e565b925050606085013567ffffffffffffffff81111561238a57600080fd5b6123968782880161220a565b91505092959194509250565b600080604083850312156123b557600080fd5b60006123c3858286016121b6565b92505060206123d4858286016121cb565b9150509250929050565b600080604083850312156123f157600080fd5b60006123ff858286016121b6565b92505060206124108582860161225e565b9150509250929050565b60006020828403121561242c57600080fd5b600061243a848285016121e0565b91505092915050565b60006020828403121561245557600080fd5b6000612463848285016121f5565b91505092915050565b60006020828403121561247e57600080fd5b600082013567ffffffffffffffff81111561249857600080fd5b6124a484828501612234565b91505092915050565b6000602082840312156124bf57600080fd5b60006124cd8482850161225e565b91505092915050565b60006124e283836125b6565b905092915050565b6124f38161314b565b82525050565b600061250482613013565b61250e8185613041565b93508360208202850161252085613003565b8060005b8581101561255c578484038952815161253d85826124d6565b945061254883613034565b925060208a01995050600181019050612524565b50829750879550505050505092915050565b6125778161315d565b82525050565b60006125888261301e565b6125928185613052565b93506125a28185602086016131ce565b6125ab81613369565b840191505092915050565b60006125c182613029565b6125cb8185613063565b93506125db8185602086016131ce565b6125e481613369565b840191505092915050565b60006125fa82613029565b6126048185613074565b93506126148185602086016131ce565b61261d81613369565b840191505092915050565b600061263382613029565b61263d8185613085565b935061264d8185602086016131ce565b80840191505092915050565b6000612666602b83613074565b91507f455243373231456e756d657261626c653a206f776e657220696e646578206f7560008301527f74206f6620626f756e64730000000000000000000000000000000000000000006020830152604082019050919050565b60006126cc603283613074565b91507f4552433732313a207472616e7366657220746f206e6f6e20455243373231526560008301527f63656976657220696d706c656d656e74657200000000000000000000000000006020830152604082019050919050565b6000612732601c83613074565b91507f4552433732313a20746f6b656e20616c7265616479206d696e746564000000006000830152602082019050919050565b6000612772602483613074565b91507f4552433732313a207472616e7366657220746f20746865207a65726f2061646460008301527f72657373000000000000000000000000000000000000000000000000000000006020830152604082019050919050565b60006127d8601983613074565b91507f4552433732313a20617070726f766520746f2063616c6c6572000000000000006000830152602082019050919050565b6000612818602c83613074565b91507f4552433732313a206f70657261746f7220717565727920666f72206e6f6e657860008301527f697374656e7420746f6b656e00000000000000000000000000000000000000006020830152604082019050919050565b600061287e603883613074565b91507f4552433732313a20617070726f76652063616c6c6572206973206e6f74206f7760008301527f6e6572206e6f7220617070726f76656420666f7220616c6c00000000000000006020830152604082019050919050565b60006128e4602a83613074565b91507f4552433732313a2062616c616e636520717565727920666f7220746865207a6560008301527f726f2061646472657373000000000000000000000000000000000000000000006020830152604082019050919050565b600061294a602983613074565b91507f4552433732313a206f776e657220717565727920666f72206e6f6e657869737460008301527f656e7420746f6b656e00000000000000000000000000000000000000000000006020830152604082019050919050565b60006129b0602083613074565b91507f4552433732313a206d696e7420746f20746865207a65726f20616464726573736000830152602082019050919050565b60006129f0602c83613074565b91507f4552433732313a20617070726f76656420717565727920666f72206e6f6e657860008301527f697374656e7420746f6b656e00000000000000000000000000000000000000006020830152604082019050919050565b6000612a56602983613074565b91507f4552433732313a207472616e73666572206f6620746f6b656e2074686174206960008301527f73206e6f74206f776e00000000000000000000000000000000000000000000006020830152604082019050919050565b6000612abc602f83613074565b91507f4552433732314d657461646174613a2055524920717565727920666f72206e6f60008301527f6e6578697374656e7420746f6b656e00000000000000000000000000000000006020830152604082019050919050565b6000612b22602183613074565b91507f4552433732313a20617070726f76616c20746f2063757272656e74206f776e6560008301527f72000000000000000000000000000000000000000000000000000000000000006020830152604082019050919050565b6000612b88603183613074565b91507f4552433732313a207472616e736665722063616c6c6572206973206e6f74206f60008301527f776e6572206e6f7220617070726f7665640000000000000000000000000000006020830152604082019050919050565b6000612bee602c83613074565b91507f455243373231456e756d657261626c653a20676c6f62616c20696e646578206f60008301527f7574206f6620626f756e647300000000000000000000000000000000000000006020830152604082019050919050565b612c50816131b5565b82525050565b6000612c628284612628565b915081905092915050565b6000612c798285612628565b9150612c858284612628565b91508190509392505050565b6000602082019050612ca660008301846124ea565b92915050565b6000608082019050612cc160008301876124ea565b612cce60208301866124ea565b612cdb6040830185612c47565b8181036060830152612ced818461257d565b905095945050505050565b60006020820190508181036000830152612d1281846124f9565b905092915050565b6000602082019050612d2f600083018461256e565b92915050565b60006020820190508181036000830152612d4f81846125ef565b905092915050565b60006020820190508181036000830152612d7081612659565b9050919050565b60006020820190508181036000830152612d90816126bf565b9050919050565b60006020820190508181036000830152612db081612725565b9050919050565b60006020820190508181036000830152612dd081612765565b9050919050565b60006020820190508181036000830152612df0816127cb565b9050919050565b60006020820190508181036000830152612e108161280b565b9050919050565b60006020820190508181036000830152612e3081612871565b9050919050565b60006020820190508181036000830152612e50816128d7565b9050919050565b60006020820190508181036000830152612e708161293d565b9050919050565b60006020820190508181036000830152612e90816129a3565b9050919050565b60006020820190508181036000830152612eb0816129e3565b9050919050565b60006020820190508181036000830152612ed081612a49565b9050919050565b60006020820190508181036000830152612ef081612aaf565b9050919050565b60006020820190508181036000830152612f1081612b15565b9050919050565b60006020820190508181036000830152612f3081612b7b565b9050919050565b60006020820190508181036000830152612f5081612be1565b9050919050565b6000602082019050612f6c6000830184612c47565b92915050565b6000604051905081810181811067ffffffffffffffff82111715612f9957612f9861333a565b5b8060405250919050565b600067ffffffffffffffff821115612fbe57612fbd61333a565b5b601f19601f8301169050602081019050919050565b600067ffffffffffffffff821115612fee57612fed61333a565b5b601f19601f8301169050602081019050919050565b6000819050602082019050919050565b600081519050919050565b600081519050919050565b600081519050919050565b6000602082019050919050565b600082825260208201905092915050565b600082825260208201905092915050565b600082825260208201905092915050565b600082825260208201905092915050565b600081905092915050565b600061309b826131b5565b91506130a6836131b5565b9250827fffffffffffffffffffffffffffffffffffffffffffffffffffffffffffffffff038211156130db576130da6132ad565b5b828201905092915050565b60006130f1826131b5565b91506130fc836131b5565b92508261310c5761310b6132dc565b5b828204905092915050565b6000613122826131b5565b915061312d836131b5565b9250828210156131405761313f6132ad565b5b828203905092915050565b600061315682613195565b9050919050565b60008115159050919050565b60007fffffffff0000000000000000000000000000000000000000000000000000000082169050919050565b600073ffffffffffffffffffffffffffffffffffffffff82169050919050565b6000819050919050565b82818337600083830152505050565b60005b838110156131ec5780820151818401526020810190506131d1565b838111156131fb576000848401525b50505050565b6000600282049050600182168061321957607f821691505b6020821081141561322d5761322c61330b565b5b50919050565b600061323e826131b5565b91507fffffffffffffffffffffffffffffffffffffffffffffffffffffffffffffffff821415613271576132706132ad565b5b600182019050919050565b6000613287826131b5565b9150613292836131b5565b9250826132a2576132a16132dc565b5b828206905092915050565b7f4e487b7100000000000000000000000000000000000000000000000000000000600052601160045260246000fd5b7f4e487b7100000000000000000000000000000000000000000000000000000000600052601260045260246000fd5b7f4e487b7100000000000000000000000000000000000000000000000000000000600052602260045260246000fd5b7f4e487b7100000000000000000000000000000000000000000000000000000000600052604160045260246000fd5b6000601f19601f8301169050919050565b6133838161314b565b811461338e57600080fd5b50565b61339a8161315d565b81146133a557600080fd5b50565b6133b181613169565b81146133bc57600080fd5b50565b6133c8816131b5565b81146133d357600080fd5b5056fea26469706673582212202fb874d7768b1ee6391d35f3a71e359370a6bcb238ac066a18df87928313c9c664736f6c63430008000033",
  "immutableReferences": {},
  "source": "// SPDX-License-Identifier: MIT\npragma solidity ^0.8.0;\n\nimport \"@openzeppelin/contracts/token/ERC721/ERC721.sol\";\nimport \"@openzeppelin/contracts/token/ERC721/extensions/ERC721Enumerable.sol\";\n\ncontract FiveToken is ERC721Enumerable{\n    constructor() ERC721(\"FiveToken\", \"FTK\") public {}\n\nstring [] public colors;\nmapping(string => bool) _colorExists;\n\nfunction mint(string memory _color) public{\nrequire(_colorExists[_color] == false);\ncolors.push(_color);\nuint _id = colors.length;\n\n_safeMint(msg.sender, _id);\n_colorExists[_color] = true;\n\n}\n\nfunction getArray() public view returns(string [] memory){\n    return colors;\n}\n// function getToken(uint _id)public view returns(string memory){\n\n\n// }\n\n\n}\n\n",
  "sourcePath": "/Users/Oscar/crypto_coin/src/contracts/fivetoken.sol",
  "compiler": {
    "name": "solc",
    "version": "0.8.0+commit.c7dfd78e.Emscripten.clang"
  },
  "schemaVersion": "3.3.4",
  "updatedAt": "2021-04-23T11:20:30.759Z",
  "networkType": "ethereum",
  "devdoc": {
    "kind": "dev",
    "methods": {
      "approve(address,uint256)": {
        "details": "See {IERC721-approve}."
      },
      "balanceOf(address)": {
        "details": "See {IERC721-balanceOf}."
      },
      "getApproved(uint256)": {
        "details": "See {IERC721-getApproved}."
      },
      "isApprovedForAll(address,address)": {
        "details": "See {IERC721-isApprovedForAll}."
      },
      "name()": {
        "details": "See {IERC721Metadata-name}."
      },
      "ownerOf(uint256)": {
        "details": "See {IERC721-ownerOf}."
      },
      "safeTransferFrom(address,address,uint256)": {
        "details": "See {IERC721-safeTransferFrom}."
      },
      "safeTransferFrom(address,address,uint256,bytes)": {
        "details": "See {IERC721-safeTransferFrom}."
      },
      "setApprovalForAll(address,bool)": {
        "details": "See {IERC721-setApprovalForAll}."
      },
      "supportsInterface(bytes4)": {
        "details": "See {IERC165-supportsInterface}."
      },
      "symbol()": {
        "details": "See {IERC721Metadata-symbol}."
      },
      "tokenByIndex(uint256)": {
        "details": "See {IERC721Enumerable-tokenByIndex}."
      },
      "tokenOfOwnerByIndex(address,uint256)": {
        "details": "See {IERC721Enumerable-tokenOfOwnerByIndex}."
      },
      "tokenURI(uint256)": {
        "details": "See {IERC721Metadata-tokenURI}."
      },
      "totalSupply()": {
        "details": "See {IERC721Enumerable-totalSupply}."
      },
      "transferFrom(address,address,uint256)": {
        "details": "See {IERC721-transferFrom}."
      }
    },
    "version": 1
  },
  "userdoc": {
    "kind": "user",
    "methods": {},
    "version": 1
  }
}